{
  "contractName": "PgaDfs",
  "abi": [
    {
      "constant": true,
      "inputs": [],
      "name": "contractAdmin",
      "outputs": [
        {
          "name": "",
          "type": "address"
        }
      ],
      "payable": false,
      "stateMutability": "view",
      "type": "function"
    },
    {
      "inputs": [],
      "payable": true,
      "stateMutability": "payable",
      "type": "constructor"
    },
    {
      "anonymous": false,
      "inputs": [
        {
          "indexed": false,
          "name": "description",
          "type": "string"
        }
      ],
      "name": "newOraclizeQuery",
      "type": "event"
    },
    {
      "constant": false,
      "inputs": [],
      "name": "deposit",
      "outputs": [],
      "payable": true,
      "stateMutability": "payable",
      "type": "function"
    },
    {
      "constant": false,
      "inputs": [],
      "name": "withdraw",
      "outputs": [],
      "payable": false,
      "stateMutability": "nonpayable",
      "type": "function"
    },
    {
      "constant": true,
      "inputs": [
        {
          "name": "proposedGolferIds",
          "type": "bytes6[8]"
        }
      ],
      "name": "isValidLineup",
      "outputs": [
        {
          "name": "",
          "type": "bool"
        }
      ],
      "payable": false,
      "stateMutability": "view",
      "type": "function"
    },
    {
      "constant": false,
      "inputs": [
        {
          "name": "contestId",
          "type": "bytes32"
        },
        {
          "name": "proposedGolferIds",
          "type": "bytes6[8]"
        },
        {
          "name": "lineupAddress",
          "type": "address"
        }
      ],
      "name": "setAlreadyValidatedLineup",
      "outputs": [],
      "payable": false,
      "stateMutability": "nonpayable",
      "type": "function"
    },
    {
      "constant": true,
      "inputs": [
        {
          "name": "contestId",
          "type": "bytes32"
        },
        {
          "name": "proposedNewOwner",
          "type": "address"
        }
      ],
      "name": "isNewContestValid",
      "outputs": [
        {
          "name": "",
          "type": "bool"
        }
      ],
      "payable": false,
      "stateMutability": "view",
      "type": "function"
    },
    {
      "constant": true,
      "inputs": [
        {
          "name": "eth",
          "type": "uint256"
        }
      ],
      "name": "calculateRake",
      "outputs": [
        {
          "name": "",
          "type": "uint256"
        }
      ],
      "payable": false,
      "stateMutability": "view",
      "type": "function"
    },
    {
      "constant": false,
      "inputs": [
        {
          "name": "contestId",
          "type": "bytes32"
        },
        {
          "name": "proposedGolferIds",
          "type": "bytes6[8]"
        }
      ],
      "name": "createContest",
      "outputs": [],
      "payable": true,
      "stateMutability": "payable",
      "type": "function"
    },
    {
      "constant": false,
      "inputs": [
        {
          "name": "contestId",
          "type": "bytes32"
        },
        {
          "name": "proposedGolferIds",
          "type": "bytes6[8]"
        }
      ],
      "name": "enterContest",
      "outputs": [],
      "payable": true,
      "stateMutability": "payable",
      "type": "function"
    },
    {
      "constant": false,
      "inputs": [
        {
          "name": "contestId",
          "type": "bytes32"
        },
        {
          "name": "proposedGolferIds",
          "type": "bytes6[8]"
        }
      ],
      "name": "editLineupInContest",
      "outputs": [],
      "payable": false,
      "stateMutability": "nonpayable",
      "type": "function"
    },
    {
      "constant": false,
      "inputs": [
        {
          "name": "contestId",
          "type": "bytes32"
        },
        {
          "name": "msgSender",
          "type": "address"
        },
        {
          "name": "ethEntered",
          "type": "uint256"
        }
      ],
      "name": "payEntryFeeToContest",
      "outputs": [],
      "payable": true,
      "stateMutability": "payable",
      "type": "function"
    },
    {
      "constant": false,
      "inputs": [
        {
          "name": "source",
          "type": "string"
        }
      ],
      "name": "toBytes6",
      "outputs": [
        {
          "name": "result",
          "type": "bytes6"
        }
      ],
      "payable": false,
      "stateMutability": "nonpayable",
      "type": "function"
    },
    {
      "constant": false,
      "inputs": [
        {
          "name": "compressedSalaries",
          "type": "string"
        }
      ],
      "name": "setSalaries",
      "outputs": [],
      "payable": false,
      "stateMutability": "nonpayable",
      "type": "function"
    },
    {
      "constant": false,
      "inputs": [
        {
          "name": "compressedScores",
          "type": "string"
        }
      ],
      "name": "setScores",
      "outputs": [],
      "payable": false,
      "stateMutability": "nonpayable",
      "type": "function"
    },
    {
      "constant": false,
      "inputs": [
        {
          "name": "contestId",
          "type": "bytes32"
        }
      ],
      "name": "setSingleContestPayouts",
      "outputs": [],
      "payable": false,
      "stateMutability": "nonpayable",
      "type": "function"
    },
    {
      "constant": false,
      "inputs": [
        {
          "name": "contestId",
          "type": "bytes32"
        }
      ],
      "name": "withdrawBalanceFromContest",
      "outputs": [],
      "payable": false,
      "stateMutability": "nonpayable",
      "type": "function"
    },
    {
      "constant": false,
      "inputs": [
        {
          "name": "contestId",
          "type": "bytes32"
        }
      ],
      "name": "payOutContest",
      "outputs": [],
      "payable": false,
      "stateMutability": "nonpayable",
      "type": "function"
    },
    {
      "constant": false,
      "inputs": [
        {
          "name": "compressedScoresUrl_",
          "type": "string"
        }
      ],
      "name": "setScoresUrlAndGetResultsOnChain",
      "outputs": [],
      "payable": false,
      "stateMutability": "nonpayable",
      "type": "function"
    },
    {
      "constant": false,
      "inputs": [
        {
          "name": "compressedSalariesUrl_",
          "type": "string"
        }
      ],
      "name": "setSalariesUrlAndGetSalariesOnChain",
      "outputs": [],
      "payable": false,
      "stateMutability": "nonpayable",
      "type": "function"
    },
    {
      "constant": false,
      "inputs": [
        {
          "name": "compressedScoresUrl_",
          "type": "string"
        }
      ],
      "name": "setCompressedScoresUrl",
      "outputs": [],
      "payable": false,
      "stateMutability": "nonpayable",
      "type": "function"
    },
    {
      "constant": false,
      "inputs": [
        {
          "name": "compressedSalariesUrl_",
          "type": "string"
        }
      ],
      "name": "setcompressedSalariesUrl",
      "outputs": [],
      "payable": false,
      "stateMutability": "nonpayable",
      "type": "function"
    },
    {
      "constant": false,
      "inputs": [],
      "name": "getSalariesOnChain",
      "outputs": [],
      "payable": true,
      "stateMutability": "payable",
      "type": "function"
    },
    {
      "constant": false,
      "inputs": [],
      "name": "getScoresOnChain",
      "outputs": [],
      "payable": true,
      "stateMutability": "payable",
      "type": "function"
    },
    {
      "constant": false,
      "inputs": [
        {
          "name": "queryUrl",
          "type": "string"
        },
        {
          "name": "callbackAction",
          "type": "string"
        }
      ],
      "name": "innerOraclizeQuery",
      "outputs": [],
      "payable": true,
      "stateMutability": "payable",
      "type": "function"
    },
    {
      "constant": false,
      "inputs": [
        {
          "name": "myid",
          "type": "bytes32"
        },
        {
          "name": "result",
          "type": "string"
        }
      ],
      "name": "__callback",
      "outputs": [],
      "payable": false,
      "stateMutability": "nonpayable",
      "type": "function"
    },
    {
      "constant": false,
      "inputs": [
        {
          "name": "myid",
          "type": "bytes32"
        },
        {
          "name": "result",
          "type": "string"
        },
        {
          "name": "proof",
          "type": "bytes"
        }
      ],
      "name": "__callback",
      "outputs": [],
      "payable": false,
      "stateMutability": "nonpayable",
      "type": "function"
    },
    {
      "constant": false,
      "inputs": [
        {
          "name": "contestId",
          "type": "bytes32"
        }
      ],
      "name": "deleteContest",
      "outputs": [],
      "payable": false,
      "stateMutability": "nonpayable",
      "type": "function"
    },
    {
      "constant": true,
      "inputs": [],
      "name": "getLiveContestIds",
      "outputs": [
        {
          "name": "",
          "type": "bytes32[]"
        }
      ],
      "payable": false,
      "stateMutability": "view",
      "type": "function"
    },
    {
      "constant": true,
      "inputs": [
        {
          "name": "contestId",
          "type": "bytes32"
        }
      ],
      "name": "getContestById",
      "outputs": [
        {
          "name": "",
          "type": "bytes32"
        },
        {
          "name": "",
          "type": "uint256"
        },
        {
          "name": "",
          "type": "uint256"
        },
        {
          "name": "",
          "type": "address"
        },
        {
          "name": "",
          "type": "uint256"
        }
      ],
      "payable": false,
      "stateMutability": "view",
      "type": "function"
    },
    {
      "constant": true,
      "inputs": [],
      "name": "testFunction",
      "outputs": [
        {
          "name": "",
          "type": "int8"
        }
      ],
      "payable": false,
      "stateMutability": "view",
      "type": "function"
    }
  ],
  "bytecode": "0x60606040526064600d556014600e556020604051908101604052806000815250601090805190602001906200003692919062001068565b506020604051908101604052806000815250601190805190602001906200005f92919062001068565b5060075434101515156200007257600080fd5b33600560006101000a81548173ffffffffffffffffffffffffffffffffffffffff021916908373ffffffffffffffffffffffffffffffffffffffff16021790555034600681905550736f485c8bf6fc43ea212e93bbf8ce046c7f1cb4756000806101000a81548173ffffffffffffffffffffffffffffffffffffffff021916908373ffffffffffffffffffffffffffffffffffffffff16021790555062000131633b9aca00620001e96401000000000262005088176401000000009004565b620001e26040805190810160405280600381526020017f55524c0000000000000000000000000000000000000000000000000000000000815250606060405190810160405280603a81526020017f6a736f6e28687474703a2f2f6170692e66697865722e696f2f6c61746573743f81526020017f73796d626f6c733d5553442c474250292e72617465732e4742500000000000008152506200052c6401000000000262005396176401000000009004565b5062001117565b60008060009054906101000a900473ffffffffffffffffffffffffffffffffffffffff1673ffffffffffffffffffffffffffffffffffffffff1614806200026f575060006200026d6000809054906101000a900473ffffffffffffffffffffffffffffffffffffffff1662000ab06401000000000262003eb1176401000000009004565b145b15620002975762000295600062000abb6401000000000262003ebc176401000000009004565b505b6000809054906101000a900473ffffffffffffffffffffffffffffffffffffffff1673ffffffffffffffffffffffffffffffffffffffff166338cc48316000604051602001526040518163ffffffff167c0100000000000000000000000000000000000000000000000000000000028152600401602060405180830381600087803b15156200032557600080fd5b6102c65a03f115156200033757600080fd5b5050506040518051905073ffffffffffffffffffffffffffffffffffffffff16600160009054906101000a900473ffffffffffffffffffffffffffffffffffffffff1673ffffffffffffffffffffffffffffffffffffffff1614151562000483576000809054906101000a900473ffffffffffffffffffffffffffffffffffffffff1673ffffffffffffffffffffffffffffffffffffffff166338cc48316000604051602001526040518163ffffffff167c0100000000000000000000000000000000000000000000000000000000028152600401602060405180830381600087803b15156200042657600080fd5b6102c65a03f115156200043857600080fd5b50505060405180519050600160006101000a81548173ffffffffffffffffffffffffffffffffffffffff021916908373ffffffffffffffffffffffffffffffffffffffff1602179055505b600160009054906101000a900473ffffffffffffffffffffffffffffffffffffffff1673ffffffffffffffffffffffffffffffffffffffff1663ca6ad1e4826040518263ffffffff167c010000000000000000000000000000000000000000000000000000000002815260040180828152602001915050600060405180830381600087803b15156200051457600080fd5b6102c65a03f115156200052657600080fd5b50505050565b60008060008060009054906101000a900473ffffffffffffffffffffffffffffffffffffffff1673ffffffffffffffffffffffffffffffffffffffff161480620005b557506000620005b36000809054906101000a900473ffffffffffffffffffffffffffffffffffffffff1662000ab06401000000000262003eb1176401000000009004565b145b15620005dd57620005db600062000abb6401000000000262003ebc176401000000009004565b505b6000809054906101000a900473ffffffffffffffffffffffffffffffffffffffff1673ffffffffffffffffffffffffffffffffffffffff166338cc48316000604051602001526040518163ffffffff167c0100000000000000000000000000000000000000000000000000000000028152600401602060405180830381600087803b15156200066b57600080fd5b6102c65a03f115156200067d57600080fd5b5050506040518051905073ffffffffffffffffffffffffffffffffffffffff16600160009054906101000a900473ffffffffffffffffffffffffffffffffffffffff1673ffffffffffffffffffffffffffffffffffffffff16141515620007c9576000809054906101000a900473ffffffffffffffffffffffffffffffffffffffff1673ffffffffffffffffffffffffffffffffffffffff166338cc48316000604051602001526040518163ffffffff167c0100000000000000000000000000000000000000000000000000000000028152600401602060405180830381600087803b15156200076c57600080fd5b6102c65a03f115156200077e57600080fd5b50505060405180519050600160006101000a81548173ffffffffffffffffffffffffffffffffffffffff021916908373ffffffffffffffffffffffffffffffffffffffff1602179055505b600160009054906101000a900473ffffffffffffffffffffffffffffffffffffffff1673ffffffffffffffffffffffffffffffffffffffff1663524f3889856000604051602001526040518263ffffffff167c01000000000000000000000000000000000000000000000000000000000281526004018080602001828103825283818151815260200191508051906020019080838360005b838110156200087e57808201518184015260208101905062000861565b50505050905090810190601f168015620008ac5780820380516001836020036101000a031916815260200191505b5092505050602060405180830381600087803b1515620008cb57600080fd5b6102c65a03f11515620008dd57600080fd5b50505060405180519050905062030d403a02670de0b6b3a7640000018111156200090e576000600102915062000aa9565b600160009054906101000a900473ffffffffffffffffffffffffffffffffffffffff1673ffffffffffffffffffffffffffffffffffffffff1663adf59f9982600087876000604051602001526040518563ffffffff167c0100000000000000000000000000000000000000000000000000000000028152600401808481526020018060200180602001838103835285818151815260200191508051906020019080838360005b83811015620009d1578082015181840152602081019050620009b4565b50505050905090810190601f168015620009ff5780820380516001836020036101000a031916815260200191505b50838103825284818151815260200191508051906020019080838360005b8381101562000a3a57808201518184015260208101905062000a1d565b50505050905090810190601f16801562000a685780820380516001836020036101000a031916815260200191505b50955050505050506020604051808303818588803b151562000a8957600080fd5b6125ee5a03f1151562000a9b57600080fd5b505050506040518051905091505b5092915050565b6000813b9050919050565b60008062000af1731d3b2638a7cc9f2cb3d298a3da7a90b67e5506ed62000ab06401000000000262003eb1176401000000009004565b111562000baa57731d3b2638a7cc9f2cb3d298a3da7a90b67e5506ed6000806101000a81548173ffffffffffffffffffffffffffffffffffffffff021916908373ffffffffffffffffffffffffffffffffffffffff16021790555062000ba06040805190810160405280600b81526020017f6574685f6d61696e6e65740000000000000000000000000000000000000000008152506200104c6401000000000262004c24176401000000009004565b6001905062001047565b600062000bdf73c03a2615d5efaf5f49f60b7bb6583eaec212fdf162000ab06401000000000262003eb1176401000000009004565b111562000c985773c03a2615d5efaf5f49f60b7bb6583eaec212fdf16000806101000a81548173ffffffffffffffffffffffffffffffffffffffff021916908373ffffffffffffffffffffffffffffffffffffffff16021790555062000c8e6040805190810160405280600c81526020017f6574685f726f707374656e3300000000000000000000000000000000000000008152506200104c6401000000000262004c24176401000000009004565b6001905062001047565b600062000ccd73b7a07bcf2ba2f2703b24c0691b5278999c59ac7e62000ab06401000000000262003eb1176401000000009004565b111562000d865773b7a07bcf2ba2f2703b24c0691b5278999c59ac7e6000806101000a81548173ffffffffffffffffffffffffffffffffffffffff021916908373ffffffffffffffffffffffffffffffffffffffff16021790555062000d7c6040805190810160405280600981526020017f6574685f6b6f76616e00000000000000000000000000000000000000000000008152506200104c6401000000000262004c24176401000000009004565b6001905062001047565b600062000dbb73146500cfd35b22e4a392fe0adc06de1a1368ed4862000ab06401000000000262003eb1176401000000009004565b111562000e745773146500cfd35b22e4a392fe0adc06de1a1368ed486000806101000a81548173ffffffffffffffffffffffffffffffffffffffff021916908373ffffffffffffffffffffffffffffffffffffffff16021790555062000e6a6040805190810160405280600b81526020017f6574685f72696e6b6562790000000000000000000000000000000000000000008152506200104c6401000000000262004c24176401000000009004565b6001905062001047565b600062000ea9736f485c8bf6fc43ea212e93bbf8ce046c7f1cb47562000ab06401000000000262003eb1176401000000009004565b111562000f0e57736f485c8bf6fc43ea212e93bbf8ce046c7f1cb4756000806101000a81548173ffffffffffffffffffffffffffffffffffffffff021916908373ffffffffffffffffffffffffffffffffffffffff1602179055506001905062001047565b600062000f437320e12a1f859b3feae5fb2a0a32c18f5a65555bbf62000ab06401000000000262003eb1176401000000009004565b111562000fa8577320e12a1f859b3feae5fb2a0a32c18f5a65555bbf6000806101000a81548173ffffffffffffffffffffffffffffffffffffffff021916908373ffffffffffffffffffffffffffffffffffffffff1602179055506001905062001047565b600062000fdd7351efaf4c8b3c9afbd5ab9f4bbc82784ab6ef8faa62000ab06401000000000262003eb1176401000000009004565b111562001042577351efaf4c8b3c9afbd5ab9f4bbc82784ab6ef8faa6000806101000a81548173ffffffffffffffffffffffffffffffffffffffff021916908373ffffffffffffffffffffffffffffffffffffffff1602179055506001905062001047565b600090505b919050565b80600290805190602001906200106492919062001068565b5050565b828054600181600116156101000203166002900490600052602060002090601f016020900481019282601f10620010ab57805160ff1916838001178555620010dc565b82800160010185558215620010dc579182015b82811115620010db578251825591602001919060010190620010be565b5b509050620010eb9190620010ef565b5090565b6200111491905b8082111562001110576000816000905550600101620010f6565b5090565b90565b61590480620011276000396000f300606060405260043610610180576000357c0100000000000000000000000000000000000000000000000000000000900463ffffffff1680630b4103ee146101855780630fc33560146101ac578063137492ff146101b657806326daf1641461021357806327dc297e146102a85780632b58719d1461031257806336815bf41461036f57806338bbfa50146103ce5780633a5a70d21461047b5780633ccfd60b146104ee578063471924db14610503578063492a3a411461056d5780634aa8fd7a146105ca5780634c55dcde146106755780634c5e9d181461069c5780635c77f2d2146106f95780636aff681c14610756578063779552451461079a578063948e17d6146107ef578063abfb80bc14610843578063bb77d9ca1461086a578063c5012ffc146108b3578063d0e30db014610910578063d4e026cc1461091a578063d781b7cf14610978578063e16b4a9b146109af578063e460ca9f146109de578063f03008ba14610a27578063f5a45c6014610a4e578063fb9a7aaf14610ad9575b600080fd5b341561019057600080fd5b6101aa600480803560001916906020019091905050610ae3565b005b6101b4611157565b005b34156101c157600080fd5b610211600480803590602001908201803590602001908080601f01602080910402602001604051908101604052809392919081815260200183838082843782019150505050505091905050611232565b005b6102a6600480803590602001908201803590602001908080601f0160208091040260200160405190810160405280939291908181526020018383808284378201915050505050509190803590602001908201803590602001908080601f016020809104026020016040519081016040528093929190818152602001838380828437820191505050505050919050506112a2565b005b34156102b357600080fd5b61031060048080356000191690602001909190803590602001908201803590602001908080601f01602080910402602001604051908101604052809392919081815260200183838082843782019150505050505091905050611590565b005b341561031d57600080fd5b61036d600480803590602001908201803590602001908080601f016020809104026020016040519081016040528093929190818152602001838380828437820191505050505050919050506116fb565b005b341561037a57600080fd5b6103b46004808061010001906008806020026040519081016040528092919082600860200280828437820191505050505091905050611c33565b604051808215151515815260200191505060405180910390f35b34156103d957600080fd5b61047960048080356000191690602001909190803590602001908201803590602001908080601f0160208091040260200160405190810160405280939291908181526020018383808284378201915050505050509190803590602001908201803590602001908080601f01602080910402602001604051908101604052809392919081815260200183838082843782019150505050505091905050611cfe565b005b341561048657600080fd5b6104ec60048080356000191690602001909190806101000190600880602002604051908101604052809291908260086020028082843782019150505050509190803573ffffffffffffffffffffffffffffffffffffffff16906020019091905050611d03565b005b34156104f957600080fd5b610501611dee565b005b341561050e57600080fd5b610516611ecd565b6040518080602001828103825283818151815260200191508051906020019060200280838360005b8381101561055957808201518184015260208101905061053e565b505050509050019250505060405180910390f35b341561057857600080fd5b6105c8600480803590602001908201803590602001908080601f01602080910402602001604051908101604052809392919081815260200183838082843782019150505050505091905050611fd1565b005b34156105d557600080fd5b610625600480803590602001908201803590602001908080601f01602080910402602001604051908101604052809392919081815260200183838082843782019150505050505091905050612047565b604051808279ffffffffffffffffffffffffffffffffffffffffffffffffffff191679ffffffffffffffffffffffffffffffffffffffffffffffffffff1916815260200191505060405180910390f35b341561068057600080fd5b61069a600480803560001916906020019091905050612092565b005b34156106a757600080fd5b6106f7600480803590602001908201803590602001908080601f01602080910402602001604051908101604052809392919081815260200183838082843782019150505050505091905050612176565b005b341561070457600080fd5b610754600480803590602001908201803590602001908080601f016020809104026020016040519081016040528093929190818152602001838380828437820191505050505050919050506124d5565b005b61079860048080356000191690602001909190803573ffffffffffffffffffffffffffffffffffffffff1690602001909190803590602001909190505061254b565b005b34156107a557600080fd5b6107ad612664565b604051808273ffffffffffffffffffffffffffffffffffffffff1673ffffffffffffffffffffffffffffffffffffffff16815260200191505060405180910390f35b34156107fa57600080fd5b61084160048080356000191690602001909190806101000190600880602002604051908101604052809291908260086020028082843782019150505050509190505061268a565b005b341561084e57600080fd5b6108686004808035600019169060200190919050506126ad565b005b6108b16004808035600019169060200190919080610100019060088060200260405190810160405280929190826008602002808284378201915050505050919050506128ba565b005b34156108be57600080fd5b61090e600480803590602001908201803590602001908080601f01602080910402602001604051908101604052809392919081815260200183838082843782019150505050505091905050612aa5565b005b610918612b15565b005b341561092557600080fd5b61095e60048080356000191690602001909190803573ffffffffffffffffffffffffffffffffffffffff16906020019091905050612b27565b604051808215151515815260200191505060405180910390f35b341561098357600080fd5b6109996004808035906020019091905050612d38565b6040518082815260200191505060405180910390f35b34156109ba57600080fd5b6109c2612d55565b604051808260000b60000b815260200191505060405180910390f35b610a25600480803560001916906020019091908061010001906008806020026040519081016040528092919082600860200280828437820191505050505091905050612d5e565b005b3415610a3257600080fd5b610a4c600480803560001916906020019091905050612d8c565b005b3415610a5957600080fd5b610a73600480803560001916906020019091905050612ec2565b6040518086600019166000191681526020018581526020018481526020018373ffffffffffffffffffffffffffffffffffffffff1673ffffffffffffffffffffffffffffffffffffffff1681526020018281526020019550505050505060405180910390f35b610ae1613079565b005b6000806000806000610af3614c3e565b600080600080600080600f60009054906101000a900460ff161515610b1757600080fd5b600c60008e600019166000191681526020019081526020016000209b508b60030160009054906101000a900460ff161515610b5157600080fd5b8b60030160019054906101000a900460ff16151515610b6f57600080fd5b8b600501805490509a5060009950600098505b8a60030b8960ff161215610de3578b6005018960ff16815481101515610ba457fe5b906000526020600020900160009054906101000a900473ffffffffffffffffffffffffffffffffffffffff1697508b60070160008973ffffffffffffffffffffffffffffffffffffffff1673ffffffffffffffffffffffffffffffffffffffff168152602001908152602001600020600001600880602002604051908101604052809291908260088015610ca7576020028201916000905b82829054906101000a90047a0100000000000000000000000000000000000000000000000000000279ffffffffffffffffffffffffffffffffffffffffffffffffffff191681526020019060060190602082600501049283019260010382029150808411610c3c5790505b50505050509650600095505b60088660ff161015610d9057600a6000888860ff16600881101515610cd457fe5b602002015179ffffffffffffffffffffffffffffffffffffffffffffffffffff191679ffffffffffffffffffffffffffffffffffffffffffffffffffff1916815260200190815260200160002060000160059054906101000a900460000b60000b8c60080160008a73ffffffffffffffffffffffffffffffffffffffff1673ffffffffffffffffffffffffffffffffffffffff168152602001908152602001600020600082825401925050819055508580600101965050610cb3565b8b60080160008973ffffffffffffffffffffffffffffffffffffffff1673ffffffffffffffffffffffffffffffffffffffff168152602001908152602001600020548a0199508880600101995050610b82565b8a60030b8a811515610df157fe5b05945060009250600098505b8a60030b8960ff161215610fe1578b6005018960ff16815481101515610e1f57fe5b906000526020600020900160009054906101000a900473ffffffffffffffffffffffffffffffffffffffff169750848c60080160008a73ffffffffffffffffffffffffffffffffffffffff1673ffffffffffffffffffffffffffffffffffffffff1681526020019081526020016000205412158015610ee0575060008c60080160008a73ffffffffffffffffffffffffffffffffffffffff1673ffffffffffffffffffffffffffffffffffffffff1681526020019081526020016000205412155b15610fd4578b60080160008973ffffffffffffffffffffffffffffffffffffffff1673ffffffffffffffffffffffffffffffffffffffff168152602001908152602001600020548c60080160008a73ffffffffffffffffffffffffffffffffffffffff1673ffffffffffffffffffffffffffffffffffffffff16815260200190815260200160002054029150838054806001018281610f7f9190614c84565b916000526020600020900160008a909190916101000a81548173ffffffffffffffffffffffffffffffffffffffff021916908373ffffffffffffffffffffffffffffffffffffffff1602179055505081830192505b8880600101995050610dfd565b600098505b83805490508960ff16101561112b57838960ff1681548110151561100657fe5b906000526020600020900160009054906101000a900473ffffffffffffffffffffffffffffffffffffffff1697508b60080160008973ffffffffffffffffffffffffffffffffffffffff1673ffffffffffffffffffffffffffffffffffffffff168152602001908152602001600020548c60080160008a73ffffffffffffffffffffffffffffffffffffffff1673ffffffffffffffffffffffffffffffffffffffff1681526020019081526020016000205402915082828d60020154028115156110cc57fe5b049050808c60090160008a73ffffffffffffffffffffffffffffffffffffffff1673ffffffffffffffffffffffffffffffffffffffff168152602001908152602001600020600082825401925050819055508880600101995050610fe6565b60018c60030160016101000a81548160ff02191690831515021790555050505050505050505050505050565b61123060118054600181600116156101000203166002900480601f0160208091040260200160405190810160405280929190818152602001828054600181600116156101000203166002900480156111f05780601f106111c5576101008083540402835291602001916111f0565b820191906000526020600020905b8154815290600101906020018083116111d357829003601f168201915b50505050506040805190810160405280600681526020017f73636f72657300000000000000000000000000000000000000000000000000008152506112a2565b565b600560009054906101000a900473ffffffffffffffffffffffffffffffffffffffff1673ffffffffffffffffffffffffffffffffffffffff163373ffffffffffffffffffffffffffffffffffffffff1614151561128e57600080fd5b611297816124d5565b61129f613079565b50565b600080600060036112e76040805190810160405280600381526020017f55524c0000000000000000000000000000000000000000000000000000000000815250613154565b02660886c98b760000019250655af3107a400091508183013410156113ff577f46cb989ef9cef13e930e3b7f286225a086e716a90d63e0b7da85d310a9db0c9a6040518080602001828103825260468152602001807f4f7261636c697a65207175657279206661696c65642e2053656e64206d6f726581526020017f2045544820282e3030323545544820696e20676173202b20242e30332070657281526020017f207175657279000000000000000000000000000000000000000000000000000081525060600191505060405180910390a13373ffffffffffffffffffffffffffffffffffffffff166108fc349081150290604051600060405180830381858888f1935050505015156113fa57600080fd5b611589565b8234036006600082825401925050819055507f46cb989ef9cef13e930e3b7f286225a086e716a90d63e0b7da85d310a9db0c9a6040518080602001828103825260378152602001807f4f7261636c697a65207175657269657320776572652073656e742c207374616e81526020017f64696e6720627920666f722074686520616e737765722e00000000000000000081525060400191505060405180910390a16115566040805190810160405280600381526020017f55524c000000000000000000000000000000000000000000000000000000000081525061154d6040805190810160405280600581526020017f6a736f6e28000000000000000000000000000000000000000000000000000000815250886040805190810160405280601281526020017f292e636f6d7072657373656453636f72657300000000000000000000000000008152506134dc565b620927c061351a565b9050836008600083600019166000191681526020019081526020016000209080519060200190611587929190614cb0565b505b5050505050565b600061159a613a6a565b73ffffffffffffffffffffffffffffffffffffffff163373ffffffffffffffffffffffffffffffffffffffff161415156115d357600080fd5b60086000846000191660001916815260200190815260200160002060405180828054600181600116156101000203166002900480156116495780601f10611627576101008083540402835291820191611649565b820191906000526020600020905b815481529060010190602001808311611635575b50509150506040518091039020905060405180807f53616c61726965730000000000000000000000000000000000000000000000008152506008019050604051809103902060001916816000191614156116a7576116a6826116fb565b5b60405180807f73636f72657300000000000000000000000000000000000000000000000000008152506006019050604051809103902060001916816000191614156116f6576116f582612176565b5b505050565b6000611705614d30565b61170d614d30565b611715614d4a565b60008060008096505b6009805490508761ffff16101561185757600a600060098961ffff1681548110151561174657fe5b90600052602060002090600591828204019190066006029054906101000a90047a0100000000000000000000000000000000000000000000000000000279ffffffffffffffffffffffffffffffffffffffffffffffffffff191679ffffffffffffffffffffffffffffffffffffffffffffffffffff19168152602001908152602001600020600080820160006101000a81549060ff02191690556000820160016101000a81549063ffffffff02191690556000820160056101000a81549060ff0219169055505060098761ffff1681548110151561182057fe5b90600052602060002090600591828204019190066006026101000a81549065ffffffffffff0219169055868060010197505061171e565b6000600f60006101000a81548160ff02191690831515021790555061187b88613d80565b95506118bb6040805190810160405280600181526020017f2000000000000000000000000000000000000000000000000000000000000000815250613d80565b945060016118d28688613dae90919063ffffffff16565b016040518059106118e05750595b90808252806020026020018201604052801561191657816020015b611903614d5e565b8152602001906001900390816118fb5790505b509350600096505b83518761ffff161015611c295761193e8587613e2590919063ffffffff16565b848861ffff1681518110151561195057fe5b906020019060200201819052506119d86119d36119ce6119a46040805190810160405280600181526020017f3a00000000000000000000000000000000000000000000000000000000000000815250613d80565b878b61ffff168151811015156119b657fe5b90602001906020020151613e2590919063ffffffff16565b613e3f565b612047565b9250611a55611a50611a4b611a216040805190810160405280600181526020017f2d00000000000000000000000000000000000000000000000000000000000000815250613d80565b878b61ffff16815181101515611a3357fe5b90602001906020020151613e2590919063ffffffff16565b613e3f565b613e9d565b9150611ad2611acd611ac8611a9e6040805190810160405280600181526020017f2d00000000000000000000000000000000000000000000000000000000000000815250613d80565b878b61ffff16815181101515611ab057fe5b90602001906020020151613e2590919063ffffffff16565b613e3f565b613e9d565b90508260098861ffff16815481101515611ae857fe5b90600052602060002090600591828204019190066006026101000a81548165ffffffffffff02191690837a010000000000000000000000000000000000000000000000000000900402179055506060604051908101604052808260000b81526020018363ffffffff1681526020016000800b815250600a60008579ffffffffffffffffffffffffffffffffffffffffffffffffffff191679ffffffffffffffffffffffffffffffffffffffffffffffffffff1916815260200190815260200160002060008201518160000160006101000a81548160ff021916908360000b60ff16021790555060208201518160000160016101000a81548163ffffffff021916908363ffffffff16021790555060408201518160000160056101000a81548160ff021916908360000b60ff160217905550905050868060010197505061191e565b5050505050505050565b600080600080600892506008831115611c4f5760009350611cf6565b60009150600090505b828160ff161015611cea57600a6000868360ff16600881101515611c7857fe5b602002015179ffffffffffffffffffffffffffffffffffffffffffffffffffff191679ffffffffffffffffffffffffffffffffffffffffffffffffffff1916815260200190815260200160002060000160009054906101000a900460000b60000b820191508080600101915050611c58565b600d548260010b131593505b505050919050565b505050565b6000600c600085600019166000191681526020019081526020016000209050602060405190810160405280848152508160070160008473ffffffffffffffffffffffffffffffffffffffff1673ffffffffffffffffffffffffffffffffffffffff168152602001908152602001600020600082015181600001906008611d8a929190614d78565b5090505060018160060160008473ffffffffffffffffffffffffffffffffffffffff1673ffffffffffffffffffffffffffffffffffffffff16815260200190815260200160002060006101000a81548160ff02191690831515021790555050505050565b600560009054906101000a900473ffffffffffffffffffffffffffffffffffffffff1673ffffffffffffffffffffffffffffffffffffffff163373ffffffffffffffffffffffffffffffffffffffff16141515611e4a57600080fd5b6000600754600654031115611ecb57600560009054906101000a900473ffffffffffffffffffffffffffffffffffffffff1673ffffffffffffffffffffffffffffffffffffffff166108fc600754600654039081150290604051600060405180830381858888f193505050501515611ec157600080fd5b6007546006819055505b565b611ed5614e37565b60008060008091505b600b80549050821015611f7557600b82815481101515611efa57fe5b9060005260206000209001549050600c6000826000191660001916815260200190815260200160002060030160009054906101000a900460ff1615611f6857828054806001018281611f4c9190614e4b565b9160005260206000209001600083909190915090600019169055505b8180600101925050611ede565b82805480602002602001604051908101604052809291908181526020018280548015611fc457602002820191906000526020600020905b81546000191681526020019060010190808311611fac575b5050505050935050505090565b600560009054906101000a900473ffffffffffffffffffffffffffffffffffffffff1673ffffffffffffffffffffffffffffffffffffffff163373ffffffffffffffffffffffffffffffffffffffff1614151561202d57600080fd5b8060119080519060200190612043929190614cb0565b5050565b6000612051614e77565b8290506000815114156120845760007a01000000000000000000000000000000000000000000000000000002915061208c565b600683015191505b50919050565b600c6000826000191660001916815260200190815260200160002060030160009054906101000a900460ff161515156120ca57600080fd5b600c60008260001916600019168152602001908152602001600020600080820160006101000a81549073ffffffffffffffffffffffffffffffffffffffff02191690556000820160146101000a81549060ff0219169055600182016000905560028201600090556003820160006101000a81549060ff02191690556003820160016101000a81549060ff021916905560048201600090556005820160006121719190614e8b565b505050565b61217e614d30565b612186614d30565b61218e614d4a565b6000806000806000600f60009054906101000a900460ff161515156121b257600080fd5b6121bb89613d80565b97506121fb6040805190810160405280600181526020017f2000000000000000000000000000000000000000000000000000000000000000815250613d80565b96506001612212888a613dae90919063ffffffff16565b016040518059106122205750595b90808252806020026020018201604052801561225657816020015b612243614d5e565b81526020019060019003908161223b5790505b509550600094505b85518561ffff1610156124af5761227e8789613e2590919063ffffffff16565b868661ffff1681518110151561229057fe5b9060200190602002018190525061231861231361230e6122e46040805190810160405280600181526020017f3a00000000000000000000000000000000000000000000000000000000000000815250613d80565b898961ffff168151811015156122f657fe5b90602001906020020151613e2590919063ffffffff16565b613e3f565b612047565b9350600161238761235d6040805190810160405280600181526020017f2d00000000000000000000000000000000000000000000000000000000000000815250613d80565b888861ffff1681518110151561236f57fe5b90602001906020020151613dae90919063ffffffff16565b019250600091505b828210156124a25761241261240d6124086123de6040805190810160405280600181526020017f2d00000000000000000000000000000000000000000000000000000000000000815250613d80565b898961ffff168151811015156123f057fe5b90602001906020020151613e2590919063ffffffff16565b613e3f565b613e9d565b905080605003600a60008679ffffffffffffffffffffffffffffffffffffffffffffffffffff191679ffffffffffffffffffffffffffffffffffffffffffffffffffff1916815260200190815260200160002060000160058282829054906101000a900460000b0192506101000a81548160ff021916908360000b60ff160217905550818060010192505061238f565b848060010195505061225e565b6001600f60006101000a81548160ff021916908315150217905550505050505050505050565b600560009054906101000a900473ffffffffffffffffffffffffffffffffffffffff1673ffffffffffffffffffffffffffffffffffffffff163373ffffffffffffffffffffffffffffffffffffffff1614151561253157600080fd5b8060109080519060200190612547929190614cb0565b5050565b600080600c6000866000191660001916815260200190815260200160002091508160060160008573ffffffffffffffffffffffffffffffffffffffff1673ffffffffffffffffffffffffffffffffffffffff16815260200190815260200160002060009054906101000a900460ff16151561265d576125c983612d38565b905080826001015401831115156125df57600080fd5b81600101548260020160008282540192505081905550806006600082825401925050819055508082600101548403038260090160008673ffffffffffffffffffffffffffffffffffffffff1673ffffffffffffffffffffffffffffffffffffffff168152602001908152602001600020600082825401925050819055505b5050505050565b600560009054906101000a900473ffffffffffffffffffffffffffffffffffffffff1681565b61269381611c33565b151561269e57600080fd5b6126a9828233611d03565b5050565b6000806000600f60009054906101000a900460ff1615156126cd57600080fd5b600c6000856000191660001916815260200190815260200160002092508260030160019054906101000a900460ff16151561270757600080fd5b8260030160009054906101000a900460ff16151561272457600080fd5b600091505b826005018054905082101561289757826005018281548110151561274957fe5b906000526020600020900160009054906101000a900473ffffffffffffffffffffffffffffffffffffffff16905060008360090160008373ffffffffffffffffffffffffffffffffffffffff1673ffffffffffffffffffffffffffffffffffffffff16815260200190815260200160002054111561288a578073ffffffffffffffffffffffffffffffffffffffff166108fc8460090160008473ffffffffffffffffffffffffffffffffffffffff1673ffffffffffffffffffffffffffffffffffffffff168152602001908152602001600020549081150290604051600060405180830381858888f19350505050151561284257600080fd5b60008360090160003373ffffffffffffffffffffffffffffffffffffffff1673ffffffffffffffffffffffffffffffffffffffff168152602001908152602001600020819055505b8180600101925050612729565b60008360030160006101000a81548160ff02191690831515021790555050505050565b6128c48233612b27565b15156128cf57600080fd5b6128d881611c33565b15156128e357600080fd5b600b80548060010182816128f79190614e4b565b916000526020600020900160008490919091509060001916905550610100604051908101604052803373ffffffffffffffffffffffffffffffffffffffff16815260200160011515815260200161294d34612d38565b340381526020016000815260200160011515815260200160001515815260200142815260200160006040518059106129825750595b9080825280602002602001820160405250815250600c6000846000191660001916815260200190815260200160002060008201518160000160006101000a81548173ffffffffffffffffffffffffffffffffffffffff021916908373ffffffffffffffffffffffffffffffffffffffff16021790555060208201518160000160146101000a81548160ff021916908315150217905550604082015181600101556060820151816002015560808201518160030160006101000a81548160ff02191690831515021790555060a08201518160030160016101000a81548160ff02191690831515021790555060c0820151816004015560e0820151816005019080519060200190612a92929190614eac565b50905050612aa182333461254b565b5050565b600560009054906101000a900473ffffffffffffffffffffffffffffffffffffffff1673ffffffffffffffffffffffffffffffffffffffff163373ffffffffffffffffffffffffffffffffffffffff16141515612b0157600080fd5b612b0a81611fd1565b612b12611157565b50565b34600660008282540192505081905550565b6000612b31614f36565b600c6000856000191660001916815260200190815260200160002060000160149054906101000a900460ff1615612d2c57600c6000856000191660001916815260200190815260200160002061010060405190810160405290816000820160009054906101000a900473ffffffffffffffffffffffffffffffffffffffff1673ffffffffffffffffffffffffffffffffffffffff1673ffffffffffffffffffffffffffffffffffffffff1681526020016000820160149054906101000a900460ff1615151515815260200160018201548152602001600282015481526020016003820160009054906101000a900460ff161515151581526020016003820160019054906101000a900460ff161515151581526020016004820154815260200160058201805480602002602001604051908101604052809291908181526020018280548015612cd457602002820191906000526020600020905b8160009054906101000a900473ffffffffffffffffffffffffffffffffffffffff1673ffffffffffffffffffffffffffffffffffffffff1681526020019060010190808311612c8a575b5050505050815250509050806080015115612cf25760009150612d31565b8273ffffffffffffffffffffffffffffffffffffffff16816000015173ffffffffffffffffffffffffffffffffffffffff16149150612d31565b600191505b5092915050565b60006103e8600e548302811515612d4b57fe5b0482039050919050565b60006001905090565b612d6781611c33565b1515612d7257600080fd5b612d7d82333461254b565b612d88828233611d03565b5050565b6000600c60008360001916600019168152602001908152602001600020905060008160090160003373ffffffffffffffffffffffffffffffffffffffff1673ffffffffffffffffffffffffffffffffffffffff168152602001908152602001600020541115612ebe573373ffffffffffffffffffffffffffffffffffffffff166108fc8260090160003373ffffffffffffffffffffffffffffffffffffffff1673ffffffffffffffffffffffffffffffffffffffff168152602001908152602001600020549081150290604051600060405180830381858888f193505050501515612e7657600080fd5b60008160090160003373ffffffffffffffffffffffffffffffffffffffff1673ffffffffffffffffffffffffffffffffffffffff168152602001908152602001600020819055505b5050565b6000806000806000612ed2614f36565b600c6000886000191660001916815260200190815260200160002061010060405190810160405290816000820160009054906101000a900473ffffffffffffffffffffffffffffffffffffffff1673ffffffffffffffffffffffffffffffffffffffff1673ffffffffffffffffffffffffffffffffffffffff1681526020016000820160149054906101000a900460ff1615151515815260200160018201548152602001600282015481526020016003820160009054906101000a900460ff161515151581526020016003820160019054906101000a900460ff16151515158152602001600482015481526020016005820180548060200260200160405190810160405280929190818152602001828054801561304457602002820191906000526020600020905b8160009054906101000a900473ffffffffffffffffffffffffffffffffffffffff1673ffffffffffffffffffffffffffffffffffffffff1681526020019060010190808311612ffa575b50505050508152505090508681604001518260e001515183600001518460c00151955095509550955095505091939590929450565b61315260108054600181600116156101000203166002900480601f0160208091040260200160405190810160405280929190818152602001828054600181600116156101000203166002900480156131125780601f106130e757610100808354040283529160200191613112565b820191906000526020600020905b8154815290600101906020018083116130f557829003601f168201915b50505050506040805190810160405280600881526020017f53616c61726965730000000000000000000000000000000000000000000000008152506112a2565b565b6000806000809054906101000a900473ffffffffffffffffffffffffffffffffffffffff1673ffffffffffffffffffffffffffffffffffffffff1614806131c4575060006131c26000809054906101000a900473ffffffffffffffffffffffffffffffffffffffff16613eb1565b145b156131d5576131d36000613ebc565b505b6000809054906101000a900473ffffffffffffffffffffffffffffffffffffffff1673ffffffffffffffffffffffffffffffffffffffff166338cc48316000604051602001526040518163ffffffff167c0100000000000000000000000000000000000000000000000000000000028152600401602060405180830381600087803b151561326257600080fd5b6102c65a03f1151561327357600080fd5b5050506040518051905073ffffffffffffffffffffffffffffffffffffffff16600160009054906101000a900473ffffffffffffffffffffffffffffffffffffffff1673ffffffffffffffffffffffffffffffffffffffff161415156133bc576000809054906101000a900473ffffffffffffffffffffffffffffffffffffffff1673ffffffffffffffffffffffffffffffffffffffff166338cc48316000604051602001526040518163ffffffff167c0100000000000000000000000000000000000000000000000000000000028152600401602060405180830381600087803b151561336057600080fd5b6102c65a03f1151561337157600080fd5b50505060405180519050600160006101000a81548173ffffffffffffffffffffffffffffffffffffffff021916908373ffffffffffffffffffffffffffffffffffffffff1602179055505b600160009054906101000a900473ffffffffffffffffffffffffffffffffffffffff1673ffffffffffffffffffffffffffffffffffffffff1663524f3889836000604051602001526040518263ffffffff167c01000000000000000000000000000000000000000000000000000000000281526004018080602001828103825283818151815260200191508051906020019080838360005b8381101561346f578082015181840152602081019050613454565b50505050905090810190601f16801561349c5780820380516001836020036101000a031916815260200191505b5092505050602060405180830381600087803b15156134ba57600080fd5b6102c65a03f115156134cb57600080fd5b505050604051805190509050919050565b6134e4614f9e565b6135118484846020604051908101604052806000815250602060405190810160405280600081525061434d565b90509392505050565b60008060008060009054906101000a900473ffffffffffffffffffffffffffffffffffffffff1673ffffffffffffffffffffffffffffffffffffffff16148061358c5750600061358a6000809054906101000a900473ffffffffffffffffffffffffffffffffffffffff16613eb1565b145b1561359d5761359b6000613ebc565b505b6000809054906101000a900473ffffffffffffffffffffffffffffffffffffffff1673ffffffffffffffffffffffffffffffffffffffff166338cc48316000604051602001526040518163ffffffff167c0100000000000000000000000000000000000000000000000000000000028152600401602060405180830381600087803b151561362a57600080fd5b6102c65a03f1151561363b57600080fd5b5050506040518051905073ffffffffffffffffffffffffffffffffffffffff16600160009054906101000a900473ffffffffffffffffffffffffffffffffffffffff1673ffffffffffffffffffffffffffffffffffffffff16141515613784576000809054906101000a900473ffffffffffffffffffffffffffffffffffffffff1673ffffffffffffffffffffffffffffffffffffffff166338cc48316000604051602001526040518163ffffffff167c0100000000000000000000000000000000000000000000000000000000028152600401602060405180830381600087803b151561372857600080fd5b6102c65a03f1151561373957600080fd5b50505060405180519050600160006101000a81548173ffffffffffffffffffffffffffffffffffffffff021916908373ffffffffffffffffffffffffffffffffffffffff1602179055505b600160009054906101000a900473ffffffffffffffffffffffffffffffffffffffff1673ffffffffffffffffffffffffffffffffffffffff16632ef3accc86856000604051602001526040518363ffffffff167c01000000000000000000000000000000000000000000000000000000000281526004018080602001838152602001828103825284818151815260200191508051906020019080838360005b8381101561383e578082015181840152602081019050613823565b50505050905090810190601f16801561386b5780820380516001836020036101000a031916815260200191505b509350505050602060405180830381600087803b151561388a57600080fd5b6102c65a03f1151561389b57600080fd5b505050604051805190509050823a02670de0b6b3a7640000018111156138c75760006001029150613a62565b600160009054906101000a900473ffffffffffffffffffffffffffffffffffffffff1673ffffffffffffffffffffffffffffffffffffffff1663c51be90f8260008888886000604051602001526040518663ffffffff167c0100000000000000000000000000000000000000000000000000000000028152600401808581526020018060200180602001848152602001838103835286818151815260200191508051906020019080838360005b8381101561398f578082015181840152602081019050613974565b50505050905090810190601f1680156139bc5780820380516001836020036101000a031916815260200191505b50838103825285818151815260200191508051906020019080838360005b838110156139f55780820151818401526020810190506139da565b50505050905090810190601f168015613a225780820380516001836020036101000a031916815260200191505b5096505050505050506020604051808303818588803b1515613a4357600080fd5b6125ee5a03f11515613a5457600080fd5b505050506040518051905091505b509392505050565b6000806000809054906101000a900473ffffffffffffffffffffffffffffffffffffffff1673ffffffffffffffffffffffffffffffffffffffff161480613ada57506000613ad86000809054906101000a900473ffffffffffffffffffffffffffffffffffffffff16613eb1565b145b15613aeb57613ae96000613ebc565b505b6000809054906101000a900473ffffffffffffffffffffffffffffffffffffffff1673ffffffffffffffffffffffffffffffffffffffff166338cc48316000604051602001526040518163ffffffff167c0100000000000000000000000000000000000000000000000000000000028152600401602060405180830381600087803b1515613b7857600080fd5b6102c65a03f11515613b8957600080fd5b5050506040518051905073ffffffffffffffffffffffffffffffffffffffff16600160009054906101000a900473ffffffffffffffffffffffffffffffffffffffff1673ffffffffffffffffffffffffffffffffffffffff16141515613cd2576000809054906101000a900473ffffffffffffffffffffffffffffffffffffffff1673ffffffffffffffffffffffffffffffffffffffff166338cc48316000604051602001526040518163ffffffff167c0100000000000000000000000000000000000000000000000000000000028152600401602060405180830381600087803b1515613c7657600080fd5b6102c65a03f11515613c8757600080fd5b50505060405180519050600160006101000a81548173ffffffffffffffffffffffffffffffffffffffff021916908373ffffffffffffffffffffffffffffffffffffffff1602179055505b600160009054906101000a900473ffffffffffffffffffffffffffffffffffffffff1673ffffffffffffffffffffffffffffffffffffffff1663c281d19e6000604051602001526040518163ffffffff167c0100000000000000000000000000000000000000000000000000000000028152600401602060405180830381600087803b1515613d6057600080fd5b6102c65a03f11515613d7157600080fd5b50505060405180519050905090565b613d88614d30565b600060208301905060408051908101604052808451815260200182815250915050919050565b6000808260000151613dd28560000151866020015186600001518760200151614785565b0190505b836000015184602001510181111515613e1e5781806001019250508260000151613e16856020015183038660000151038386600001518760200151614785565b019050613dd6565b5092915050565b613e2d614d30565b613e38838383614841565b5092915050565b613e47614f9e565b613e4f614f9e565b60008360000151604051805910613e635750595b9080825280601f01601f19166020018201604052509150602082019050613e9381856020015186600001516148df565b8192505050919050565b6000613eaa82600061492a565b9050919050565b6000813b9050919050565b600080613edc731d3b2638a7cc9f2cb3d298a3da7a90b67e5506ed613eb1565b1115613f7d57731d3b2638a7cc9f2cb3d298a3da7a90b67e5506ed6000806101000a81548173ffffffffffffffffffffffffffffffffffffffff021916908373ffffffffffffffffffffffffffffffffffffffff160217905550613f746040805190810160405280600b81526020017f6574685f6d61696e6e6574000000000000000000000000000000000000000000815250614c24565b60019050614348565b6000613f9c73c03a2615d5efaf5f49f60b7bb6583eaec212fdf1613eb1565b111561403d5773c03a2615d5efaf5f49f60b7bb6583eaec212fdf16000806101000a81548173ffffffffffffffffffffffffffffffffffffffff021916908373ffffffffffffffffffffffffffffffffffffffff1602179055506140346040805190810160405280600c81526020017f6574685f726f707374656e330000000000000000000000000000000000000000815250614c24565b60019050614348565b600061405c73b7a07bcf2ba2f2703b24c0691b5278999c59ac7e613eb1565b11156140fd5773b7a07bcf2ba2f2703b24c0691b5278999c59ac7e6000806101000a81548173ffffffffffffffffffffffffffffffffffffffff021916908373ffffffffffffffffffffffffffffffffffffffff1602179055506140f46040805190810160405280600981526020017f6574685f6b6f76616e0000000000000000000000000000000000000000000000815250614c24565b60019050614348565b600061411c73146500cfd35b22e4a392fe0adc06de1a1368ed48613eb1565b11156141bd5773146500cfd35b22e4a392fe0adc06de1a1368ed486000806101000a81548173ffffffffffffffffffffffffffffffffffffffff021916908373ffffffffffffffffffffffffffffffffffffffff1602179055506141b46040805190810160405280600b81526020017f6574685f72696e6b656279000000000000000000000000000000000000000000815250614c24565b60019050614348565b60006141dc736f485c8bf6fc43ea212e93bbf8ce046c7f1cb475613eb1565b111561423f57736f485c8bf6fc43ea212e93bbf8ce046c7f1cb4756000806101000a81548173ffffffffffffffffffffffffffffffffffffffff021916908373ffffffffffffffffffffffffffffffffffffffff16021790555060019050614348565b600061425e7320e12a1f859b3feae5fb2a0a32c18f5a65555bbf613eb1565b11156142c1577320e12a1f859b3feae5fb2a0a32c18f5a65555bbf6000806101000a81548173ffffffffffffffffffffffffffffffffffffffff021916908373ffffffffffffffffffffffffffffffffffffffff16021790555060019050614348565b60006142e07351efaf4c8b3c9afbd5ab9f4bbc82784ab6ef8faa613eb1565b1115614343577351efaf4c8b3c9afbd5ab9f4bbc82784ab6ef8faa6000806101000a81548173ffffffffffffffffffffffffffffffffffffffff021916908373ffffffffffffffffffffffffffffffffffffffff16021790555060019050614348565b600090505b919050565b614355614f9e565b61435d614e77565b614365614e77565b61436d614e77565b614375614e77565b61437d614e77565b614385614f9e565b61438d614e77565b6000808e98508d97508c96508b95508a94508451865188518a518c51010101016040518059106143ba5750595b9080825280601f01601f1916602001820160405250935083925060009150600090505b88518110156144905788818151811015156143f457fe5b9060200101517f010000000000000000000000000000000000000000000000000000000000000090047f010000000000000000000000000000000000000000000000000000000000000002838380600101945081518110151561445357fe5b9060200101907effffffffffffffffffffffffffffffffffffffffffffffffffffffffffffff1916908160001a90535080806001019150506143dd565b600090505b87518110156145485787818151811015156144ac57fe5b9060200101517f010000000000000000000000000000000000000000000000000000000000000090047f010000000000000000000000000000000000000000000000000000000000000002838380600101945081518110151561450b57fe5b9060200101907effffffffffffffffffffffffffffffffffffffffffffffffffffffffffffff1916908160001a9053508080600101915050614495565b600090505b865181101561460057868181518110151561456457fe5b9060200101517f010000000000000000000000000000000000000000000000000000000000000090047f01000000000000000000000000000000000000000000000000000000000000000283838060010194508151811015156145c357fe5b9060200101907effffffffffffffffffffffffffffffffffffffffffffffffffffffffffffff1916908160001a905350808060010191505061454d565b600090505b85518110156146b857858181518110151561461c57fe5b9060200101517f010000000000000000000000000000000000000000000000000000000000000090047f010000000000000000000000000000000000000000000000000000000000000002838380600101945081518110151561467b57fe5b9060200101907effffffffffffffffffffffffffffffffffffffffffffffffffffffffffffff1916908160001a9053508080600101915050614605565b600090505b84518110156147705784818151811015156146d457fe5b9060200101517f010000000000000000000000000000000000000000000000000000000000000090047f010000000000000000000000000000000000000000000000000000000000000002838380600101945081518110151561473357fe5b9060200101907effffffffffffffffffffffffffffffffffffffffffffffffffffffffffffff1916908160001a90535080806001019150506146bd565b82995050505050505050505095945050505050565b6000806000806000888711151561482f576020871115156147e65760018760200360080260020a031980875116888b038a018a96505b8183885116146147db576001870196508060018803106147bb578b8b0196505b505050839450614835565b8686209150879350600092505b8689038311151561482e57868420905080600019168260001916141561481b57839450614835565b60018401935082806001019350506147f3565b5b88880194505b50505050949350505050565b614849614d30565b60006148678560000151866020015186600001518760200151614785565b905084602001518360200181815250508460200151810383600001818152505084600001518560200151018114156148a95760008560000181815250506148d4565b8360000151836000015101856000018181510391508181525050836000015181018560200181815250505b829150509392505050565b60005b60208210151561490757825184526020840193506020830192506020820391506148e2565b6001826020036101000a0390508019835116818551168181178652505050505050565b6000614934614e77565b60008060008693506000925060009150600090505b8351811015614c055760307f010000000000000000000000000000000000000000000000000000000000000002848281518110151561498457fe5b9060200101517f010000000000000000000000000000000000000000000000000000000000000090047f0100000000000000000000000000000000000000000000000000000000000000027effffffffffffffffffffffffffffffffffffffffffffffffffffffffffffff191610158015614a9c575060397f0100000000000000000000000000000000000000000000000000000000000000028482815181101515614a2c57fe5b9060200101517f010000000000000000000000000000000000000000000000000000000000000090047f0100000000000000000000000000000000000000000000000000000000000000027effffffffffffffffffffffffffffffffffffffffffffffffffffffffffffff191611155b15614b4d578115614abf576000861415614ab557614c05565b8580600190039650505b600a8302925060308482815181101515614ad557fe5b9060200101517f010000000000000000000000000000000000000000000000000000000000000090047f0100000000000000000000000000000000000000000000000000000000000000027f010000000000000000000000000000000000000000000000000000000000000090040383019250614bf8565b602e7f0100000000000000000000000000000000000000000000000000000000000000028482815181101515614b7f57fe5b9060200101517f010000000000000000000000000000000000000000000000000000000000000090047f0100000000000000000000000000000000000000000000000000000000000000027effffffffffffffffffffffffffffffffffffffffffffffffffffffffffffff19161415614bf757600191505b5b8080600101915050614949565b6000861115614c175785600a0a830292505b8294505050505092915050565b8060029080519060200190614c3a929190614cb0565b5050565b610100604051908101604052806008905b600079ffffffffffffffffffffffffffffffffffffffffffffffffffff1916815260200190600190039081614c4f5790505090565b815481835581811511614cab57818360005260206000209182019101614caa9190614fb2565b5b505050565b828054600181600116156101000203166002900490600052602060002090601f016020900481019282601f10614cf157805160ff1916838001178555614d1f565b82800160010185558215614d1f579182015b82811115614d1e578251825591602001919060010190614d03565b5b509050614d2c9190614fb2565b5090565b604080519081016040528060008152602001600081525090565b602060405190810160405280600081525090565b604080519081016040528060008152602001600081525090565b826008600401600590048101928215614e265791602002820160005b83821115614df257835183826101000a81548165ffffffffffff02191690837a010000000000000000000000000000000000000000000000000000900402179055509260200192600601602081600501049283019260010302614d94565b8015614e245782816101000a81549065ffffffffffff0219169055600601602081600501049283019260010302614df2565b505b509050614e339190614fd7565b5090565b602060405190810160405280600081525090565b815481835581811511614e7257818360005260206000209182019101614e71919061500c565b5b505050565b602060405190810160405280600081525090565b5080546000825590600052602060002090810190614ea99190614fb2565b50565b828054828255906000526020600020908101928215614f25579160200282015b82811115614f245782518260006101000a81548173ffffffffffffffffffffffffffffffffffffffff021916908373ffffffffffffffffffffffffffffffffffffffff16021790555091602001919060010190614ecc565b5b509050614f329190615031565b5090565b61010060405190810160405280600073ffffffffffffffffffffffffffffffffffffffff168152602001600015158152602001600081526020016000815260200160001515815260200160001515815260200160008152602001614f98615074565b81525090565b602060405190810160405280600081525090565b614fd491905b80821115614fd0576000816000905550600101614fb8565b5090565b90565b61500991905b8082111561500557600081816101000a81549065ffffffffffff021916905550600101614fdd565b5090565b90565b61502e91905b8082111561502a576000816000905550600101615012565b5090565b90565b61507191905b8082111561506d57600081816101000a81549073ffffffffffffffffffffffffffffffffffffffff021916905550600101615037565b5090565b90565b602060405190810160405280600081525090565b60008060009054906101000a900473ffffffffffffffffffffffffffffffffffffffff1673ffffffffffffffffffffffffffffffffffffffff1614806150f7575060006150f56000809054906101000a900473ffffffffffffffffffffffffffffffffffffffff16613eb1565b145b15615108576151066000613ebc565b505b6000809054906101000a900473ffffffffffffffffffffffffffffffffffffffff1673ffffffffffffffffffffffffffffffffffffffff166338cc48316000604051602001526040518163ffffffff167c0100000000000000000000000000000000000000000000000000000000028152600401602060405180830381600087803b151561519557600080fd5b6102c65a03f115156151a657600080fd5b5050506040518051905073ffffffffffffffffffffffffffffffffffffffff16600160009054906101000a900473ffffffffffffffffffffffffffffffffffffffff1673ffffffffffffffffffffffffffffffffffffffff161415156152ef576000809054906101000a900473ffffffffffffffffffffffffffffffffffffffff1673ffffffffffffffffffffffffffffffffffffffff166338cc48316000604051602001526040518163ffffffff167c0100000000000000000000000000000000000000000000000000000000028152600401602060405180830381600087803b151561529357600080fd5b6102c65a03f115156152a457600080fd5b50505060405180519050600160006101000a81548173ffffffffffffffffffffffffffffffffffffffff021916908373ffffffffffffffffffffffffffffffffffffffff1602179055505b600160009054906101000a900473ffffffffffffffffffffffffffffffffffffffff1673ffffffffffffffffffffffffffffffffffffffff1663ca6ad1e4826040518263ffffffff167c010000000000000000000000000000000000000000000000000000000002815260040180828152602001915050600060405180830381600087803b151561537f57600080fd5b6102c65a03f1151561539057600080fd5b50505050565b60008060008060009054906101000a900473ffffffffffffffffffffffffffffffffffffffff1673ffffffffffffffffffffffffffffffffffffffff161480615408575060006154066000809054906101000a900473ffffffffffffffffffffffffffffffffffffffff16613eb1565b145b15615419576154176000613ebc565b505b6000809054906101000a900473ffffffffffffffffffffffffffffffffffffffff1673ffffffffffffffffffffffffffffffffffffffff166338cc48316000604051602001526040518163ffffffff167c0100000000000000000000000000000000000000000000000000000000028152600401602060405180830381600087803b15156154a657600080fd5b6102c65a03f115156154b757600080fd5b5050506040518051905073ffffffffffffffffffffffffffffffffffffffff16600160009054906101000a900473ffffffffffffffffffffffffffffffffffffffff1673ffffffffffffffffffffffffffffffffffffffff16141515615600576000809054906101000a900473ffffffffffffffffffffffffffffffffffffffff1673ffffffffffffffffffffffffffffffffffffffff166338cc48316000604051602001526040518163ffffffff167c0100000000000000000000000000000000000000000000000000000000028152600401602060405180830381600087803b15156155a457600080fd5b6102c65a03f115156155b557600080fd5b50505060405180519050600160006101000a81548173ffffffffffffffffffffffffffffffffffffffff021916908373ffffffffffffffffffffffffffffffffffffffff1602179055505b600160009054906101000a900473ffffffffffffffffffffffffffffffffffffffff1673ffffffffffffffffffffffffffffffffffffffff1663524f3889856000604051602001526040518263ffffffff167c01000000000000000000000000000000000000000000000000000000000281526004018080602001828103825283818151815260200191508051906020019080838360005b838110156156b3578082015181840152602081019050615698565b50505050905090810190601f1680156156e05780820380516001836020036101000a031916815260200191505b5092505050602060405180830381600087803b15156156fe57600080fd5b6102c65a03f1151561570f57600080fd5b50505060405180519050905062030d403a02670de0b6b3a76400000181111561573e57600060010291506158d1565b600160009054906101000a900473ffffffffffffffffffffffffffffffffffffffff1673ffffffffffffffffffffffffffffffffffffffff1663adf59f9982600087876000604051602001526040518563ffffffff167c0100000000000000000000000000000000000000000000000000000000028152600401808481526020018060200180602001838103835285818151815260200191508051906020019080838360005b838110156157ff5780820151818401526020810190506157e4565b50505050905090810190601f16801561582c5780820380516001836020036101000a031916815260200191505b50838103825284818151815260200191508051906020019080838360005b8381101561586557808201518184015260208101905061584a565b50505050905090810190601f1680156158925780820380516001836020036101000a031916815260200191505b50955050505050506020604051808303818588803b15156158b257600080fd5b6125ee5a03f115156158c357600080fd5b505050506040518051905091505b50929150505600a165627a7a72305820eb3ee6b6c447b61b6ed36da8c04c93567c4a5d98107f2b94ac885144144609470029",
  "source": "pragma solidity 0.4.18;\n\nimport \"./lib/oraclize/oraclizeAPI_0.4.sol\";\nimport \"./lib/arachnid/solidity-stringutils/strings.sol\";\n\ncontract PgaDfs is usingOraclize {\n\n  using strings for *;\n\n  struct Golfer {\n    // not storing name,\n    // since we're trying to be minimal with data storage\n    // on ethereum's bloated ass blockchain.\n\n    // increments in 1\n    // salaries are roughly DK salaries / $500\n    // and can be negative!\n    int8 salary;\n\n    // thursday tee times for late swap-ability\n    // (which will cost a transaction fee! LOL!)\n    uint32 thursdayTeeTimestamp;\n\n    // fantasy points at end of tournament\n    int8 points;\n  }\n\n\n  struct Lineup {\n    // MAX of 8 pga tour ids...\n    // you can play less than 8 guys if you want!\n    bytes6[8] golferIds;\n  }\n\n  struct Contest {\n    address owner; // creator of contest\n\n    bool isContest; // true always\n\n    uint entryFee; // TODO(christian): what units?\n    uint prizePool; // all money in contest balance, payable to winners\n\n    // yay or nay, is this an active contest\n    bool live;\n\n    // have we calculated the addressBalances after contest is over?\n    bool arePayoutsSet;\n\n    // when this was created\n    uint createdTimestamp;\n\n    // map ETH address --> lineup in contest\n    address[] entries;\n\n    mapping(address => bool) addressHasEntry;\n    mapping(address => Lineup) lineups;\n    mapping(address => int) entryScores;\n\n    // ETH address --> how much they recouped\n    // once we confirmed the event ends, then payout!\n    mapping(address => uint) balances;\n  }\n\n\n  event newOraclizeQuery(string description);\n\n  // this is the initializer of the contract\n  // who gets special privaledges:\n  // (1) if oraclize fucks up, you set scores manually\n  // (2) you can spend the extraEther in the contract\n  address public contractAdmin;\n  uint private extraEther;\n  uint private minBal;\n\n  // status (bool): is this oraclize query complete or not?\n  mapping(bytes32 => string) queryIdToCallbackAction;\n\n  // this is the CONSTRUCTOR!\n  // we must initialize the lubricaiton amount\n  // with the miniumum balance, which can never be recovered\n  function PgaDfs() public payable {\n    require(msg.value >= minBal);\n    // in the constructor (this function), msg.sender is\n    // the owner of the contract\n    contractAdmin = msg.sender;\n    extraEther = msg.value;\n\n    // OAR for ethereum-bridge\n    OAR = OraclizeAddrResolverI(0x6f485C8BF6fc43eA212E93BBF8ce046C7f1cb475);\n    // TODO: tinker with this gas value\n    oraclize_setCustomGasPrice(1000000000 wei);\n\n    // execute a dummy transcaction to make fee estimation\n    // work by burning the free transaction\n    oraclize_query(\"URL\", \"json(http://api.fixer.io/latest?symbols=USD,GBP).rates.GBP\");\n  }\n\n\n  // N.B. FROM CRYPTO RIC:\n  // if we want to fund money into the \"lubrication account\"\n  // this will allow the contract to function if the price\n  // of ether falls dramatically between querires\n  // and, as a result, because the query fee is charged in USD,\n  // the fee for subsequent queries goes up\n  // this should average out over time,\n  // we charge a small fee to make sure it more likely going up\n  // this fee, over the course of 400 wagers,\n  // should offset the irrecovable minimum balance\n  function deposit() payable external {\n    extraEther += msg.value;\n  }\n\n  // CRYPTO RIC:\n  // if we want to withdraw money from the lubrication account\n  // we can only draw from the extraEther gained,\n  // so as to protect and wall off funds from active wagers\n  // we must leave a minBal of .1 ether to serve as lubrication\n  // this protects people with wagers from us withdrawing\n  // all the lubrication while they have bets in, which\n  // would make them have the potential to fail\n  function withdraw() external {\n    require(msg.sender == contractAdmin);\n\n    if (extraEther - minBal > 0) {\n      contractAdmin.transfer(extraEther - minBal);\n      extraEther = minBal;\n    }\n  }\n\n  // pga tour id ==> golfer data (salary, scores, etc.)\n  bytes6[] pgaIdsInSalaries;\n  mapping(bytes6 => Golfer) pgaIdToGolfer;\n\n  // contest data\n  bytes32[] contestIds;\n  mapping(bytes32 => Contest) contests;\n\n\n  // salary cap is 100\n  // salaries are integers and CAN BE NEGATIVE\n  // think mike weir\n  int salaryCap = 100;\n\n  // rake is 2.0% or 20/1000\n  uint rakeTimesOneThousand = 20;\n\n  // is scoring complete for the current tournament\n  bool isGolferScoringComplete;\n\n  // format: \"{pgaId}:{thursdayTeeTimestamp}:{salary}\"\n  // example: \"34360:1522955700:15 32102:1522963620:-2\" <-- salaries can be negative!\n  string compressedSalariesUrl = \"\"; // e.g. \"https://s3.amazonaws.com/ethdfs/pga/compressedSalaries/2018/471.json\";\n\n  // format: \"{pgaId}:{rd1}-{rd2}-{rd3}-{rd4}\"\n  // example: \"34360:69-66-67-71 32102:70-72-65-67\"\n  string compressedScoresUrl = \"\"; // e.g. \"https://s3.amazonaws.com/ethdfs/pga/compressedScores/2018/471.json\";\n\n  function isValidLineup(bytes6[8] proposedGolferIds) public view returns (bool) {\n\n    uint lineupLength = proposedGolferIds.length;\n    if (lineupLength > 8) {\n      // you can play at most 8 guys\n      // does the type in function arg already prevent this?\n      return false;\n    }\n\n    int16 totalSalary = 0;\n    for (uint8 ii = 0; ii < lineupLength; ii++) {\n      totalSalary += pgaIdToGolfer[proposedGolferIds[ii]].salary;\n    }\n\n    // and if you have 8 or less guys, their total salary\n    // must be less than or equal to the cap\n    return totalSalary <= salaryCap;\n  }\n\n  function setAlreadyValidatedLineup(bytes32 contestId, bytes6[8] proposedGolferIds, address lineupAddress) public {\n    // TODO: ENCRYPT THIS LATER w/ Ric's idea\n    // EVERYONES LINEUPS ARE PUBLIC DATA RIGHT NOW LOL\n    // OR: use the jim hashed lineup trick,\n    // united with a really good frontend\n    // for revealing the lineup you have\n    Contest storage contest = contests[contestId];\n    contest.lineups[lineupAddress] = Lineup({golferIds : proposedGolferIds});\n    contest.addressHasEntry[lineupAddress] = true;\n  }\n\n  function isNewContestValid(bytes32 contestId, address proposedNewOwner) public view returns (bool) {\n    // make sure we aren't overwriting a previously used contestId.\n    // however, re-use of contest id is okay.\n    // that way, people can remember contest ids and join their fav\n    // contests without having to look for a link\n    if (contests[contestId].isContest) {\n      Contest memory oldContest = contests[contestId];\n\n      if (oldContest.live) {\n        // you can't re-create a live contest.\n        // prevents contest owners from\n        // effectively deleting a contest\n        return false;\n      }\n\n      // if we have a contest, check that the\n      // owner is the only one re-using it.\n      return (oldContest.owner == proposedNewOwner);\n    } else {\n      // if a contest with this contestId does not exist,\n      // then yes we can create it\n      return true;\n    }\n  }\n\n  function calculateRake(uint eth) public view returns (uint) {\n    return eth - (eth * rakeTimesOneThousand) / 1000;\n  }\n\n  function createContest(bytes32 contestId, bytes6[8] proposedGolferIds) public payable {\n    // when you make a contest, you also must make a lineup, and you are auto-joined\n    require(isNewContestValid(contestId, msg.sender));\n    require(isValidLineup(proposedGolferIds));\n\n    contestIds.push(contestId);\n    contests[contestId] = Contest({\n      owner : msg.sender,\n      // entry fee is AUTOMATICALLY calculated by how much the owner deposits\n      entryFee : msg.value - calculateRake(msg.value),\n      createdTimestamp : block.timestamp,\n      live : true,\n      arePayoutsSet : false,\n      isContest : true,\n      prizePool : 0,\n      entries : new address[](0)\n    });\n    payEntryFeeToContest(contestId, msg.sender, msg.value);\n  }\n\n  function enterContest(bytes32 contestId, bytes6[8] proposedGolferIds) public payable {\n    require(isValidLineup(proposedGolferIds));\n    payEntryFeeToContest(contestId, msg.sender, msg.value);\n    setAlreadyValidatedLineup(contestId, proposedGolferIds, msg.sender);\n  }\n\n  function editLineupInContest(bytes32 contestId, bytes6[8] proposedGolferIds) public {\n    require(isValidLineup(proposedGolferIds));\n    setAlreadyValidatedLineup(contestId, proposedGolferIds, msg.sender);\n  }\n\n  function payEntryFeeToContest(bytes32 contestId, address msgSender, uint ethEntered) public payable {\n\n    Contest storage activeContest = contests[contestId];\n    if (!activeContest.addressHasEntry[msgSender]) {\n      // if they not are already in the contest, pay rake and enter\n      uint rakeToCollect = calculateRake(ethEntered);\n\n      require(ethEntered > activeContest.entryFee + rakeToCollect);\n\n      activeContest.prizePool += activeContest.entryFee;\n      extraEther += rakeToCollect;\n      // if someone sends us extra money,\n      // it goes their balance for the contest\n      // and by default they can get paid out at the end\n      // otherwise they can withdraw\n      activeContest.balances[msgSender] += ethEntered - activeContest.entryFee - rakeToCollect;\n    }\n\n  }\n\n  function toBytes6(string memory source) returns (bytes6 result) {\n    bytes memory tempEmptyStringTest = bytes(source);\n    if (tempEmptyStringTest.length == 0) {\n        return 0x0;\n    }\n\n    assembly {\n        result := mload(add(source, 6))\n    }\n  }\n\n\n  function setSalaries(string compressedSalaries) public {\n\n    // clear out old golfers (see if this requires a lot of gas?)\n    for (uint16 ii = 0; ii < pgaIdsInSalaries.length; ii++) {\n      delete pgaIdToGolfer[pgaIdsInSalaries[ii]];\n      delete pgaIdsInSalaries[ii];\n    }\n    isGolferScoringComplete = false;\n\n    var compressedSalariesSlice = compressedSalaries.toSlice();\n    var playerDelimiter = \" \".toSlice();\n    var playerSlices = new strings.slice[](compressedSalariesSlice.count(playerDelimiter) + 1);\n\n    for (ii = 0; ii < playerSlices.length; ii++) {\n      playerSlices[ii] = compressedSalariesSlice.split(playerDelimiter);\n      bytes6 pgaPlayerId = toBytes6(playerSlices[ii].split(\":\".toSlice()).toString());\n      uint32 thursdayTeeTimestamp = uint32(parseInt(playerSlices[ii].split(\"-\".toSlice()).toString()));\n      int8 salary = int8(parseInt(playerSlices[ii].split(\"-\".toSlice()).toString()));\n\n      pgaIdsInSalaries[ii] = pgaPlayerId;\n      pgaIdToGolfer[pgaPlayerId] = Golfer({\n          salary : salary,\n          thursdayTeeTimestamp : thursdayTeeTimestamp,\n          points : 0\n        });\n    }\n  }\n\n  function setScores(string compressedScores) public {\n    // TODO: really make sure this works\n    // TODO: difference between var and normal types?\n    require(!isGolferScoringComplete);\n\n    var compressedScoresSlice = compressedScores.toSlice();\n    var playerDelimiter = \" \".toSlice();\n    var playerScoreSlices = new strings.slice[](compressedScoresSlice.count(playerDelimiter) + 1);\n\n    for (uint16 i = 0; i < playerScoreSlices.length; i++) {\n      playerScoreSlices[i] = compressedScoresSlice.split(playerDelimiter);\n      bytes6 pgaPlayerId = toBytes6(playerScoreSlices[i].split(\":\".toSlice()).toString());\n      uint roundSlices = playerScoreSlices[i].count(\"-\".toSlice()) + 1;\n      for (uint rd = 0; rd < roundSlices; rd++) {\n        int8 rdScore = int8(parseInt(playerScoreSlices[i].split(\"-\".toSlice()).toString()));\n        pgaIdToGolfer[pgaPlayerId].points += int8(80) - rdScore;\n      }\n    }\n    isGolferScoringComplete = true;\n  }\n\n  function setSingleContestPayouts(bytes32 contestId) public {\n    // everyone who scores > max(0, the contest average) gets paid\n    // you are paid proportional to your squared score\n    require(isGolferScoringComplete);\n\n    Contest storage contest = contests[contestId];\n    require(contest.live);\n    require(!contest.arePayoutsSet);\n\n    int32 totalEntries = int32(contest.entries.length);\n    int totalPoints = 0;\n\n    // calculate the average score in the contest\n    for (uint8 ii = 0; ii < totalEntries; ii++) {\n      address entry = contest.entries[ii];\n      bytes6[8] memory entryPgaIds = contest.lineups[entry].golferIds;\n      for (uint8 g = 0; g < entryPgaIds.length; g++) {\n        contest.entryScores[entry] += pgaIdToGolfer[entryPgaIds[g]].points;\n      }\n      totalPoints += contest.entryScores[entry];\n    }\n\n    // of the top half (except any of those that scored < 0),\n    // sum up the squared scores\n    int averagePointsRoundedDown = totalPoints / totalEntries;\n    // ugh... only using storage since memory isnt dynamic\n    address[] storage winningEntries;\n    uint summedSquaredWinningScores = 0;\n\n    for (ii = 0; ii < totalEntries; ii++) {\n      entry = contest.entries[ii];\n      if (contest.entryScores[entry] >= averagePointsRoundedDown && contest.entryScores[entry] >= 0) {\n        uint squaredScore = uint(contest.entryScores[entry] * contest.entryScores[entry]);\n        winningEntries.push(entry);\n        summedSquaredWinningScores += squaredScore;\n      }\n    }\n\n    // then pay out people proportional to squared points\n    for (ii = 0; ii < winningEntries.length; ii++) {\n      entry = winningEntries[ii];\n      // TODO: make sure there's no rounding error B.S. going on\n      // that makes us massively over or under pay people\n      squaredScore = uint(contest.entryScores[entry] * contest.entryScores[entry]);\n      uint toPayout = (contest.prizePool * squaredScore) / summedSquaredWinningScores;\n      contest.balances[entry] += toPayout;\n    }\n\n    contest.arePayoutsSet = true;\n  }\n\n  function withdrawBalanceFromContest(bytes32 contestId) public {\n    Contest storage contest = contests[contestId];\n    if (contest.balances[msg.sender] > 0) {\n      msg.sender.transfer(contest.balances[msg.sender]);\n      contest.balances[msg.sender] = 0;\n    }\n  }\n\n  function payOutContest(bytes32 contestId) public {\n    require(isGolferScoringComplete);\n\n    Contest storage contest = contests[contestId];\n    require(contest.arePayoutsSet);\n    require(contest.live);\n\n    for (uint ii = 0; ii < contest.entries.length; ii++) {\n      address entry = contest.entries[ii];\n      if (contest.balances[entry] > 0) {\n        entry.transfer(contest.balances[entry]);\n        contest.balances[msg.sender] = 0;\n      }\n    }\n\n    contest.live = false;\n  }\n\n  function setScoresUrlAndGetResultsOnChain(string compressedScoresUrl_) public {\n      require(msg.sender == contractAdmin);\n      setCompressedScoresUrl(compressedScoresUrl_);\n      getScoresOnChain();\n  }\n\n  function setSalariesUrlAndGetSalariesOnChain(string compressedSalariesUrl_) public {\n      require(msg.sender == contractAdmin);\n      setcompressedSalariesUrl(compressedSalariesUrl_);\n      getSalariesOnChain();\n  }\n\n  // change the compressed scores URL endpoint\n  function setCompressedScoresUrl(string compressedScoresUrl_) public {\n    require(msg.sender == contractAdmin);\n    compressedScoresUrl = compressedScoresUrl_;\n  }\n\n  function setcompressedSalariesUrl(string compressedSalariesUrl_) public {\n    require(msg.sender == contractAdmin);\n    compressedSalariesUrl = compressedSalariesUrl_;\n  }\n\n  function getSalariesOnChain() public payable {\n    innerOraclizeQuery(compressedSalariesUrl, \"Salaries\");\n  }\n\n  function getScoresOnChain() public payable {\n    innerOraclizeQuery(compressedScoresUrl, \"scores\");\n  }\n\n  // ========================= ORACLIZE functions =========================\n\n\n  function innerOraclizeQuery(string queryUrl, string callbackAction) public payable {\n    // TODO: make these views\n    uint cost = 2400000000000000 + (oraclize_getPrice(\"URL\") * 3);\n    uint fee = 100000000000000;\n\n    if (msg.value < cost + fee) {\n      newOraclizeQuery(\"Oraclize query failed. Send more ETH (.0025ETH in gas + $.03 per query\");\n      msg.sender.transfer(msg.value);\n    } else {\n      extraEther += msg.value - cost;\n      newOraclizeQuery(\"Oraclize queries were sent, standing by for the answer.\");\n      bytes32 queryId = oraclize_query(\n        \"URL\",\n        strConcat(\"json(\", queryUrl, \").compressedScores\"),\n        600000\n      );\n      queryIdToCallbackAction[queryId] = callbackAction;\n    }\n  }\n\n  // switch function for callbacks\n  function __callback(bytes32 myid, string result) public {\n    require(msg.sender == oraclize_cbAddress());\n    // can't compare string storage pointers and string literals,\n    // so instead let's compare their keccak256 hashes!\n    bytes32 actionHash = keccak256(queryIdToCallbackAction[myid]);\n    if (actionHash == keccak256(\"Salaries\")) {\n      setSalaries(result);\n    }\n    if (actionHash == keccak256(\"scores\")) {\n      setScores(result);\n    }\n  }\n\n  // CRYPTO RIC:\n  // should anyone wish to be a good blockchain citizen\n  // and delete a wager that is no longer live\n  function deleteContest(bytes32 contestId) external {\n    require(!contests[contestId].live);\n    delete contests[contestId];\n  }\n\n  function getLiveContestIds() public view returns (bytes32[]) {\n    bytes32[] liveContestIds;\n    for (uint ii = 0; ii < contestIds.length; ii++) {\n      bytes32 contestId = contestIds[ii];\n      if (contests[contestId].live) {\n        liveContestIds.push(contestId);\n      }\n    }\n    return liveContestIds;\n  }\n\n  function getContestById(bytes32 contestId) public view returns (\n      bytes32,\n      uint,\n      uint,\n      address,\n      uint\n    ) {\n      Contest memory contest = contests[contestId];\n      return (\n          contestId,\n          contest.entryFee,\n          contest.entries.length,\n          contest.owner,\n          contest.createdTimestamp\n        );\n    }\n\n  function testFunction() public view returns (int8) {\n    return 1;\n  }\n}\n",
  "sourcePath": "/Users/christian/workspace/ddfs/contracts/PgaDfs.sol",
  "compiler": {
    "name": "solc",
    "version": "0.4.18+commit.9cf6e910.Emscripten.clang"
  },
  "schemaVersion": "2.0.0",
  "updatedAt": "2018-07-13T23:11:33.311Z"
}