{
  "contractName": "PgaDfs",
  "abi": [
    {
      "constant": true,
      "inputs": [],
      "name": "contractAdmin",
      "outputs": [
        {
          "name": "",
          "type": "address"
        }
      ],
      "payable": false,
      "stateMutability": "view",
      "type": "function"
    },
    {
      "inputs": [],
      "payable": true,
      "stateMutability": "payable",
      "type": "constructor"
    },
    {
      "anonymous": false,
      "inputs": [
        {
          "indexed": false,
          "name": "description",
          "type": "string"
        }
      ],
      "name": "newOraclizeQuery",
      "type": "event"
    },
    {
      "constant": false,
      "inputs": [],
      "name": "deposit",
      "outputs": [],
      "payable": true,
      "stateMutability": "payable",
      "type": "function"
    },
    {
      "constant": false,
      "inputs": [],
      "name": "withdraw",
      "outputs": [],
      "payable": false,
      "stateMutability": "nonpayable",
      "type": "function"
    },
    {
      "constant": false,
      "inputs": [
        {
          "name": "lineupHash",
          "type": "bytes32"
        }
      ],
      "name": "setLineupHash",
      "outputs": [],
      "payable": false,
      "stateMutability": "nonpayable",
      "type": "function"
    },
    {
      "constant": true,
      "inputs": [
        {
          "name": "entrantAddress",
          "type": "address"
        }
      ],
      "name": "getLineupHash",
      "outputs": [
        {
          "name": "",
          "type": "bytes32"
        }
      ],
      "payable": false,
      "stateMutability": "view",
      "type": "function"
    },
    {
      "constant": true,
      "inputs": [],
      "name": "getEnteredAddressesForCurrentSlate",
      "outputs": [
        {
          "name": "",
          "type": "address[]"
        }
      ],
      "payable": false,
      "stateMutability": "view",
      "type": "function"
    },
    {
      "constant": true,
      "inputs": [
        {
          "name": "address_",
          "type": "address"
        }
      ],
      "name": "getCurrentSlateLineupForAddress",
      "outputs": [
        {
          "name": "",
          "type": "bytes32"
        },
        {
          "name": "",
          "type": "uint16[8]"
        },
        {
          "name": "",
          "type": "int16"
        }
      ],
      "payable": false,
      "stateMutability": "view",
      "type": "function"
    },
    {
      "constant": true,
      "inputs": [],
      "name": "getSlateId",
      "outputs": [
        {
          "name": "",
          "type": "bytes12"
        }
      ],
      "payable": false,
      "stateMutability": "view",
      "type": "function"
    },
    {
      "constant": true,
      "inputs": [
        {
          "name": "pgaId",
          "type": "uint16"
        }
      ],
      "name": "getSalary",
      "outputs": [
        {
          "name": "",
          "type": "int8"
        }
      ],
      "payable": false,
      "stateMutability": "view",
      "type": "function"
    },
    {
      "constant": true,
      "inputs": [
        {
          "name": "pgaId",
          "type": "uint16"
        }
      ],
      "name": "getPoints",
      "outputs": [
        {
          "name": "",
          "type": "int8"
        }
      ],
      "payable": false,
      "stateMutability": "view",
      "type": "function"
    },
    {
      "constant": false,
      "inputs": [
        {
          "name": "golferIdsColonDelimited",
          "type": "string"
        },
        {
          "name": "revealKey",
          "type": "string"
        }
      ],
      "name": "revealLineup",
      "outputs": [
        {
          "name": "",
          "type": "int16"
        }
      ],
      "payable": false,
      "stateMutability": "nonpayable",
      "type": "function"
    },
    {
      "constant": true,
      "inputs": [
        {
          "name": "wei_",
          "type": "uint256"
        }
      ],
      "name": "calculateRake",
      "outputs": [
        {
          "name": "",
          "type": "uint256"
        }
      ],
      "payable": false,
      "stateMutability": "view",
      "type": "function"
    },
    {
      "constant": false,
      "inputs": [
        {
          "name": "contestId",
          "type": "bytes32"
        }
      ],
      "name": "createContest",
      "outputs": [],
      "payable": true,
      "stateMutability": "payable",
      "type": "function"
    },
    {
      "constant": false,
      "inputs": [
        {
          "name": "contestId",
          "type": "bytes32"
        }
      ],
      "name": "enterContest",
      "outputs": [],
      "payable": true,
      "stateMutability": "payable",
      "type": "function"
    },
    {
      "constant": false,
      "inputs": [
        {
          "name": "contestId",
          "type": "bytes32"
        },
        {
          "name": "msgSender",
          "type": "address"
        },
        {
          "name": "ethEntered",
          "type": "uint256"
        }
      ],
      "name": "payEntryFeeToContest",
      "outputs": [],
      "payable": true,
      "stateMutability": "payable",
      "type": "function"
    },
    {
      "constant": false,
      "inputs": [
        {
          "name": "compressedSalaries",
          "type": "string"
        }
      ],
      "name": "setSalaries",
      "outputs": [],
      "payable": false,
      "stateMutability": "nonpayable",
      "type": "function"
    },
    {
      "constant": false,
      "inputs": [
        {
          "name": "compressedScores",
          "type": "string"
        }
      ],
      "name": "setScores",
      "outputs": [],
      "payable": false,
      "stateMutability": "nonpayable",
      "type": "function"
    },
    {
      "constant": false,
      "inputs": [
        {
          "name": "slateId_",
          "type": "bytes12"
        }
      ],
      "name": "scoreEnteredAddresses",
      "outputs": [],
      "payable": false,
      "stateMutability": "nonpayable",
      "type": "function"
    },
    {
      "constant": false,
      "inputs": [
        {
          "name": "contestId",
          "type": "bytes32"
        }
      ],
      "name": "setSingleContestPayouts",
      "outputs": [],
      "payable": false,
      "stateMutability": "nonpayable",
      "type": "function"
    },
    {
      "constant": true,
      "inputs": [
        {
          "name": "address_",
          "type": "address"
        }
      ],
      "name": "getUserBalance",
      "outputs": [
        {
          "name": "",
          "type": "uint256"
        }
      ],
      "payable": false,
      "stateMutability": "view",
      "type": "function"
    },
    {
      "constant": false,
      "inputs": [],
      "name": "getSalariesOnChain",
      "outputs": [],
      "payable": true,
      "stateMutability": "payable",
      "type": "function"
    },
    {
      "constant": false,
      "inputs": [],
      "name": "getScoresOnChain",
      "outputs": [],
      "payable": true,
      "stateMutability": "payable",
      "type": "function"
    },
    {
      "constant": false,
      "inputs": [
        {
          "name": "compressedScoresUrl_",
          "type": "string"
        }
      ],
      "name": "setScoresUrlAndGetResultsOnChain",
      "outputs": [],
      "payable": false,
      "stateMutability": "nonpayable",
      "type": "function"
    },
    {
      "constant": false,
      "inputs": [
        {
          "name": "compressedSalariesUrl_",
          "type": "string"
        }
      ],
      "name": "setSalariesUrlAndGetSalariesOnChain",
      "outputs": [],
      "payable": false,
      "stateMutability": "nonpayable",
      "type": "function"
    },
    {
      "constant": false,
      "inputs": [
        {
          "name": "_newSlateId",
          "type": "bytes12"
        },
        {
          "name": "_compressedSalariesUrl",
          "type": "string"
        },
        {
          "name": "_compressedScoresUrl",
          "type": "string"
        },
        {
          "name": "lockTimestamp",
          "type": "uint256"
        }
      ],
      "name": "setNewSlateInfo",
      "outputs": [],
      "payable": false,
      "stateMutability": "nonpayable",
      "type": "function"
    },
    {
      "constant": false,
      "inputs": [
        {
          "name": "queryUrl",
          "type": "string"
        },
        {
          "name": "callbackAction",
          "type": "string"
        }
      ],
      "name": "innerOraclizeQuery",
      "outputs": [],
      "payable": true,
      "stateMutability": "payable",
      "type": "function"
    },
    {
      "constant": false,
      "inputs": [
        {
          "name": "myid",
          "type": "bytes32"
        },
        {
          "name": "result",
          "type": "string"
        },
        {
          "name": "proof",
          "type": "bytes"
        }
      ],
      "name": "__callback",
      "outputs": [],
      "payable": false,
      "stateMutability": "nonpayable",
      "type": "function"
    },
    {
      "constant": false,
      "inputs": [
        {
          "name": "myid",
          "type": "bytes32"
        },
        {
          "name": "result",
          "type": "string"
        }
      ],
      "name": "__callback",
      "outputs": [],
      "payable": false,
      "stateMutability": "nonpayable",
      "type": "function"
    },
    {
      "constant": false,
      "inputs": [
        {
          "name": "contestId",
          "type": "bytes32"
        }
      ],
      "name": "deleteContest",
      "outputs": [],
      "payable": false,
      "stateMutability": "nonpayable",
      "type": "function"
    },
    {
      "constant": true,
      "inputs": [],
      "name": "getLiveContestIds",
      "outputs": [
        {
          "name": "",
          "type": "bytes32[]"
        }
      ],
      "payable": false,
      "stateMutability": "view",
      "type": "function"
    },
    {
      "constant": true,
      "inputs": [
        {
          "name": "contestId",
          "type": "bytes32"
        }
      ],
      "name": "getContestById",
      "outputs": [
        {
          "name": "",
          "type": "bytes32"
        },
        {
          "name": "",
          "type": "uint256"
        },
        {
          "name": "",
          "type": "uint256"
        },
        {
          "name": "",
          "type": "address"
        }
      ],
      "payable": false,
      "stateMutability": "view",
      "type": "function"
    },
    {
      "constant": true,
      "inputs": [
        {
          "name": "slateId_",
          "type": "bytes12"
        },
        {
          "name": "contestId",
          "type": "bytes32"
        }
      ],
      "name": "getContestEntries",
      "outputs": [
        {
          "name": "",
          "type": "address[]"
        }
      ],
      "payable": false,
      "stateMutability": "view",
      "type": "function"
    },
    {
      "constant": true,
      "inputs": [
        {
          "name": "slateId_",
          "type": "bytes12"
        },
        {
          "name": "contestId_",
          "type": "bytes32"
        },
        {
          "name": "address_",
          "type": "address"
        }
      ],
      "name": "getContestRecoup",
      "outputs": [
        {
          "name": "",
          "type": "uint256"
        }
      ],
      "payable": false,
      "stateMutability": "view",
      "type": "function"
    },
    {
      "constant": true,
      "inputs": [
        {
          "name": "slateId_",
          "type": "bytes12"
        },
        {
          "name": "entryAddress",
          "type": "address"
        }
      ],
      "name": "getEntryScore",
      "outputs": [
        {
          "name": "",
          "type": "int16"
        }
      ],
      "payable": false,
      "stateMutability": "view",
      "type": "function"
    },
    {
      "constant": true,
      "inputs": [
        {
          "name": "slateId_",
          "type": "bytes12"
        }
      ],
      "name": "getGolferIdsOnSlate",
      "outputs": [
        {
          "name": "",
          "type": "uint16[]"
        }
      ],
      "payable": false,
      "stateMutability": "view",
      "type": "function"
    },
    {
      "constant": true,
      "inputs": [],
      "name": "testFunction",
      "outputs": [
        {
          "name": "",
          "type": "string"
        }
      ],
      "payable": false,
      "stateMutability": "view",
      "type": "function"
    }
  ],
  "bytecode": "0x6060604052602060405190810160405260008152600c90805162000028929160200190620000af565b50602060405190810160405260008152600d9080516200004d929160200190620000af565b50606460155560146016556007543410156200006857600080fd5b60058054600160a060020a033316600160a060020a03199182161790915534600655600080549091167315ce83f7b43082c21deb5bedd004e2f683b4539217905562000154565b828054600181600116156101000203166002900490600052602060002090601f016020900481019282601f10620000f257805160ff191683800117855562000122565b8280016001018555821562000122579182015b828111156200012257825182559160200191906001019062000105565b506200013092915062000134565b5090565b6200015191905b808211156200013057600081556001016200013b565b90565b6139ee80620001646000396000f3006060604052600436106101a85763ffffffff60e060020a6000350416630806498081146101ad5780630aa5743a146101e05780630b4103ee146102255780630fc335601461023d578063137492ff1461024557806318d019dc146102965780631c5c5fa31461030257806326daf1641461039557806327dc297e1461041d5780632b58719d1461047357806338bbfa50146104c45780633ccfd60b1461055c57806344375f661461056f578063471924db14610613578063477348921461067957806348c8fb26146106aa5780634c55dcde146106ca5780634c5e9d18146106e05780634d346a49146107315780636aff681c14610761578063779552451461077b5780637ba36128146107aa5780637ea5678c146107bd578063807d9e16146107ec578063897e4edb146107f7578063ab4153ad14610802578063bd3b38ff14610825578063c1c6070e1461083f578063c5012ffc14610855578063cd84d13e146108a6578063d0e30db0146108c6578063d781b7cf146108ce578063e16b4a9b146108e4578063eb1a57241461096e578063f5a45c601461098d578063fb9a7aaf146109d7575b600080fd5b34156101b857600080fd5b6101c761ffff600435166109df565b604051600091820b90910b815260200160405180910390f35b34156101eb57600080fd5b61020c600160a060020a031960043516602435600160a060020a0316610a18565b604051600191820b90910b815260200160405180910390f35b341561023057600080fd5b61023b600435610a4f565b005b61023b610df2565b341561025057600080fd5b61023b60046024813581810190830135806020601f82018190048102016040519081016040528181529291906020840183838082843750949650610ecb95505050505050565b34156102a157600080fd5b6102b5600160a060020a0360043516610efa565b604051838152602081018361010080838360005b838110156102e15780820151838201526020016102c9565b505050509050018260010b60010b8152602001935050505060405180910390f35b341561030d57600080fd5b61020c60046024813581810190830135806020601f8201819004810201604051908101604052818152929190602084018383808284378201915050505050509190803590602001908201803590602001908080601f01602080910402602001604051908101604052818152929190602084018383808284375094965061102295505050505050565b61023b60046024813581810190830135806020601f8201819004810201604051908101604052818152929190602084018383808284378201915050505050509190803590602001908201803590602001908080601f01602080910402602001604051908101604052818152929190602084018383808284375094965061133e95505050505050565b341561042857600080fd5b61023b600480359060446024803590810190830135806020601f820181900481020160405190810160405281815292919060208401838380828437509496506115fe95505050505050565b341561047e57600080fd5b61023b60046024813581810190830135806020601f8201819004810201604051908101604052818152929190602084018383808284375094965061172995505050505050565b34156104cf57600080fd5b61023b600480359060446024803590810190830135806020601f8201819004810201604051908101604052818152929190602084018383808284378201915050505050509190803590602001908201803590602001908080601f01602080910402602001604051908101604052818152929190602084018383808284375094965061172495505050505050565b341561056757600080fd5b61023b61191d565b341561057a57600080fd5b61023b60048035600160a060020a0319169060446024803590810190830135806020601f8201819004810201604051908101604052818152929190602084018383808284378201915050505050509190803590602001908201803590602001908080601f016020809104026020016040519081016040528181529291906020840183838082843750949650509335935061198c92505050565b341561061e57600080fd5b6106266119fe565b60405160208082528190810183818151815260200191508051906020019060200280838360005b8381101561066557808201518382015260200161064d565b505050509050019250505060405180910390f35b341561068457600080fd5b610698600160a060020a0360043516611a5e565b60405190815260200160405180910390f35b34156106b557600080fd5b61023b600160a060020a031960043516611a79565b34156106d557600080fd5b61023b600435611c50565b34156106eb57600080fd5b61023b60046024813581810190830135806020601f82018190048102016040519081016040528181529291906020840183838082843750949650611cce95505050505050565b341561073c57600080fd5b610744611efc565b604051600160a060020a0319909116815260200160405180910390f35b61023b600435600160a060020a0360243516604435611f08565b341561078657600080fd5b61078e61204c565b604051600160a060020a03909116815260200160405180910390f35b34156107b557600080fd5b61062661205b565b34156107c857600080fd5b610698600160a060020a031960043516602435604435600160a060020a03166120e5565b61023b600435612123565b61023b60043561220a565b341561080d57600080fd5b610626600160a060020a031960043516602435612327565b341561083057600080fd5b6101c761ffff600435166123b7565b341561084a57600080fd5b61023b6004356123f5565b341561086057600080fd5b61023b60046024813581810190830135806020601f820181900481020160405190810160405281815292919060208401838380828437509496506124d195505050505050565b34156108b157600080fd5b610626600160a060020a0319600435166124fd565b61023b6125aa565b34156108d957600080fd5b6106986004356125b4565b34156108ef57600080fd5b6108f76125c0565b60405160208082528190810183818151815260200191508051906020019080838360005b8381101561093357808201518382015260200161091b565b50505050905090810190601f1680156109605780820380516001836020036101000a031916815260200191505b509250505060405180910390f35b341561097957600080fd5b610698600160a060020a0360043516612601565b341561099857600080fd5b6109a360043561263e565b6040519384526020840192909252604080840191909152600160a060020a0390911660608301526080909101905180910390f35b61023b612685565b600a5460a060020a02600160a060020a0319166000908152600f6020908152604080832061ffff85168452909152812054900b5b919050565b600160a060020a031982166000908152601260209081526040808320600160a060020a038516845290915290205460010b92915050565b600a5460a060020a02600160a060020a03191660009081526017602052604081205481908190819081908190819081908190819060ff161515610a9157600080fd5b60008b81526014602052604090206004810154909a5060ff161515610ab557600080fd5b600a5460a060020a02600160a060020a031916600090815260058b01602052604090205460ff1615610ae657600080fd5b600a5460a060020a02600160a060020a031916600090815260068b016020526040812054995097508796505b8861ffff168760ff161015610bad57600a5460a060020a02600160a060020a031916600090815260068b0160205260409020805460ff8916908110610b5357fe5b600091825260208083209190910154600a5460a060020a02600160a060020a0319168352601282526040808420600160a060020a0390921680855291909252912054600190810b810b999099019897909701969550610b12565b8861ffff1688811515610bbc57fe5b05945060009350600096505b8861ffff168760ff161015610c8957600a5460a060020a02600160a060020a031916600090815260068b0160205260409020805460ff8916908110610c0957fe5b600091825260208083209190910154600a5460a060020a02600160a060020a0319168352601282526040808420600160a060020a0390921680855291909252912054909650600190810b935083900b859012801590610c6c575060008360010b12155b15610c7e5782800260010b9384019391505b600190960195610bc8565b600096505b8861ffff168760ff161015610da857600a5460a060020a02600160a060020a031916600090815260068b0160205260409020805460ff8916908110610ccf57fe5b600091825260208083209190910154600a5460a060020a02600160a060020a0319168352601282526040808420600160a060020a0390921680855291909252912054909650600190810b935083900b859012801590610d32575060008360010b12155b15610d9d5782830260010b915083828b6002015402811515610d5057fe5b600a5460a060020a02600160a060020a031916600090815260098d0160209081526040808320600160a060020a038c16845282528083209490930493849055600890522080548201905590505b600190960195610c8e565b5050600a5460a060020a02600160a060020a031916600090815260058901602052604090208054600160ff1991821617909155600490980180549098169097555050505050505050565b610ec9600d8054600181600116156101000203166002900480601f016020809104026020016040519081016040528092919081815260200182805460018160011615610100020316600290048015610e8b5780601f10610e6057610100808354040283529160200191610e8b565b820191906000526020600020905b815481529060010190602001808311610e6e57829003601f168201915b505050505060408051908101604052600681527f53636f7265730000000000000000000000000000000000000000000000000000602082015261133e565b565b60055433600160a060020a03908116911614610ee657600080fd5b610eef8161275c565b610ef7612685565b50565b6000610f0461385d565b6000610f0e613886565b600a5460a060020a02600160a060020a0319166000908152601160209081526040808320600160a060020a03891684529091529081902090606090519081016040908152825460ff161515825260018301546020830152909190808301906002830190600890610100905190810160405291906101008301826000855b82829054906101000a900461ffff1661ffff1681526020019060020190602082600101049283019260010382029150808411610f8b579050505050505081525050905080602001518160400151600a54600160a060020a031960a060020a909102166000908152601260209081526040808320600160a060020a038b168452909152902054919550935060010b9150509193909250565b600061102c6138ad565b6110346138bf565b61103c6138bf565b60008060008060006110828b60408051908101604052600181527f7c0000000000000000000000000000000000000000000000000000000000000060208201528c61276f565b6040518082805190602001908083835b602083106110b15780518252601f199092019160209182019101611092565b6001836020036101000a0380198251168184511617909252505050919091019250604091505051908190039020600a5460a060020a02600160a060020a0319166000908152601160209081526040808320600160a060020a03331684529091529020600101541461112157600080fd5b60086040518059106111305750595b9080825280602002602001820160405250975061114c8b6127aa565b9650611171604080519081016040526001815260f960020a601d0260208201526127aa565b9550611183878763ffffffff6127d216565b6001019450600885111561119657600080fd5b60009350600092505b848360ff16101561127b576111ca6111c56111c0898963ffffffff61283016565b612843565b612891565b9150600090505b8260ff168160ff16101561121357878160ff16815181106111ee57fe5b9060200190602002015161ffff8381169116141561120b57600080fd5b6001016111d1565b81888460ff168151811061122357fe5b61ffff928316602091820292909201810191909152600a5460a060020a02600160a060020a0319166000908152600f8252604080822093861682529290915290812054810b900b93909301926001929092019161119f565b601554600185900b131561128e57600080fd5b600092505b87518360ff16101561133057878360ff16815181106112ae57fe5b90602001906020020151600a5460a060020a02600160a060020a0319166000908152601160209081526040808320600160a060020a0333168452909152902060020160ff8516600881106112fe57fe5b601091828204019190066002026101000a81548161ffff021916908361ffff1602179055508280600101935050611293565b505050505050505092915050565b600080600061137f60408051908101604052600381527f55524c000000000000000000000000000000000000000000000000000000000060208201526128a4565b600302660886c98b760000019250655af3107a40009150818301341015611488577f46cb989ef9cef13e930e3b7f286225a086e716a90d63e0b7da85d310a9db0c9a60405160208082526046908201527f4f7261636c697a65207175657279206661696c65642e2053656e64206d6f72656040808301919091527f2045544820282e3030323545544820696e20676173202b20242e30332070657260608301527f2071756572790000000000000000000000000000000000000000000000000000608083015260a0909101905180910390a1600160a060020a0333163480156108fc0290604051600060405180830381858888f19350505050151561148357600080fd5b6115f7565b60068054348590030190557f46cb989ef9cef13e930e3b7f286225a086e716a90d63e0b7da85d310a9db0c9a60405160208082526037908201527f4f7261636c697a65207175657269657320776572652073656e742c207374616e6040808301919091527f64696e6720627920666f722074686520616e737765722e00000000000000000060608301526080909101905180910390a16115d36040805190810160405280600381526020017f55524c00000000000000000000000000000000000000000000000000000000008152506115ca6040805190810160405280600581526020017f6a736f6e280000000000000000000000000000000000000000000000000000008152508860408051908101604052601281527f292e636f6d7072657373656453636f7265730000000000000000000000000000602082015261276f565b620927c0612ab2565b60008181526009602052604090209091508480516115f59291602001906138d6565b505b5050505050565b6000611608612e38565b600160a060020a031633600160a060020a031614151561162757600080fd5b60008381526009602052604090819020905180828054600181600116156101000203166002900480156116915780601f1061166f576101008083540402835291820191611691565b820191906000526020600020905b81548152906001019060200180831161167d575b5050915050604051809103902090506040517f53616c617269657300000000000000000000000000000000000000000000000081526008016040519081900390208114156116e2576116e282611729565b6040517f53636f726573000000000000000000000000000000000000000000000000000081526006016040519081900390208114156117245761172482611cce565b505050565b6117316138bf565b6117396138bf565b6117416138bf565b60008061174c6138bf565b60055460009033600160a060020a0390811691161461176a57600080fd5b600a5460a060020a02600160a060020a0319166000908152601760205260409020805460ff1916905561179c886127aa565b96506117da60408051908101604052600181527f200000000000000000000000000000000000000000000000000000000000000060208201526127aa565b95506117ff604080519081016040526001815260f960020a601d0260208201526127aa565b9450611811878763ffffffff6127d216565b6001019350600092505b838360ff16101561191357611836878763ffffffff61283016565b915061184e6111c56111c0848863ffffffff61283016565b600a5460a060020a02600160a060020a0319166000908152600e60205260409020805491925090600181016118838382613954565b916000526020600020906010918282040191900660020283909190916101000a81548161ffff021916908361ffff160217905550506118c46111c583612843565b600a5460a060020a02600160a060020a0319166000908152600f6020908152604080832061ffff861684529091528120805460ff191660ff9390920b929092161790556001929092019161181b565b5050505050505050565b60055433600160a060020a0390811691161461193857600080fd5b6000600754600654031115610ec957600554600754600654600160a060020a03909216910380156108fc0290604051600060405180830381858888f19350505050151561198457600080fd5b600754600655565b60055433600160a060020a039081169116146119a757600080fd5b600a80546bffffffffffffffffffffffff191660a060020a808704919091179182905502600160a060020a0319166000908152600b602052604090208190556119ef82612fd8565b6119f88361275c565b50505050565b611a066138ad565b6013805480602002602001604051908101604052809291908181526020018280548015611a5357602002820191906000526020600020905b81548152600190910190602001808311611a3e575b505050505090505b90565b600160a060020a031660009081526008602052604090205490565b600080611a8461385d565b600160a060020a0319841660009081526017602052604081205460ff161515611aac57600080fd5b600093505b600160a060020a0319851660009081526010602052604090205460ff851610156115f757600160a060020a031985166000908152601060205260409020805460ff8616908110611afd57fe5b6000918252602080832090910154600160a060020a031988168352601182526040808420600160a060020a039092168085529190925291819020919450600290910190600890610100905190810160405291906101008301826000855b82829054906101000a900461ffff1661ffff1681526020019060020190602082600101049283019260010382029150808411611b5a57905050505050509150600090505b60088160ff161015611c4557600160a060020a031985166000908152600f60205260408120908360ff841660088110611bd357fe5b602002015161ffff90811682526020808301939093526040918201600090812054600160a060020a03198a16825260128552838220600160a060020a0389168352909452918220805461ffff198116610100909504840b90930b600193840b01830b9091169290921790915501611b9e565b600190930192611ab1565b60008181526014602052604090206004015460ff1615611c6f57600080fd5b60008181526014602052604090205433600160a060020a03908116911614611c9657600080fd5b60009081526014602052604081208054600160a060020a0319168155600181018290556002810191909155600401805460ff19169055565b611cd66138bf565b611cde6138bf565b611ce66138ad565b600a5460a060020a02600160a060020a031916600090815260176020526040812054819060ff1615611d1757600080fd5b611d20866127aa565b9450611d5e60408051908101604052600181527f200000000000000000000000000000000000000000000000000000000000000060208201526127aa565b9350611d70858563ffffffff6127d216565b600101604051805910611d805750595b908082528060200260200182016040528015611db657816020015b611da36138bf565b815260200190600190039081611d9b5790505b509250600091505b82518261ffff161015611ec657611ddb858563ffffffff61283016565b838361ffff1681518110611deb57fe5b60209081029091010152611e476111c56111c0611e21604080519081016040526001815260f960020a601d0260208201526127aa565b868661ffff1681518110611e3157fe5b906020019060200201519063ffffffff61283016565b9050611e6e6111c5848461ffff1681518110611e5f57fe5b90602001906020020151612843565b600a54600160a060020a031960a060020a909102166000908152600f6020908152604080832061ffff86168452909152812080549290910b60ff166101000261ff001990921691909117905560019190910190611dbe565b5050600a54600160a060020a031960a060020a909102166000908152601760205260409020805460ff1916600117905550505050565b600a5460a060020a0290565b6000838152601460209081526040808320600a5460a060020a02600160a060020a0319168452600781018352818420600160a060020a038716855290925282205490919060ff1615611f5957600080fd5b611f62836125b4565b60018301549091508101831015611f7857600080fd5b60018281018054600285018054909101905560068054840181559054600160a060020a03871660009081526008602090815260408083208054948a03889003909401909355600a5460a060020a02600160a060020a03191682529286019092529020805490918101611fea8382613988565b5060009182526020808320919091018054600160a060020a03909716600160a060020a03199788168117909155600a5460a060020a029096168252600790930183526040808220958252949092525091909120805460ff191660011790555050565b600554600160a060020a031681565b6120636138ad565b600a5460a060020a02600160a060020a031916600090815260106020908152604091829020805490929091828102019051908101604052809291908181526020018280548015611a5357602002820191906000526020600020905b8154600160a060020a031681526001909101906020018083116120be575050505050905090565b6000918252601460209081526040808420600160a060020a031995909516845260099094018152838320600160a060020a0392909216835252205490565b61212b613886565b600a5460a060020a02600160a060020a0319166000908152601160209081526040808320600160a060020a03331684529091529081902090606090519081016040908152825460ff161515825260018301546020830152909190808301906002830190600890610100905190810160405291906101008301826000855b82829054906101000a900461ffff1661ffff16815260200190600201906020826001010492830192600103820291508084116121a85790505050505050815250509050806000015115156121fb57600080fd5b612206823334611f08565b5050565b60008181526014602052604090206004015460ff161561222957600080fd5b600a5460a060020a02600160a060020a0319166000908152601160209081526040808320600160a060020a033316845290915290205460ff16151561226d57600080fd5b601380546001810161227f8382613988565b50600091825260209091200181905560806040519081016040528033600160a060020a031681526020016122b2346125b4565b34038152600060208083018290526001604093840152848252601490522081518154600160a060020a031916600160a060020a039190911617815560208201518160010155604082015181600201556060820151600491909101805460ff191691151591909117905550610ef7813334611f08565b61232f6138ad565b6000828152601460209081526040808320600160a060020a0319871684526006018252918290208054909290918281020190519081016040528092919081815260200182805480156123aa57602002820191906000526020600020905b8154600160a060020a0316815260019091019060200180831161238c575b5050505050905092915050565b600a5460a060020a02600160a060020a0319166000908152600f6020908152604080832061ffff949094168352929052908120546101009004900b90565b600a5460a060020a02600160a060020a0319166000908152600b602052604081205442111561242357600080fd5b50600a5460a060020a02600160a060020a0319166000908152601160209081526040808320600160a060020a03331684529091529020805460ff1615156124bb57600a5460a060020a02600160a060020a03191660009081526010602052604090208054600181016124958382613988565b5060009182526020909120018054600160a060020a03191633600160a060020a03161790555b600180820192909255805460ff19169091179055565b60055433600160a060020a039081169116146124ec57600080fd5b6124f581612fd8565b610ef7610df2565b6125056138ad565b600e600083600160a060020a031916600160a060020a031916815260200190815260200160002080548060200260200160405190810160405280929190818152602001828054801561259e57602002820191906000526020600020906000905b82829054906101000a900461ffff1661ffff16815260200190600201906020826001010492830192600103820291508084116125655790505b50505050509050919050565b6006805434019055565b6016546103e891020490565b6125c86138ad565b60408051908101604052600481527f74657374000000000000000000000000000000000000000000000000000000006020820152905090565b600a5460a060020a02600160a060020a0319166000908152601160209081526040808320600160a060020a03949094168352929052206001015490565b60008181526014602090815260408083206001810154600a5460a060020a02600160a060020a031916855260068201909352922054915492939092600160a060020a031690565b610ec9600c8054600181600116156101000203166002900480601f01602080910402602001604051908101604052809291908181526020018280546001816001161561010002031660029004801561271e5780601f106126f35761010080835404028352916020019161271e565b820191906000526020600020905b81548152906001019060200180831161270157829003601f168201915b505050505060408051908101604052600881527f53616c6172696573000000000000000000000000000000000000000000000000602082015261133e565b600c8180516122069291602001906138d6565b6127776138ad565b6127a28484846020604051908101604052806000815250602060405190810160405260008152612feb565b949350505050565b6127b26138bf565b602082016040805190810160405280845181526020019190915292915050565b60008082516127ed855186602001518651876020015161325b565b0190505b8351846020015101811161282957600190910190825161282185602001518303865103838651876020015161325b565b0190506127f1565b5092915050565b6128386138bf565b6128298383836132fe565b61284b6138ad565b6128536138ad565b600083516040518059106128645750595b818152601f19601f830116810160200160405290509150602082019050612829818560200151865161336d565b600061289e8260006133b2565b92915050565b60008054600160a060020a031615806128cf57506000546128cd90600160a060020a0316613520565b155b156128e0576128de6000613524565b505b60008054600160a060020a0316906338cc483190604051602001526040518163ffffffff1660e060020a028152600401602060405180830381600087803b151561292957600080fd5b6102c65a03f1151561293a57600080fd5b5050506040518051600154600160a060020a0390811691161490506129dd5760008054600160a060020a0316906338cc483190604051602001526040518163ffffffff1660e060020a028152600401602060405180830381600087803b15156129a257600080fd5b6102c65a03f115156129b357600080fd5b505050604051805160018054600160a060020a031916600160a060020a0392909216919091179055505b600154600160a060020a031663524f3889836000604051602001526040518263ffffffff1660e060020a0281526004018080602001828103825283818151815260200191508051906020019080838360005b83811015612a47578082015183820152602001612a2f565b50505050905090810190601f168015612a745780820380516001836020036101000a031916815260200191505b5092505050602060405180830381600087803b1515612a9257600080fd5b6102c65a03f11515612aa357600080fd5b50505060405180519392505050565b600080548190600160a060020a03161580612adf5750600054612add90600160a060020a0316613520565b155b15612af057612aee6000613524565b505b60008054600160a060020a0316906338cc483190604051602001526040518163ffffffff1660e060020a028152600401602060405180830381600087803b1515612b3957600080fd5b6102c65a03f11515612b4a57600080fd5b5050506040518051600154600160a060020a039081169116149050612bed5760008054600160a060020a0316906338cc483190604051602001526040518163ffffffff1660e060020a028152600401602060405180830381600087803b1515612bb257600080fd5b6102c65a03f11515612bc357600080fd5b505050604051805160018054600160a060020a031916600160a060020a0392909216919091179055505b600154600160a060020a0316632ef3accc86856000604051602001526040518363ffffffff1660e060020a0281526004018080602001838152602001828103825284818151815260200191508051906020019080838360005b83811015612c5e578082015183820152602001612c46565b50505050905090810190601f168015612c8b5780820380516001836020036101000a031916815260200191505b509350505050602060405180830381600087803b1515612caa57600080fd5b6102c65a03f11515612cbb57600080fd5b5050506040518051915050670de0b6b3a76400003a840201811115612ce35760009150612e30565b600154600160a060020a031663c51be90f82600088888883604051602001526040518663ffffffff1660e060020a028152600401808581526020018060200180602001848152602001838103835286818151815260200191508051906020019080838360005b83811015612d61578082015183820152602001612d49565b50505050905090810190601f168015612d8e5780820380516001836020036101000a031916815260200191505b50838103825285818151815260200191508051906020019080838360005b83811015612dc4578082015183820152602001612dac565b50505050905090810190601f168015612df15780820380516001836020036101000a031916815260200191505b5096505050505050506020604051808303818588803b1515612e1257600080fd5b6125ee5a03f11515612e2357600080fd5b5050505060405180519250505b509392505050565b60008054600160a060020a03161580612e635750600054612e6190600160a060020a0316613520565b155b15612e7457612e726000613524565b505b60008054600160a060020a0316906338cc483190604051602001526040518163ffffffff1660e060020a028152600401602060405180830381600087803b1515612ebd57600080fd5b6102c65a03f11515612ece57600080fd5b5050506040518051600154600160a060020a039081169116149050612f715760008054600160a060020a0316906338cc483190604051602001526040518163ffffffff1660e060020a028152600401602060405180830381600087803b1515612f3657600080fd5b6102c65a03f11515612f4757600080fd5b505050604051805160018054600160a060020a031916600160a060020a0392909216919091179055505b600154600160a060020a031663c281d19e6000604051602001526040518163ffffffff1660e060020a028152600401602060405180830381600087803b1515612fb957600080fd5b6102c65a03f11515612fca57600080fd5b505050604051805191505090565b600d8180516122069291602001906138d6565b612ff36138ad565b612ffb6138ad565b6130036138ad565b61300b6138ad565b6130136138ad565b61301b6138ad565b6130236138ad565b61302b6138ad565b6000808e98508d97508c96508b95508a94508451865188518a518c51010101016040518059106130585750595b818152601f19601f83011681016020016040529050935083925060009150600090505b88518110156130d45788818151811061309057fe5b016020015160f860020a900460f860020a028383806001019450815181106130b457fe5b906020010190600160f860020a031916908160001a90535060010161307b565b5060005b8751811015613131578781815181106130ed57fe5b016020015160f860020a900460f860020a0283838060010194508151811061311157fe5b906020010190600160f860020a031916908160001a9053506001016130d8565b5060005b865181101561318e5786818151811061314a57fe5b016020015160f860020a900460f860020a0283838060010194508151811061316e57fe5b906020010190600160f860020a031916908160001a905350600101613135565b5060005b85518110156131eb578581815181106131a757fe5b016020015160f860020a900460f860020a028383806001019450815181106131cb57fe5b906020010190600160f860020a031916908160001a905350600101613192565b5060005b84518110156132485784818151811061320457fe5b016020015160f860020a900460f860020a0283838060010194508151811061322857fe5b906020010190600160f860020a031916908160001a9053506001016131ef565b50909d9c50505050505050505050505050565b6000808080808887116132ec57602087116132b25760018760200360080260020a031980875116888b038a018a96505b8183885116146132a757600187019681901061328b578b8b0196505b5050508394506132f2565b8686209150879350600092505b86890383116132ec5750858320818114156132dc578394506132f2565b60019384019392909201916132bf565b88880194505b50505050949350505050565b6133066138bf565b600061331e855186602001518651876020015161325b565b9050846020015160208085019190915285015181038352845185602001510181141561334d5760008552613364565b835183510185818151039052508351810160208601525b50909392505050565b60005b602082106133935782518452602084019350602083019250602082039150613370565b6001826020036101000a03905080198351168185511617909352505050565b60006133bc6138ad565b5082600080805b8351811015613503577f30000000000000000000000000000000000000000000000000000000000000008482815181106133f957fe5b016020015160f860020a900460f860020a02600160f860020a0319161015801561346a57507f390000000000000000000000000000000000000000000000000000000000000084828151811061344b57fe5b016020015160f860020a900460f860020a02600160f860020a03191611155b156134c05781156134895785151561348157613503565b600019909501945b600a83029250603084828151811061349d57fe5b016020015160f860020a900460f860020a0260f860020a900403830192506134fb565b8381815181106134cc57fe5b016020015160f860020a900460f860020a02600160f860020a031916602e60f860020a0214156134fb57600191505b6001016133c3565b60008611156135155785600a0a830292505b509095945050505050565b3b90565b600080613544731d3b2638a7cc9f2cb3d298a3da7a90b67e5506ed613520565b11156135b45760008054600160a060020a031916731d3b2638a7cc9f2cb3d298a3da7a90b67e5506ed1790556135ac60408051908101604052600b81527f6574685f6d61696e6e6574000000000000000000000000000000000000000000602082015261384a565b506001610a13565b60006135d373c03a2615d5efaf5f49f60b7bb6583eaec212fdf1613520565b111561363b5760008054600160a060020a03191673c03a2615d5efaf5f49f60b7bb6583eaec212fdf11790556135ac60408051908101604052600c81527f6574685f726f707374656e330000000000000000000000000000000000000000602082015261384a565b600061365a73b7a07bcf2ba2f2703b24c0691b5278999c59ac7e613520565b11156136c25760008054600160a060020a03191673b7a07bcf2ba2f2703b24c0691b5278999c59ac7e1790556135ac60408051908101604052600981527f6574685f6b6f76616e0000000000000000000000000000000000000000000000602082015261384a565b60006136e173146500cfd35b22e4a392fe0adc06de1a1368ed48613520565b11156137495760008054600160a060020a03191673146500cfd35b22e4a392fe0adc06de1a1368ed481790556135ac60408051908101604052600b81527f6574685f72696e6b656279000000000000000000000000000000000000000000602082015261384a565b6000613768736f485c8bf6fc43ea212e93bbf8ce046c7f1cb475613520565b111561379c575060008054600160a060020a031916736f485c8bf6fc43ea212e93bbf8ce046c7f1cb4751790556001610a13565b60006137bb7320e12a1f859b3feae5fb2a0a32c18f5a65555bbf613520565b11156137ef575060008054600160a060020a0319167320e12a1f859b3feae5fb2a0a32c18f5a65555bbf1790556001610a13565b600061380e7351efaf4c8b3c9afbd5ab9f4bbc82784ab6ef8faa613520565b1115613842575060008054600160a060020a0319167351efaf4c8b3c9afbd5ab9f4bbc82784ab6ef8faa1790556001610a13565b506000919050565b60028180516122069291602001906138d6565b6101006040519081016040526008815b60008152600019909101906020018161386d5790505090565b61014060405190810160409081526000808352602083015281016138a861385d565b905290565b60206040519081016040526000815290565b604080519081016040526000808252602082015290565b828054600181600116156101000203166002900490600052602060002090601f016020900481019282601f1061391757805160ff1916838001178555613944565b82800160010185558215613944579182015b82811115613944578251825591602001919060010190613929565b506139509291506139a8565b5090565b81548183558181151161172457600f016010900481600f0160109004836000526020600020918201910161172491906139a8565b815481835581811511611724576000838152602090206117249181019083015b611a5b91905b8082111561395057600081556001016139ae5600a165627a7a723058209f62cbdebee7e8e8506e7a2a3ea451dfbc0f45de58ae21debbae6786862df0bb0029",
  "source": "pragma solidity 0.4.18;\n\nimport \"./lib/oraclize/oraclizeAPI_0.4.sol\";\nimport \"./lib/arachnid/solidity-stringutils/strings.sol\";\n\ncontract PgaDfs is usingOraclize {\n\n  using strings for *;\n\n  struct SlateGolfer {\n    // not storing name,\n    // since we're trying to be minimal with data storage\n    // on ethereum's bloated ass blockchain.\n\n    // increments in 1\n    // salaries are roughly DK salaries / $500\n    // and can be negative!\n    int8 salary;\n\n    // fantasy points at end of tournament\n    int8 points;\n  }\n\n\n  struct Lineup {\n    bool submittedHash;  // true when saved\n    // keccak hash of lineup before revealing\n    // e.g. keccak256(\"21059:94320:85933\")\n    bytes32 golferIdsHash;\n    // MAX of 8 pga tour ids...\n    // you can play less than 8 guys if you want!\n    // e.g. [web3.fromAscii(\"21059\"), web3.fromAscii(\"94320\"), web3.fromAscii(\"85933\")]\n    uint16[8] golferIds;\n  }\n\n  struct Contest {\n    address owner; // creator of contest\n\n    uint entryFee; // TODO(christian): what units? wei?\n    uint prizePool; // TODO: delete\n    // all money in contest balance, payable to winners\n    mapping (bytes12 => uint) slateIdToPrizePool;\n\n    // yay or nay, is this an active contest\n    // must be not live to delete contest\n    bool live;\n\n    // have we calculated the address balances after contest is over?\n    mapping (bytes12 => bool) slateIdToPayoutsSet;\n\n    // map ETH address --> lineup in contest\n    mapping (bytes12 => address[]) slateIdToEntries;\n\n    mapping (bytes12 => mapping(address => bool)) slateIdToEntered;\n    mapping (bytes12 => mapping(address => int32)) slateIdToAddressScores;\n\n    // slate --> ETH address --> how much they recouped\n    mapping(bytes12 => mapping(address => uint)) recoup;\n  }\n\n\n  event newOraclizeQuery(string description);\n\n  // this is the initializer of the contract\n  // who gets special privaledges:\n  // (1) if oraclize fucks up, you set scores manually\n  // (2) you can spend the extraEther in the contract\n  address public contractAdmin;\n  uint private extraEther;\n  uint private minBal;\n\n  mapping(address => uint) userBalances;\n\n  // status (bool): is this oraclize query complete or not?\n  mapping(bytes32 => string) queryIdToCallbackAction;\n\n  // this is the CONSTRUCTOR!\n  // we must initialize the lubrication amount\n  // with the miniumum balance, which can never be recovered\n  function PgaDfs() public payable {\n    require(msg.value >= minBal);\n    // in the constructor (this function), msg.sender is\n    // the owner of the contract\n    contractAdmin = msg.sender;\n    extraEther = msg.value;\n\n    // OAR for ethereum-bridge\n    OAR = OraclizeAddrResolverI(0x15Ce83f7B43082C21deB5bEDd004e2F683B45392);\n    // TODO: tinker with this gas value\n    /* oraclize_setCustomGasPrice(1000000000 wei); */\n\n    // execute a dummy transcaction to make fee estimation\n    // work by burning the free transaction\n    /* oraclize_query(\"URL\", \"json(http://api.fixer.io/latest?symbols=USD,GBP).rates.GBP\"); */\n  }\n\n\n  // N.B. FROM CRYPTO RIC:\n  // if we want to fund money into the \"lubrication account\"\n  // this will allow the contract to function if the price\n  // of ether falls dramatically between querires\n  // and, as a result, because the query fee is charged in USD,\n  // the fee for subsequent queries goes up\n  // this should average out over time,\n  // we charge a small fee to make sure it more likely going up\n  // this fee, over the course of 400 wagers,\n  // should offset the irrecovable minimum balance\n  function deposit() payable external {\n    extraEther += msg.value;\n  }\n\n  // CRYPTO RIC:\n  // if we want to withdraw money from the lubrication account\n  // we can only draw from the extraEther gained,\n  // so as to protect and wall off funds from active wagers\n  // we must leave a minBal of .1 ether to serve as lubrication\n  // this protects people with wagers from us withdrawing\n  // all the lubrication while they have bets in, which\n  // would make them have the potential to fail\n  function withdraw() external {\n    require(msg.sender == contractAdmin);\n\n    if (extraEther - minBal > 0) {\n      contractAdmin.transfer(extraEther - minBal);\n      extraEther = minBal;\n    }\n  }\n\n  // active slate id to key slate/lineup mappings\n  bytes12 slateId;\n  mapping (bytes12 => uint) slateIdToLockTimestamp;\n\n  // format: \"{pgaId}:{salary}\"\n  // example: \"34360:1522955700:15 32102:1522963620:-2\" <-- salaries can be negative!\n  string compressedSalariesUrl = \"\"; // e.g. \"https://s3.amazonaws.com/ethdfs/pga/compressedSalaries/2018/471.json\";\n\n  // format: \"{pgaId}:{rd1}-{rd2}-{rd3}-{rd4}\"\n  // example: \"34360:69-66-67-71 32102:70-72-65-67\"\n  string compressedScoresUrl = \"\"; // e.g. \"https://s3.amazonaws.com/ethdfs/pga/compressedScores/2018/471.json\";\n\n\n  // slate id ==> golfer ids\n  // NOTE: uint16 for golfer ids is really fucking pushing it,\n  // as PGA tour is on ID's around 55k or so.\n  // the max uint8 number is 65,535. lol\n  mapping (bytes12 => uint16[]) slateIdToGolferIds;\n  // slate id ==> pga tour id ==> golfer data (salary, scores, etc.)\n  mapping (bytes12 => mapping(uint16 => SlateGolfer)) slateIdToSlateGolfers;\n  mapping (bytes12 => address[]) slateIdToEnteredAddresses;\n  mapping (bytes12 => mapping (address => Lineup)) slateIdToLineups;\n  mapping (bytes12 => mapping (address => int16)) slateIdToEntryScores;\n\n  // contest data\n  bytes32[] contestIds;\n  mapping(bytes32 => Contest) contests;\n\n  // salary cap is 100\n  // salaries are integers and CAN BE NEGATIVE\n  // think mike weir\n  int salaryCap = 100;\n\n  // rake is 2.0% or 20/1000\n  uint rakeTimesOneThousand = 20;\n\n  // is scoring complete for the current slate\n  mapping (bytes12 => bool) slateIdToCompleteScoring;\n\n  function setLineupHash(bytes32 lineupHash) public {\n    // can't change lineup hash after lock\n    require(block.timestamp <= slateIdToLockTimestamp[slateId]);\n    Lineup storage theLineup = slateIdToLineups[slateId][msg.sender];\n    if (!theLineup.submittedHash) {\n        // don't push duped addresses if they already have a lineup\n        slateIdToEnteredAddresses[slateId].push(msg.sender);\n    }\n    theLineup.golferIdsHash = lineupHash;\n    theLineup.submittedHash = true;\n  }\n\n  // returns: Lineup.golferIdsHash\n  function getLineupHash(address entrantAddress) public view returns (bytes32) {\n    return slateIdToLineups[slateId][entrantAddress].golferIdsHash;\n  }\n\n  function getEnteredAddressesForCurrentSlate() public view returns (address[]) {\n      return slateIdToEnteredAddresses[slateId];\n  }\n\n  function getCurrentSlateLineupForAddress(address address_) public view returns (bytes32, uint16[8], int16) {\n      Lineup memory theLineup = slateIdToLineups[slateId][address_];\n      return (theLineup.golferIdsHash, theLineup.golferIds, slateIdToEntryScores[slateId][address_]);\n  }\n\n  function getSlateId() public view returns (bytes12) {\n    return slateId;\n  }\n\n  function getSalary(uint16 pgaId) public view returns (int8) {\n    return slateIdToSlateGolfers[slateId][pgaId].salary;\n  }\n\n  function getPoints(uint16 pgaId) public view returns (int8) {\n    return slateIdToSlateGolfers[slateId][pgaId].points;\n  }\n\n  // lineups must:\n  // have 8 or less players\n  // total salary must be <= salary cap\n  // can only play the same guy once\n  function revealLineup(string golferIdsColonDelimited, string revealKey) public returns (int16) {\n    require(slateIdToLineups[slateId][msg.sender].golferIdsHash == keccak256(strConcat(golferIdsColonDelimited, \"|\", revealKey)));\n\n    var golferIds = new uint16[](8);\n\n    var golferIdsSlice = golferIdsColonDelimited.toSlice();\n    var delimiter = \":\".toSlice();\n    uint256 golferCount = golferIdsSlice.count(delimiter) + 1;\n\n    // must have 8 or less players\n    require(golferCount <= 8);\n\n    // and salary must be under cap\n    int16 totalSalary = 0;\n\n    for (uint8 ii = 0; ii < golferCount; ii++) {\n      // string  --> left padded bytes32\n      // \"29725\" --> \"0x3239373235000000000000000000000000000000000000000000000000000000\"\n      // replicate this with web3.fromAscii('29725')\n      uint16 golferId = uint16(parseInt(golferIdsSlice.split(delimiter).toString()));\n\n      for (uint8 jj = 0; jj < ii; jj++) {\n        require(golferId != golferIds[jj]);\n      }\n      golferIds[ii] = golferId;\n      totalSalary += slateIdToSlateGolfers[slateId][golferId].salary;\n    }\n\n    require(totalSalary <= salaryCap);\n\n    for (ii = 0; ii < golferIds.length; ii++) {\n      slateIdToLineups[slateId][msg.sender].golferIds[ii] = golferIds[ii];\n    }\n  }\n\n  function calculateRake(uint wei_) public view returns (uint) {\n    return (wei_ * rakeTimesOneThousand) / 1000;\n  }\n\n  function createContest(bytes32 contestId) public payable {\n    // contest id cannot be taken already\n    require(!contests[contestId].live);\n    // contest owner must first have lineup hash on chain\n    require(slateIdToLineups[slateId][msg.sender].submittedHash);\n\n    contestIds.push(contestId);\n    contests[contestId] = Contest({\n      owner : msg.sender,\n      // entry fee is AUTOMATICALLY calculated by how much the owner deposits\n      entryFee : msg.value - calculateRake(msg.value),\n      prizePool: 0, // updated in payEntryFeeToContest below\n      live : true\n    });\n    payEntryFeeToContest(contestId, msg.sender, msg.value);\n  }\n\n  function enterContest(bytes32 contestId) public payable {\n    // to enter contest, user must have lineup hash on chain\n    Lineup memory entrantLineup = slateIdToLineups[slateId][msg.sender];\n    require(entrantLineup.submittedHash);\n    payEntryFeeToContest(contestId, msg.sender, msg.value);\n  }\n\n  function payEntryFeeToContest(bytes32 contestId, address msgSender, uint ethEntered) public payable {\n\n    Contest storage activeContest = contests[contestId];\n    // if they not are already in the contest, pay rake and enter\n    require(!activeContest.slateIdToEntered[slateId][msgSender]);\n\n    uint rakeToCollect = calculateRake(ethEntered);\n\n    require(ethEntered >= activeContest.entryFee + rakeToCollect);\n\n    activeContest.prizePool += activeContest.entryFee;\n    extraEther += rakeToCollect;\n    // if someone sends us extra money,\n    // it goes their user balance\n    userBalances[msgSender] += ethEntered - activeContest.entryFee - rakeToCollect;\n    activeContest.slateIdToEntries[slateId].push(msgSender);\n    activeContest.slateIdToEntered[slateId][msgSender] = true;\n  }\n\n  function setSalaries(string compressedSalaries) public {\n      require(msg.sender == contractAdmin);\n      // TODO: make internal / only contractAdmin\n      slateIdToCompleteScoring[slateId] = false;\n\n      var compressedSalariesSlice = compressedSalaries.toSlice();\n      var playerDelimiter = \" \".toSlice();\n      var salaryDelimiter = \":\".toSlice();\n      uint playerCount = compressedSalariesSlice.count(playerDelimiter) + 1;\n\n      for (uint8 ii = 0; ii < playerCount; ii++) {\n          var playerColonSalary = compressedSalariesSlice.split(playerDelimiter);\n\n          uint16 pgaPlayerId = uint16(parseInt(playerColonSalary.split(salaryDelimiter).toString()));\n\n          slateIdToGolferIds[slateId].push(pgaPlayerId);\n          slateIdToSlateGolfers[slateId][pgaPlayerId].salary = int8(parseInt(playerColonSalary.toString()));\n      }\n  }\n\n  function setScores(string compressedScores) public {\n    // TODO: make internal / only contractAdmin\n    // TODO: really make sure this works\n    // TODO: difference between var and normal types?\n    require(!slateIdToCompleteScoring[slateId]);\n\n    var compressedScoresSlice = compressedScores.toSlice();\n    var playerDelimiter = \" \".toSlice();\n    var playerScoreSlices = new strings.slice[](compressedScoresSlice.count(playerDelimiter) + 1);\n\n    for (uint16 i = 0; i < playerScoreSlices.length; i++) {\n      playerScoreSlices[i] = compressedScoresSlice.split(playerDelimiter);\n      uint16 pgaPlayerId = uint16(parseInt(playerScoreSlices[i].split(\":\".toSlice()).toString()));\n      slateIdToSlateGolfers[slateId][pgaPlayerId].points = int8(parseInt(playerScoreSlices[i].toString()));\n    }\n    slateIdToCompleteScoring[slateId] = true;\n  }\n\n  function scoreEnteredAddresses(bytes12 slateId_) public {\n    require(slateIdToCompleteScoring[slateId_]);\n    for (uint8 ii = 0; ii < slateIdToEnteredAddresses[slateId_].length; ii++) {\n      address entry = slateIdToEnteredAddresses[slateId_][ii];\n      uint16[8] memory entryPgaIds = slateIdToLineups[slateId_][entry].golferIds;\n      for (uint8 g = 0; g < entryPgaIds.length; g++) {\n        slateIdToEntryScores[slateId_][entry] += slateIdToSlateGolfers[slateId_][entryPgaIds[g]].points;\n      }\n    }\n  }\n\n  function setSingleContestPayouts(bytes32 contestId) public {\n    // everyone who scores > max(0, the contest average) gets paid\n    // you are paid proportional to your squared score\n    require(slateIdToCompleteScoring[slateId]);\n\n    Contest storage contest = contests[contestId];\n    require(contest.live);\n    require(!contest.slateIdToPayoutsSet[slateId]);\n\n    uint16 totalEntries = uint16(contest.slateIdToEntries[slateId].length);\n    int totalPoints = 0;\n\n    // calculate the average score in the contest\n    for (uint8 ii = 0; ii < totalEntries; ii++) {\n      address entry = contest.slateIdToEntries[slateId][ii];\n      totalPoints += slateIdToEntryScores[slateId][entry];\n    }\n\n    // of the top half (except any of those that scored < 0),\n    // sum up the squared scores\n    int averagePointsRoundedDown = totalPoints / totalEntries;\n    uint summedSquaredWinningScores = 0;\n\n    for (ii = 0; ii < totalEntries; ii++) {\n      entry = contest.slateIdToEntries[slateId][ii];\n      int16 score = slateIdToEntryScores[slateId][entry];\n      if (score >= averagePointsRoundedDown && score >= 0) {\n        uint squaredScore = uint(score * score);\n        summedSquaredWinningScores += squaredScore;\n      }\n    }\n\n    // then pay out people proportional to squared points\n    for (ii = 0; ii < totalEntries; ii++) {\n      entry = contest.slateIdToEntries[slateId][ii];\n      score = slateIdToEntryScores[slateId][entry];\n      if (score >= averagePointsRoundedDown && score >= 0) {\n        // TODO: make sure there's no rounding error B.S. going on\n        // that makes us massively over or under pay people\n        squaredScore = uint(score * score);\n        uint toPayout = (contest.prizePool * squaredScore) / summedSquaredWinningScores;\n        contest.recoup[slateId][entry] = toPayout;\n        userBalances[entry] += toPayout;\n      }\n    }\n    contest.slateIdToPayoutsSet[slateId] = true;\n    contest.live = false;\n  }\n\n  function getUserBalance(address address_) public view returns (uint) {\n    return userBalances[address_];\n  }\n\n  function _setCompressedScoresUrl(string _compressedScoresUrl) internal {\n    compressedScoresUrl = _compressedScoresUrl;\n  }\n\n  function _setCompressedSalariesUrl(string _compressedSalariesUrl) internal {\n    compressedSalariesUrl = _compressedSalariesUrl;\n  }\n\n  function getSalariesOnChain() public payable {\n    innerOraclizeQuery(compressedSalariesUrl, \"Salaries\");\n  }\n\n  function getScoresOnChain() public payable {\n    innerOraclizeQuery(compressedScoresUrl, \"Scores\");\n  }\n\n  function setScoresUrlAndGetResultsOnChain(string compressedScoresUrl_) public {\n      require(msg.sender == contractAdmin);\n      _setCompressedScoresUrl(compressedScoresUrl_);\n      getScoresOnChain();\n  }\n\n  function setSalariesUrlAndGetSalariesOnChain(string compressedSalariesUrl_) public {\n      require(msg.sender == contractAdmin);\n      _setCompressedSalariesUrl(compressedSalariesUrl_);\n      getSalariesOnChain();\n  }\n\n  function setNewSlateInfo(\n    bytes12 _newSlateId,\n    string _compressedSalariesUrl,\n    string _compressedScoresUrl,\n    uint lockTimestamp\n  ) public {\n    require(msg.sender == contractAdmin);\n    slateId = _newSlateId;\n    slateIdToLockTimestamp[slateId] = lockTimestamp;\n    _setCompressedScoresUrl(_compressedScoresUrl);\n    _setCompressedSalariesUrl(_compressedSalariesUrl);\n  }\n\n  // ========================= ORACLIZE functions =========================\n\n\n  function innerOraclizeQuery(string queryUrl, string callbackAction) public payable {\n    // TODO: make these views\n    uint cost = 2400000000000000 + (oraclize_getPrice(\"URL\") * 3);\n    uint fee = 100000000000000;\n\n    if (msg.value < cost + fee) {\n      newOraclizeQuery(\"Oraclize query failed. Send more ETH (.0025ETH in gas + $.03 per query\");\n      msg.sender.transfer(msg.value);\n    } else {\n      extraEther += msg.value - cost;\n      newOraclizeQuery(\"Oraclize queries were sent, standing by for the answer.\");\n      bytes32 queryId = oraclize_query(\n        \"URL\",\n        strConcat(\"json(\", queryUrl, \").compressedScores\"),\n        600000\n      );\n      queryIdToCallbackAction[queryId] = callbackAction;\n    }\n  }\n\n  // switch function for callbacks\n  function __callback(bytes32 myid, string result) public {\n    require(msg.sender == oraclize_cbAddress());\n    // can't compare string storage pointers and string literals,\n    // so instead let's compare their keccak256 hashes!\n    bytes32 actionHash = keccak256(queryIdToCallbackAction[myid]);\n    if (actionHash == keccak256(\"Salaries\")) {\n      setSalaries(result);\n    }\n    if (actionHash == keccak256(\"Scores\")) {\n      setScores(result);\n    }\n  }\n\n  // CRYPTO RIC:\n  // should anyone wish to be a good blockchain citizen\n  // and delete a wager that is no longer live\n  function deleteContest(bytes32 contestId) external {\n    require(!contests[contestId].live);\n    // can't delete someone else's contest\n    require(msg.sender == contests[contestId].owner);\n    delete contests[contestId];\n  }\n\n  function getLiveContestIds() public view returns (bytes32[]) {\n    /* bytes32[] memory liveContestIds;  // why must use storage?\n    uint jj = 0;\n    for (uint ii = 0; ii < contestIds.length; ii++) {\n      bytes32 contestId = contestIds[ii];\n      if (contests[contestId].live) {\n        liveContestIds[jj] = contestId;\n        jj += 1;\n      }\n    } */\n    return contestIds;\n  }\n\n  function getContestById(bytes32 contestId) public view returns (\n      bytes32,\n      uint,\n      uint,\n      address\n    ) {\n      Contest storage contest = contests[contestId];\n      return (\n          contestId,\n          contest.entryFee,\n          contest.slateIdToEntries[slateId].length,\n          contest.owner\n        );\n    }\n\n  function getContestEntries(bytes12 slateId_, bytes32 contestId) public view returns (address[]) {\n    return contests[contestId].slateIdToEntries[slateId_];\n  }\n\n  function getContestRecoup(bytes12 slateId_, bytes32 contestId_, address address_) public view returns (uint) {\n    return contests[contestId_].recoup[slateId_][address_];\n  }\n\n  function getEntryScore(bytes12 slateId_, address entryAddress) public view returns (int16) {\n    return slateIdToEntryScores[slateId_][entryAddress];\n  }\n\n  function getGolferIdsOnSlate(bytes12 slateId_) public view returns (uint16[]) {\n    return slateIdToGolferIds[slateId_];\n  }\n\n  function testFunction() public view returns (string) {\n    return 'test';\n  }\n}\n",
  "sourcePath": "/Users/christian/workspace/ddfs/contracts/PgaDfs.sol",
  "compiler": {
    "name": "solc",
    "version": "0.4.18+commit.9cf6e910.Emscripten.clang"
  },
  "schemaVersion": "2.0.0",
  "updatedAt": "2018-10-06T14:32:41.542Z"
}