{
  "contractName": "PgaDfs",
  "abi": [
    {
      "constant": true,
      "inputs": [],
      "name": "contractAdmin",
      "outputs": [
        {
          "name": "",
          "type": "address"
        }
      ],
      "payable": false,
      "stateMutability": "view",
      "type": "function"
    },
    {
      "inputs": [],
      "payable": true,
      "stateMutability": "payable",
      "type": "constructor"
    },
    {
      "anonymous": false,
      "inputs": [
        {
          "indexed": false,
          "name": "description",
          "type": "string"
        }
      ],
      "name": "newOraclizeQuery",
      "type": "event"
    },
    {
      "constant": false,
      "inputs": [],
      "name": "deposit",
      "outputs": [],
      "payable": true,
      "stateMutability": "payable",
      "type": "function"
    },
    {
      "constant": false,
      "inputs": [],
      "name": "withdraw",
      "outputs": [],
      "payable": true,
      "stateMutability": "payable",
      "type": "function"
    },
    {
      "constant": false,
      "inputs": [],
      "name": "withdrawBalance",
      "outputs": [],
      "payable": true,
      "stateMutability": "payable",
      "type": "function"
    },
    {
      "constant": false,
      "inputs": [
        {
          "name": "slateId_",
          "type": "bytes12"
        },
        {
          "name": "lineupHash",
          "type": "bytes32"
        }
      ],
      "name": "setLineupHash",
      "outputs": [],
      "payable": false,
      "stateMutability": "nonpayable",
      "type": "function"
    },
    {
      "constant": true,
      "inputs": [
        {
          "name": "slateId_",
          "type": "bytes12"
        },
        {
          "name": "entrantAddress",
          "type": "address"
        }
      ],
      "name": "getLineupHash",
      "outputs": [
        {
          "name": "",
          "type": "bytes32"
        }
      ],
      "payable": false,
      "stateMutability": "view",
      "type": "function"
    },
    {
      "constant": true,
      "inputs": [
        {
          "name": "slateId_",
          "type": "bytes12"
        }
      ],
      "name": "getEnteredAddressesForSlate",
      "outputs": [
        {
          "name": "",
          "type": "address[]"
        }
      ],
      "payable": false,
      "stateMutability": "view",
      "type": "function"
    },
    {
      "constant": true,
      "inputs": [
        {
          "name": "slateId_",
          "type": "bytes12"
        },
        {
          "name": "address_",
          "type": "address"
        }
      ],
      "name": "getLineupForSlateAddress",
      "outputs": [
        {
          "name": "",
          "type": "bytes32"
        },
        {
          "name": "",
          "type": "uint16[8]"
        },
        {
          "name": "",
          "type": "int16"
        }
      ],
      "payable": false,
      "stateMutability": "view",
      "type": "function"
    },
    {
      "constant": true,
      "inputs": [],
      "name": "getSlateIds",
      "outputs": [
        {
          "name": "",
          "type": "bytes12[]"
        }
      ],
      "payable": false,
      "stateMutability": "view",
      "type": "function"
    },
    {
      "constant": true,
      "inputs": [
        {
          "name": "slateId_",
          "type": "bytes12"
        },
        {
          "name": "pgaId_",
          "type": "uint16"
        }
      ],
      "name": "getSalary",
      "outputs": [
        {
          "name": "",
          "type": "int8"
        }
      ],
      "payable": false,
      "stateMutability": "view",
      "type": "function"
    },
    {
      "constant": true,
      "inputs": [
        {
          "name": "slateId_",
          "type": "bytes12"
        },
        {
          "name": "pgaId_",
          "type": "uint16"
        }
      ],
      "name": "getPoints",
      "outputs": [
        {
          "name": "",
          "type": "int8"
        }
      ],
      "payable": false,
      "stateMutability": "view",
      "type": "function"
    },
    {
      "constant": false,
      "inputs": [
        {
          "name": "slateId_",
          "type": "bytes12"
        },
        {
          "name": "golferIdsColonDelimited",
          "type": "string"
        },
        {
          "name": "revealKey",
          "type": "string"
        }
      ],
      "name": "revealLineup",
      "outputs": [
        {
          "name": "",
          "type": "int16"
        }
      ],
      "payable": false,
      "stateMutability": "nonpayable",
      "type": "function"
    },
    {
      "constant": true,
      "inputs": [
        {
          "name": "wei_",
          "type": "uint256"
        }
      ],
      "name": "calculateRake",
      "outputs": [
        {
          "name": "",
          "type": "uint256"
        }
      ],
      "payable": false,
      "stateMutability": "view",
      "type": "function"
    },
    {
      "constant": false,
      "inputs": [
        {
          "name": "slateId_",
          "type": "bytes12"
        },
        {
          "name": "contestId",
          "type": "bytes32"
        }
      ],
      "name": "createContest",
      "outputs": [],
      "payable": true,
      "stateMutability": "payable",
      "type": "function"
    },
    {
      "constant": false,
      "inputs": [
        {
          "name": "slateId_",
          "type": "bytes12"
        },
        {
          "name": "contestId_",
          "type": "bytes32"
        }
      ],
      "name": "enterContest",
      "outputs": [],
      "payable": true,
      "stateMutability": "payable",
      "type": "function"
    },
    {
      "constant": false,
      "inputs": [
        {
          "name": "slateId_",
          "type": "bytes12"
        },
        {
          "name": "contestId_",
          "type": "bytes32"
        },
        {
          "name": "msgSender",
          "type": "address"
        },
        {
          "name": "ethEntered",
          "type": "uint256"
        }
      ],
      "name": "payEntryFeeToContest",
      "outputs": [],
      "payable": true,
      "stateMutability": "payable",
      "type": "function"
    },
    {
      "constant": false,
      "inputs": [
        {
          "name": "slateId_",
          "type": "bytes12"
        },
        {
          "name": "compressedSalaries",
          "type": "string"
        }
      ],
      "name": "setSalaries",
      "outputs": [],
      "payable": false,
      "stateMutability": "nonpayable",
      "type": "function"
    },
    {
      "constant": false,
      "inputs": [
        {
          "name": "slateId_",
          "type": "bytes12"
        },
        {
          "name": "compressedScores",
          "type": "string"
        }
      ],
      "name": "setScores",
      "outputs": [],
      "payable": false,
      "stateMutability": "nonpayable",
      "type": "function"
    },
    {
      "constant": false,
      "inputs": [
        {
          "name": "slateId_",
          "type": "bytes12"
        }
      ],
      "name": "scoreEnteredAddresses",
      "outputs": [],
      "payable": false,
      "stateMutability": "nonpayable",
      "type": "function"
    },
    {
      "constant": false,
      "inputs": [
        {
          "name": "slateId_",
          "type": "bytes12"
        },
        {
          "name": "contestId_",
          "type": "bytes32"
        }
      ],
      "name": "averagePoints",
      "outputs": [
        {
          "name": "",
          "type": "int256"
        }
      ],
      "payable": false,
      "stateMutability": "nonpayable",
      "type": "function"
    },
    {
      "constant": false,
      "inputs": [
        {
          "name": "slateId_",
          "type": "bytes12"
        },
        {
          "name": "contestId_",
          "type": "bytes32"
        },
        {
          "name": "averagePoints_",
          "type": "int256"
        }
      ],
      "name": "sumSquaredWinners",
      "outputs": [
        {
          "name": "",
          "type": "uint256"
        }
      ],
      "payable": false,
      "stateMutability": "nonpayable",
      "type": "function"
    },
    {
      "constant": false,
      "inputs": [
        {
          "name": "slateId_",
          "type": "bytes12"
        },
        {
          "name": "contestId_",
          "type": "bytes32"
        }
      ],
      "name": "setSingleContestPayouts",
      "outputs": [],
      "payable": false,
      "stateMutability": "nonpayable",
      "type": "function"
    },
    {
      "constant": true,
      "inputs": [
        {
          "name": "address_",
          "type": "address"
        }
      ],
      "name": "getUserBalance",
      "outputs": [
        {
          "name": "",
          "type": "uint256"
        }
      ],
      "payable": false,
      "stateMutability": "view",
      "type": "function"
    },
    {
      "constant": false,
      "inputs": [],
      "name": "getSalariesOnChain",
      "outputs": [],
      "payable": true,
      "stateMutability": "payable",
      "type": "function"
    },
    {
      "constant": false,
      "inputs": [],
      "name": "getScoresOnChain",
      "outputs": [],
      "payable": true,
      "stateMutability": "payable",
      "type": "function"
    },
    {
      "constant": false,
      "inputs": [
        {
          "name": "compressedScoresUrl_",
          "type": "string"
        }
      ],
      "name": "setScoresUrlAndGetResultsOnChain",
      "outputs": [],
      "payable": false,
      "stateMutability": "nonpayable",
      "type": "function"
    },
    {
      "constant": false,
      "inputs": [
        {
          "name": "compressedSalariesUrl_",
          "type": "string"
        }
      ],
      "name": "setSalariesUrlAndGetSalariesOnChain",
      "outputs": [],
      "payable": false,
      "stateMutability": "nonpayable",
      "type": "function"
    },
    {
      "constant": false,
      "inputs": [
        {
          "name": "_newSlateId",
          "type": "bytes12"
        },
        {
          "name": "_compressedSalariesUrl",
          "type": "string"
        },
        {
          "name": "_compressedScoresUrl",
          "type": "string"
        },
        {
          "name": "lockTimestamp",
          "type": "uint256"
        }
      ],
      "name": "setNewSlateInfo",
      "outputs": [],
      "payable": false,
      "stateMutability": "nonpayable",
      "type": "function"
    },
    {
      "constant": false,
      "inputs": [
        {
          "name": "queryUrl",
          "type": "string"
        },
        {
          "name": "callbackAction",
          "type": "string"
        }
      ],
      "name": "innerOraclizeQuery",
      "outputs": [],
      "payable": true,
      "stateMutability": "payable",
      "type": "function"
    },
    {
      "constant": false,
      "inputs": [
        {
          "name": "myid",
          "type": "bytes32"
        },
        {
          "name": "result",
          "type": "string"
        },
        {
          "name": "proof",
          "type": "bytes"
        }
      ],
      "name": "__callback",
      "outputs": [],
      "payable": false,
      "stateMutability": "nonpayable",
      "type": "function"
    },
    {
      "constant": false,
      "inputs": [
        {
          "name": "myid",
          "type": "bytes32"
        },
        {
          "name": "result",
          "type": "string"
        }
      ],
      "name": "__callback",
      "outputs": [],
      "payable": false,
      "stateMutability": "nonpayable",
      "type": "function"
    },
    {
      "constant": false,
      "inputs": [
        {
          "name": "contestId",
          "type": "bytes32"
        }
      ],
      "name": "deleteContest",
      "outputs": [],
      "payable": false,
      "stateMutability": "nonpayable",
      "type": "function"
    },
    {
      "constant": true,
      "inputs": [],
      "name": "getLiveContestIds",
      "outputs": [
        {
          "name": "",
          "type": "bytes32[]"
        }
      ],
      "payable": false,
      "stateMutability": "view",
      "type": "function"
    },
    {
      "constant": true,
      "inputs": [
        {
          "name": "slateId_",
          "type": "bytes12"
        },
        {
          "name": "contestId_",
          "type": "bytes32"
        }
      ],
      "name": "getSlateContest",
      "outputs": [
        {
          "name": "",
          "type": "bytes32"
        },
        {
          "name": "",
          "type": "uint256"
        },
        {
          "name": "",
          "type": "uint256"
        },
        {
          "name": "",
          "type": "address"
        },
        {
          "name": "",
          "type": "uint256"
        }
      ],
      "payable": false,
      "stateMutability": "view",
      "type": "function"
    },
    {
      "constant": true,
      "inputs": [
        {
          "name": "slateId_",
          "type": "bytes12"
        },
        {
          "name": "contestId_",
          "type": "bytes32"
        }
      ],
      "name": "getContestEntries",
      "outputs": [
        {
          "name": "",
          "type": "address[]"
        }
      ],
      "payable": false,
      "stateMutability": "view",
      "type": "function"
    },
    {
      "constant": true,
      "inputs": [
        {
          "name": "slateId_",
          "type": "bytes12"
        },
        {
          "name": "contestId_",
          "type": "bytes32"
        },
        {
          "name": "address_",
          "type": "address"
        }
      ],
      "name": "getContestRecoup",
      "outputs": [
        {
          "name": "",
          "type": "uint256"
        }
      ],
      "payable": false,
      "stateMutability": "view",
      "type": "function"
    },
    {
      "constant": true,
      "inputs": [
        {
          "name": "slateId_",
          "type": "bytes12"
        },
        {
          "name": "contestId_",
          "type": "bytes32"
        }
      ],
      "name": "getContestPrizePool",
      "outputs": [
        {
          "name": "",
          "type": "uint256"
        }
      ],
      "payable": false,
      "stateMutability": "view",
      "type": "function"
    },
    {
      "constant": true,
      "inputs": [
        {
          "name": "slateId_",
          "type": "bytes12"
        },
        {
          "name": "entry_",
          "type": "address"
        }
      ],
      "name": "getEntryScore",
      "outputs": [
        {
          "name": "",
          "type": "int16"
        }
      ],
      "payable": false,
      "stateMutability": "view",
      "type": "function"
    },
    {
      "constant": true,
      "inputs": [
        {
          "name": "slateId_",
          "type": "bytes12"
        }
      ],
      "name": "getGolferIdsOnSlate",
      "outputs": [
        {
          "name": "",
          "type": "uint16[]"
        }
      ],
      "payable": false,
      "stateMutability": "view",
      "type": "function"
    },
    {
      "constant": true,
      "inputs": [],
      "name": "testFunction",
      "outputs": [
        {
          "name": "",
          "type": "string"
        }
      ],
      "payable": false,
      "stateMutability": "view",
      "type": "function"
    }
  ],
  "bytecode": "0x6060604052602060405190810160405260008152600c90805162000028929160200190620000af565b50602060405190810160405260008152600d9080516200004d929160200190620000af565b50606460155560146016556007543410156200006857600080fd5b60058054600160a060020a033316600160a060020a03199182161790915534600655600080549091167315ce83f7b43082c21deb5bedd004e2f683b4539217905562000154565b828054600181600116156101000203166002900490600052602060002090601f016020900481019282601f10620000f257805160ff191683800117855562000122565b8280016001018555821562000122579182015b828111156200012257825182559160200191906001019062000105565b506200013092915062000134565b5090565b6200015191905b808211156200013057600081556001016200013b565b90565b613cd080620001646000396000f3006060604052600436106101d45763ffffffff60e060020a6000350416630aa5743a81146101d95780630be9060f1461021e5780630fc3356014610280578063137492ff146102885780631b131866146102d957806326daf1641461031957806327dc297e146103a157806333c7fdb3146103f757806338bbfa501461041a5780633ccfd60b146104b25780634246a5fd146104ba57806344375f66146104f8578063471924db1461059c578063477348921461060257806348c8fb26146106215780634c55dcde146106415780634ecf16d4146106575780635fd8c7101461067a57806361511ada1461068257806371f14aba1461072457806377955245146107375780637ea5678c146107665780638fd3ebe714610795578063a946d0ea1461080e578063ab4153ad14610831578063ad4e4b9114610854578063b4a47a0c146108b1578063b8dfac28146108d4578063c5012ffc14610934578063cd17852614610985578063cd84d13e146109ab578063cfaff7a2146109cb578063d0e30db0146109f2578063d1146bb5146109fa578063d2408e1514610a21578063d781b7cf14610a41578063dd2557d114610a57578063e16b4a9b14610a6f578063f4de287b14610af9578063fb9a7aaf14610b11575b600080fd5b34156101e457600080fd5b610205600160a060020a031960043516602435600160a060020a0316610b19565b604051600191820b90910b815260200160405180910390f35b341561022957600080fd5b61027e60048035600160a060020a0319169060446024803590810190830135806020601f82018190048102016040519081016040528181529291906020840183838082843750949650610b5095505050505050565b005b61027e610d6d565b341561029357600080fd5b61027e60046024813581810190830135806020601f82018190048102016040519081016040528181529291906020840183838082843750949650610e4695505050505050565b34156102e457600080fd5b610300600160a060020a03196004351661ffff60243516610e75565b604051600091820b90910b815260200160405180910390f35b61027e60046024813581810190830135806020601f8201819004810201604051908101604052818152929190602084018383808284378201915050505050509190803590602001908201803590602001908080601f016020809104026020016040519081016040528181529291906020840183838082843750949650610eab95505050505050565b34156103ac57600080fd5b61027e600480359060446024803590810190830135806020601f8201819004810201604051908101604052818152929190602084018383808284375094965061116b95505050505050565b341561040257600080fd5b61027e600160a060020a03196004351660243561129e565b341561042557600080fd5b61027e600480359060446024803590810190830135806020601f8201819004810201604051908101604052818152929190602084018383808284378201915050505050509190803590602001908201803590602001908080601f01602080910402602001604051908101604052818152929190602084018383808284375094965061150d95505050505050565b61027e611512565b34156104c557600080fd5b6104e6600160a060020a031960043516602435600160a060020a0316611581565b60405190815260200160405180910390f35b341561050357600080fd5b61027e60048035600160a060020a0319169060446024803590810190830135806020601f8201819004810201604051908101604052818152929190602084018383808284378201915050505050509190803590602001908201803590602001908080601f01602080910402602001604051908101604052818152929190602084018383808284375094965050933593506115b892505050565b34156105a757600080fd5b6105af611687565b60405160208082528190810183818151815260200191508051906020019060200280838360005b838110156105ee5780820151838201526020016105d6565b505050509050019250505060405180910390f35b341561060d57600080fd5b6104e6600160a060020a03600435166116e7565b341561062c57600080fd5b61027e600160a060020a031960043516611706565b341561064c57600080fd5b61027e6004356118dd565b341561066257600080fd5b61027e600160a060020a031960043516602435611954565b61027e611a19565b341561068d57600080fd5b61020560048035600160a060020a0319169060446024803590810190830135806020601f8201819004810201604051908101604052818152929190602084018383808284378201915050505050509190803590602001908201803590602001908080601f016020809104026020016040519081016040528181529291906020840183838082843750949650611a9795505050505050565b341561072f57600080fd5b6105af611d91565b341561074257600080fd5b61074a611e2f565b604051600160a060020a03909116815260200160405180910390f35b341561077157600080fd5b6104e6600160a060020a031960043516602435604435600160a060020a0316611e3e565b34156107a057600080fd5b6107c1600160a060020a031960043516602435600160a060020a0316611e7c565b604051838152602081018361010080838360005b838110156107ed5780820151838201526020016107d5565b505050509050018260010b60010b8152602001935050505060405180910390f35b341561081957600080fd5b6104e6600160a060020a031960043516602435611f92565b341561083c57600080fd5b6105af600160a060020a03196004351660243561205f565b341561085f57600080fd5b610877600160a060020a0319600435166024356120ef565b6040519485526020850193909352604080850192909252600160a060020a03166060840152608083019190915260a0909101905180910390f35b34156108bc57600080fd5b6104e6600160a060020a03196004351660243561213e565b34156108df57600080fd5b61027e60048035600160a060020a0319169060446024803590810190830135806020601f8201819004810201604051908101604052818152929190602084018383808284375094965061216a95505050505050565b341561093f57600080fd5b61027e60046024813581810190830135806020601f8201819004810201604051908101604052818152929190602084018383808284375094965061234795505050505050565b341561099057600080fd5b6104e6600160a060020a031960043516602435604435612373565b34156109b657600080fd5b6105af600160a060020a03196004351661245e565b34156109d657600080fd5b610300600160a060020a03196004351661ffff6024351661250b565b61027e61253c565b61027e600160a060020a031960043516602435604435600160a060020a0316606435612546565b3415610a2c57600080fd5b6105af600160a060020a03196004351661267a565b3415610a4c57600080fd5b6104e6600435612708565b61027e600160a060020a031960043516602435612714565b3415610a7a57600080fd5b610a82612816565b60405160208082528190810183818151815260200191508051906020019080838360005b83811015610abe578082015183820152602001610aa6565b50505050905090810190601f168015610aeb5780820380516001836020036101000a031916815260200191505b509250505060405180910390f35b61027e600160a060020a031960043516602435612857565b61027e612933565b600160a060020a031982166000908152601260209081526040808320600160a060020a038516845290915290205460010b92915050565b610b58613b0b565b610b60613b0b565b610b68613b22565b600160a060020a03198516600090815260176020526040812054819060ff1615610b9157600080fd5b610b9a86612a0a565b9450610bd860408051908101604052600181527f20000000000000000000000000000000000000000000000000000000000000006020820152612a0a565b9350610bea858563ffffffff612a3216565b600101604051805910610bfa5750595b908082528060200260200182016040528015610c3057816020015b610c1d613b0b565b815260200190600190039081610c155790505b509250600091505b82518261ffff161015610d4057610c55858563ffffffff612a9016565b838361ffff1681518110610c6557fe5b60209081029091010152610ccb610cc6610cc1610c9b604080519081016040526001815260f960020a601d026020820152612a0a565b868661ffff1681518110610cab57fe5b906020019060200201519063ffffffff612a9016565b612aa3565b612af1565b9050610cf2610cc6848461ffff1681518110610ce357fe5b90602001906020020151612aa3565b600160a060020a031988166000908152600f6020908152604080832061ffff86168452909152812080549290910b60ff166101000261ff001990921691909117905560019190910190610c38565b505050600160a060020a03199093166000908152601760205260409020805460ff19166001179055505050565b610e44600d8054600181600116156101000203166002900480601f016020809104026020016040519081016040528092919081815260200182805460018160011615610100020316600290048015610e065780601f10610ddb57610100808354040283529160200191610e06565b820191906000526020600020905b815481529060010190602001808311610de957829003601f168201915b505050505060408051908101604052600681527f53636f72657300000000000000000000000000000000000000000000000000006020820152610eab565b565b60055433600160a060020a03908116911614610e6157600080fd5b610e6a81612b04565b610e72612933565b50565b600160a060020a031982166000908152600f6020908152604080832061ffff851684529091528120546101009004900b92915050565b6000806000610eec60408051908101604052600381527f55524c00000000000000000000000000000000000000000000000000000000006020820152612b17565b600302660886c98b760000019250655af3107a40009150818301341015610ff5577f46cb989ef9cef13e930e3b7f286225a086e716a90d63e0b7da85d310a9db0c9a60405160208082526046908201527f4f7261636c697a65207175657279206661696c65642e2053656e64206d6f72656040808301919091527f2045544820282e3030323545544820696e20676173202b20242e30332070657260608301527f2071756572790000000000000000000000000000000000000000000000000000608083015260a0909101905180910390a1600160a060020a0333163480156108fc0290604051600060405180830381858888f193505050501515610ff057600080fd5b611164565b60068054348590030190557f46cb989ef9cef13e930e3b7f286225a086e716a90d63e0b7da85d310a9db0c9a60405160208082526037908201527f4f7261636c697a65207175657269657320776572652073656e742c207374616e6040808301919091527f64696e6720627920666f722074686520616e737765722e00000000000000000060608301526080909101905180910390a16111406040805190810160405280600381526020017f55524c00000000000000000000000000000000000000000000000000000000008152506111376040805190810160405280600581526020017f6a736f6e280000000000000000000000000000000000000000000000000000008152508860408051908101604052601281527f292e636f6d7072657373656453636f72657300000000000000000000000000006020820152612d25565b620927c0612d60565b6000818152600960205260409020909150848051611162929160200190613b34565b505b5050505050565b6000806111766130e6565b600160a060020a031633600160a060020a031614151561119557600080fd5b60008481526009602052604090819020905180828054600181600116156101000203166002900480156111ff5780601f106111dd5761010080835404028352918201916111ff565b820191906000526020600020905b8154815290600101906020018083116111eb575b505091505060405180910390209150600090506040517f53616c6172696573000000000000000000000000000000000000000000000000815260080160405190819003902082141561125557611255818461216a565b6040517f53636f72657300000000000000000000000000000000000000000000000000008152600601604051908190039020821415611298576112988184610b50565b50505050565b600160a060020a031982166000908152601760205260408120548190819081908190819081908190819060ff1615156112d657600080fd5b60008a8152601460205260409020600381015490995060ff1615156112fa57600080fd5b600160a060020a03198b16600090815260048a01602052604090205460ff161561132357600080fd5b600160a060020a03198b16600081815260028b0160209081526040808320548e845260148352818420948452600590940190915290205490985096506113698b8b611f92565b95506113768b8b88612373565b9450600093505b8661ffff168460ff16101561149857600160a060020a03198b16600090815260058a0160205260409020805460ff86169081106113b657fe5b6000918252602080832090910154600160a060020a03198e168352601282526040808420600160a060020a0390921680855291909252912054909350600190810b925082900b869012801590611410575060008260010b12155b1561148d57600160a060020a03198b16600090815260028a0160205260409020548590600184900b9081020281151561144557fe5b600160a060020a03198d1660009081526008808d0160209081526040808420600160a060020a038a168552825280842095909404948590555220805482019055978890039790505b60019093019261137d565b600160a060020a03198b16600090815260028a01602052604090205460648902106114c257600080fd5b505060068054909601909555505050600160a060020a031990941660009081526004830160205260409020805460ff1990811660011790915560039092018054909216909155505050565b505050565b60055433600160a060020a0390811691161461152d57600080fd5b6000600754600654031115610e4457600554600754600654600160a060020a03909216910380156108fc0290604051600060405180830381858888f19350505050151561157957600080fd5b600754600655565b600160a060020a031982166000908152601160209081526040808320600160a060020a038516845290915290206001015492915050565b60055433600160a060020a039081169116146115d357600080fd5b600160a060020a031984166000908152600b6020526040902054156115f757600080fd5b600a8054600181016116098382613bb2565b5060009182526020808320600280840490910180546bffffffffffffffffffffffff92909406600c026101000a918202199093167401000000000000000000000000000000000000000089049190910217909155600160a060020a031986168252600b90526040902081905561167e82613286565b61129883612b04565b61168f613b22565b60138054806020026020016040519081016040528092919081815260200182805480156116dc57602002820191906000526020600020905b815481526001909101906020018083116116c7575b505050505090505b90565b600160a060020a0381166000908152600860205260409020545b919050565b600080611711613be6565b600160a060020a0319841660009081526017602052604081205460ff16151561173957600080fd5b600093505b600160a060020a0319851660009081526010602052604090205460ff8516101561116457600160a060020a031985166000908152601060205260409020805460ff861690811061178a57fe5b6000918252602080832090910154600160a060020a031988168352601182526040808420600160a060020a039092168085529190925291819020919450600290910190600890610100905190810160405291906101008301826000855b82829054906101000a900461ffff1661ffff16815260200190600201906020826001010492830192600103820291508084116117e757905050505050509150600090505b60088160ff1610156118d257600160a060020a031985166000908152600f60205260408120908360ff84166008811061186057fe5b602002015161ffff90811682526020808301939093526040918201600090812054600160a060020a03198a16825260128552838220600160a060020a0389168352909452918220805461ffff198116610100909504840b90930b600193840b01830b909116929092179091550161182b565b60019093019261173e565b60008181526014602052604090206003015460ff16156118fc57600080fd5b60008181526014602052604090205433600160a060020a0390811691161461192357600080fd5b60009081526014602052604081208054600160a060020a03191681556001810191909155600301805460ff19169055565b600160a060020a031982166000908152600b602052604081205442111561197a57600080fd5b50600160a060020a03198216600090815260116020908152604080832033600160a060020a031684529091529020805460ff161515611a0257600160a060020a0319831660009081526010602052604090208054600181016119dc8382613c0f565b5060009182526020909120018054600160a060020a03191633600160a060020a03161790555b600180820192909255805460ff1916909117905550565b600160a060020a03331660009081526008602052604081205411611a3c57600080fd5b600160a060020a033316600081815260086020526040908190205480156108fc029151600060405180830381858888f193505050501515611a7c57600080fd5b600160a060020a033316600090815260086020526040812055565b6000611aa1613b22565b611aa9613b0b565b611ab1613b0b565b6000806000806000611af78b60408051908101604052600181527f7c0000000000000000000000000000000000000000000000000000000000000060208201528c612d25565b6040518082805190602001908083835b60208310611b265780518252601f199092019160209182019101611b07565b6001836020036101000a0380198251168184511617909252505050919091019250604091505051908190039020600160a060020a03198d16600090815260116020908152604080832033600160a060020a0316845290915290206001015414611b8e57600080fd5b6008604051805910611b9d5750595b90808252806020026020018201604052509750611bb98b612a0a565b9650611bde604080519081016040526001815260f960020a601d026020820152612a0a565b9550611bf0878763ffffffff612a3216565b60010194506008851115611c0357600080fd5b60009350600092505b848360ff161015611cd557611c2d610cc6610cc1898963ffffffff612a9016565b9150600090505b8260ff168160ff161015611c7657878160ff1681518110611c5157fe5b9060200190602002015161ffff83811691161415611c6e57600080fd5b600101611c34565b81888460ff1681518110611c8657fe5b61ffff9283166020918202909201810191909152600160a060020a03198e166000908152600f8252604080822093861682529290915290812054810b900b939093019260019290920191611c0c565b601554600185900b1315611ce857600080fd5b600092505b87518360ff161015611d8257878360ff1681518110611d0857fe5b90602001906020020151600160a060020a03198d16600090815260116020908152604080832033600160a060020a03168452909152902060020160ff851660088110611d5057fe5b601091828204019190066002026101000a81548161ffff021916908361ffff1602179055508280600101935050611ced565b50505050505050509392505050565b611d99613b22565b600a8054806020026020016040519081016040528092919081815260200182805480156116dc57602002820191906000526020600020906000905b82829054906101000a90047401000000000000000000000000000000000000000002600160a060020a031916815260200190600c0190602082600b01049283019260010382029150808411611dd45790505050505050905090565b600554600160a060020a031681565b6000918252601460209081526040808420600160a060020a031995909516845260089094018152838320600160a060020a0392909216835252205490565b6000611e86613be6565b6000611e90613c33565b600160a060020a031986166000908152601160209081526040808320600160a060020a03891684529091529081902090606090519081016040908152825460ff161515825260018301546020830152909190808301906002830190600890610100905190810160405291906101008301826000855b82829054906101000a900461ffff1661ffff1681526020019060020190602082600101049283019260010382029150808411611f05579050505050505081525050905080602001518160400151600160a060020a031988166000908152601260209081526040808320600160a060020a038b168452909152902054919550935060010b9150509250925092565b6000818152601460209081526040808320600160a060020a0319861684526005019091528120548190815b8161ffff168160ff16101561204557600160a060020a0319861660008181526012602090815260408083208984526014835281842094845260059094019091528120805460ff851690811061200e57fe5b6000918252602080832090910154600160a060020a03168352820192909252604001902054600190810b810b939093019201611fbd565b8161ffff168381151561205457fe5b059695505050505050565b612067613b22565b6000828152601460209081526040808320600160a060020a0319871684526005018252918290208054909290918281020190519081016040528092919081815260200182805480156120e257602002820191906000526020600020905b8154600160a060020a031681526001909101906020018083116120c4575b5050505050905092915050565b60008181526014602090815260408083206001810154600160a060020a0319969096168452600581018352818420548154600290920190935292205492949092600160a060020a039092169190565b6000908152601460209081526040808320600160a060020a031994909416835260029093019052205490565b612172613b0b565b61217a613b0b565b612182613b0b565b60008061218d613b0b565b60055460009033600160a060020a039081169116146121ab57600080fd5b600160a060020a031989166000908152601760205260409020805460ff191690556121d588612a0a565b965061221360408051908101604052600181527f20000000000000000000000000000000000000000000000000000000000000006020820152612a0a565b9550612238604080519081016040526001815260f960020a601d026020820152612a0a565b945061224a878763ffffffff612a3216565b6001019350600092505b838360ff16101561233c5761226f878763ffffffff612a9016565b9150612287610cc6610cc1848863ffffffff612a9016565b600160a060020a03198a166000908152600e60205260409020805491925090600181016122b48382613c5a565b916000526020600020906010918282040191900660020283909190916101000a81548161ffff021916908361ffff160217905550506122f5610cc683612aa3565b600160a060020a03198a166000908152600f6020908152604080832061ffff861684529091528120805460ff191660ff9390920b9290921617905560019290920191612254565b505050505050505050565b60055433600160a060020a0390811691161461236257600080fd5b61236b81613286565b610e72610d6d565b6000828152601460209081526040808320600160a060020a03198716845260050190915281205481908180805b8361ffff168360ff16101561245157600160a060020a0319891660008181526012602090815260408083208c84526014835281842094845260059094019091528120805460ff87169081106123f157fe5b6000918252602080832090910154600160a060020a03168352820192909252604001902054600190810b925082900b879012801590612434575060008260010b12155b156124465750600181900b8002938401935b6001909201916123a0565b5092979650505050505050565b612466613b22565b600e600083600160a060020a031916600160a060020a03191681526020019081526020016000208054806020026020016040519081016040528092919081815260200182805480156124ff57602002820191906000526020600020906000905b82829054906101000a900461ffff1661ffff16815260200190600201906020826001010492830192600103820291508084116124c65790505b50505050509050919050565b600160a060020a031982166000908152600f6020908152604080832061ffff85168452909152812054900b92915050565b6006805434019055565b6000838152601460209081526040808320600160a060020a031988168452600681018352818420600160a060020a038716855290925282205490919060ff161561258f57600080fd5b61259883612708565b60018301549091508310156125ac57600080fd5b60018281018054600160a060020a031989166000818152600287016020908152604080832080549589900390950190945560068054880190559354600160a060020a038a168252600885528382208054918a0390910190559081526005860190925290208054909181016126208382613c0f565b5060009182526020808320919091018054600160a060020a03909716600160a060020a0319978816811790915597909516815260069092018452506040808220958252949092525091909120805460ff1916600117905550565b612682613b22565b6010600083600160a060020a031916600160a060020a03191681526020019081526020016000208054806020026020016040519081016040528092919081815260200182805480156124ff57602002820191906000526020600020905b8154600160a060020a031681526001909101906020018083116126df5750505050509050919050565b6016546103e891020490565b60008181526014602052604090206003015460ff161561273357600080fd5b600160a060020a03198216600090815260116020908152604080832033600160a060020a0316845290915290205460ff16151561276f57600080fd5b60138054600181016127818382613c0f565b50600091825260209091200181905560606040519081016040908152600160a060020a033316825234602080840191909152600182840152600084815260149091522081518154600160a060020a031916600160a060020a0391909116178155602082015181600101556040820151600391909101805460ff19169115159190911790555061281282823334612546565b5050565b61281e613b22565b60408051908101604052600481527f74657374000000000000000000000000000000000000000000000000000000006020820152905090565b61285f613c33565b600160a060020a03198316600090815260116020908152604080832033600160a060020a031684529091529081902090606090519081016040908152825460ff161515825260018301546020830152909190808301906002830190600890610100905190810160405291906101008301826000855b82829054906101000a900461ffff1661ffff16815260200190600201906020826001010492830192600103820291508084116128d457905050505050508152505090508060000151151561292757600080fd5b61150d83833334612546565b610e44600c8054600181600116156101000203166002900480601f0160208091040260200160405190810160405280929190818152602001828054600181600116156101000203166002900480156129cc5780601f106129a1576101008083540402835291602001916129cc565b820191906000526020600020905b8154815290600101906020018083116129af57829003601f168201915b505050505060408051908101604052600881527f53616c61726965730000000000000000000000000000000000000000000000006020820152610eab565b612a12613b0b565b602082016040805190810160405280845181526020019190915292915050565b6000808251612a4d8551866020015186518760200151613299565b0190505b83518460200151018111612a89576001909101908251612a81856020015183038651038386518760200151613299565b019050612a51565b5092915050565b612a98613b0b565b612a8983838361333c565b612aab613b22565b612ab3613b22565b60008351604051805910612ac45750595b818152601f19601f830116810160200160405290509150602082019050612a8981856020015186516133ab565b6000612afe8260006133f0565b92915050565b600c818051612812929160200190613b34565b60008054600160a060020a03161580612b425750600054612b4090600160a060020a031661355e565b155b15612b5357612b516000613562565b505b60008054600160a060020a0316906338cc483190604051602001526040518163ffffffff1660e060020a028152600401602060405180830381600087803b1515612b9c57600080fd5b6102c65a03f11515612bad57600080fd5b5050506040518051600154600160a060020a039081169116149050612c505760008054600160a060020a0316906338cc483190604051602001526040518163ffffffff1660e060020a028152600401602060405180830381600087803b1515612c1557600080fd5b6102c65a03f11515612c2657600080fd5b505050604051805160018054600160a060020a031916600160a060020a0392909216919091179055505b600154600160a060020a031663524f3889836000604051602001526040518263ffffffff1660e060020a0281526004018080602001828103825283818151815260200191508051906020019080838360005b83811015612cba578082015183820152602001612ca2565b50505050905090810190601f168015612ce75780820380516001836020036101000a031916815260200191505b5092505050602060405180830381600087803b1515612d0557600080fd5b6102c65a03f11515612d1657600080fd5b50505060405180519392505050565b612d2d613b22565b612d588484846020604051908101604052806000815250602060405190810160405260008152613888565b949350505050565b600080548190600160a060020a03161580612d8d5750600054612d8b90600160a060020a031661355e565b155b15612d9e57612d9c6000613562565b505b60008054600160a060020a0316906338cc483190604051602001526040518163ffffffff1660e060020a028152600401602060405180830381600087803b1515612de757600080fd5b6102c65a03f11515612df857600080fd5b5050506040518051600154600160a060020a039081169116149050612e9b5760008054600160a060020a0316906338cc483190604051602001526040518163ffffffff1660e060020a028152600401602060405180830381600087803b1515612e6057600080fd5b6102c65a03f11515612e7157600080fd5b505050604051805160018054600160a060020a031916600160a060020a0392909216919091179055505b600154600160a060020a0316632ef3accc86856000604051602001526040518363ffffffff1660e060020a0281526004018080602001838152602001828103825284818151815260200191508051906020019080838360005b83811015612f0c578082015183820152602001612ef4565b50505050905090810190601f168015612f395780820380516001836020036101000a031916815260200191505b509350505050602060405180830381600087803b1515612f5857600080fd5b6102c65a03f11515612f6957600080fd5b5050506040518051915050670de0b6b3a76400003a840201811115612f9157600091506130de565b600154600160a060020a031663c51be90f82600088888883604051602001526040518663ffffffff1660e060020a028152600401808581526020018060200180602001848152602001838103835286818151815260200191508051906020019080838360005b8381101561300f578082015183820152602001612ff7565b50505050905090810190601f16801561303c5780820380516001836020036101000a031916815260200191505b50838103825285818151815260200191508051906020019080838360005b8381101561307257808201518382015260200161305a565b50505050905090810190601f16801561309f5780820380516001836020036101000a031916815260200191505b5096505050505050506020604051808303818588803b15156130c057600080fd5b6125ee5a03f115156130d157600080fd5b5050505060405180519250505b509392505050565b60008054600160a060020a03161580613111575060005461310f90600160a060020a031661355e565b155b15613122576131206000613562565b505b60008054600160a060020a0316906338cc483190604051602001526040518163ffffffff1660e060020a028152600401602060405180830381600087803b151561316b57600080fd5b6102c65a03f1151561317c57600080fd5b5050506040518051600154600160a060020a03908116911614905061321f5760008054600160a060020a0316906338cc483190604051602001526040518163ffffffff1660e060020a028152600401602060405180830381600087803b15156131e457600080fd5b6102c65a03f115156131f557600080fd5b505050604051805160018054600160a060020a031916600160a060020a0392909216919091179055505b600154600160a060020a031663c281d19e6000604051602001526040518163ffffffff1660e060020a028152600401602060405180830381600087803b151561326757600080fd5b6102c65a03f1151561327857600080fd5b505050604051805191505090565b600d818051612812929160200190613b34565b60008080808088871161332a57602087116132f05760018760200360080260020a031980875116888b038a018a96505b8183885116146132e55760018701968190106132c9578b8b0196505b505050839450613330565b8686209150879350600092505b868903831161332a57508583208181141561331a57839450613330565b60019384019392909201916132fd565b88880194505b50505050949350505050565b613344613b0b565b600061335c8551866020015186518760200151613299565b9050846020015160208085019190915285015181038352845185602001510181141561338b57600085526133a2565b835183510185818151039052508351810160208601525b50909392505050565b60005b602082106133d157825184526020840193506020830192506020820391506133ae565b6001826020036101000a03905080198351168185511617909352505050565b60006133fa613b22565b5082600080805b8351811015613541577f300000000000000000000000000000000000000000000000000000000000000084828151811061343757fe5b016020015160f860020a900460f860020a02600160f860020a031916101580156134a857507f390000000000000000000000000000000000000000000000000000000000000084828151811061348957fe5b016020015160f860020a900460f860020a02600160f860020a03191611155b156134fe5781156134c7578515156134bf57613541565b600019909501945b600a8302925060308482815181106134db57fe5b016020015160f860020a900460f860020a0260f860020a90040383019250613539565b83818151811061350a57fe5b016020015160f860020a900460f860020a02600160f860020a031916602e60f860020a02141561353957600191505b600101613401565b60008611156135535785600a0a830292505b509095945050505050565b3b90565b600080613582731d3b2638a7cc9f2cb3d298a3da7a90b67e5506ed61355e565b11156135f25760008054600160a060020a031916731d3b2638a7cc9f2cb3d298a3da7a90b67e5506ed1790556135ea60408051908101604052600b81527f6574685f6d61696e6e65740000000000000000000000000000000000000000006020820152613af8565b506001611701565b600061361173c03a2615d5efaf5f49f60b7bb6583eaec212fdf161355e565b11156136795760008054600160a060020a03191673c03a2615d5efaf5f49f60b7bb6583eaec212fdf11790556135ea60408051908101604052600c81527f6574685f726f707374656e3300000000000000000000000000000000000000006020820152613af8565b600061369873b7a07bcf2ba2f2703b24c0691b5278999c59ac7e61355e565b11156137005760008054600160a060020a03191673b7a07bcf2ba2f2703b24c0691b5278999c59ac7e1790556135ea60408051908101604052600981527f6574685f6b6f76616e00000000000000000000000000000000000000000000006020820152613af8565b600061371f73146500cfd35b22e4a392fe0adc06de1a1368ed4861355e565b11156137875760008054600160a060020a03191673146500cfd35b22e4a392fe0adc06de1a1368ed481790556135ea60408051908101604052600b81527f6574685f72696e6b6562790000000000000000000000000000000000000000006020820152613af8565b60006137a6736f485c8bf6fc43ea212e93bbf8ce046c7f1cb47561355e565b11156137da575060008054600160a060020a031916736f485c8bf6fc43ea212e93bbf8ce046c7f1cb4751790556001611701565b60006137f97320e12a1f859b3feae5fb2a0a32c18f5a65555bbf61355e565b111561382d575060008054600160a060020a0319167320e12a1f859b3feae5fb2a0a32c18f5a65555bbf1790556001611701565b600061384c7351efaf4c8b3c9afbd5ab9f4bbc82784ab6ef8faa61355e565b1115613880575060008054600160a060020a0319167351efaf4c8b3c9afbd5ab9f4bbc82784ab6ef8faa1790556001611701565b506000919050565b613890613b22565b613898613b22565b6138a0613b22565b6138a8613b22565b6138b0613b22565b6138b8613b22565b6138c0613b22565b6138c8613b22565b6000808e98508d97508c96508b95508a94508451865188518a518c51010101016040518059106138f55750595b818152601f19601f83011681016020016040529050935083925060009150600090505b88518110156139715788818151811061392d57fe5b016020015160f860020a900460f860020a0283838060010194508151811061395157fe5b906020010190600160f860020a031916908160001a905350600101613918565b5060005b87518110156139ce5787818151811061398a57fe5b016020015160f860020a900460f860020a028383806001019450815181106139ae57fe5b906020010190600160f860020a031916908160001a905350600101613975565b5060005b8651811015613a2b578681815181106139e757fe5b016020015160f860020a900460f860020a02838380600101945081518110613a0b57fe5b906020010190600160f860020a031916908160001a9053506001016139d2565b5060005b8551811015613a8857858181518110613a4457fe5b016020015160f860020a900460f860020a02838380600101945081518110613a6857fe5b906020010190600160f860020a031916908160001a905350600101613a2f565b5060005b8451811015613ae557848181518110613aa157fe5b016020015160f860020a900460f860020a02838380600101945081518110613ac557fe5b906020010190600160f860020a031916908160001a905350600101613a8c565b50909d9c50505050505050505050505050565b6002818051612812929160200190613b34565b604080519081016040526000808252602082015290565b60206040519081016040526000815290565b828054600181600116156101000203166002900490600052602060002090601f016020900481019282601f10613b7557805160ff1916838001178555613ba2565b82800160010185558215613ba2579182015b82811115613ba2578251825591602001919060010190613b87565b50613bae929150613c8a565b5090565b81548183558181151161150d57600101600290048160010160029004836000526020600020918201910161150d9190613c8a565b6101006040519081016040526008815b600081526000199091019060200181613bf65790505090565b81548183558181151161150d5760008381526020902061150d918101908301613c8a565b6101406040519081016040908152600080835260208301528101613c55613be6565b905290565b81548183558181151161150d57600f016010900481600f0160109004836000526020600020918201910161150d91905b6116e491905b80821115613bae5760008155600101613c905600a165627a7a723058202236d9db956145c6802066bf47002c84d5de9a6fc6e15a32f73c6f47666ec9890029",
  "source": "pragma solidity 0.4.18;\n\nimport \"./lib/oraclize/oraclizeAPI_0.4.sol\";\nimport \"./lib/arachnid/solidity-stringutils/strings.sol\";\n\ncontract PgaDfs is usingOraclize {\n\n  using strings for *;\n\n  struct SlateGolfer {\n    // not storing name,\n    // since we're trying to be minimal with data storage\n    // on ethereum's bloated ass blockchain.\n\n    // increments in 1\n    // salaries are roughly DK salaries / $500\n    // and can be negative!\n    int8 salary;\n\n    // fantasy points at end of tournament\n    int8 points;\n  }\n\n\n  struct Lineup {\n    bool submittedHash;  // true when saved\n    // keccak hash of lineup before revealing\n    // e.g. keccak256(\"21059:94320:85933:8793\")\n    bytes32 golferIdsHash;\n    // MAX of 8 pga tour ids...\n    // you can play less than 8 guys if you want!\n    // some older players have leading \"0\"s (e.g. Tiger \"08793\")\n    // leading zeroes are dropped, so his I.D. is 8793\n    uint16[8] golferIds;\n  }\n\n  struct Contest {\n    address owner; // creator of contest\n\n    uint entryFee; // TODO(christian): what units? wei?\n    // all money in contest balance, payable to winners\n    mapping (bytes12 => uint) slateIdToPrizePool;\n\n    // yay or nay, is this an active contest\n    // must be not live to delete contest\n    bool live;\n\n    // have we calculated the address balances after contest is over?\n    mapping (bytes12 => bool) slateIdToPayoutsSet;\n\n    // map ETH address --> lineup in contest\n    mapping (bytes12 => address[]) slateIdToEntries;\n\n    mapping (bytes12 => mapping(address => bool)) slateIdToEntered;\n    mapping (bytes12 => mapping(address => int32)) slateIdToAddressScores;\n\n    // slate --> ETH address --> how much they recouped\n    mapping(bytes12 => mapping(address => uint)) recoup;\n  }\n\n\n  event newOraclizeQuery(string description);\n\n  // this is the initializer of the contract\n  // who gets special privaledges:\n  // (1) if oraclize fucks up, you set scores manually\n  // (2) you can spend the extraEther in the contract\n  address public contractAdmin;\n  uint private extraEther;\n  uint private minBal;\n\n  mapping(address => uint) userBalances;\n\n  // status (bool): is this oraclize query complete or not?\n  mapping(bytes32 => string) queryIdToCallbackAction;\n\n  // this is the CONSTRUCTOR!\n  // we must initialize the lubrication amount\n  // with the miniumum balance, which can never be recovered\n  function PgaDfs() public payable {\n    require(msg.value >= minBal); // , \"must initialise contract with at least minBal eth\");\n    // in the constructor (this function), msg.sender is\n    // the owner of the contract\n    contractAdmin = msg.sender;\n    extraEther = msg.value;\n\n    // OAR for ethereum-bridge\n    OAR = OraclizeAddrResolverI(0x15Ce83f7B43082C21deB5bEDd004e2F683B45392);\n    // TODO: tinker with this gas value\n    /* oraclize_setCustomGasPrice(1000000000 wei); */\n\n    // execute a dummy transcaction to make fee estimation\n    // work by burning the free transaction\n    /* oraclize_query(\"URL\", \"json(http://api.fixer.io/latest?symbols=USD,GBP).rates.GBP\"); */\n  }\n\n\n  // N.B. FROM CRYPTO RIC:\n  // if we want to fund money into the \"lubrication account\"\n  // this will allow the contract to function if the price\n  // of ether falls dramatically between querires\n  // and, as a result, because the query fee is charged in USD,\n  // the fee for subsequent queries goes up\n  // this should average out over time,\n  // we charge a small fee to make sure it more likely going up\n  // this fee, over the course of 400 wagers,\n  // should offset the irrecovable minimum balance\n  function deposit() payable external {\n    extraEther += msg.value;\n  }\n\n  // CRYPTO RIC:\n  // if we want to withdraw money from the lubrication account\n  // we can only draw from the extraEther gained,\n  // so as to protect and wall off funds from active wagers\n  // we must leave a minBal of .1 ether to serve as lubrication\n  // this protects people with wagers from us withdrawing\n  // all the lubrication while they have bets in, which\n  // would make them have the potential to fail\n  function withdraw() payable external {\n    require(msg.sender == contractAdmin); //, \"only contract admin can do this\");\n\n    if (extraEther - minBal > 0) {\n      contractAdmin.transfer(extraEther - minBal);\n      extraEther = minBal;\n    }\n  }\n\n  function withdrawBalance() public payable {\n    require(userBalances[msg.sender] > 0); //, \"you have no ether to withdraw\");\n    msg.sender.transfer(userBalances[msg.sender]);\n    userBalances[msg.sender] = 0;\n  }\n\n  // active slate id to key slate/lineup mappings\n  bytes12[] slateIds;\n  mapping (bytes12 => uint) slateIdToLockTimestamp;\n\n  // format: \"{pgaId}:{salary}\"\n  // example: \"34360:1522955700:15 32102:1522963620:-2\" <-- salaries can be negative!\n  string compressedSalariesUrl = \"\"; // e.g. \"https://s3.amazonaws.com/ethdfs/pga/compressedSalaries/2018/471.json\";\n\n  // format: \"{pgaId}:{rd1}-{rd2}-{rd3}-{rd4}\"\n  // example: \"34360:69-66-67-71 32102:70-72-65-67\"\n  string compressedScoresUrl = \"\"; // e.g. \"https://s3.amazonaws.com/ethdfs/pga/compressedScores/2018/471.json\";\n\n  // slate id ==> golfer ids\n  // NOTE: uint16 for golfer ids is really fucking pushing it,\n  // as PGA tour is on ID's around 55k or so.\n  // the max uint8 number is 65,535. lol\n  mapping (bytes12 => uint16[]) slateIdToGolferIds;\n  // slate id ==> pga tour id ==> golfer data (salary, scores, etc.)\n  mapping (bytes12 => mapping(uint16 => SlateGolfer)) slateIdToSlateGolfers;\n  mapping (bytes12 => address[]) slateIdToEnteredAddresses;\n  mapping (bytes12 => mapping (address => Lineup)) slateIdToLineups;\n  mapping (bytes12 => mapping (address => int16)) slateIdToEntryScores;\n\n  // contest data\n  bytes32[] contestIds;\n  mapping(bytes32 => Contest) contests;\n\n  // salary cap is 100\n  // salaries are integers and CAN BE NEGATIVE\n  // think mike weir\n  int salaryCap = 100;\n\n  // rake is 2.0% or 20/1000\n  uint rakeTimesOneThousand = 20;\n\n  // is scoring complete for the current slate\n  mapping (bytes12 => bool) slateIdToCompleteGolferScoring;\n  mapping (bytes12 => bool) slateIdToCompleteLineupScoring;\n\n  function setLineupHash(bytes12 slateId_, bytes32 lineupHash) public {\n    // can't change lineup hash after lock\n    require(block.timestamp <= slateIdToLockTimestamp[slateId_]); //, \"entries have locked\");\n    Lineup storage theLineup = slateIdToLineups[slateId_][msg.sender];\n    if (!theLineup.submittedHash) {\n        // don't push duped addresses if they already have a lineup\n        slateIdToEnteredAddresses[slateId_].push(msg.sender);\n    }\n    theLineup.golferIdsHash = lineupHash;\n    theLineup.submittedHash = true;\n  }\n\n  // returns: Lineup.golferIdsHash\n  function getLineupHash(bytes12 slateId_, address entrantAddress) public view returns (bytes32) {\n    return slateIdToLineups[slateId_][entrantAddress].golferIdsHash;\n  }\n\n  function getEnteredAddressesForSlate(bytes12 slateId_) public view returns (address[]) {\n      return slateIdToEnteredAddresses[slateId_];\n  }\n\n  function getLineupForSlateAddress(bytes12 slateId_, address address_) public view returns (bytes32, uint16[8], int16) {\n      Lineup memory theLineup = slateIdToLineups[slateId_][address_];\n      return (theLineup.golferIdsHash, theLineup.golferIds, slateIdToEntryScores[slateId_][address_]);\n  }\n\n  function getSlateIds() public view returns (bytes12[]) {\n    return slateIds;\n  }\n\n  function getSalary(bytes12 slateId_, uint16 pgaId_) public view returns (int8) {\n    return slateIdToSlateGolfers[slateId_][pgaId_].salary;\n  }\n\n  function getPoints(bytes12 slateId_, uint16 pgaId_) public view returns (int8) {\n    return slateIdToSlateGolfers[slateId_][pgaId_].points;\n  }\n\n  // lineups must:\n  // have 8 or less players\n  // total salary must be <= salary cap\n  // can only play the same guy once\n  function revealLineup(bytes12 slateId_, string golferIdsColonDelimited, string revealKey) public returns (int16) {\n    require(slateIdToLineups[slateId_][msg.sender].golferIdsHash == keccak256(strConcat(golferIdsColonDelimited, \"|\", revealKey)));\n\n    var golferIds = new uint16[](8);\n\n    var golferIdsSlice = golferIdsColonDelimited.toSlice();\n    var delimiter = \":\".toSlice();\n    uint256 golferCount = golferIdsSlice.count(delimiter) + 1;\n\n    require(golferCount <= 8); //, \"must have 8 or less players\");\n\n    // and salary must be under cap\n    int16 totalSalary = 0;\n\n    for (uint8 ii = 0; ii < golferCount; ii++) {\n      // string  --> left padded bytes32\n      // \"29725\" --> \"0x3239373235000000000000000000000000000000000000000000000000000000\"\n      // replicate this with web3.fromAscii('29725')\n      uint16 golferId = uint16(parseInt(golferIdsSlice.split(delimiter).toString()));\n\n      for (uint8 jj = 0; jj < ii; jj++) {\n        require(golferId != golferIds[jj]); //, \"cannot duplicate golfer in lineup\");\n      }\n      golferIds[ii] = golferId;\n      totalSalary += slateIdToSlateGolfers[slateId_][golferId].salary;\n    }\n\n    require(totalSalary <= salaryCap); //, \"must be under the salary cap\");\n\n    for (ii = 0; ii < golferIds.length; ii++) {\n      slateIdToLineups[slateId_][msg.sender].golferIds[ii] = golferIds[ii];\n    }\n  }\n\n  function calculateRake(uint wei_) public view returns (uint) {\n    return (wei_ * rakeTimesOneThousand) / 1000;\n  }\n\n  function createContest(bytes12 slateId_, bytes32 contestId) public payable {\n    // contest id cannot be taken already\n    require(!contests[contestId].live); //, \"already exists live contest with that ID\");\n    // contest owner must first have lineup hash on chain\n    require(slateIdToLineups[slateId_][msg.sender].submittedHash); //, \"must submit hash before creating contest\"\n\n    contestIds.push(contestId);\n    contests[contestId] = Contest({\n      owner : msg.sender,\n      // entry fee is AUTOMATICALLY calculated by how much the owner deposits\n      entryFee : msg.value,\n      live : true\n    });\n    payEntryFeeToContest(slateId_, contestId, msg.sender, msg.value);\n  }\n\n  function enterContest(bytes12 slateId_, bytes32 contestId_) public payable {\n    // to enter contest, user must have lineup hash on chain\n    Lineup memory entrantLineup = slateIdToLineups[slateId_][msg.sender];\n    require(entrantLineup.submittedHash); //, \"must submit lineup hash before joining contest\"\n    payEntryFeeToContest(slateId_, contestId_, msg.sender, msg.value);\n  }\n\n  function payEntryFeeToContest(bytes12 slateId_, bytes32 contestId_, address msgSender, uint ethEntered) public payable {\n\n    Contest storage activeContest = contests[contestId_];\n    // if they not are already in the contest, pay rake and enter\n    require(!activeContest.slateIdToEntered[slateId_][msgSender]); //, \"already entered in this contest\");\n\n    uint rakeToCollect = calculateRake(ethEntered);\n\n    require(ethEntered >= activeContest.entryFee); //, \"must send >= eth as entry fee\");\n\n    activeContest.slateIdToPrizePool[slateId_] += (activeContest.entryFee - rakeToCollect);\n    extraEther += rakeToCollect;\n    // if someone sends us extra money,\n    // it goes their user balance\n    userBalances[msgSender] += (ethEntered - activeContest.entryFee);\n    activeContest.slateIdToEntries[slateId_].push(msgSender);\n    activeContest.slateIdToEntered[slateId_][msgSender] = true;\n  }\n\n  function setSalaries(bytes12 slateId_, string compressedSalaries) public {\n      require(msg.sender == contractAdmin); //, \"only contractAdmin can set salaries\");\n      slateIdToCompleteGolferScoring[slateId_] = false;\n\n      var compressedSalariesSlice = compressedSalaries.toSlice();\n      var playerDelimiter = \" \".toSlice();\n      var salaryDelimiter = \":\".toSlice();\n      uint playerCount = compressedSalariesSlice.count(playerDelimiter) + 1;\n\n      for (uint8 ii = 0; ii < playerCount; ii++) {\n          var playerColonSalary = compressedSalariesSlice.split(playerDelimiter);\n\n          uint16 pgaPlayerId = uint16(parseInt(playerColonSalary.split(salaryDelimiter).toString()));\n\n          slateIdToGolferIds[slateId_].push(pgaPlayerId);\n          slateIdToSlateGolfers[slateId_][pgaPlayerId].salary = int8(parseInt(playerColonSalary.toString()));\n      }\n  }\n\n  function setScores(bytes12 slateId_, string compressedScores) public {\n    // TODO: make internal / only contractAdmin\n    // TODO: really make sure this works\n    // TODO: difference between var and normal types?\n    require(!slateIdToCompleteGolferScoring[slateId_]); //, \"already completed golfer scoring for this slate\");\n\n    var compressedScoresSlice = compressedScores.toSlice();\n    var playerDelimiter = \" \".toSlice();\n    var playerScoreSlices = new strings.slice[](compressedScoresSlice.count(playerDelimiter) + 1);\n\n    for (uint16 i = 0; i < playerScoreSlices.length; i++) {\n      playerScoreSlices[i] = compressedScoresSlice.split(playerDelimiter);\n      uint16 pgaPlayerId = uint16(parseInt(playerScoreSlices[i].split(\":\".toSlice()).toString()));\n      slateIdToSlateGolfers[slateId_][pgaPlayerId].points = int8(parseInt(playerScoreSlices[i].toString()));\n    }\n    slateIdToCompleteGolferScoring[slateId_] = true;\n  }\n\n  function scoreEnteredAddresses(bytes12 slateId_) public {\n    require(slateIdToCompleteGolferScoring[slateId_]); //, \"already completed golfer scoring for this slate\");\n    for (uint8 ii = 0; ii < slateIdToEnteredAddresses[slateId_].length; ii++) {\n      address entry = slateIdToEnteredAddresses[slateId_][ii];\n      uint16[8] memory entryPgaIds = slateIdToLineups[slateId_][entry].golferIds;\n      for (uint8 g = 0; g < entryPgaIds.length; g++) {\n        slateIdToEntryScores[slateId_][entry] += slateIdToSlateGolfers[slateId_][entryPgaIds[g]].points;\n      }\n    }\n  }\n\n  function averagePoints(bytes12 slateId_, bytes32 contestId_) public returns (int) {\n    int totalPoints = 0;\n    // calculate the average score in the contest\n    uint16 totalEntries = uint16(contests[contestId_].slateIdToEntries[slateId_].length);\n    for (uint8 ii = 0; ii < totalEntries; ii++) {\n      totalPoints += slateIdToEntryScores[slateId_][contests[contestId_].slateIdToEntries[slateId_][ii]];\n    }\n    return totalPoints / totalEntries;\n  }\n\n  function sumSquaredWinners(bytes12 slateId_, bytes32 contestId_, int averagePoints_) public returns (uint) {\n\n    uint summedSquaredWinningScores = 0;\n\n    uint16 totalEntries = uint16(contests[contestId_].slateIdToEntries[slateId_].length);\n    for (uint8 ii = 0; ii < totalEntries; ii++) {\n      int16 score = slateIdToEntryScores[slateId_][contests[contestId_].slateIdToEntries[slateId_][ii]];\n      if (score >= averagePoints_ && score >= 0) {\n        uint squaredScore = uint(score) * uint(score);\n        summedSquaredWinningScores += squaredScore;\n      }\n    }\n    return summedSquaredWinningScores;\n  }\n\n  function setSingleContestPayouts(bytes12 slateId_, bytes32 contestId_) public {\n    // everyone who scores > max(0, the contest average) gets paid\n    // you are paid proportional to your squared score\n    require(slateIdToCompleteGolferScoring[slateId_]); //, \"must complete golfer & lineup scoring before determining contest payouts\");\n\n    Contest storage contest = contests[contestId_];\n    require(contest.live); //, \"contest is not live\");\n    require(!contest.slateIdToPayoutsSet[slateId_]); //,\"contest payouts have already been set\");\n\n    uint remainingContestFunds = contest.slateIdToPrizePool[slateId_];\n\n    // of the top half (except any of those that scored < 0),\n    // sum up the squared scores\n    uint16 totalEntries = uint16(contests[contestId_].slateIdToEntries[slateId_].length);\n    int averagePointsRoundedDown = averagePoints(slateId_, contestId_);\n    uint summedSquaredWinningScores = sumSquaredWinners(slateId_, contestId_, averagePointsRoundedDown);\n\n    // then pay out people proportional to squared points\n    for (uint8 ii = 0; ii < totalEntries; ii++) {\n      address entry = contest.slateIdToEntries[slateId_][ii];\n      int16 score = slateIdToEntryScores[slateId_][entry];\n      if (score >= averagePointsRoundedDown && score >= 0) {\n        // TODO: make sure there's no rounding error B.S. going on\n        // that makes us massively over or under pay people\n        uint toPayout = (contest.slateIdToPrizePool[slateId_] * uint(score) * uint(score)) / summedSquaredWinningScores;\n        contest.recoup[slateId_][entry] = toPayout;\n        userBalances[entry] += toPayout;\n        remainingContestFunds -= toPayout;\n      }\n    }\n    // make sure we paid out the entire contest correctly\n    require(100 * remainingContestFunds < contest.slateIdToPrizePool[slateId_]); //, \"due to rounding errors we paid out the contest incorrectly\");\n    extraEther += remainingContestFunds;\n    contest.slateIdToPayoutsSet[slateId_] = true;\n    contest.live = false;\n  }\n\n  function getUserBalance(address address_) public view returns (uint) {\n    return userBalances[address_];\n  }\n\n  function _setCompressedScoresUrl(string _compressedScoresUrl) internal {\n    compressedScoresUrl = _compressedScoresUrl;\n  }\n\n  function _setCompressedSalariesUrl(string _compressedSalariesUrl) internal {\n    compressedSalariesUrl = _compressedSalariesUrl;\n  }\n\n  function getSalariesOnChain() public payable {\n    innerOraclizeQuery(compressedSalariesUrl, \"Salaries\");\n  }\n\n  function getScoresOnChain() public payable {\n    innerOraclizeQuery(compressedScoresUrl, \"Scores\");\n  }\n\n  function setScoresUrlAndGetResultsOnChain(string compressedScoresUrl_) public {\n      require(msg.sender == contractAdmin); //, \"only contract admin can perform this action\");\n      _setCompressedScoresUrl(compressedScoresUrl_);\n      getScoresOnChain();\n  }\n\n  function setSalariesUrlAndGetSalariesOnChain(string compressedSalariesUrl_) public {\n      require(msg.sender == contractAdmin); //, \"only contract admin can perform this action\");\n      _setCompressedSalariesUrl(compressedSalariesUrl_);\n      getSalariesOnChain();\n  }\n\n  function setNewSlateInfo(\n    bytes12 _newSlateId,\n    string _compressedSalariesUrl,\n    string _compressedScoresUrl,\n    uint lockTimestamp\n  ) public {\n    require(msg.sender == contractAdmin); //, \"only contract admin can perform this action\");\n    require(slateIdToLockTimestamp[_newSlateId] == 0); // \"already created a slate with this id\"\n    slateIds.push(_newSlateId);\n    slateIdToLockTimestamp[_newSlateId] = lockTimestamp;\n    _setCompressedScoresUrl(_compressedScoresUrl);\n    _setCompressedSalariesUrl(_compressedSalariesUrl);\n  }\n\n  // ========================= ORACLIZE functions =========================\n\n\n  function innerOraclizeQuery(string queryUrl, string callbackAction) public payable {\n    // TODO: make these views\n    uint cost = 2400000000000000 + (oraclize_getPrice(\"URL\") * 3);\n    uint fee = 100000000000000;\n\n    if (msg.value < cost + fee) {\n      newOraclizeQuery(\"Oraclize query failed. Send more ETH (.0025ETH in gas + $.03 per query\");\n      msg.sender.transfer(msg.value);\n    } else {\n      extraEther += msg.value - cost;\n      newOraclizeQuery(\"Oraclize queries were sent, standing by for the answer.\");\n      bytes32 queryId = oraclize_query(\n        \"URL\",\n        strConcat(\"json(\", queryUrl, \").compressedScores\"),\n        600000\n      );\n      queryIdToCallbackAction[queryId] = callbackAction;\n    }\n  }\n\n  // switch function for callbacks\n  function __callback(bytes32 myid, string result) public {\n    require(msg.sender == oraclize_cbAddress()); //, \"message was not from oraclize address\");\n    // can't compare string storage pointers and string literals,\n    // so instead let's compare their keccak256 hashes!\n    bytes32 actionHash = keccak256(queryIdToCallbackAction[myid]);\n    bytes12 slateId_ = \"\";\n    if (actionHash == keccak256(\"Salaries\")) {\n      setSalaries(slateId_, result);\n    }\n    if (actionHash == keccak256(\"Scores\")) {\n      setScores(slateId_, result);\n    }\n  }\n\n  // CRYPTO RIC:\n  // should anyone wish to be a good blockchain citizen\n  // and delete a wager that is no longer live\n  function deleteContest(bytes32 contestId) external {\n    require(!contests[contestId].live); //, \"cannot delete a live contest\");\n    require(msg.sender == contests[contestId].owner); //, \"only owner can delete their contest\");\n    delete contests[contestId];\n  }\n\n  function getLiveContestIds() public view returns (bytes32[]) {\n    return contestIds;\n  }\n\n  function getSlateContest(bytes12 slateId_, bytes32 contestId_) public view returns (\n      bytes32,\n      uint,\n      uint,\n      address,\n      uint\n    ) {\n      Contest storage contest = contests[contestId_];\n      return (\n          contestId_,\n          contest.entryFee,\n          contest.slateIdToEntries[slateId_].length,\n          contest.owner,\n          contest.slateIdToPrizePool[slateId_]\n        );\n    }\n\n  function getContestEntries(bytes12 slateId_, bytes32 contestId_) public view returns (address[]) {\n    return contests[contestId_].slateIdToEntries[slateId_];\n  }\n\n  function getContestRecoup(bytes12 slateId_, bytes32 contestId_, address address_) public view returns (uint) {\n    return contests[contestId_].recoup[slateId_][address_];\n  }\n\n  function getContestPrizePool(bytes12 slateId_, bytes32 contestId_) public view returns (uint) {\n    return contests[contestId_].slateIdToPrizePool[slateId_];\n  }\n\n  function getEntryScore(bytes12 slateId_, address entry_) public view returns (int16) {\n    return slateIdToEntryScores[slateId_][entry_];\n  }\n\n  function getGolferIdsOnSlate(bytes12 slateId_) public view returns (uint16[]) {\n    return slateIdToGolferIds[slateId_];\n  }\n\n  function testFunction() public view returns (string) {\n    return 'test';\n  }\n}\n",
  "sourcePath": "/Users/christiandrappi/workspace/ddfs/contracts/PgaDfs.sol",
  "compiler": {
    "name": "solc",
    "version": "0.4.18+commit.9cf6e910.Emscripten.clang"
  },
  "schemaVersion": "2.0.1",
  "updatedAt": "2018-10-08T20:03:11.665Z"
}