{
  "contractName": "PgaDfs",
  "abi": [
    {
      "constant": true,
      "inputs": [],
      "name": "contractAdmin",
      "outputs": [
        {
          "name": "",
          "type": "address"
        }
      ],
      "payable": false,
      "stateMutability": "view",
      "type": "function"
    },
    {
      "inputs": [],
      "payable": true,
      "stateMutability": "payable",
      "type": "constructor"
    },
    {
      "anonymous": false,
      "inputs": [
        {
          "indexed": false,
          "name": "description",
          "type": "string"
        }
      ],
      "name": "newOraclizeQuery",
      "type": "event"
    },
    {
      "constant": false,
      "inputs": [],
      "name": "deposit",
      "outputs": [],
      "payable": true,
      "stateMutability": "payable",
      "type": "function"
    },
    {
      "constant": false,
      "inputs": [],
      "name": "withdraw",
      "outputs": [],
      "payable": true,
      "stateMutability": "payable",
      "type": "function"
    },
    {
      "constant": false,
      "inputs": [],
      "name": "withdrawBalance",
      "outputs": [],
      "payable": true,
      "stateMutability": "payable",
      "type": "function"
    },
    {
      "constant": false,
      "inputs": [
        {
          "name": "lineupHash",
          "type": "bytes32"
        }
      ],
      "name": "setLineupHash",
      "outputs": [],
      "payable": false,
      "stateMutability": "nonpayable",
      "type": "function"
    },
    {
      "constant": true,
      "inputs": [
        {
          "name": "entrantAddress",
          "type": "address"
        }
      ],
      "name": "getLineupHash",
      "outputs": [
        {
          "name": "",
          "type": "bytes32"
        }
      ],
      "payable": false,
      "stateMutability": "view",
      "type": "function"
    },
    {
      "constant": true,
      "inputs": [],
      "name": "getEnteredAddressesForCurrentSlate",
      "outputs": [
        {
          "name": "",
          "type": "address[]"
        }
      ],
      "payable": false,
      "stateMutability": "view",
      "type": "function"
    },
    {
      "constant": true,
      "inputs": [
        {
          "name": "address_",
          "type": "address"
        }
      ],
      "name": "getCurrentSlateLineupForAddress",
      "outputs": [
        {
          "name": "",
          "type": "bytes32"
        },
        {
          "name": "",
          "type": "uint16[8]"
        },
        {
          "name": "",
          "type": "int16"
        }
      ],
      "payable": false,
      "stateMutability": "view",
      "type": "function"
    },
    {
      "constant": true,
      "inputs": [],
      "name": "getSlateId",
      "outputs": [
        {
          "name": "",
          "type": "bytes12"
        }
      ],
      "payable": false,
      "stateMutability": "view",
      "type": "function"
    },
    {
      "constant": true,
      "inputs": [
        {
          "name": "pgaId",
          "type": "uint16"
        }
      ],
      "name": "getSalary",
      "outputs": [
        {
          "name": "",
          "type": "int8"
        }
      ],
      "payable": false,
      "stateMutability": "view",
      "type": "function"
    },
    {
      "constant": true,
      "inputs": [
        {
          "name": "pgaId",
          "type": "uint16"
        }
      ],
      "name": "getPoints",
      "outputs": [
        {
          "name": "",
          "type": "int8"
        }
      ],
      "payable": false,
      "stateMutability": "view",
      "type": "function"
    },
    {
      "constant": false,
      "inputs": [
        {
          "name": "golferIdsColonDelimited",
          "type": "string"
        },
        {
          "name": "revealKey",
          "type": "string"
        }
      ],
      "name": "revealLineup",
      "outputs": [
        {
          "name": "",
          "type": "int16"
        }
      ],
      "payable": false,
      "stateMutability": "nonpayable",
      "type": "function"
    },
    {
      "constant": true,
      "inputs": [
        {
          "name": "wei_",
          "type": "uint256"
        }
      ],
      "name": "calculateRake",
      "outputs": [
        {
          "name": "",
          "type": "uint256"
        }
      ],
      "payable": false,
      "stateMutability": "view",
      "type": "function"
    },
    {
      "constant": false,
      "inputs": [
        {
          "name": "contestId",
          "type": "bytes32"
        }
      ],
      "name": "createContest",
      "outputs": [],
      "payable": true,
      "stateMutability": "payable",
      "type": "function"
    },
    {
      "constant": false,
      "inputs": [
        {
          "name": "contestId",
          "type": "bytes32"
        }
      ],
      "name": "enterContest",
      "outputs": [],
      "payable": true,
      "stateMutability": "payable",
      "type": "function"
    },
    {
      "constant": false,
      "inputs": [
        {
          "name": "contestId",
          "type": "bytes32"
        },
        {
          "name": "msgSender",
          "type": "address"
        },
        {
          "name": "ethEntered",
          "type": "uint256"
        }
      ],
      "name": "payEntryFeeToContest",
      "outputs": [],
      "payable": true,
      "stateMutability": "payable",
      "type": "function"
    },
    {
      "constant": false,
      "inputs": [
        {
          "name": "compressedSalaries",
          "type": "string"
        }
      ],
      "name": "setSalaries",
      "outputs": [],
      "payable": false,
      "stateMutability": "nonpayable",
      "type": "function"
    },
    {
      "constant": false,
      "inputs": [
        {
          "name": "compressedScores",
          "type": "string"
        }
      ],
      "name": "setScores",
      "outputs": [],
      "payable": false,
      "stateMutability": "nonpayable",
      "type": "function"
    },
    {
      "constant": false,
      "inputs": [
        {
          "name": "slateId_",
          "type": "bytes12"
        }
      ],
      "name": "scoreEnteredAddresses",
      "outputs": [],
      "payable": false,
      "stateMutability": "nonpayable",
      "type": "function"
    },
    {
      "constant": false,
      "inputs": [
        {
          "name": "contestId",
          "type": "bytes32"
        }
      ],
      "name": "setSingleContestPayouts",
      "outputs": [],
      "payable": false,
      "stateMutability": "nonpayable",
      "type": "function"
    },
    {
      "constant": true,
      "inputs": [
        {
          "name": "address_",
          "type": "address"
        }
      ],
      "name": "getUserBalance",
      "outputs": [
        {
          "name": "",
          "type": "uint256"
        }
      ],
      "payable": false,
      "stateMutability": "view",
      "type": "function"
    },
    {
      "constant": false,
      "inputs": [],
      "name": "getSalariesOnChain",
      "outputs": [],
      "payable": true,
      "stateMutability": "payable",
      "type": "function"
    },
    {
      "constant": false,
      "inputs": [],
      "name": "getScoresOnChain",
      "outputs": [],
      "payable": true,
      "stateMutability": "payable",
      "type": "function"
    },
    {
      "constant": false,
      "inputs": [
        {
          "name": "compressedScoresUrl_",
          "type": "string"
        }
      ],
      "name": "setScoresUrlAndGetResultsOnChain",
      "outputs": [],
      "payable": false,
      "stateMutability": "nonpayable",
      "type": "function"
    },
    {
      "constant": false,
      "inputs": [
        {
          "name": "compressedSalariesUrl_",
          "type": "string"
        }
      ],
      "name": "setSalariesUrlAndGetSalariesOnChain",
      "outputs": [],
      "payable": false,
      "stateMutability": "nonpayable",
      "type": "function"
    },
    {
      "constant": false,
      "inputs": [
        {
          "name": "_newSlateId",
          "type": "bytes12"
        },
        {
          "name": "_compressedSalariesUrl",
          "type": "string"
        },
        {
          "name": "_compressedScoresUrl",
          "type": "string"
        },
        {
          "name": "lockTimestamp",
          "type": "uint256"
        }
      ],
      "name": "setNewSlateInfo",
      "outputs": [],
      "payable": false,
      "stateMutability": "nonpayable",
      "type": "function"
    },
    {
      "constant": false,
      "inputs": [
        {
          "name": "queryUrl",
          "type": "string"
        },
        {
          "name": "callbackAction",
          "type": "string"
        }
      ],
      "name": "innerOraclizeQuery",
      "outputs": [],
      "payable": true,
      "stateMutability": "payable",
      "type": "function"
    },
    {
      "constant": false,
      "inputs": [
        {
          "name": "myid",
          "type": "bytes32"
        },
        {
          "name": "result",
          "type": "string"
        }
      ],
      "name": "__callback",
      "outputs": [],
      "payable": false,
      "stateMutability": "nonpayable",
      "type": "function"
    },
    {
      "constant": false,
      "inputs": [
        {
          "name": "myid",
          "type": "bytes32"
        },
        {
          "name": "result",
          "type": "string"
        },
        {
          "name": "proof",
          "type": "bytes"
        }
      ],
      "name": "__callback",
      "outputs": [],
      "payable": false,
      "stateMutability": "nonpayable",
      "type": "function"
    },
    {
      "constant": false,
      "inputs": [
        {
          "name": "contestId",
          "type": "bytes32"
        }
      ],
      "name": "deleteContest",
      "outputs": [],
      "payable": false,
      "stateMutability": "nonpayable",
      "type": "function"
    },
    {
      "constant": true,
      "inputs": [],
      "name": "getLiveContestIds",
      "outputs": [
        {
          "name": "",
          "type": "bytes32[]"
        }
      ],
      "payable": false,
      "stateMutability": "view",
      "type": "function"
    },
    {
      "constant": true,
      "inputs": [
        {
          "name": "contestId",
          "type": "bytes32"
        }
      ],
      "name": "getContestById",
      "outputs": [
        {
          "name": "",
          "type": "bytes32"
        },
        {
          "name": "",
          "type": "uint256"
        },
        {
          "name": "",
          "type": "uint256"
        },
        {
          "name": "",
          "type": "address"
        },
        {
          "name": "",
          "type": "uint256"
        }
      ],
      "payable": false,
      "stateMutability": "view",
      "type": "function"
    },
    {
      "constant": true,
      "inputs": [
        {
          "name": "slateId_",
          "type": "bytes12"
        },
        {
          "name": "contestId",
          "type": "bytes32"
        }
      ],
      "name": "getContestEntries",
      "outputs": [
        {
          "name": "",
          "type": "address[]"
        }
      ],
      "payable": false,
      "stateMutability": "view",
      "type": "function"
    },
    {
      "constant": true,
      "inputs": [
        {
          "name": "slateId_",
          "type": "bytes12"
        },
        {
          "name": "contestId_",
          "type": "bytes32"
        },
        {
          "name": "address_",
          "type": "address"
        }
      ],
      "name": "getContestRecoup",
      "outputs": [
        {
          "name": "",
          "type": "uint256"
        }
      ],
      "payable": false,
      "stateMutability": "view",
      "type": "function"
    },
    {
      "constant": true,
      "inputs": [
        {
          "name": "slateId_",
          "type": "bytes12"
        },
        {
          "name": "contestId_",
          "type": "bytes32"
        }
      ],
      "name": "getContestPrizePool",
      "outputs": [
        {
          "name": "",
          "type": "uint256"
        }
      ],
      "payable": false,
      "stateMutability": "view",
      "type": "function"
    },
    {
      "constant": true,
      "inputs": [
        {
          "name": "slateId_",
          "type": "bytes12"
        },
        {
          "name": "entryAddress",
          "type": "address"
        }
      ],
      "name": "getEntryScore",
      "outputs": [
        {
          "name": "",
          "type": "int16"
        }
      ],
      "payable": false,
      "stateMutability": "view",
      "type": "function"
    },
    {
      "constant": true,
      "inputs": [
        {
          "name": "slateId_",
          "type": "bytes12"
        }
      ],
      "name": "getGolferIdsOnSlate",
      "outputs": [
        {
          "name": "",
          "type": "uint16[]"
        }
      ],
      "payable": false,
      "stateMutability": "view",
      "type": "function"
    },
    {
      "constant": true,
      "inputs": [],
      "name": "testFunction",
      "outputs": [
        {
          "name": "",
          "type": "string"
        }
      ],
      "payable": false,
      "stateMutability": "view",
      "type": "function"
    }
  ],
  "bytecode": "0x6060604052602060405190810160405260008152600c90805162000028929160200190620000af565b50602060405190810160405260008152600d9080516200004d929160200190620000af565b50606460155560146016556007543410156200006857600080fd5b60058054600160a060020a033316600160a060020a03199182161790915534600655600080549091167315ce83f7b43082c21deb5bedd004e2f683b4539217905562000154565b828054600181600116156101000203166002900490600052602060002090601f016020900481019282601f10620000f257805160ff191683800117855562000122565b8280016001018555821562000122579182015b828111156200012257825182559160200191906001019062000105565b506200013092915062000134565b5090565b6200015191905b808211156200013057600081556001016200013b565b90565b613b4a80620001646000396000f3006060604052600436106101be5763ffffffff60e060020a6000350416630806498081146101c35780630aa5743a146101f65780630b4103ee1461023b5780630fc3356014610253578063137492ff1461025b57806318d019dc146102ac5780631c5c5fa31461031857806326daf164146103ab57806327dc297e146104335780632b58719d1461048957806338bbfa50146104da5780633ccfd60b1461057257806344375f661461057a578063471924db1461061e578063477348921461068457806348c8fb26146106b55780634c55dcde146106d55780634c5e9d18146106eb5780634d346a491461073c5780635fd8c7101461076c5780636aff681c14610774578063779552451461078e5780637ba36128146107bd5780637ea5678c146107d0578063807d9e16146107ff578063897e4edb1461080a578063ab4153ad14610815578063b4a47a0c14610838578063bd3b38ff1461085b578063c1c6070e14610875578063c5012ffc1461088b578063cd84d13e146108dc578063d0e30db0146108fc578063d781b7cf14610904578063e16b4a9b1461091a578063eb1a5724146109a4578063f5a45c60146109c3578063fb9a7aaf14610a13575b600080fd5b34156101ce57600080fd5b6101dd61ffff60043516610a1b565b604051600091820b90910b815260200160405180910390f35b341561020157600080fd5b610222600160a060020a031960043516602435600160a060020a0316610a54565b604051600191820b90910b815260200160405180910390f35b341561024657600080fd5b610251600435610a8b565b005b610251610ea2565b341561026657600080fd5b61025160046024813581810190830135806020601f82018190048102016040519081016040528181529291906020840183838082843750949650610f7b95505050505050565b34156102b757600080fd5b6102cb600160a060020a0360043516610faa565b604051838152602081018361010080838360005b838110156102f75780820151838201526020016102df565b505050509050018260010b60010b8152602001935050505060405180910390f35b341561032357600080fd5b61022260046024813581810190830135806020601f8201819004810201604051908101604052818152929190602084018383808284378201915050505050509190803590602001908201803590602001908080601f0160208091040260200160405190810160405281815292919060208401838380828437509496506110d295505050505050565b61025160046024813581810190830135806020601f8201819004810201604051908101604052818152929190602084018383808284378201915050505050509190803590602001908201803590602001908080601f0160208091040260200160405190810160405281815292919060208401838380828437509496506113ee95505050505050565b341561043e57600080fd5b610251600480359060446024803590810190830135806020601f820181900481020160405190810160405281815292919060208401838380828437509496506116ae95505050505050565b341561049457600080fd5b61025160046024813581810190830135806020601f820181900481020160405190810160405281815292919060208401838380828437509496506117d995505050505050565b34156104e557600080fd5b610251600480359060446024803590810190830135806020601f8201819004810201604051908101604052818152929190602084018383808284378201915050505050509190803590602001908201803590602001908080601f0160208091040260200160405190810160405281815292919060208401838380828437509496506117d495505050505050565b6102516119cd565b341561058557600080fd5b61025160048035600160a060020a0319169060446024803590810190830135806020601f8201819004810201604051908101604052818152929190602084018383808284378201915050505050509190803590602001908201803590602001908080601f0160208091040260200160405190810160405281815292919060208401838380828437509496505093359350611a3c92505050565b341561062957600080fd5b610631611aae565b60405160208082528190810183818151815260200191508051906020019060200280838360005b83811015610670578082015183820152602001610658565b505050509050019250505060405180910390f35b341561068f57600080fd5b6106a3600160a060020a0360043516611b0e565b60405190815260200160405180910390f35b34156106c057600080fd5b610251600160a060020a031960043516611b29565b34156106e057600080fd5b610251600435611d00565b34156106f657600080fd5b61025160046024813581810190830135806020601f82018190048102016040519081016040528181529291906020840183838082843750949650611d7795505050505050565b341561074757600080fd5b61074f611fa5565b604051600160a060020a0319909116815260200160405180910390f35b610251611fb1565b610251600435600160a060020a036024351660443561202f565b341561079957600080fd5b6107a1612184565b604051600160a060020a03909116815260200160405180910390f35b34156107c857600080fd5b610631612193565b34156107db57600080fd5b6106a3600160a060020a031960043516602435604435600160a060020a031661221d565b61025160043561225b565b610251600435612342565b341561082057600080fd5b610631600160a060020a031960043516602435612447565b341561084357600080fd5b6106a3600160a060020a0319600435166024356124d7565b341561086657600080fd5b6101dd61ffff60043516612503565b341561088057600080fd5b610251600435612541565b341561089657600080fd5b61025160046024813581810190830135806020601f8201819004810201604051908101604052818152929190602084018383808284375094965061261d95505050505050565b34156108e757600080fd5b610631600160a060020a031960043516612649565b6102516126f6565b341561090f57600080fd5b6106a3600435612700565b341561092557600080fd5b61092d61270c565b60405160208082528190810183818151815260200191508051906020019080838360005b83811015610969578082015183820152602001610951565b50505050905090810190601f1680156109965780820380516001836020036101000a031916815260200191505b509250505060405180910390f35b34156109af57600080fd5b6106a3600160a060020a036004351661274d565b34156109ce57600080fd5b6109d960043561278a565b6040519485526020850193909352604080850192909252600160a060020a03166060840152608083019190915260a0909101905180910390f35b6102516127e1565b600a5460a060020a02600160a060020a0319166000908152600f6020908152604080832061ffff85168452909152812054900b5b919050565b600160a060020a031982166000908152601260209081526040808320600160a060020a038516845290915290205460010b92915050565b600a5460a060020a02600160a060020a031916600090815260176020526040812054819081908190819081908190819081908190819060ff161515610acf57600080fd5b60008c81526014602052604090206003810154909b5060ff161515610af357600080fd5b600a5460a060020a02600160a060020a031916600090815260048c01602052604090205460ff1615610b2457600080fd5b600a5460a060020a02600160a060020a031916600090815260058c01602090815260408083205460028f01909252822054909b50995097508796505b8961ffff168760ff161015610bfb57600a5460a060020a02600160a060020a031916600090815260058c0160205260409020805460ff8916908110610ba157fe5b600091825260208083209190910154600a5460a060020a02600160a060020a0319168352601282526040808420600160a060020a0390921680855291909252912054600190810b810b999099019897909701969550610b60565b8961ffff1688811515610c0a57fe5b05945060009350600096505b8961ffff168760ff161015610cd857600a5460a060020a02600160a060020a031916600090815260058c0160205260409020805460ff8916908110610c5757fe5b600091825260208083209190910154600a5460a060020a02600160a060020a0319168352601282526040808420600160a060020a0390921680855291909252912054909650600190810b935083900b859012801590610cba575060008360010b12155b15610ccd57600183900b80029384019391505b600190960195610c16565b600096505b8961ffff168760ff161015610e1b57600a5460a060020a02600160a060020a031916600090815260058c0160205260409020805460ff8916908110610d1e57fe5b600091825260208083209190910154600a5460a060020a02600160a060020a0319168352601282526040808420600160a060020a0390921680855291909252912054909650600190810b935083900b859012801590610d81575060008360010b12155b15610e1057600a5460a060020a02600160a060020a031916600090815260028c016020526040902054600184900b8002925084908302811515610dc057fe5b600a5460a060020a02600160a060020a031916600090815260088e810160209081526040808420600160a060020a038d168552825280842095909404948590555220805482019055988990039890505b600190960195610cdd565b600a5460a060020a02600160a060020a031916600090815260028c01602052604090205460648a0210610e4d57600080fd5b505060068054979097019096555050600a5460a060020a02600160a060020a03191660009081526004870160205260409020805460ff1990811660011790915560039096018054909616909555505050505050565b610f79600d8054600181600116156101000203166002900480601f016020809104026020016040519081016040528092919081815260200182805460018160011615610100020316600290048015610f3b5780601f10610f1057610100808354040283529160200191610f3b565b820191906000526020600020905b815481529060010190602001808311610f1e57829003601f168201915b505050505060408051908101604052600681527f53636f726573000000000000000000000000000000000000000000000000000060208201526113ee565b565b60055433600160a060020a03908116911614610f9657600080fd5b610f9f816128b8565b610fa76127e1565b50565b6000610fb46139b9565b6000610fbe6139e2565b600a5460a060020a02600160a060020a0319166000908152601160209081526040808320600160a060020a03891684529091529081902090606090519081016040908152825460ff161515825260018301546020830152909190808301906002830190600890610100905190810160405291906101008301826000855b82829054906101000a900461ffff1661ffff168152602001906002019060208260010104928301926001038202915080841161103b579050505050505081525050905080602001518160400151600a54600160a060020a031960a060020a909102166000908152601260209081526040808320600160a060020a038b168452909152902054919550935060010b9150509193909250565b60006110dc613a09565b6110e4613a1b565b6110ec613a1b565b60008060008060006111328b60408051908101604052600181527f7c0000000000000000000000000000000000000000000000000000000000000060208201528c6128cb565b6040518082805190602001908083835b602083106111615780518252601f199092019160209182019101611142565b6001836020036101000a0380198251168184511617909252505050919091019250604091505051908190039020600a5460a060020a02600160a060020a0319166000908152601160209081526040808320600160a060020a0333168452909152902060010154146111d157600080fd5b60086040518059106111e05750595b908082528060200260200182016040525097506111fc8b612906565b9650611221604080519081016040526001815260f960020a601d026020820152612906565b9550611233878763ffffffff61292e16565b6001019450600885111561124657600080fd5b60009350600092505b848360ff16101561132b5761127a611275611270898963ffffffff61298c16565b61299f565b6129ed565b9150600090505b8260ff168160ff1610156112c357878160ff168151811061129e57fe5b9060200190602002015161ffff838116911614156112bb57600080fd5b600101611281565b81888460ff16815181106112d357fe5b61ffff928316602091820292909201810191909152600a5460a060020a02600160a060020a0319166000908152600f8252604080822093861682529290915290812054810b900b93909301926001929092019161124f565b601554600185900b131561133e57600080fd5b600092505b87518360ff1610156113e057878360ff168151811061135e57fe5b90602001906020020151600a5460a060020a02600160a060020a0319166000908152601160209081526040808320600160a060020a0333168452909152902060020160ff8516600881106113ae57fe5b601091828204019190066002026101000a81548161ffff021916908361ffff1602179055508280600101935050611343565b505050505050505092915050565b600080600061142f60408051908101604052600381527f55524c00000000000000000000000000000000000000000000000000000000006020820152612a00565b600302660886c98b760000019250655af3107a40009150818301341015611538577f46cb989ef9cef13e930e3b7f286225a086e716a90d63e0b7da85d310a9db0c9a60405160208082526046908201527f4f7261636c697a65207175657279206661696c65642e2053656e64206d6f72656040808301919091527f2045544820282e3030323545544820696e20676173202b20242e30332070657260608301527f2071756572790000000000000000000000000000000000000000000000000000608083015260a0909101905180910390a1600160a060020a0333163480156108fc0290604051600060405180830381858888f19350505050151561153357600080fd5b6116a7565b60068054348590030190557f46cb989ef9cef13e930e3b7f286225a086e716a90d63e0b7da85d310a9db0c9a60405160208082526037908201527f4f7261636c697a65207175657269657320776572652073656e742c207374616e6040808301919091527f64696e6720627920666f722074686520616e737765722e00000000000000000060608301526080909101905180910390a16116836040805190810160405280600381526020017f55524c000000000000000000000000000000000000000000000000000000000081525061167a6040805190810160405280600581526020017f6a736f6e280000000000000000000000000000000000000000000000000000008152508860408051908101604052601281527f292e636f6d7072657373656453636f726573000000000000000000000000000060208201526128cb565b620927c0612c0e565b60008181526009602052604090209091508480516116a5929160200190613a32565b505b5050505050565b60006116b8612f94565b600160a060020a031633600160a060020a03161415156116d757600080fd5b60008381526009602052604090819020905180828054600181600116156101000203166002900480156117415780601f1061171f576101008083540402835291820191611741565b820191906000526020600020905b81548152906001019060200180831161172d575b5050915050604051809103902090506040517f53616c6172696573000000000000000000000000000000000000000000000000815260080160405190819003902081141561179257611792826117d9565b6040517f53636f726573000000000000000000000000000000000000000000000000000081526006016040519081900390208114156117d4576117d482611d77565b505050565b6117e1613a1b565b6117e9613a1b565b6117f1613a1b565b6000806117fc613a1b565b60055460009033600160a060020a0390811691161461181a57600080fd5b600a5460a060020a02600160a060020a0319166000908152601760205260409020805460ff1916905561184c88612906565b965061188a60408051908101604052600181527f20000000000000000000000000000000000000000000000000000000000000006020820152612906565b95506118af604080519081016040526001815260f960020a601d026020820152612906565b94506118c1878763ffffffff61292e16565b6001019350600092505b838360ff1610156119c3576118e6878763ffffffff61298c16565b91506118fe611275611270848863ffffffff61298c16565b600a5460a060020a02600160a060020a0319166000908152600e60205260409020805491925090600181016119338382613ab0565b916000526020600020906010918282040191900660020283909190916101000a81548161ffff021916908361ffff160217905550506119746112758361299f565b600a5460a060020a02600160a060020a0319166000908152600f6020908152604080832061ffff861684529091528120805460ff191660ff9390920b92909216179055600192909201916118cb565b5050505050505050565b60055433600160a060020a039081169116146119e857600080fd5b6000600754600654031115610f7957600554600754600654600160a060020a03909216910380156108fc0290604051600060405180830381858888f193505050501515611a3457600080fd5b600754600655565b60055433600160a060020a03908116911614611a5757600080fd5b600a80546bffffffffffffffffffffffff191660a060020a808704919091179182905502600160a060020a0319166000908152600b60205260409020819055611a9f82613134565b611aa8836128b8565b50505050565b611ab6613a09565b6013805480602002602001604051908101604052809291908181526020018280548015611b0357602002820191906000526020600020905b81548152600190910190602001808311611aee575b505050505090505b90565b600160a060020a031660009081526008602052604090205490565b600080611b346139b9565b600160a060020a0319841660009081526017602052604081205460ff161515611b5c57600080fd5b600093505b600160a060020a0319851660009081526010602052604090205460ff851610156116a757600160a060020a031985166000908152601060205260409020805460ff8616908110611bad57fe5b6000918252602080832090910154600160a060020a031988168352601182526040808420600160a060020a039092168085529190925291819020919450600290910190600890610100905190810160405291906101008301826000855b82829054906101000a900461ffff1661ffff1681526020019060020190602082600101049283019260010382029150808411611c0a57905050505050509150600090505b60088160ff161015611cf557600160a060020a031985166000908152600f60205260408120908360ff841660088110611c8357fe5b602002015161ffff90811682526020808301939093526040918201600090812054600160a060020a03198a16825260128552838220600160a060020a0389168352909452918220805461ffff198116610100909504840b90930b600193840b01830b9091169290921790915501611c4e565b600190930192611b61565b60008181526014602052604090206003015460ff1615611d1f57600080fd5b60008181526014602052604090205433600160a060020a03908116911614611d4657600080fd5b60009081526014602052604081208054600160a060020a03191681556001810191909155600301805460ff19169055565b611d7f613a1b565b611d87613a1b565b611d8f613a09565b600a5460a060020a02600160a060020a031916600090815260176020526040812054819060ff1615611dc057600080fd5b611dc986612906565b9450611e0760408051908101604052600181527f20000000000000000000000000000000000000000000000000000000000000006020820152612906565b9350611e19858563ffffffff61292e16565b600101604051805910611e295750595b908082528060200260200182016040528015611e5f57816020015b611e4c613a1b565b815260200190600190039081611e445790505b509250600091505b82518261ffff161015611f6f57611e84858563ffffffff61298c16565b838361ffff1681518110611e9457fe5b60209081029091010152611ef0611275611270611eca604080519081016040526001815260f960020a601d026020820152612906565b868661ffff1681518110611eda57fe5b906020019060200201519063ffffffff61298c16565b9050611f17611275848461ffff1681518110611f0857fe5b9060200190602002015161299f565b600a54600160a060020a031960a060020a909102166000908152600f6020908152604080832061ffff86168452909152812080549290910b60ff166101000261ff001990921691909117905560019190910190611e67565b5050600a54600160a060020a031960a060020a909102166000908152601760205260409020805460ff1916600117905550505050565b600a5460a060020a0290565b600160a060020a03331660009081526008602052604081205411611fd457600080fd5b600160a060020a033316600081815260086020526040908190205480156108fc029151600060405180830381858888f19350505050151561201457600080fd5b600160a060020a033316600090815260086020526040812055565b6000838152601460209081526040808320600a5460a060020a02600160a060020a0319168452600681018352818420600160a060020a038716855290925282205490919060ff161561208057600080fd5b61208983612700565b600183015490915083101561209d57600080fd5b60018281018054600a8054600160a060020a031960a060020a9182028116600090815260028901602090815260408083208054978b9003909701909655600680548a0190559554600160a060020a038c168252600887528582208054918c03909101905592549091021681526005860190925290208054909181016121228382613ae4565b5060009182526020808320919091018054600160a060020a03909716600160a060020a03199788168117909155600a5460a060020a029096168252600690930183526040808220958252949092525091909120805460ff191660011790555050565b600554600160a060020a031681565b61219b613a09565b600a5460a060020a02600160a060020a031916600090815260106020908152604091829020805490929091828102019051908101604052809291908181526020018280548015611b0357602002820191906000526020600020905b8154600160a060020a031681526001909101906020018083116121f6575050505050905090565b6000918252601460209081526040808420600160a060020a031995909516845260089094018152838320600160a060020a0392909216835252205490565b6122636139e2565b600a5460a060020a02600160a060020a0319166000908152601160209081526040808320600160a060020a03331684529091529081902090606090519081016040908152825460ff161515825260018301546020830152909190808301906002830190600890610100905190810160405291906101008301826000855b82829054906101000a900461ffff1661ffff16815260200190600201906020826001010492830192600103820291508084116122e057905050505050508152505090508060000151151561233357600080fd5b61233e82333461202f565b5050565b60008181526014602052604090206003015460ff161561236157600080fd5b600a5460a060020a02600160a060020a0319166000908152601160209081526040808320600160a060020a033316845290915290205460ff1615156123a557600080fd5b60138054600181016123b78382613ae4565b50600091825260209091200181905560606040519081016040908152600160a060020a033316825234602080840191909152600182840152600084815260149091522081518154600160a060020a031916600160a060020a0391909116178155602082015181600101556040820151600391909101805460ff191691151591909117905550610fa781333461202f565b61244f613a09565b6000828152601460209081526040808320600160a060020a0319871684526005018252918290208054909290918281020190519081016040528092919081815260200182805480156124ca57602002820191906000526020600020905b8154600160a060020a031681526001909101906020018083116124ac575b5050505050905092915050565b6000908152601460209081526040808320600160a060020a031994909416835260029093019052205490565b600a5460a060020a02600160a060020a0319166000908152600f6020908152604080832061ffff949094168352929052908120546101009004900b90565b600a5460a060020a02600160a060020a0319166000908152600b602052604081205442111561256f57600080fd5b50600a5460a060020a02600160a060020a0319166000908152601160209081526040808320600160a060020a03331684529091529020805460ff16151561260757600a5460a060020a02600160a060020a03191660009081526010602052604090208054600181016125e18382613ae4565b5060009182526020909120018054600160a060020a03191633600160a060020a03161790555b600180820192909255805460ff19169091179055565b60055433600160a060020a0390811691161461263857600080fd5b61264181613134565b610fa7610ea2565b612651613a09565b600e600083600160a060020a031916600160a060020a03191681526020019081526020016000208054806020026020016040519081016040528092919081815260200182805480156126ea57602002820191906000526020600020906000905b82829054906101000a900461ffff1661ffff16815260200190600201906020826001010492830192600103820291508084116126b15790505b50505050509050919050565b6006805434019055565b6016546103e891020490565b612714613a09565b60408051908101604052600481527f74657374000000000000000000000000000000000000000000000000000000006020820152905090565b600a5460a060020a02600160a060020a0319166000908152601160209081526040808320600160a060020a03949094168352929052206001015490565b60008181526014602090815260408083206001810154600a5460a060020a02600160a060020a031916855260058201845282852054825460029093019094529190932054939490939192600160a060020a03169190565b610f79600c8054600181600116156101000203166002900480601f01602080910402602001604051908101604052809291908181526020018280546001816001161561010002031660029004801561287a5780601f1061284f5761010080835404028352916020019161287a565b820191906000526020600020905b81548152906001019060200180831161285d57829003601f168201915b505050505060408051908101604052600881527f53616c617269657300000000000000000000000000000000000000000000000060208201526113ee565b600c81805161233e929160200190613a32565b6128d3613a09565b6128fe8484846020604051908101604052806000815250602060405190810160405260008152613147565b949350505050565b61290e613a1b565b602082016040805190810160405280845181526020019190915292915050565b600080825161294985518660200151865187602001516133b7565b0190505b8351846020015101811161298557600190910190825161297d8560200151830386510383865187602001516133b7565b01905061294d565b5092915050565b612994613a1b565b61298583838361345a565b6129a7613a09565b6129af613a09565b600083516040518059106129c05750595b818152601f19601f83011681016020016040529050915060208201905061298581856020015186516134c9565b60006129fa82600061350e565b92915050565b60008054600160a060020a03161580612a2b5750600054612a2990600160a060020a031661367c565b155b15612a3c57612a3a6000613680565b505b60008054600160a060020a0316906338cc483190604051602001526040518163ffffffff1660e060020a028152600401602060405180830381600087803b1515612a8557600080fd5b6102c65a03f11515612a9657600080fd5b5050506040518051600154600160a060020a039081169116149050612b395760008054600160a060020a0316906338cc483190604051602001526040518163ffffffff1660e060020a028152600401602060405180830381600087803b1515612afe57600080fd5b6102c65a03f11515612b0f57600080fd5b505050604051805160018054600160a060020a031916600160a060020a0392909216919091179055505b600154600160a060020a031663524f3889836000604051602001526040518263ffffffff1660e060020a0281526004018080602001828103825283818151815260200191508051906020019080838360005b83811015612ba3578082015183820152602001612b8b565b50505050905090810190601f168015612bd05780820380516001836020036101000a031916815260200191505b5092505050602060405180830381600087803b1515612bee57600080fd5b6102c65a03f11515612bff57600080fd5b50505060405180519392505050565b600080548190600160a060020a03161580612c3b5750600054612c3990600160a060020a031661367c565b155b15612c4c57612c4a6000613680565b505b60008054600160a060020a0316906338cc483190604051602001526040518163ffffffff1660e060020a028152600401602060405180830381600087803b1515612c9557600080fd5b6102c65a03f11515612ca657600080fd5b5050506040518051600154600160a060020a039081169116149050612d495760008054600160a060020a0316906338cc483190604051602001526040518163ffffffff1660e060020a028152600401602060405180830381600087803b1515612d0e57600080fd5b6102c65a03f11515612d1f57600080fd5b505050604051805160018054600160a060020a031916600160a060020a0392909216919091179055505b600154600160a060020a0316632ef3accc86856000604051602001526040518363ffffffff1660e060020a0281526004018080602001838152602001828103825284818151815260200191508051906020019080838360005b83811015612dba578082015183820152602001612da2565b50505050905090810190601f168015612de75780820380516001836020036101000a031916815260200191505b509350505050602060405180830381600087803b1515612e0657600080fd5b6102c65a03f11515612e1757600080fd5b5050506040518051915050670de0b6b3a76400003a840201811115612e3f5760009150612f8c565b600154600160a060020a031663c51be90f82600088888883604051602001526040518663ffffffff1660e060020a028152600401808581526020018060200180602001848152602001838103835286818151815260200191508051906020019080838360005b83811015612ebd578082015183820152602001612ea5565b50505050905090810190601f168015612eea5780820380516001836020036101000a031916815260200191505b50838103825285818151815260200191508051906020019080838360005b83811015612f20578082015183820152602001612f08565b50505050905090810190601f168015612f4d5780820380516001836020036101000a031916815260200191505b5096505050505050506020604051808303818588803b1515612f6e57600080fd5b6125ee5a03f11515612f7f57600080fd5b5050505060405180519250505b509392505050565b60008054600160a060020a03161580612fbf5750600054612fbd90600160a060020a031661367c565b155b15612fd057612fce6000613680565b505b60008054600160a060020a0316906338cc483190604051602001526040518163ffffffff1660e060020a028152600401602060405180830381600087803b151561301957600080fd5b6102c65a03f1151561302a57600080fd5b5050506040518051600154600160a060020a0390811691161490506130cd5760008054600160a060020a0316906338cc483190604051602001526040518163ffffffff1660e060020a028152600401602060405180830381600087803b151561309257600080fd5b6102c65a03f115156130a357600080fd5b505050604051805160018054600160a060020a031916600160a060020a0392909216919091179055505b600154600160a060020a031663c281d19e6000604051602001526040518163ffffffff1660e060020a028152600401602060405180830381600087803b151561311557600080fd5b6102c65a03f1151561312657600080fd5b505050604051805191505090565b600d81805161233e929160200190613a32565b61314f613a09565b613157613a09565b61315f613a09565b613167613a09565b61316f613a09565b613177613a09565b61317f613a09565b613187613a09565b6000808e98508d97508c96508b95508a94508451865188518a518c51010101016040518059106131b45750595b818152601f19601f83011681016020016040529050935083925060009150600090505b8851811015613230578881815181106131ec57fe5b016020015160f860020a900460f860020a0283838060010194508151811061321057fe5b906020010190600160f860020a031916908160001a9053506001016131d7565b5060005b875181101561328d5787818151811061324957fe5b016020015160f860020a900460f860020a0283838060010194508151811061326d57fe5b906020010190600160f860020a031916908160001a905350600101613234565b5060005b86518110156132ea578681815181106132a657fe5b016020015160f860020a900460f860020a028383806001019450815181106132ca57fe5b906020010190600160f860020a031916908160001a905350600101613291565b5060005b85518110156133475785818151811061330357fe5b016020015160f860020a900460f860020a0283838060010194508151811061332757fe5b906020010190600160f860020a031916908160001a9053506001016132ee565b5060005b84518110156133a45784818151811061336057fe5b016020015160f860020a900460f860020a0283838060010194508151811061338457fe5b906020010190600160f860020a031916908160001a90535060010161334b565b50909d9c50505050505050505050505050565b600080808080888711613448576020871161340e5760018760200360080260020a031980875116888b038a018a96505b8183885116146134035760018701968190106133e7578b8b0196505b50505083945061344e565b8686209150879350600092505b86890383116134485750858320818114156134385783945061344e565b600193840193929092019161341b565b88880194505b50505050949350505050565b613462613a1b565b600061347a85518660200151865187602001516133b7565b905084602001516020808501919091528501518103835284518560200151018114156134a957600085526134c0565b835183510185818151039052508351810160208601525b50909392505050565b60005b602082106134ef57825184526020840193506020830192506020820391506134cc565b6001826020036101000a03905080198351168185511617909352505050565b6000613518613a09565b5082600080805b835181101561365f577f300000000000000000000000000000000000000000000000000000000000000084828151811061355557fe5b016020015160f860020a900460f860020a02600160f860020a031916101580156135c657507f39000000000000000000000000000000000000000000000000000000000000008482815181106135a757fe5b016020015160f860020a900460f860020a02600160f860020a03191611155b1561361c5781156135e5578515156135dd5761365f565b600019909501945b600a8302925060308482815181106135f957fe5b016020015160f860020a900460f860020a0260f860020a90040383019250613657565b83818151811061362857fe5b016020015160f860020a900460f860020a02600160f860020a031916602e60f860020a02141561365757600191505b60010161351f565b60008611156136715785600a0a830292505b509095945050505050565b3b90565b6000806136a0731d3b2638a7cc9f2cb3d298a3da7a90b67e5506ed61367c565b11156137105760008054600160a060020a031916731d3b2638a7cc9f2cb3d298a3da7a90b67e5506ed17905561370860408051908101604052600b81527f6574685f6d61696e6e657400000000000000000000000000000000000000000060208201526139a6565b506001610a4f565b600061372f73c03a2615d5efaf5f49f60b7bb6583eaec212fdf161367c565b11156137975760008054600160a060020a03191673c03a2615d5efaf5f49f60b7bb6583eaec212fdf117905561370860408051908101604052600c81527f6574685f726f707374656e33000000000000000000000000000000000000000060208201526139a6565b60006137b673b7a07bcf2ba2f2703b24c0691b5278999c59ac7e61367c565b111561381e5760008054600160a060020a03191673b7a07bcf2ba2f2703b24c0691b5278999c59ac7e17905561370860408051908101604052600981527f6574685f6b6f76616e000000000000000000000000000000000000000000000060208201526139a6565b600061383d73146500cfd35b22e4a392fe0adc06de1a1368ed4861367c565b11156138a55760008054600160a060020a03191673146500cfd35b22e4a392fe0adc06de1a1368ed4817905561370860408051908101604052600b81527f6574685f72696e6b65627900000000000000000000000000000000000000000060208201526139a6565b60006138c4736f485c8bf6fc43ea212e93bbf8ce046c7f1cb47561367c565b11156138f8575060008054600160a060020a031916736f485c8bf6fc43ea212e93bbf8ce046c7f1cb4751790556001610a4f565b60006139177320e12a1f859b3feae5fb2a0a32c18f5a65555bbf61367c565b111561394b575060008054600160a060020a0319167320e12a1f859b3feae5fb2a0a32c18f5a65555bbf1790556001610a4f565b600061396a7351efaf4c8b3c9afbd5ab9f4bbc82784ab6ef8faa61367c565b111561399e575060008054600160a060020a0319167351efaf4c8b3c9afbd5ab9f4bbc82784ab6ef8faa1790556001610a4f565b506000919050565b600281805161233e929160200190613a32565b6101006040519081016040526008815b6000815260001990910190602001816139c95790505090565b6101406040519081016040908152600080835260208301528101613a046139b9565b905290565b60206040519081016040526000815290565b604080519081016040526000808252602082015290565b828054600181600116156101000203166002900490600052602060002090601f016020900481019282601f10613a7357805160ff1916838001178555613aa0565b82800160010185558215613aa0579182015b82811115613aa0578251825591602001919060010190613a85565b50613aac929150613b04565b5090565b8154818355818115116117d457600f016010900481600f016010900483600052602060002091820191016117d49190613b04565b8154818355818115116117d4576000838152602090206117d49181019083015b611b0b91905b80821115613aac5760008155600101613b0a5600a165627a7a723058206dfa559a79fcaaa761a4adda902cd61b4e55864c0ecef548f6b6d8482e0b01810029",
  "source": "pragma solidity 0.4.18;\n\nimport \"./lib/oraclize/oraclizeAPI_0.4.sol\";\nimport \"./lib/arachnid/solidity-stringutils/strings.sol\";\n\ncontract PgaDfs is usingOraclize {\n\n  using strings for *;\n\n  struct SlateGolfer {\n    // not storing name,\n    // since we're trying to be minimal with data storage\n    // on ethereum's bloated ass blockchain.\n\n    // increments in 1\n    // salaries are roughly DK salaries / $500\n    // and can be negative!\n    int8 salary;\n\n    // fantasy points at end of tournament\n    int8 points;\n  }\n\n\n  struct Lineup {\n    bool submittedHash;  // true when saved\n    // keccak hash of lineup before revealing\n    // e.g. keccak256(\"21059:94320:85933:8793\")\n    bytes32 golferIdsHash;\n    // MAX of 8 pga tour ids...\n    // you can play less than 8 guys if you want!\n    // some older players have leading \"0\"s (e.g. Tiger \"08793\")\n    // leading zeroes are dropped, so his I.D. is 8793\n    uint16[8] golferIds;\n  }\n\n  struct Contest {\n    address owner; // creator of contest\n\n    uint entryFee; // TODO(christian): what units? wei?\n    // all money in contest balance, payable to winners\n    mapping (bytes12 => uint) slateIdToPrizePool;\n\n    // yay or nay, is this an active contest\n    // must be not live to delete contest\n    bool live;\n\n    // have we calculated the address balances after contest is over?\n    mapping (bytes12 => bool) slateIdToPayoutsSet;\n\n    // map ETH address --> lineup in contest\n    mapping (bytes12 => address[]) slateIdToEntries;\n\n    mapping (bytes12 => mapping(address => bool)) slateIdToEntered;\n    mapping (bytes12 => mapping(address => int32)) slateIdToAddressScores;\n\n    // slate --> ETH address --> how much they recouped\n    mapping(bytes12 => mapping(address => uint)) recoup;\n  }\n\n\n  event newOraclizeQuery(string description);\n\n  // this is the initializer of the contract\n  // who gets special privaledges:\n  // (1) if oraclize fucks up, you set scores manually\n  // (2) you can spend the extraEther in the contract\n  address public contractAdmin;\n  uint private extraEther;\n  uint private minBal;\n\n  mapping(address => uint) userBalances;\n\n  // status (bool): is this oraclize query complete or not?\n  mapping(bytes32 => string) queryIdToCallbackAction;\n\n  // this is the CONSTRUCTOR!\n  // we must initialize the lubrication amount\n  // with the miniumum balance, which can never be recovered\n  function PgaDfs() public payable {\n    require(msg.value >= minBal); // , \"must initialise contract with at least minBal eth\");\n    // in the constructor (this function), msg.sender is\n    // the owner of the contract\n    contractAdmin = msg.sender;\n    extraEther = msg.value;\n\n    // OAR for ethereum-bridge\n    OAR = OraclizeAddrResolverI(0x15Ce83f7B43082C21deB5bEDd004e2F683B45392);\n    // TODO: tinker with this gas value\n    /* oraclize_setCustomGasPrice(1000000000 wei); */\n\n    // execute a dummy transcaction to make fee estimation\n    // work by burning the free transaction\n    /* oraclize_query(\"URL\", \"json(http://api.fixer.io/latest?symbols=USD,GBP).rates.GBP\"); */\n  }\n\n\n  // N.B. FROM CRYPTO RIC:\n  // if we want to fund money into the \"lubrication account\"\n  // this will allow the contract to function if the price\n  // of ether falls dramatically between querires\n  // and, as a result, because the query fee is charged in USD,\n  // the fee for subsequent queries goes up\n  // this should average out over time,\n  // we charge a small fee to make sure it more likely going up\n  // this fee, over the course of 400 wagers,\n  // should offset the irrecovable minimum balance\n  function deposit() payable external {\n    extraEther += msg.value;\n  }\n\n  // CRYPTO RIC:\n  // if we want to withdraw money from the lubrication account\n  // we can only draw from the extraEther gained,\n  // so as to protect and wall off funds from active wagers\n  // we must leave a minBal of .1 ether to serve as lubrication\n  // this protects people with wagers from us withdrawing\n  // all the lubrication while they have bets in, which\n  // would make them have the potential to fail\n  function withdraw() payable external {\n    require(msg.sender == contractAdmin); //, \"only contract admin can do this\");\n\n    if (extraEther - minBal > 0) {\n      contractAdmin.transfer(extraEther - minBal);\n      extraEther = minBal;\n    }\n  }\n\n  function withdrawBalance() public payable {\n    require(userBalances[msg.sender] > 0); //, \"you have no ether to withdraw\");\n    msg.sender.transfer(userBalances[msg.sender]);\n    userBalances[msg.sender] = 0;\n  }\n\n  // active slate id to key slate/lineup mappings\n  bytes12 slateId;\n  mapping (bytes12 => uint) slateIdToLockTimestamp;\n\n  // format: \"{pgaId}:{salary}\"\n  // example: \"34360:1522955700:15 32102:1522963620:-2\" <-- salaries can be negative!\n  string compressedSalariesUrl = \"\"; // e.g. \"https://s3.amazonaws.com/ethdfs/pga/compressedSalaries/2018/471.json\";\n\n  // format: \"{pgaId}:{rd1}-{rd2}-{rd3}-{rd4}\"\n  // example: \"34360:69-66-67-71 32102:70-72-65-67\"\n  string compressedScoresUrl = \"\"; // e.g. \"https://s3.amazonaws.com/ethdfs/pga/compressedScores/2018/471.json\";\n\n\n  // slate id ==> golfer ids\n  // NOTE: uint16 for golfer ids is really fucking pushing it,\n  // as PGA tour is on ID's around 55k or so.\n  // the max uint8 number is 65,535. lol\n  mapping (bytes12 => uint16[]) slateIdToGolferIds;\n  // slate id ==> pga tour id ==> golfer data (salary, scores, etc.)\n  mapping (bytes12 => mapping(uint16 => SlateGolfer)) slateIdToSlateGolfers;\n  mapping (bytes12 => address[]) slateIdToEnteredAddresses;\n  mapping (bytes12 => mapping (address => Lineup)) slateIdToLineups;\n  mapping (bytes12 => mapping (address => int16)) slateIdToEntryScores;\n\n  // contest data\n  bytes32[] contestIds;\n  mapping(bytes32 => Contest) contests;\n\n  // salary cap is 100\n  // salaries are integers and CAN BE NEGATIVE\n  // think mike weir\n  int salaryCap = 100;\n\n  // rake is 2.0% or 20/1000\n  uint rakeTimesOneThousand = 20;\n\n  // is scoring complete for the current slate\n  mapping (bytes12 => bool) slateIdToCompleteGolferScoring;\n  mapping (bytes12 => bool) slateIdToCompleteLineupScoring;\n\n  function setLineupHash(bytes32 lineupHash) public {\n    // can't change lineup hash after lock\n    require(block.timestamp <= slateIdToLockTimestamp[slateId]); //, \"entries have locked\");\n    Lineup storage theLineup = slateIdToLineups[slateId][msg.sender];\n    if (!theLineup.submittedHash) {\n        // don't push duped addresses if they already have a lineup\n        slateIdToEnteredAddresses[slateId].push(msg.sender);\n    }\n    theLineup.golferIdsHash = lineupHash;\n    theLineup.submittedHash = true;\n  }\n\n  // returns: Lineup.golferIdsHash\n  function getLineupHash(address entrantAddress) public view returns (bytes32) {\n    return slateIdToLineups[slateId][entrantAddress].golferIdsHash;\n  }\n\n  function getEnteredAddressesForCurrentSlate() public view returns (address[]) {\n      return slateIdToEnteredAddresses[slateId];\n  }\n\n  function getCurrentSlateLineupForAddress(address address_) public view returns (bytes32, uint16[8], int16) {\n      Lineup memory theLineup = slateIdToLineups[slateId][address_];\n      return (theLineup.golferIdsHash, theLineup.golferIds, slateIdToEntryScores[slateId][address_]);\n  }\n\n  function getSlateId() public view returns (bytes12) {\n    return slateId;\n  }\n\n  function getSalary(uint16 pgaId) public view returns (int8) {\n    return slateIdToSlateGolfers[slateId][pgaId].salary;\n  }\n\n  function getPoints(uint16 pgaId) public view returns (int8) {\n    return slateIdToSlateGolfers[slateId][pgaId].points;\n  }\n\n  // lineups must:\n  // have 8 or less players\n  // total salary must be <= salary cap\n  // can only play the same guy once\n  function revealLineup(string golferIdsColonDelimited, string revealKey) public returns (int16) {\n    require(slateIdToLineups[slateId][msg.sender].golferIdsHash == keccak256(strConcat(golferIdsColonDelimited, \"|\", revealKey)));\n\n    var golferIds = new uint16[](8);\n\n    var golferIdsSlice = golferIdsColonDelimited.toSlice();\n    var delimiter = \":\".toSlice();\n    uint256 golferCount = golferIdsSlice.count(delimiter) + 1;\n\n    require(golferCount <= 8); //, \"must have 8 or less players\");\n\n    // and salary must be under cap\n    int16 totalSalary = 0;\n\n    for (uint8 ii = 0; ii < golferCount; ii++) {\n      // string  --> left padded bytes32\n      // \"29725\" --> \"0x3239373235000000000000000000000000000000000000000000000000000000\"\n      // replicate this with web3.fromAscii('29725')\n      uint16 golferId = uint16(parseInt(golferIdsSlice.split(delimiter).toString()));\n\n      for (uint8 jj = 0; jj < ii; jj++) {\n        require(golferId != golferIds[jj]); //, \"cannot duplicate golfer in lineup\");\n      }\n      golferIds[ii] = golferId;\n      totalSalary += slateIdToSlateGolfers[slateId][golferId].salary;\n    }\n\n    require(totalSalary <= salaryCap); //, \"must be under the salary cap\");\n\n    for (ii = 0; ii < golferIds.length; ii++) {\n      slateIdToLineups[slateId][msg.sender].golferIds[ii] = golferIds[ii];\n    }\n  }\n\n  function calculateRake(uint wei_) public view returns (uint) {\n    return (wei_ * rakeTimesOneThousand) / 1000;\n  }\n\n  function createContest(bytes32 contestId) public payable {\n    // contest id cannot be taken already\n    require(!contests[contestId].live); //, \"already exists live contest with that ID\");\n    // contest owner must first have lineup hash on chain\n    require(slateIdToLineups[slateId][msg.sender].submittedHash); //, \"must submit hash before creating contest\"\n\n    contestIds.push(contestId);\n    contests[contestId] = Contest({\n      owner : msg.sender,\n      // entry fee is AUTOMATICALLY calculated by how much the owner deposits\n      entryFee : msg.value,\n      live : true\n    });\n    payEntryFeeToContest(contestId, msg.sender, msg.value);\n  }\n\n  function enterContest(bytes32 contestId) public payable {\n    // to enter contest, user must have lineup hash on chain\n    Lineup memory entrantLineup = slateIdToLineups[slateId][msg.sender];\n    require(entrantLineup.submittedHash); //, \"must submit lineup hash before joining contest\"\n    payEntryFeeToContest(contestId, msg.sender, msg.value);\n  }\n\n  function payEntryFeeToContest(bytes32 contestId, address msgSender, uint ethEntered) public payable {\n\n    Contest storage activeContest = contests[contestId];\n    // if they not are already in the contest, pay rake and enter\n    require(!activeContest.slateIdToEntered[slateId][msgSender]); //, \"already entered in this contest\");\n\n    uint rakeToCollect = calculateRake(ethEntered);\n\n    require(ethEntered >= activeContest.entryFee); //, \"must send >= eth as entry fee\");\n\n    activeContest.slateIdToPrizePool[slateId] += (activeContest.entryFee - rakeToCollect);\n    extraEther += rakeToCollect;\n    // if someone sends us extra money,\n    // it goes their user balance\n    userBalances[msgSender] += (ethEntered - activeContest.entryFee);\n    activeContest.slateIdToEntries[slateId].push(msgSender);\n    activeContest.slateIdToEntered[slateId][msgSender] = true;\n  }\n\n  function setSalaries(string compressedSalaries) public {\n      require(msg.sender == contractAdmin); //, \"only contractAdmin can set salaries\");\n      // TODO: make internal / only contractAdmin\n      slateIdToCompleteGolferScoring[slateId] = false;\n\n      var compressedSalariesSlice = compressedSalaries.toSlice();\n      var playerDelimiter = \" \".toSlice();\n      var salaryDelimiter = \":\".toSlice();\n      uint playerCount = compressedSalariesSlice.count(playerDelimiter) + 1;\n\n      for (uint8 ii = 0; ii < playerCount; ii++) {\n          var playerColonSalary = compressedSalariesSlice.split(playerDelimiter);\n\n          uint16 pgaPlayerId = uint16(parseInt(playerColonSalary.split(salaryDelimiter).toString()));\n\n          slateIdToGolferIds[slateId].push(pgaPlayerId);\n          slateIdToSlateGolfers[slateId][pgaPlayerId].salary = int8(parseInt(playerColonSalary.toString()));\n      }\n  }\n\n  function setScores(string compressedScores) public {\n    // TODO: make internal / only contractAdmin\n    // TODO: really make sure this works\n    // TODO: difference between var and normal types?\n    require(!slateIdToCompleteGolferScoring[slateId]); //, \"already completed golfer scoring for this slate\");\n\n    var compressedScoresSlice = compressedScores.toSlice();\n    var playerDelimiter = \" \".toSlice();\n    var playerScoreSlices = new strings.slice[](compressedScoresSlice.count(playerDelimiter) + 1);\n\n    for (uint16 i = 0; i < playerScoreSlices.length; i++) {\n      playerScoreSlices[i] = compressedScoresSlice.split(playerDelimiter);\n      uint16 pgaPlayerId = uint16(parseInt(playerScoreSlices[i].split(\":\".toSlice()).toString()));\n      slateIdToSlateGolfers[slateId][pgaPlayerId].points = int8(parseInt(playerScoreSlices[i].toString()));\n    }\n    slateIdToCompleteGolferScoring[slateId] = true;\n  }\n\n  function scoreEnteredAddresses(bytes12 slateId_) public {\n    require(slateIdToCompleteGolferScoring[slateId_]); //, \"already completed golfer scoring for this slate\");\n    for (uint8 ii = 0; ii < slateIdToEnteredAddresses[slateId_].length; ii++) {\n      address entry = slateIdToEnteredAddresses[slateId_][ii];\n      uint16[8] memory entryPgaIds = slateIdToLineups[slateId_][entry].golferIds;\n      for (uint8 g = 0; g < entryPgaIds.length; g++) {\n        slateIdToEntryScores[slateId_][entry] += slateIdToSlateGolfers[slateId_][entryPgaIds[g]].points;\n      }\n    }\n  }\n\n  function setSingleContestPayouts(bytes32 contestId) public {\n    // everyone who scores > max(0, the contest average) gets paid\n    // you are paid proportional to your squared score\n    require(slateIdToCompleteGolferScoring[slateId]); //, \"must complete golfer & lineup scoring before determining contest payouts\");\n\n    Contest storage contest = contests[contestId];\n    require(contest.live); //, \"contest is not live\");\n    require(!contest.slateIdToPayoutsSet[slateId]); //,\"contest payouts have already been set\");\n\n    uint16 totalEntries = uint16(contest.slateIdToEntries[slateId].length);\n    uint remainingContestFunds = contest.slateIdToPrizePool[slateId];\n    int totalPoints = 0;\n\n    // calculate the average score in the contest\n    for (uint8 ii = 0; ii < totalEntries; ii++) {\n      address entry = contest.slateIdToEntries[slateId][ii];\n      totalPoints += slateIdToEntryScores[slateId][entry];\n    }\n\n    // of the top half (except any of those that scored < 0),\n    // sum up the squared scores\n    int averagePointsRoundedDown = totalPoints / totalEntries;\n    uint summedSquaredWinningScores = 0;\n\n    for (ii = 0; ii < totalEntries; ii++) {\n      entry = contest.slateIdToEntries[slateId][ii];\n      int16 score = slateIdToEntryScores[slateId][entry];\n      if (score >= averagePointsRoundedDown && score >= 0) {\n        uint squaredScore = uint(score) * uint(score);\n        summedSquaredWinningScores += squaredScore;\n      }\n    }\n\n    // then pay out people proportional to squared points\n    for (ii = 0; ii < totalEntries; ii++) {\n      entry = contest.slateIdToEntries[slateId][ii];\n      score = slateIdToEntryScores[slateId][entry];\n      if (score >= averagePointsRoundedDown && score >= 0) {\n        // TODO: make sure there's no rounding error B.S. going on\n        // that makes us massively over or under pay people\n        squaredScore = uint(score) * uint(score);\n        uint toPayout = (contest.slateIdToPrizePool[slateId] * squaredScore) / summedSquaredWinningScores;\n        contest.recoup[slateId][entry] = toPayout;\n        userBalances[entry] += toPayout;\n        remainingContestFunds -= toPayout;\n      }\n    }\n    // make sure we paid out the entire contest correctly\n    require(100 * remainingContestFunds < contest.slateIdToPrizePool[slateId]); //, \"due to rounding errors we paid out the contest incorrectly\");\n    extraEther += remainingContestFunds;\n    contest.slateIdToPayoutsSet[slateId] = true;\n    contest.live = false;\n  }\n\n  function getUserBalance(address address_) public view returns (uint) {\n    return userBalances[address_];\n  }\n\n  function _setCompressedScoresUrl(string _compressedScoresUrl) internal {\n    compressedScoresUrl = _compressedScoresUrl;\n  }\n\n  function _setCompressedSalariesUrl(string _compressedSalariesUrl) internal {\n    compressedSalariesUrl = _compressedSalariesUrl;\n  }\n\n  function getSalariesOnChain() public payable {\n    innerOraclizeQuery(compressedSalariesUrl, \"Salaries\");\n  }\n\n  function getScoresOnChain() public payable {\n    innerOraclizeQuery(compressedScoresUrl, \"Scores\");\n  }\n\n  function setScoresUrlAndGetResultsOnChain(string compressedScoresUrl_) public {\n      require(msg.sender == contractAdmin); //, \"only contract admin can perform this action\");\n      _setCompressedScoresUrl(compressedScoresUrl_);\n      getScoresOnChain();\n  }\n\n  function setSalariesUrlAndGetSalariesOnChain(string compressedSalariesUrl_) public {\n      require(msg.sender == contractAdmin); //, \"only contract admin can perform this action\");\n      _setCompressedSalariesUrl(compressedSalariesUrl_);\n      getSalariesOnChain();\n  }\n\n  function setNewSlateInfo(\n    bytes12 _newSlateId,\n    string _compressedSalariesUrl,\n    string _compressedScoresUrl,\n    uint lockTimestamp\n  ) public {\n    require(msg.sender == contractAdmin); //, \"only contract admin can perform this action\");\n    slateId = _newSlateId;\n    slateIdToLockTimestamp[slateId] = lockTimestamp;\n    _setCompressedScoresUrl(_compressedScoresUrl);\n    _setCompressedSalariesUrl(_compressedSalariesUrl);\n  }\n\n  // ========================= ORACLIZE functions =========================\n\n\n  function innerOraclizeQuery(string queryUrl, string callbackAction) public payable {\n    // TODO: make these views\n    uint cost = 2400000000000000 + (oraclize_getPrice(\"URL\") * 3);\n    uint fee = 100000000000000;\n\n    if (msg.value < cost + fee) {\n      newOraclizeQuery(\"Oraclize query failed. Send more ETH (.0025ETH in gas + $.03 per query\");\n      msg.sender.transfer(msg.value);\n    } else {\n      extraEther += msg.value - cost;\n      newOraclizeQuery(\"Oraclize queries were sent, standing by for the answer.\");\n      bytes32 queryId = oraclize_query(\n        \"URL\",\n        strConcat(\"json(\", queryUrl, \").compressedScores\"),\n        600000\n      );\n      queryIdToCallbackAction[queryId] = callbackAction;\n    }\n  }\n\n  // switch function for callbacks\n  function __callback(bytes32 myid, string result) public {\n    require(msg.sender == oraclize_cbAddress()); //, \"message was not from oraclize address\");\n    // can't compare string storage pointers and string literals,\n    // so instead let's compare their keccak256 hashes!\n    bytes32 actionHash = keccak256(queryIdToCallbackAction[myid]);\n    if (actionHash == keccak256(\"Salaries\")) {\n      setSalaries(result);\n    }\n    if (actionHash == keccak256(\"Scores\")) {\n      setScores(result);\n    }\n  }\n\n  // CRYPTO RIC:\n  // should anyone wish to be a good blockchain citizen\n  // and delete a wager that is no longer live\n  function deleteContest(bytes32 contestId) external {\n    require(!contests[contestId].live); //, \"cannot delete a live contest\");\n    require(msg.sender == contests[contestId].owner); //, \"only owner can delete their contest\");\n    delete contests[contestId];\n  }\n\n  function getLiveContestIds() public view returns (bytes32[]) {\n    return contestIds;\n  }\n\n  function getContestById(bytes32 contestId) public view returns (\n      bytes32,\n      uint,\n      uint,\n      address,\n      uint\n    ) {\n      Contest storage contest = contests[contestId];\n      return (\n          contestId,\n          contest.entryFee,\n          contest.slateIdToEntries[slateId].length,\n          contest.owner,\n          contest.slateIdToPrizePool[slateId]\n        );\n    }\n\n  function getContestEntries(bytes12 slateId_, bytes32 contestId) public view returns (address[]) {\n    return contests[contestId].slateIdToEntries[slateId_];\n  }\n\n  function getContestRecoup(bytes12 slateId_, bytes32 contestId_, address address_) public view returns (uint) {\n    return contests[contestId_].recoup[slateId_][address_];\n  }\n\n  function getContestPrizePool(bytes12 slateId_, bytes32 contestId_) public view returns (uint) {\n    return contests[contestId_].slateIdToPrizePool[slateId_];\n  }\n\n  function getEntryScore(bytes12 slateId_, address entryAddress) public view returns (int16) {\n    return slateIdToEntryScores[slateId_][entryAddress];\n  }\n\n  function getGolferIdsOnSlate(bytes12 slateId_) public view returns (uint16[]) {\n    return slateIdToGolferIds[slateId_];\n  }\n\n  function testFunction() public view returns (string) {\n    return 'test';\n  }\n}\n",
  "sourcePath": "/Users/christian/workspace/ddfs/contracts/PgaDfs.sol",
  "compiler": {
    "name": "solc",
    "version": "0.4.18+commit.9cf6e910.Emscripten.clang"
  },
  "schemaVersion": "2.0.0",
  "updatedAt": "2018-10-06T18:45:25.806Z"
}