{
  "contractName": "PgaDfs",
  "abi": [
    {
      "constant": true,
      "inputs": [],
      "name": "contractAdmin",
      "outputs": [
        {
          "name": "",
          "type": "address"
        }
      ],
      "payable": false,
      "stateMutability": "view",
      "type": "function"
    },
    {
      "inputs": [],
      "payable": true,
      "stateMutability": "payable",
      "type": "constructor"
    },
    {
      "anonymous": false,
      "inputs": [
        {
          "indexed": false,
          "name": "description",
          "type": "string"
        }
      ],
      "name": "newOraclizeQuery",
      "type": "event"
    },
    {
      "constant": false,
      "inputs": [],
      "name": "deposit",
      "outputs": [],
      "payable": true,
      "stateMutability": "payable",
      "type": "function"
    },
    {
      "constant": false,
      "inputs": [],
      "name": "withdraw",
      "outputs": [],
      "payable": false,
      "stateMutability": "nonpayable",
      "type": "function"
    },
    {
      "constant": false,
      "inputs": [
        {
          "name": "lineupHash",
          "type": "bytes32"
        }
      ],
      "name": "setLineupHash",
      "outputs": [],
      "payable": false,
      "stateMutability": "nonpayable",
      "type": "function"
    },
    {
      "constant": true,
      "inputs": [
        {
          "name": "entrantAddress",
          "type": "address"
        }
      ],
      "name": "getLineupHash",
      "outputs": [
        {
          "name": "",
          "type": "bytes32"
        }
      ],
      "payable": false,
      "stateMutability": "view",
      "type": "function"
    },
    {
      "constant": true,
      "inputs": [],
      "name": "getEnteredAddressesForCurrentSlate",
      "outputs": [
        {
          "name": "",
          "type": "address[]"
        }
      ],
      "payable": false,
      "stateMutability": "view",
      "type": "function"
    },
    {
      "constant": true,
      "inputs": [
        {
          "name": "address_",
          "type": "address"
        }
      ],
      "name": "getCurrentSlateLineupForAddress",
      "outputs": [
        {
          "name": "",
          "type": "bytes32"
        },
        {
          "name": "",
          "type": "bytes32[8]"
        }
      ],
      "payable": false,
      "stateMutability": "view",
      "type": "function"
    },
    {
      "constant": true,
      "inputs": [],
      "name": "getSlateId",
      "outputs": [
        {
          "name": "",
          "type": "bytes12"
        }
      ],
      "payable": false,
      "stateMutability": "view",
      "type": "function"
    },
    {
      "constant": true,
      "inputs": [
        {
          "name": "pgaId",
          "type": "string"
        }
      ],
      "name": "getSalary",
      "outputs": [
        {
          "name": "",
          "type": "int8"
        }
      ],
      "payable": false,
      "stateMutability": "view",
      "type": "function"
    },
    {
      "constant": false,
      "inputs": [
        {
          "name": "golferIdsColonDelimited",
          "type": "string"
        },
        {
          "name": "revealKey",
          "type": "string"
        }
      ],
      "name": "revealLineup",
      "outputs": [
        {
          "name": "",
          "type": "int16"
        }
      ],
      "payable": false,
      "stateMutability": "nonpayable",
      "type": "function"
    },
    {
      "constant": true,
      "inputs": [
        {
          "name": "eth",
          "type": "uint256"
        }
      ],
      "name": "calculateRake",
      "outputs": [
        {
          "name": "",
          "type": "uint256"
        }
      ],
      "payable": false,
      "stateMutability": "view",
      "type": "function"
    },
    {
      "constant": false,
      "inputs": [
        {
          "name": "contestId",
          "type": "bytes32"
        }
      ],
      "name": "createContest",
      "outputs": [],
      "payable": true,
      "stateMutability": "payable",
      "type": "function"
    },
    {
      "constant": false,
      "inputs": [
        {
          "name": "contestId",
          "type": "bytes32"
        }
      ],
      "name": "enterContest",
      "outputs": [],
      "payable": true,
      "stateMutability": "payable",
      "type": "function"
    },
    {
      "constant": false,
      "inputs": [
        {
          "name": "contestId",
          "type": "bytes32"
        },
        {
          "name": "msgSender",
          "type": "address"
        },
        {
          "name": "ethEntered",
          "type": "uint256"
        }
      ],
      "name": "payEntryFeeToContest",
      "outputs": [],
      "payable": true,
      "stateMutability": "payable",
      "type": "function"
    },
    {
      "constant": false,
      "inputs": [
        {
          "name": "source",
          "type": "string"
        }
      ],
      "name": "toBytes32",
      "outputs": [
        {
          "name": "result",
          "type": "bytes32"
        }
      ],
      "payable": false,
      "stateMutability": "nonpayable",
      "type": "function"
    },
    {
      "constant": false,
      "inputs": [
        {
          "name": "compressedSalaries",
          "type": "string"
        }
      ],
      "name": "setSalaries",
      "outputs": [],
      "payable": false,
      "stateMutability": "nonpayable",
      "type": "function"
    },
    {
      "constant": false,
      "inputs": [
        {
          "name": "compressedScores",
          "type": "string"
        }
      ],
      "name": "setScores",
      "outputs": [],
      "payable": false,
      "stateMutability": "nonpayable",
      "type": "function"
    },
    {
      "constant": false,
      "inputs": [
        {
          "name": "contestId",
          "type": "bytes32"
        }
      ],
      "name": "setSingleContestPayouts",
      "outputs": [],
      "payable": false,
      "stateMutability": "nonpayable",
      "type": "function"
    },
    {
      "constant": false,
      "inputs": [
        {
          "name": "contestId",
          "type": "bytes32"
        }
      ],
      "name": "withdrawBalanceFromContest",
      "outputs": [],
      "payable": false,
      "stateMutability": "nonpayable",
      "type": "function"
    },
    {
      "constant": false,
      "inputs": [
        {
          "name": "contestId",
          "type": "bytes32"
        }
      ],
      "name": "payOutContest",
      "outputs": [],
      "payable": false,
      "stateMutability": "nonpayable",
      "type": "function"
    },
    {
      "constant": false,
      "inputs": [],
      "name": "getSalariesOnChain",
      "outputs": [],
      "payable": true,
      "stateMutability": "payable",
      "type": "function"
    },
    {
      "constant": false,
      "inputs": [],
      "name": "getScoresOnChain",
      "outputs": [],
      "payable": true,
      "stateMutability": "payable",
      "type": "function"
    },
    {
      "constant": false,
      "inputs": [
        {
          "name": "compressedScoresUrl_",
          "type": "string"
        }
      ],
      "name": "setScoresUrlAndGetResultsOnChain",
      "outputs": [],
      "payable": false,
      "stateMutability": "nonpayable",
      "type": "function"
    },
    {
      "constant": false,
      "inputs": [
        {
          "name": "compressedSalariesUrl_",
          "type": "string"
        }
      ],
      "name": "setSalariesUrlAndGetSalariesOnChain",
      "outputs": [],
      "payable": false,
      "stateMutability": "nonpayable",
      "type": "function"
    },
    {
      "constant": false,
      "inputs": [
        {
          "name": "_newSlateId",
          "type": "bytes12"
        },
        {
          "name": "_compressedSalariesUrl",
          "type": "string"
        },
        {
          "name": "_compressedScoresUrl",
          "type": "string"
        },
        {
          "name": "lockTimestamp",
          "type": "uint256"
        }
      ],
      "name": "setNewSlateInfo",
      "outputs": [],
      "payable": false,
      "stateMutability": "nonpayable",
      "type": "function"
    },
    {
      "constant": false,
      "inputs": [
        {
          "name": "queryUrl",
          "type": "string"
        },
        {
          "name": "callbackAction",
          "type": "string"
        }
      ],
      "name": "innerOraclizeQuery",
      "outputs": [],
      "payable": true,
      "stateMutability": "payable",
      "type": "function"
    },
    {
      "constant": false,
      "inputs": [
        {
          "name": "myid",
          "type": "bytes32"
        },
        {
          "name": "result",
          "type": "string"
        },
        {
          "name": "proof",
          "type": "bytes"
        }
      ],
      "name": "__callback",
      "outputs": [],
      "payable": false,
      "stateMutability": "nonpayable",
      "type": "function"
    },
    {
      "constant": false,
      "inputs": [
        {
          "name": "myid",
          "type": "bytes32"
        },
        {
          "name": "result",
          "type": "string"
        }
      ],
      "name": "__callback",
      "outputs": [],
      "payable": false,
      "stateMutability": "nonpayable",
      "type": "function"
    },
    {
      "constant": false,
      "inputs": [
        {
          "name": "contestId",
          "type": "bytes32"
        }
      ],
      "name": "deleteContest",
      "outputs": [],
      "payable": false,
      "stateMutability": "nonpayable",
      "type": "function"
    },
    {
      "constant": true,
      "inputs": [],
      "name": "getLiveContestIds",
      "outputs": [
        {
          "name": "",
          "type": "bytes32[]"
        }
      ],
      "payable": false,
      "stateMutability": "view",
      "type": "function"
    },
    {
      "constant": true,
      "inputs": [
        {
          "name": "contestId",
          "type": "bytes32"
        }
      ],
      "name": "getContestById",
      "outputs": [
        {
          "name": "",
          "type": "bytes32"
        },
        {
          "name": "",
          "type": "uint256"
        },
        {
          "name": "",
          "type": "uint256"
        },
        {
          "name": "",
          "type": "address"
        }
      ],
      "payable": false,
      "stateMutability": "view",
      "type": "function"
    },
    {
      "constant": true,
      "inputs": [],
      "name": "testFunction",
      "outputs": [
        {
          "name": "",
          "type": "string"
        }
      ],
      "payable": false,
      "stateMutability": "view",
      "type": "function"
    }
  ],
  "bytecode": "0x60606040526020604051908101604052806000815250600b90805190602001906200002c929190620000bf565b506020604051908101604052806000815250600c908051906020019062000055929190620000bf565b5060646013556014805560075434101515156200007157600080fd5b33600560006101000a81548173ffffffffffffffffffffffffffffffffffffffff021916908373ffffffffffffffffffffffffffffffffffffffff160217905550346006819055506200016e565b828054600181600116156101000203166002900490600052602060002090601f016020900481019282601f106200010257805160ff191683800117855562000133565b8280016001018555821562000133579182015b828111156200013257825182559160200191906001019062000115565b5b50905062000142919062000146565b5090565b6200016b91905b80821115620001675760008160009055506001016200014d565b5090565b90565b615ea5806200017e6000396000f300606060405260043610610196576000357c0100000000000000000000000000000000000000000000000000000000900463ffffffff1680630b4103ee1461019b5780630fc33560146101c2578063137492ff146101cc57806318d019dc146102295780631c5c5fa3146102ad57806326daf1641461036757806327dc297e146103fc57806327df8f2a146104665780632b58719d146104df57806338bbfa501461053c5780633ccfd60b146105e957806344375f66146105fe578063471924db146106c75780634c55dcde146107315780634c5e9d18146107585780634d346a49146107b55780636aff681c1461080c57806377955245146108505780637ba36128146108a5578063807d9e161461090f578063897e4edb1461092b578063abfb80bc14610947578063c1c6070e1461096e578063c5012ffc14610995578063d0e30db0146109f2578063d781b7cf146109fc578063e16b4a9b14610a33578063e42c133714610ac1578063eb1a572414610b38578063f03008ba14610b8d578063f5a45c6014610bb4578063fb9a7aaf14610c38575b600080fd5b34156101a657600080fd5b6101c0600480803560001916906020019091905050610c42565b005b6101ca6118d8565b005b34156101d757600080fd5b610227600480803590602001908201803590602001908080601f016020809104026020016040519081016040528093929190818152602001838380828437820191505050505050919050506119b3565b005b341561023457600080fd5b610260600480803573ffffffffffffffffffffffffffffffffffffffff16906020019091905050611a23565b60405180836000191660001916815260200182600860200280838360005b8381101561029957808201518184015260208101905061027e565b505050509050019250505060405180910390f35b34156102b857600080fd5b61034b600480803590602001908201803590602001908080601f0160208091040260200160405190810160405280939291908181526020018383808284378201915050505050509190803590602001908201803590602001908080601f01602080910402602001604051908101604052809392919081815260200183838082843782019150505050505091905050611b71565b604051808260010b60010b815260200191505060405180910390f35b6103fa600480803590602001908201803590602001908080601f0160208091040260200160405190810160405280939291908181526020018383808284378201915050505050509190803590602001908201803590602001908080601f01602080910402602001604051908101604052809392919081815260200183838082843782019150505050505091905050611ff1565b005b341561040757600080fd5b61046460048080356000191690602001909190803590602001908201803590602001908080601f016020809104026020016040519081016040528093929190818152602001838380828437820191505050505050919050506122df565b005b341561047157600080fd5b6104c1600480803590602001908201803590602001908080601f0160208091040260200160405190810160405280939291908181526020018383808284378201915050505050509190505061244a565b60405180826000191660001916815260200191505060405180910390f35b34156104ea57600080fd5b61053a600480803590602001908201803590602001908080601f0160208091040260200160405190810160405280939291908181526020018383808284378201915050505050509190505061247b565b005b341561054757600080fd5b6105e760048080356000191690602001909190803590602001908201803590602001908080601f0160208091040260200160405190810160405280939291908181526020018383808284378201915050505050509190803590602001908201803590602001908080601f016020809104026020016040519081016040528093929190818152602001838380828437820191505050505050919050506127c5565b005b34156105f457600080fd5b6105fc6127ca565b005b341561060957600080fd5b6106c5600480803573ffffffffffffffffffffffffffffffffffffffff191690602001909190803590602001908201803590602001908080601f0160208091040260200160405190810160405280939291908181526020018383808284378201915050505050509190803590602001908201803590602001908080601f016020809104026020016040519081016040528093929190818152602001838380828437820191505050505050919080359060200190919050506128a9565b005b34156106d257600080fd5b6106da6129c1565b6040518080602001828103825283818151815260200191508051906020019060200280838360005b8381101561071d578082015181840152602081019050610702565b505050509050019250505060405180910390f35b341561073c57600080fd5b610756600480803560001916906020019091905050612ac5565b005b341561076357600080fd5b6107b3600480803590602001908201803590602001908080601f01602080910402602001604051908101604052809392919081815260200183838082843782019150505050505091905050612be1565b005b34156107c057600080fd5b6107c8613034565b604051808273ffffffffffffffffffffffffffffffffffffffff191673ffffffffffffffffffffffffffffffffffffffff1916815260200191505060405180910390f35b61084e60048080356000191690602001909190803573ffffffffffffffffffffffffffffffffffffffff1690602001909190803590602001909190505061305f565b005b341561085b57600080fd5b6108636131da565b604051808273ffffffffffffffffffffffffffffffffffffffff1673ffffffffffffffffffffffffffffffffffffffff16815260200191505060405180910390f35b34156108b057600080fd5b6108b8613200565b6040518080602001828103825283818151815260200191508051906020019060200280838360005b838110156108fb5780820151818401526020810190506108e0565b505050509050019250505060405180910390f35b6109296004808035600019169060200190919050506132f6565b005b610945600480803560001916906020019091905050613442565b005b341561095257600080fd5b61096c600480803560001916906020019091905050613653565b005b341561097957600080fd5b6109936004808035600019169060200190919050506139e8565b005b34156109a057600080fd5b6109f0600480803590602001908201803590602001908080601f01602080910402602001604051908101604052809392919081815260200183838082843782019150505050505091905050613c0c565b005b6109fa613c7c565b005b3415610a0757600080fd5b610a1d6004808035906020019091905050613c8e565b6040518082815260200191505060405180910390f35b3415610a3e57600080fd5b610a46613cab565b6040518080602001828103825283818151815260200191508051906020019080838360005b83811015610a86578082015181840152602081019050610a6b565b50505050905090810190601f168015610ab35780820380516001836020036101000a031916815260200191505b509250505060405180910390f35b3415610acc57600080fd5b610b1c600480803590602001908201803590602001908080601f01602080910402602001604051908101604052809392919081815260200183838082843782019150505050505091905050613cee565b604051808260000b60000b815260200191505060405180910390f35b3415610b4357600080fd5b610b6f600480803573ffffffffffffffffffffffffffffffffffffffff16906020019091905050613d92565b60405180826000191660001916815260200191505060405180910390f35b3415610b9857600080fd5b610bb2600480803560001916906020019091905050613e40565b005b3415610bbf57600080fd5b610bd9600480803560001916906020019091905050613f76565b6040518085600019166000191681526020018481526020018381526020018273ffffffffffffffffffffffffffffffffffffffff1673ffffffffffffffffffffffffffffffffffffffff16815260200194505050505060405180910390f35b610c40614040565b005b6000806000806000610c52615c39565b60008060008060008060156000600960009054906101000a9004740100000000000000000000000000000000000000000273ffffffffffffffffffffffffffffffffffffffff191673ffffffffffffffffffffffffffffffffffffffff1916815260200190815260200160002060009054906101000a900460ff161515610cd857600080fd5b601260008e600019166000191681526020019081526020016000209b508b60040160009054906101000a900460ff161515610d1257600080fd5b8b6005016000600960009054906101000a9004740100000000000000000000000000000000000000000273ffffffffffffffffffffffffffffffffffffffff191673ffffffffffffffffffffffffffffffffffffffff1916815260200190815260200160002060009054906101000a900460ff16151515610d9257600080fd5b8b6006016000600960009054906101000a9004740100000000000000000000000000000000000000000273ffffffffffffffffffffffffffffffffffffffff191673ffffffffffffffffffffffffffffffffffffffff19168152602001908152602001600020805490509a5060009950600098505b8a60030b8960ff1612156111fa578b6006016000600960009054906101000a9004740100000000000000000000000000000000000000000273ffffffffffffffffffffffffffffffffffffffff191673ffffffffffffffffffffffffffffffffffffffff191681526020019081526020016000208960ff16815481101515610e8b57fe5b906000526020600020900160009054906101000a900473ffffffffffffffffffffffffffffffffffffffff16975060106000600960009054906101000a9004740100000000000000000000000000000000000000000273ffffffffffffffffffffffffffffffffffffffff191673ffffffffffffffffffffffffffffffffffffffff1916815260200190815260200160002060008973ffffffffffffffffffffffffffffffffffffffff1673ffffffffffffffffffffffffffffffffffffffff168152602001908152602001600020600201600880602002604051908101604052809291908260088015610f98576020028201915b81546000191681526020019060010190808311610f80575b50505050509650600095505b60088660ff16101561113557600e6000600960009054906101000a9004740100000000000000000000000000000000000000000273ffffffffffffffffffffffffffffffffffffffff191673ffffffffffffffffffffffffffffffffffffffff191681526020019081526020016000206000888860ff1660088110151561102757fe5b60200201516000191660001916815260200190815260200160002060000160019054906101000a900460000b60000b8c6008016000600960009054906101000a9004740100000000000000000000000000000000000000000273ffffffffffffffffffffffffffffffffffffffff191673ffffffffffffffffffffffffffffffffffffffff1916815260200190815260200160002060008a73ffffffffffffffffffffffffffffffffffffffff1673ffffffffffffffffffffffffffffffffffffffff16815260200190815260200160002060008282829054906101000a900460010b0192506101000a81548161ffff021916908360010b61ffff1602179055508580600101965050610fa4565b8b6008016000600960009054906101000a9004740100000000000000000000000000000000000000000273ffffffffffffffffffffffffffffffffffffffff191673ffffffffffffffffffffffffffffffffffffffff1916815260200190815260200160002060008973ffffffffffffffffffffffffffffffffffffffff1673ffffffffffffffffffffffffffffffffffffffff16815260200190815260200160002060009054906101000a900460010b60010b8a0199508880600101995050610e07565b8a60030b8a81151561120857fe5b05945060009250600098505b8a60030b8960ff16121561161f578b6006016000600960009054906101000a9004740100000000000000000000000000000000000000000273ffffffffffffffffffffffffffffffffffffffff191673ffffffffffffffffffffffffffffffffffffffff191681526020019081526020016000208960ff1681548110151561129857fe5b906000526020600020900160009054906101000a900473ffffffffffffffffffffffffffffffffffffffff169750848c6008016000600960009054906101000a9004740100000000000000000000000000000000000000000273ffffffffffffffffffffffffffffffffffffffff191673ffffffffffffffffffffffffffffffffffffffff1916815260200190815260200160002060008a73ffffffffffffffffffffffffffffffffffffffff1673ffffffffffffffffffffffffffffffffffffffff16815260200190815260200160002060009054906101000a900460010b60010b1215801561143d575060008c6008016000600960009054906101000a9004740100000000000000000000000000000000000000000273ffffffffffffffffffffffffffffffffffffffff191673ffffffffffffffffffffffffffffffffffffffff1916815260200190815260200160002060008a73ffffffffffffffffffffffffffffffffffffffff1673ffffffffffffffffffffffffffffffffffffffff16815260200190815260200160002060009054906101000a900460010b60010b12155b15611612578b6008016000600960009054906101000a9004740100000000000000000000000000000000000000000273ffffffffffffffffffffffffffffffffffffffff191673ffffffffffffffffffffffffffffffffffffffff1916815260200190815260200160002060008973ffffffffffffffffffffffffffffffffffffffff1673ffffffffffffffffffffffffffffffffffffffff16815260200190815260200160002060009054906101000a900460010b8c6008016000600960009054906101000a9004740100000000000000000000000000000000000000000273ffffffffffffffffffffffffffffffffffffffff191673ffffffffffffffffffffffffffffffffffffffff1916815260200190815260200160002060008a73ffffffffffffffffffffffffffffffffffffffff1673ffffffffffffffffffffffffffffffffffffffff16815260200190815260200160002060009054906101000a900460010b0260010b91508380548060010182816115bd9190615c65565b916000526020600020900160008a909190916101000a81548173ffffffffffffffffffffffffffffffffffffffff021916908373ffffffffffffffffffffffffffffffffffffffff1602179055505081830192505b8880600101995050611214565b600098505b83805490508960ff16101561184a57838960ff1681548110151561164457fe5b906000526020600020900160009054906101000a900473ffffffffffffffffffffffffffffffffffffffff1697508b6008016000600960009054906101000a9004740100000000000000000000000000000000000000000273ffffffffffffffffffffffffffffffffffffffff191673ffffffffffffffffffffffffffffffffffffffff1916815260200190815260200160002060008973ffffffffffffffffffffffffffffffffffffffff1673ffffffffffffffffffffffffffffffffffffffff16815260200190815260200160002060009054906101000a900460010b8c6008016000600960009054906101000a9004740100000000000000000000000000000000000000000273ffffffffffffffffffffffffffffffffffffffff191673ffffffffffffffffffffffffffffffffffffffff1916815260200190815260200160002060008a73ffffffffffffffffffffffffffffffffffffffff1673ffffffffffffffffffffffffffffffffffffffff16815260200190815260200160002060009054906101000a900460010b0260010b915082828d60020154028115156117eb57fe5b049050808c60090160008a73ffffffffffffffffffffffffffffffffffffffff1673ffffffffffffffffffffffffffffffffffffffff168152602001908152602001600020600082825401925050819055508880600101995050611624565b60018c6005016000600960009054906101000a9004740100000000000000000000000000000000000000000273ffffffffffffffffffffffffffffffffffffffff191673ffffffffffffffffffffffffffffffffffffffff1916815260200190815260200160002060006101000a81548160ff02191690831515021790555050505050505050505050505050565b6119b1600c8054600181600116156101000203166002900480601f0160208091040260200160405190810160405280929190818152602001828054600181600116156101000203166002900480156119715780601f1061194657610100808354040283529160200191611971565b820191906000526020600020905b81548152906001019060200180831161195457829003601f168201915b50505050506040805190810160405280600681526020017f53636f7265730000000000000000000000000000000000000000000000000000815250611ff1565b565b600560009054906101000a900473ffffffffffffffffffffffffffffffffffffffff1673ffffffffffffffffffffffffffffffffffffffff163373ffffffffffffffffffffffffffffffffffffffff16141515611a0f57600080fd5b611a188161411b565b611a20614040565b50565b6000611a2d615c39565b611a35615c91565b60106000600960009054906101000a9004740100000000000000000000000000000000000000000273ffffffffffffffffffffffffffffffffffffffff191673ffffffffffffffffffffffffffffffffffffffff1916815260200190815260200160002060008573ffffffffffffffffffffffffffffffffffffffff1673ffffffffffffffffffffffffffffffffffffffff168152602001908152602001600020606060405190810160405290816000820160009054906101000a900460ff1615151515815260200160018201546000191660001916815260200160028201600880602002604051908101604052809291908260088015611b4f576020028201915b81546000191681526020019060010190808311611b37575b5050505050815250509050806020015181604001518090509250925050915091565b6000611b7b615cbf565b611b83615cd3565b611b8b615cd3565b6000806000806000611bd38b6040805190810160405280600181526020017f7c000000000000000000000000000000000000000000000000000000000000008152508c614135565b6040518082805190602001908083835b602083101515611c085780518252602082019150602081019050602083039250611be3565b6001836020036101000a03801982511681845116808217855250505050505090500191505060405180910390206000191660106000600960009054906101000a9004740100000000000000000000000000000000000000000273ffffffffffffffffffffffffffffffffffffffff191673ffffffffffffffffffffffffffffffffffffffff1916815260200190815260200160002060003373ffffffffffffffffffffffffffffffffffffffff1673ffffffffffffffffffffffffffffffffffffffff1681526020019081526020016000206001015460001916141515611cee57600080fd5b6008604051805910611cfd5750595b90808252806020026020018201604052509750611d198b614173565b9650611d596040805190810160405280600181526020017f3a00000000000000000000000000000000000000000000000000000000000000815250614173565b95506001611d7087896141a190919063ffffffff16565b01945060088511151515611d8357600080fd5b60009350600092505b848360ff161015611ed957611dba611db5611db0888a61421890919063ffffffff16565b614232565b61244a565b9150600090505b8260ff168160ff161015611e0d57878160ff16815181101515611de057fe5b9060200190602002015160001916826000191614151515611e0057600080fd5b8080600101915050611dc1565b81888460ff16815181101515611e1f57fe5b906020019060200201906000191690816000191681525050600e6000600960009054906101000a9004740100000000000000000000000000000000000000000273ffffffffffffffffffffffffffffffffffffffff191673ffffffffffffffffffffffffffffffffffffffff191681526020019081526020016000206000836000191660001916815260200190815260200160002060000160009054906101000a900460000b60000b840193508280600101935050611d8c565b6013548460010b13151515611eed57600080fd5b600092505b87518360ff161015611fe357878360ff16815181101515611f0f57fe5b9060200190602002015160106000600960009054906101000a9004740100000000000000000000000000000000000000000273ffffffffffffffffffffffffffffffffffffffff191673ffffffffffffffffffffffffffffffffffffffff1916815260200190815260200160002060003373ffffffffffffffffffffffffffffffffffffffff1673ffffffffffffffffffffffffffffffffffffffff1681526020019081526020016000206002018460ff16600881101515611fcd57fe5b0181600019169055508280600101935050611ef2565b505050505050505092915050565b600080600060036120366040805190810160405280600381526020017f55524c0000000000000000000000000000000000000000000000000000000000815250614290565b02660886c98b760000019250655af3107a4000915081830134101561214e577f46cb989ef9cef13e930e3b7f286225a086e716a90d63e0b7da85d310a9db0c9a6040518080602001828103825260468152602001807f4f7261636c697a65207175657279206661696c65642e2053656e64206d6f726581526020017f2045544820282e3030323545544820696e20676173202b20242e30332070657281526020017f207175657279000000000000000000000000000000000000000000000000000081525060600191505060405180910390a13373ffffffffffffffffffffffffffffffffffffffff166108fc349081150290604051600060405180830381858888f19350505050151561214957600080fd5b6122d8565b8234036006600082825401925050819055507f46cb989ef9cef13e930e3b7f286225a086e716a90d63e0b7da85d310a9db0c9a6040518080602001828103825260378152602001807f4f7261636c697a65207175657269657320776572652073656e742c207374616e81526020017f64696e6720627920666f722074686520616e737765722e00000000000000000081525060400191505060405180910390a16122a56040805190810160405280600381526020017f55524c000000000000000000000000000000000000000000000000000000000081525061229c6040805190810160405280600581526020017f6a736f6e28000000000000000000000000000000000000000000000000000000815250886040805190810160405280601281526020017f292e636f6d7072657373656453636f7265730000000000000000000000000000815250614135565b620927c0614618565b90508360086000836000191660001916815260200190815260200160002090805190602001906122d6929190615ced565b505b5050505050565b60006122e9614b68565b73ffffffffffffffffffffffffffffffffffffffff163373ffffffffffffffffffffffffffffffffffffffff1614151561232257600080fd5b60086000846000191660001916815260200190815260200160002060405180828054600181600116156101000203166002900480156123985780601f10612376576101008083540402835291820191612398565b820191906000526020600020905b815481529060010190602001808311612384575b50509150506040518091039020905060405180807f53616c61726965730000000000000000000000000000000000000000000000008152506008019050604051809103902060001916816000191614156123f6576123f58261247b565b5b60405180807f53636f72657300000000000000000000000000000000000000000000000000008152506006019050604051809103902060001916816000191614156124455761244482612be1565b5b505050565b6000612454615d6d565b82905060008151141561246d5760006001029150612475565b602083015191505b50919050565b612483615cd3565b61248b615cd3565b612493615cd3565b60008061249e615cd3565b6000806000600560009054906101000a900473ffffffffffffffffffffffffffffffffffffffff1673ffffffffffffffffffffffffffffffffffffffff163373ffffffffffffffffffffffffffffffffffffffff161415156124ff57600080fd5b600060156000600960009054906101000a9004740100000000000000000000000000000000000000000273ffffffffffffffffffffffffffffffffffffffff191673ffffffffffffffffffffffffffffffffffffffff1916815260200190815260200160002060006101000a81548160ff0219169083151502179055506125858a614173565b98506125c56040805190810160405280600181526020017f2000000000000000000000000000000000000000000000000000000000000000815250614173565b97506126056040805190810160405280600181526020017f3a00000000000000000000000000000000000000000000000000000000000000815250614173565b9650600161261c898b6141a190919063ffffffff16565b019550600094505b858560ff1610156127b957612642888a61421890919063ffffffff16565b935061266761266261265d898761421890919063ffffffff16565b614232565b61244a565b925061267a61267585614232565b614e7e565b9150600d6000600960009054906101000a9004740100000000000000000000000000000000000000000273ffffffffffffffffffffffffffffffffffffffff191673ffffffffffffffffffffffffffffffffffffffff1916815260200190815260200160002080548060010182816126f29190615d81565b916000526020600020900160008590919091509060001916905550600e6000600960009054906101000a9004740100000000000000000000000000000000000000000273ffffffffffffffffffffffffffffffffffffffff191673ffffffffffffffffffffffffffffffffffffffff19168152602001908152602001600020600084600019166000191681526020019081526020016000209050818160000160006101000a81548160ff021916908360000b60ff1602179055508480600101955050612624565b50505050505050505050565b505050565b600560009054906101000a900473ffffffffffffffffffffffffffffffffffffffff1673ffffffffffffffffffffffffffffffffffffffff163373ffffffffffffffffffffffffffffffffffffffff1614151561282657600080fd5b60006007546006540311156128a757600560009054906101000a900473ffffffffffffffffffffffffffffffffffffffff1673ffffffffffffffffffffffffffffffffffffffff166108fc600754600654039081150290604051600060405180830381858888f19350505050151561289d57600080fd5b6007546006819055505b565b600560009054906101000a900473ffffffffffffffffffffffffffffffffffffffff1673ffffffffffffffffffffffffffffffffffffffff163373ffffffffffffffffffffffffffffffffffffffff1614151561290557600080fd5b83600960006101000a8154816bffffffffffffffffffffffff0219169083740100000000000000000000000000000000000000009004021790555080600a6000600960009054906101000a9004740100000000000000000000000000000000000000000273ffffffffffffffffffffffffffffffffffffffff191673ffffffffffffffffffffffffffffffffffffffff19168152602001908152602001600020819055506129b282614e92565b6129bb8361411b565b50505050565b6129c9615cbf565b60008060008091505b601180549050821015612a69576011828154811015156129ee57fe5b906000526020600020900154905060126000826000191660001916815260200190815260200160002060040160009054906101000a900460ff1615612a5c57828054806001018281612a409190615d81565b9160005260206000209001600083909190915090600019169055505b81806001019250506129d2565b82805480602002602001604051908101604052809291908181526020018280548015612ab857602002820191906000526020600020905b81546000191681526020019060010190808311612aa0575b5050505050935050505090565b60126000826000191660001916815260200190815260200160002060040160009054906101000a900460ff16151515612afd57600080fd5b60126000826000191660001916815260200190815260200160002060000160009054906101000a900473ffffffffffffffffffffffffffffffffffffffff1673ffffffffffffffffffffffffffffffffffffffff163373ffffffffffffffffffffffffffffffffffffffff16141515612b7557600080fd5b601260008260001916600019168152602001908152602001600020600080820160006101000a81549073ffffffffffffffffffffffffffffffffffffffff0219169055600182016000905560028201600090556004820160006101000a81549060ff0219169055505050565b612be9615cd3565b612bf1615cd3565b612bf9615dad565b600080600080600060156000600960009054906101000a9004740100000000000000000000000000000000000000000273ffffffffffffffffffffffffffffffffffffffff191673ffffffffffffffffffffffffffffffffffffffff1916815260200190815260200160002060009054906101000a900460ff16151515612c7f57600080fd5b612c8889614173565b9750612cc86040805190810160405280600181526020017f2000000000000000000000000000000000000000000000000000000000000000815250614173565b96506001612cdf888a6141a190919063ffffffff16565b01604051805910612ced5750595b908082528060200260200182016040528015612d2357816020015b612d10615dc1565b815260200190600190039081612d085790505b509550600094505b85518561ffff161015612fac57612d4b878961421890919063ffffffff16565b868661ffff16815181101515612d5d57fe5b90602001906020020181905250612de5612de0612ddb612db16040805190810160405280600181526020017f3a00000000000000000000000000000000000000000000000000000000000000815250614173565b898961ffff16815181101515612dc357fe5b9060200190602002015161421890919063ffffffff16565b614232565b61244a565b93506001612e54612e2a6040805190810160405280600181526020017f2d00000000000000000000000000000000000000000000000000000000000000815250614173565b888861ffff16815181101515612e3c57fe5b906020019060200201516141a190919063ffffffff16565b019250600091505b82821015612f9f57612edf612eda612ed5612eab6040805190810160405280600181526020017f2d00000000000000000000000000000000000000000000000000000000000000815250614173565b898961ffff16815181101515612ebd57fe5b9060200190602002015161421890919063ffffffff16565b614232565b614e7e565b905080605003600e6000600960009054906101000a9004740100000000000000000000000000000000000000000273ffffffffffffffffffffffffffffffffffffffff191673ffffffffffffffffffffffffffffffffffffffff191681526020019081526020016000206000866000191660001916815260200190815260200160002060000160018282829054906101000a900460000b0192506101000a81548160ff021916908360000b60ff1602179055508180600101925050612e5c565b8480600101955050612d2b565b600160156000600960009054906101000a9004740100000000000000000000000000000000000000000273ffffffffffffffffffffffffffffffffffffffff191673ffffffffffffffffffffffffffffffffffffffff1916815260200190815260200160002060006101000a81548160ff021916908315150217905550505050505050505050565b6000600960009054906101000a90047401000000000000000000000000000000000000000002905090565b6000806012600086600019166000191681526020019081526020016000209150816007016000600960009054906101000a9004740100000000000000000000000000000000000000000273ffffffffffffffffffffffffffffffffffffffff191673ffffffffffffffffffffffffffffffffffffffff1916815260200190815260200160002060008573ffffffffffffffffffffffffffffffffffffffff1673ffffffffffffffffffffffffffffffffffffffff16815260200190815260200160002060009054906101000a900460ff1615156131d35761313f83613c8e565b9050808260010154018311151561315557600080fd5b81600101548260020160008282540192505081905550806006600082825401925050819055508082600101548403038260090160008673ffffffffffffffffffffffffffffffffffffffff1673ffffffffffffffffffffffffffffffffffffffff168152602001908152602001600020600082825401925050819055505b5050505050565b600560009054906101000a900473ffffffffffffffffffffffffffffffffffffffff1681565b613208615ddb565b600f6000600960009054906101000a9004740100000000000000000000000000000000000000000273ffffffffffffffffffffffffffffffffffffffff191673ffffffffffffffffffffffffffffffffffffffff191681526020019081526020016000208054806020026020016040519081016040528092919081815260200182805480156132ec57602002820191906000526020600020905b8160009054906101000a900473ffffffffffffffffffffffffffffffffffffffff1673ffffffffffffffffffffffffffffffffffffffff16815260200190600101908083116132a2575b5050505050905090565b6132fe615c91565b60106000600960009054906101000a9004740100000000000000000000000000000000000000000273ffffffffffffffffffffffffffffffffffffffff191673ffffffffffffffffffffffffffffffffffffffff1916815260200190815260200160002060003373ffffffffffffffffffffffffffffffffffffffff1673ffffffffffffffffffffffffffffffffffffffff168152602001908152602001600020606060405190810160405290816000820160009054906101000a900460ff1615151515815260200160018201546000191660001916815260200160028201600880602002604051908101604052809291908260088015613418576020028201915b81546000191681526020019060010190808311613400575b50505050508152505090508060000151151561343357600080fd5b61343e82333461305f565b5050565b60126000826000191660001916815260200190815260200160002060040160009054906101000a900460ff1615151561347a57600080fd5b60106000600960009054906101000a9004740100000000000000000000000000000000000000000273ffffffffffffffffffffffffffffffffffffffff191673ffffffffffffffffffffffffffffffffffffffff1916815260200190815260200160002060003373ffffffffffffffffffffffffffffffffffffffff1673ffffffffffffffffffffffffffffffffffffffff16815260200190815260200160002060000160009054906101000a900460ff16151561353757600080fd5b6011805480600101828161354b9190615d81565b9160005260206000209001600083909190915090600019169055506080604051908101604052803373ffffffffffffffffffffffffffffffffffffffff16815260200161359734613c8e565b34038152602001600081526020016001151581525060126000836000191660001916815260200190815260200160002060008201518160000160006101000a81548173ffffffffffffffffffffffffffffffffffffffff021916908373ffffffffffffffffffffffffffffffffffffffff160217905550602082015181600101556040820151816002015560608201518160040160006101000a81548160ff02191690831515021790555090505061365081333461305f565b50565b600080600060156000600960009054906101000a9004740100000000000000000000000000000000000000000273ffffffffffffffffffffffffffffffffffffffff191673ffffffffffffffffffffffffffffffffffffffff1916815260200190815260200160002060009054906101000a900460ff1615156136d557600080fd5b6012600085600019166000191681526020019081526020016000209250826005016000600960009054906101000a9004740100000000000000000000000000000000000000000273ffffffffffffffffffffffffffffffffffffffff191673ffffffffffffffffffffffffffffffffffffffff1916815260200190815260200160002060009054906101000a900460ff16151561377157600080fd5b8260040160009054906101000a900460ff16151561378e57600080fd5b600091505b826006016000600960009054906101000a9004740100000000000000000000000000000000000000000273ffffffffffffffffffffffffffffffffffffffff191673ffffffffffffffffffffffffffffffffffffffff19168152602001908152602001600020805490508210156139c557826006016000600960009054906101000a9004740100000000000000000000000000000000000000000273ffffffffffffffffffffffffffffffffffffffff191673ffffffffffffffffffffffffffffffffffffffff191681526020019081526020016000208281548110151561387757fe5b906000526020600020900160009054906101000a900473ffffffffffffffffffffffffffffffffffffffff16905060008360090160008373ffffffffffffffffffffffffffffffffffffffff1673ffffffffffffffffffffffffffffffffffffffff1681526020019081526020016000205411156139b8578073ffffffffffffffffffffffffffffffffffffffff166108fc8460090160008473ffffffffffffffffffffffffffffffffffffffff1673ffffffffffffffffffffffffffffffffffffffff168152602001908152602001600020549081150290604051600060405180830381858888f19350505050151561397057600080fd5b60008360090160003373ffffffffffffffffffffffffffffffffffffffff1673ffffffffffffffffffffffffffffffffffffffff168152602001908152602001600020819055505b8180600101925050613793565b60008360040160006101000a81548160ff02191690831515021790555050505050565b6000600a6000600960009054906101000a9004740100000000000000000000000000000000000000000273ffffffffffffffffffffffffffffffffffffffff191673ffffffffffffffffffffffffffffffffffffffff19168152602001908152602001600020544211151515613a5d57600080fd5b60106000600960009054906101000a9004740100000000000000000000000000000000000000000273ffffffffffffffffffffffffffffffffffffffff191673ffffffffffffffffffffffffffffffffffffffff1916815260200190815260200160002060003373ffffffffffffffffffffffffffffffffffffffff1673ffffffffffffffffffffffffffffffffffffffff16815260200190815260200160002090508060000160009054906101000a900460ff161515613bde57600f6000600960009054906101000a9004740100000000000000000000000000000000000000000273ffffffffffffffffffffffffffffffffffffffff191673ffffffffffffffffffffffffffffffffffffffff191681526020019081526020016000208054806001018281613b8e9190615c65565b9160005260206000209001600033909190916101000a81548173ffffffffffffffffffffffffffffffffffffffff021916908373ffffffffffffffffffffffffffffffffffffffff160217905550505b8181600101816000191690555060018160000160006101000a81548160ff0219169083151502179055505050565b600560009054906101000a900473ffffffffffffffffffffffffffffffffffffffff1673ffffffffffffffffffffffffffffffffffffffff163373ffffffffffffffffffffffffffffffffffffffff16141515613c6857600080fd5b613c7181614e92565b613c796118d8565b50565b34600660008282540192505081905550565b60006103e86014548302811515613ca157fe5b0482039050919050565b613cb3615def565b6040805190810160405280600481526020017f7465737400000000000000000000000000000000000000000000000000000000815250905090565b600080613cfa8361244a565b9050600e6000600960009054906101000a9004740100000000000000000000000000000000000000000273ffffffffffffffffffffffffffffffffffffffff191673ffffffffffffffffffffffffffffffffffffffff191681526020019081526020016000206000826000191660001916815260200190815260200160002060000160009054906101000a900460000b915050919050565b600060106000600960009054906101000a9004740100000000000000000000000000000000000000000273ffffffffffffffffffffffffffffffffffffffff191673ffffffffffffffffffffffffffffffffffffffff1916815260200190815260200160002060008373ffffffffffffffffffffffffffffffffffffffff1673ffffffffffffffffffffffffffffffffffffffff168152602001908152602001600020600101549050919050565b6000601260008360001916600019168152602001908152602001600020905060008160090160003373ffffffffffffffffffffffffffffffffffffffff1673ffffffffffffffffffffffffffffffffffffffff168152602001908152602001600020541115613f72573373ffffffffffffffffffffffffffffffffffffffff166108fc8260090160003373ffffffffffffffffffffffffffffffffffffffff1673ffffffffffffffffffffffffffffffffffffffff168152602001908152602001600020549081150290604051600060405180830381858888f193505050501515613f2a57600080fd5b60008160090160003373ffffffffffffffffffffffffffffffffffffffff1673ffffffffffffffffffffffffffffffffffffffff168152602001908152602001600020819055505b5050565b60008060008060006012600087600019166000191681526020019081526020016000209050858160010154826006016000600960009054906101000a9004740100000000000000000000000000000000000000000273ffffffffffffffffffffffffffffffffffffffff191673ffffffffffffffffffffffffffffffffffffffff19168152602001908152602001600020805490508360000160009054906101000a900473ffffffffffffffffffffffffffffffffffffffff169450945094509450509193509193565b614119600b8054600181600116156101000203166002900480601f0160208091040260200160405190810160405280929190818152602001828054600181600116156101000203166002900480156140d95780601f106140ae576101008083540402835291602001916140d9565b820191906000526020600020905b8154815290600101906020018083116140bc57829003601f168201915b50505050506040805190810160405280600881526020017f53616c6172696573000000000000000000000000000000000000000000000000815250611ff1565b565b80600b9080519060200190614131929190615ced565b5050565b61413d615def565b61416a84848460206040519081016040528060008152506020604051908101604052806000815250614eac565b90509392505050565b61417b615cd3565b600060208301905060408051908101604052808451815260200182815250915050919050565b60008082600001516141c585600001518660200151866000015187602001516152e4565b0190505b83600001518460200151018111151561421157818060010192505082600001516142098560200151830386600001510383866000015187602001516152e4565b0190506141c9565b5092915050565b614220615cd3565b61422b8383836153a0565b5092915050565b61423a615def565b614242615def565b600083600001516040518059106142565750595b9080825280601f01601f19166020018201604052509150602082019050614286818560200151866000015161543e565b8192505050919050565b6000806000809054906101000a900473ffffffffffffffffffffffffffffffffffffffff1673ffffffffffffffffffffffffffffffffffffffff161480614300575060006142fe6000809054906101000a900473ffffffffffffffffffffffffffffffffffffffff16615489565b145b156143115761430f6000615494565b505b6000809054906101000a900473ffffffffffffffffffffffffffffffffffffffff1673ffffffffffffffffffffffffffffffffffffffff166338cc48316000604051602001526040518163ffffffff167c0100000000000000000000000000000000000000000000000000000000028152600401602060405180830381600087803b151561439e57600080fd5b6102c65a03f115156143af57600080fd5b5050506040518051905073ffffffffffffffffffffffffffffffffffffffff16600160009054906101000a900473ffffffffffffffffffffffffffffffffffffffff1673ffffffffffffffffffffffffffffffffffffffff161415156144f8576000809054906101000a900473ffffffffffffffffffffffffffffffffffffffff1673ffffffffffffffffffffffffffffffffffffffff166338cc48316000604051602001526040518163ffffffff167c0100000000000000000000000000000000000000000000000000000000028152600401602060405180830381600087803b151561449c57600080fd5b6102c65a03f115156144ad57600080fd5b50505060405180519050600160006101000a81548173ffffffffffffffffffffffffffffffffffffffff021916908373ffffffffffffffffffffffffffffffffffffffff1602179055505b600160009054906101000a900473ffffffffffffffffffffffffffffffffffffffff1673ffffffffffffffffffffffffffffffffffffffff1663524f3889836000604051602001526040518263ffffffff167c01000000000000000000000000000000000000000000000000000000000281526004018080602001828103825283818151815260200191508051906020019080838360005b838110156145ab578082015181840152602081019050614590565b50505050905090810190601f1680156145d85780820380516001836020036101000a031916815260200191505b5092505050602060405180830381600087803b15156145f657600080fd5b6102c65a03f1151561460757600080fd5b505050604051805190509050919050565b60008060008060009054906101000a900473ffffffffffffffffffffffffffffffffffffffff1673ffffffffffffffffffffffffffffffffffffffff16148061468a575060006146886000809054906101000a900473ffffffffffffffffffffffffffffffffffffffff16615489565b145b1561469b576146996000615494565b505b6000809054906101000a900473ffffffffffffffffffffffffffffffffffffffff1673ffffffffffffffffffffffffffffffffffffffff166338cc48316000604051602001526040518163ffffffff167c0100000000000000000000000000000000000000000000000000000000028152600401602060405180830381600087803b151561472857600080fd5b6102c65a03f1151561473957600080fd5b5050506040518051905073ffffffffffffffffffffffffffffffffffffffff16600160009054906101000a900473ffffffffffffffffffffffffffffffffffffffff1673ffffffffffffffffffffffffffffffffffffffff16141515614882576000809054906101000a900473ffffffffffffffffffffffffffffffffffffffff1673ffffffffffffffffffffffffffffffffffffffff166338cc48316000604051602001526040518163ffffffff167c0100000000000000000000000000000000000000000000000000000000028152600401602060405180830381600087803b151561482657600080fd5b6102c65a03f1151561483757600080fd5b50505060405180519050600160006101000a81548173ffffffffffffffffffffffffffffffffffffffff021916908373ffffffffffffffffffffffffffffffffffffffff1602179055505b600160009054906101000a900473ffffffffffffffffffffffffffffffffffffffff1673ffffffffffffffffffffffffffffffffffffffff16632ef3accc86856000604051602001526040518363ffffffff167c01000000000000000000000000000000000000000000000000000000000281526004018080602001838152602001828103825284818151815260200191508051906020019080838360005b8381101561493c578082015181840152602081019050614921565b50505050905090810190601f1680156149695780820380516001836020036101000a031916815260200191505b509350505050602060405180830381600087803b151561498857600080fd5b6102c65a03f1151561499957600080fd5b505050604051805190509050823a02670de0b6b3a7640000018111156149c55760006001029150614b60565b600160009054906101000a900473ffffffffffffffffffffffffffffffffffffffff1673ffffffffffffffffffffffffffffffffffffffff1663c51be90f8260008888886000604051602001526040518663ffffffff167c0100000000000000000000000000000000000000000000000000000000028152600401808581526020018060200180602001848152602001838103835286818151815260200191508051906020019080838360005b83811015614a8d578082015181840152602081019050614a72565b50505050905090810190601f168015614aba5780820380516001836020036101000a031916815260200191505b50838103825285818151815260200191508051906020019080838360005b83811015614af3578082015181840152602081019050614ad8565b50505050905090810190601f168015614b205780820380516001836020036101000a031916815260200191505b5096505050505050506020604051808303818588803b1515614b4157600080fd5b6125ee5a03f11515614b5257600080fd5b505050506040518051905091505b509392505050565b6000806000809054906101000a900473ffffffffffffffffffffffffffffffffffffffff1673ffffffffffffffffffffffffffffffffffffffff161480614bd857506000614bd66000809054906101000a900473ffffffffffffffffffffffffffffffffffffffff16615489565b145b15614be957614be76000615494565b505b6000809054906101000a900473ffffffffffffffffffffffffffffffffffffffff1673ffffffffffffffffffffffffffffffffffffffff166338cc48316000604051602001526040518163ffffffff167c0100000000000000000000000000000000000000000000000000000000028152600401602060405180830381600087803b1515614c7657600080fd5b6102c65a03f11515614c8757600080fd5b5050506040518051905073ffffffffffffffffffffffffffffffffffffffff16600160009054906101000a900473ffffffffffffffffffffffffffffffffffffffff1673ffffffffffffffffffffffffffffffffffffffff16141515614dd0576000809054906101000a900473ffffffffffffffffffffffffffffffffffffffff1673ffffffffffffffffffffffffffffffffffffffff166338cc48316000604051602001526040518163ffffffff167c0100000000000000000000000000000000000000000000000000000000028152600401602060405180830381600087803b1515614d7457600080fd5b6102c65a03f11515614d8557600080fd5b50505060405180519050600160006101000a81548173ffffffffffffffffffffffffffffffffffffffff021916908373ffffffffffffffffffffffffffffffffffffffff1602179055505b600160009054906101000a900473ffffffffffffffffffffffffffffffffffffffff1673ffffffffffffffffffffffffffffffffffffffff1663c281d19e6000604051602001526040518163ffffffff167c0100000000000000000000000000000000000000000000000000000000028152600401602060405180830381600087803b1515614e5e57600080fd5b6102c65a03f11515614e6f57600080fd5b50505060405180519050905090565b6000614e8b826000615925565b9050919050565b80600c9080519060200190614ea8929190615ced565b5050565b614eb4615def565b614ebc615d6d565b614ec4615d6d565b614ecc615d6d565b614ed4615d6d565b614edc615d6d565b614ee4615def565b614eec615d6d565b6000808e98508d97508c96508b95508a94508451865188518a518c5101010101604051805910614f195750595b9080825280601f01601f1916602001820160405250935083925060009150600090505b8851811015614fef578881815181101515614f5357fe5b9060200101517f010000000000000000000000000000000000000000000000000000000000000090047f0100000000000000000000000000000000000000000000000000000000000000028383806001019450815181101515614fb257fe5b9060200101907effffffffffffffffffffffffffffffffffffffffffffffffffffffffffffff1916908160001a9053508080600101915050614f3c565b600090505b87518110156150a757878181518110151561500b57fe5b9060200101517f010000000000000000000000000000000000000000000000000000000000000090047f010000000000000000000000000000000000000000000000000000000000000002838380600101945081518110151561506a57fe5b9060200101907effffffffffffffffffffffffffffffffffffffffffffffffffffffffffffff1916908160001a9053508080600101915050614ff4565b600090505b865181101561515f5786818151811015156150c357fe5b9060200101517f010000000000000000000000000000000000000000000000000000000000000090047f010000000000000000000000000000000000000000000000000000000000000002838380600101945081518110151561512257fe5b9060200101907effffffffffffffffffffffffffffffffffffffffffffffffffffffffffffff1916908160001a90535080806001019150506150ac565b600090505b855181101561521757858181518110151561517b57fe5b9060200101517f010000000000000000000000000000000000000000000000000000000000000090047f01000000000000000000000000000000000000000000000000000000000000000283838060010194508151811015156151da57fe5b9060200101907effffffffffffffffffffffffffffffffffffffffffffffffffffffffffffff1916908160001a9053508080600101915050615164565b600090505b84518110156152cf57848181518110151561523357fe5b9060200101517f010000000000000000000000000000000000000000000000000000000000000090047f010000000000000000000000000000000000000000000000000000000000000002838380600101945081518110151561529257fe5b9060200101907effffffffffffffffffffffffffffffffffffffffffffffffffffffffffffff1916908160001a905350808060010191505061521c565b82995050505050505050505095945050505050565b6000806000806000888711151561538e576020871115156153455760018760200360080260020a031980875116888b038a018a96505b81838851161461533a5760018701965080600188031061531a578b8b0196505b505050839450615394565b8686209150879350600092505b8689038311151561538d57868420905080600019168260001916141561537a57839450615394565b6001840193508280600101935050615352565b5b88880194505b50505050949350505050565b6153a8615cd3565b60006153c685600001518660200151866000015187602001516152e4565b90508460200151836020018181525050846020015181038360000181815250508460000151856020015101811415615408576000856000018181525050615433565b8360000151836000015101856000018181510391508181525050836000015181018560200181815250505b829150509392505050565b60005b6020821015156154665782518452602084019350602083019250602082039150615441565b6001826020036101000a0390508019835116818551168181178652505050505050565b6000813b9050919050565b6000806154b4731d3b2638a7cc9f2cb3d298a3da7a90b67e5506ed615489565b111561555557731d3b2638a7cc9f2cb3d298a3da7a90b67e5506ed6000806101000a81548173ffffffffffffffffffffffffffffffffffffffff021916908373ffffffffffffffffffffffffffffffffffffffff16021790555061554c6040805190810160405280600b81526020017f6574685f6d61696e6e6574000000000000000000000000000000000000000000815250615c1f565b60019050615920565b600061557473c03a2615d5efaf5f49f60b7bb6583eaec212fdf1615489565b11156156155773c03a2615d5efaf5f49f60b7bb6583eaec212fdf16000806101000a81548173ffffffffffffffffffffffffffffffffffffffff021916908373ffffffffffffffffffffffffffffffffffffffff16021790555061560c6040805190810160405280600c81526020017f6574685f726f707374656e330000000000000000000000000000000000000000815250615c1f565b60019050615920565b600061563473b7a07bcf2ba2f2703b24c0691b5278999c59ac7e615489565b11156156d55773b7a07bcf2ba2f2703b24c0691b5278999c59ac7e6000806101000a81548173ffffffffffffffffffffffffffffffffffffffff021916908373ffffffffffffffffffffffffffffffffffffffff1602179055506156cc6040805190810160405280600981526020017f6574685f6b6f76616e0000000000000000000000000000000000000000000000815250615c1f565b60019050615920565b60006156f473146500cfd35b22e4a392fe0adc06de1a1368ed48615489565b11156157955773146500cfd35b22e4a392fe0adc06de1a1368ed486000806101000a81548173ffffffffffffffffffffffffffffffffffffffff021916908373ffffffffffffffffffffffffffffffffffffffff16021790555061578c6040805190810160405280600b81526020017f6574685f72696e6b656279000000000000000000000000000000000000000000815250615c1f565b60019050615920565b60006157b4736f485c8bf6fc43ea212e93bbf8ce046c7f1cb475615489565b111561581757736f485c8bf6fc43ea212e93bbf8ce046c7f1cb4756000806101000a81548173ffffffffffffffffffffffffffffffffffffffff021916908373ffffffffffffffffffffffffffffffffffffffff16021790555060019050615920565b60006158367320e12a1f859b3feae5fb2a0a32c18f5a65555bbf615489565b1115615899577320e12a1f859b3feae5fb2a0a32c18f5a65555bbf6000806101000a81548173ffffffffffffffffffffffffffffffffffffffff021916908373ffffffffffffffffffffffffffffffffffffffff16021790555060019050615920565b60006158b87351efaf4c8b3c9afbd5ab9f4bbc82784ab6ef8faa615489565b111561591b577351efaf4c8b3c9afbd5ab9f4bbc82784ab6ef8faa6000806101000a81548173ffffffffffffffffffffffffffffffffffffffff021916908373ffffffffffffffffffffffffffffffffffffffff16021790555060019050615920565b600090505b919050565b600061592f615d6d565b60008060008693506000925060009150600090505b8351811015615c005760307f010000000000000000000000000000000000000000000000000000000000000002848281518110151561597f57fe5b9060200101517f010000000000000000000000000000000000000000000000000000000000000090047f0100000000000000000000000000000000000000000000000000000000000000027effffffffffffffffffffffffffffffffffffffffffffffffffffffffffffff191610158015615a97575060397f0100000000000000000000000000000000000000000000000000000000000000028482815181101515615a2757fe5b9060200101517f010000000000000000000000000000000000000000000000000000000000000090047f0100000000000000000000000000000000000000000000000000000000000000027effffffffffffffffffffffffffffffffffffffffffffffffffffffffffffff191611155b15615b48578115615aba576000861415615ab057615c00565b8580600190039650505b600a8302925060308482815181101515615ad057fe5b9060200101517f010000000000000000000000000000000000000000000000000000000000000090047f0100000000000000000000000000000000000000000000000000000000000000027f010000000000000000000000000000000000000000000000000000000000000090040383019250615bf3565b602e7f0100000000000000000000000000000000000000000000000000000000000000028482815181101515615b7a57fe5b9060200101517f010000000000000000000000000000000000000000000000000000000000000090047f0100000000000000000000000000000000000000000000000000000000000000027effffffffffffffffffffffffffffffffffffffffffffffffffffffffffffff19161415615bf257600191505b5b8080600101915050615944565b6000861115615c125785600a0a830292505b8294505050505092915050565b8060029080519060200190615c35929190615ced565b5050565b610100604051908101604052806008905b6000801916815260200190600190039081615c4a5790505090565b815481835581811511615c8c57818360005260206000209182019101615c8b9190615e03565b5b505050565b6101406040519081016040528060001515815260200160008019168152602001615cb9615e28565b81525090565b602060405190810160405280600081525090565b604080519081016040528060008152602001600081525090565b828054600181600116156101000203166002900490600052602060002090601f016020900481019282601f10615d2e57805160ff1916838001178555615d5c565b82800160010185558215615d5c579182015b82811115615d5b578251825591602001919060010190615d40565b5b509050615d699190615e03565b5090565b602060405190810160405280600081525090565b815481835581811511615da857818360005260206000209182019101615da79190615e54565b5b505050565b602060405190810160405280600081525090565b604080519081016040528060008152602001600081525090565b602060405190810160405280600081525090565b602060405190810160405280600081525090565b615e2591905b80821115615e21576000816000905550600101615e09565b5090565b90565b610100604051908101604052806008905b6000801916815260200190600190039081615e395790505090565b615e7691905b80821115615e72576000816000905550600101615e5a565b5090565b905600a165627a7a72305820436f6f3b7a2a3fcb1ad4004eb5f8ed6952e71741ae3f9531d4ec965ddd8e34b10029",
  "source": "pragma solidity 0.4.18;\n\nimport \"./lib/oraclize/oraclizeAPI_0.4.sol\";\nimport \"./lib/arachnid/solidity-stringutils/strings.sol\";\n\ncontract PgaDfs is usingOraclize {\n\n  using strings for *;\n\n  struct SlateGolfer {\n    // not storing name,\n    // since we're trying to be minimal with data storage\n    // on ethereum's bloated ass blockchain.\n\n    // increments in 1\n    // salaries are roughly DK salaries / $500\n    // and can be negative!\n    int8 salary;\n\n    // fantasy points at end of tournament\n    int8 points;\n  }\n\n\n  struct Lineup {\n    bool submittedHash;  // true when saved\n    // keccak hash of lineup before revealing\n    // e.g. keccak256(\"21059:94320:85933\")\n    bytes32 golferIdsHash;\n    // MAX of 8 pga tour ids...\n    // you can play less than 8 guys if you want!\n    // e.g. [web3.fromAscii(\"21059\"), web3.fromAscii(\"94320\"), web3.fromAscii(\"85933\")]\n    bytes32[8] golferIds;\n  }\n\n  struct Contest {\n    address owner; // creator of contest\n\n    uint entryFee; // TODO(christian): what units? wei?\n    uint prizePool; // TODO: delete\n    // all money in contest balance, payable to winners\n    mapping (bytes12 => uint) slateIdToPrizePool;\n\n    // yay or nay, is this an active contest\n    // must be not live to delete contest\n    bool live;\n\n    // have we calculated the address balances after contest is over?\n    mapping (bytes12 => bool) slateIdToPayoutsSet;\n\n    // map ETH address --> lineup in contest\n    mapping (bytes12 => address[]) slateIdToEntries;\n\n    mapping (bytes12 => mapping(address => bool)) slateIdToEntered;\n    mapping (bytes12 => mapping(address => int16)) slateIdToAddressScores;\n\n    // ETH address --> how much they recouped\n    // once we confirmed the event ends, then payout!\n    mapping(address => uint) balances;\n  }\n\n\n  event newOraclizeQuery(string description);\n\n  // this is the initializer of the contract\n  // who gets special privaledges:\n  // (1) if oraclize fucks up, you set scores manually\n  // (2) you can spend the extraEther in the contract\n  address public contractAdmin;\n  uint private extraEther;\n  uint private minBal;\n\n  // status (bool): is this oraclize query complete or not?\n  mapping(bytes32 => string) queryIdToCallbackAction;\n\n  // this is the CONSTRUCTOR!\n  // we must initialize the lubrication amount\n  // with the miniumum balance, which can never be recovered\n  function PgaDfs() public payable {\n    require(msg.value >= minBal);\n    // in the constructor (this function), msg.sender is\n    // the owner of the contract\n    contractAdmin = msg.sender;\n    extraEther = msg.value;\n\n    // OAR for ethereum-bridge\n    /* OAR = OraclizeAddrResolverI(0x6f485C8BF6fc43eA212E93BBF8ce046C7f1cb475); */\n    // TODO: tinker with this gas value\n    /* oraclize_setCustomGasPrice(1000000000 wei); */\n\n    // execute a dummy transcaction to make fee estimation\n    // work by burning the free transaction\n    /* oraclize_query(\"URL\", \"json(http://api.fixer.io/latest?symbols=USD,GBP).rates.GBP\"); */\n  }\n\n\n  // N.B. FROM CRYPTO RIC:\n  // if we want to fund money into the \"lubrication account\"\n  // this will allow the contract to function if the price\n  // of ether falls dramatically between querires\n  // and, as a result, because the query fee is charged in USD,\n  // the fee for subsequent queries goes up\n  // this should average out over time,\n  // we charge a small fee to make sure it more likely going up\n  // this fee, over the course of 400 wagers,\n  // should offset the irrecovable minimum balance\n  function deposit() payable external {\n    extraEther += msg.value;\n  }\n\n  // CRYPTO RIC:\n  // if we want to withdraw money from the lubrication account\n  // we can only draw from the extraEther gained,\n  // so as to protect and wall off funds from active wagers\n  // we must leave a minBal of .1 ether to serve as lubrication\n  // this protects people with wagers from us withdrawing\n  // all the lubrication while they have bets in, which\n  // would make them have the potential to fail\n  function withdraw() external {\n    require(msg.sender == contractAdmin);\n\n    if (extraEther - minBal > 0) {\n      contractAdmin.transfer(extraEther - minBal);\n      extraEther = minBal;\n    }\n  }\n\n  // active slate id to key slate/lineup mappings\n  bytes12 slateId;\n  mapping (bytes12 => uint) slateIdToLockTimestamp;\n\n  // format: \"{pgaId}:{salary}\"\n  // example: \"34360:1522955700:15 32102:1522963620:-2\" <-- salaries can be negative!\n  string compressedSalariesUrl = \"\"; // e.g. \"https://s3.amazonaws.com/ethdfs/pga/compressedSalaries/2018/471.json\";\n\n  // format: \"{pgaId}:{rd1}-{rd2}-{rd3}-{rd4}\"\n  // example: \"34360:69-66-67-71 32102:70-72-65-67\"\n  string compressedScoresUrl = \"\"; // e.g. \"https://s3.amazonaws.com/ethdfs/pga/compressedScores/2018/471.json\";\n\n\n  // slate id ==> golfer ids\n  mapping (bytes12 => bytes32[]) slateIdToGolferIds;\n  // slate id ==> pga tour id ==> golfer data (salary, scores, etc.)\n  mapping (bytes12 => mapping(bytes32 => SlateGolfer)) slateIdToSlateGolfers;\n  mapping (bytes12 => address[]) slateIdToEnteredAddresses;\n  mapping (bytes12 => mapping (address => Lineup)) slateIdToLineups;\n\n  // contest data\n  bytes32[] contestIds;\n  mapping(bytes32 => Contest) contests;\n\n  // salary cap is 100\n  // salaries are integers and CAN BE NEGATIVE\n  // think mike weir\n  int salaryCap = 100;\n\n  // rake is 2.0% or 20/1000\n  uint rakeTimesOneThousand = 20;\n\n  // is scoring complete for the current slate\n  mapping (bytes12 => bool) slateIdToCompleteScoring;\n\n  function setLineupHash(bytes32 lineupHash) public {\n    // can't change lineup hash after lock\n    require(block.timestamp <= slateIdToLockTimestamp[slateId]);\n    Lineup storage theLineup = slateIdToLineups[slateId][msg.sender];\n    if (!theLineup.submittedHash) {\n        // don't push duped addresses if they already have a lineup\n        slateIdToEnteredAddresses[slateId].push(msg.sender);\n    }\n    theLineup.golferIdsHash = lineupHash;\n    theLineup.submittedHash = true;\n  }\n\n  // returns: Lineup.golferIdsHash\n  function getLineupHash(address entrantAddress) public view returns (bytes32) {\n    return slateIdToLineups[slateId][entrantAddress].golferIdsHash;\n  }\n\n  function getEnteredAddressesForCurrentSlate() public view returns (address[]) {\n      return slateIdToEnteredAddresses[slateId];\n  }\n\n  function getCurrentSlateLineupForAddress(address address_) public view returns (bytes32, bytes32[8]) {\n      Lineup memory theLineup = slateIdToLineups[slateId][address_];\n      return (theLineup.golferIdsHash, theLineup.golferIds);\n  }\n\n  function getSlateId() public view returns (bytes12) {\n    return slateId;\n  }\n\n  function getSalary(string pgaId) public view returns (int8) {\n    bytes32 pgaIdBytes32 = toBytes32(pgaId);\n    return slateIdToSlateGolfers[slateId][pgaIdBytes32].salary;\n  }\n\n  // lineups must:\n  // have 8 or less players\n  // total salary must be <= salary cap\n  // can only play the same guy once\n  function revealLineup(string golferIdsColonDelimited, string revealKey) public returns (int16) {\n    require(slateIdToLineups[slateId][msg.sender].golferIdsHash == keccak256(strConcat(golferIdsColonDelimited, \"|\", revealKey)));\n\n    var golferIds = new bytes32[](8);\n\n    var golferIdsSlice = golferIdsColonDelimited.toSlice();\n    var delimiter = \":\".toSlice();\n    uint256 golferCount = golferIdsSlice.count(delimiter) + 1;\n\n    // must have 8 or less players\n    require(golferCount <= 8);\n\n    // and salary must be under cap\n    int16 totalSalary = 0;\n\n    for (uint8 ii = 0; ii < golferCount; ii++) {\n      // string  --> left padded bytes32\n      // \"29725\" --> \"0x3239373235000000000000000000000000000000000000000000000000000000\"\n      // replicate this with web3.fromAscii('29725')\n      bytes32 golferId = toBytes32(golferIdsSlice.split(delimiter).toString());\n\n      for (uint8 jj = 0; jj < ii; jj++) {\n        require(golferId != golferIds[jj]);\n      }\n      golferIds[ii] = golferId;\n      totalSalary += slateIdToSlateGolfers[slateId][golferId].salary;\n    }\n\n    require(totalSalary <= salaryCap);\n\n    for (ii = 0; ii < golferIds.length; ii++) {\n      slateIdToLineups[slateId][msg.sender].golferIds[ii] = golferIds[ii];\n    }\n  }\n\n  function calculateRake(uint eth) public view returns (uint) {\n    return eth - (eth * rakeTimesOneThousand) / 1000;\n  }\n\n  function createContest(bytes32 contestId) public payable {\n    // contest id cannot be taken already\n    require(!contests[contestId].live);\n    // contest owner must first have lineup hash on chain\n    require(slateIdToLineups[slateId][msg.sender].submittedHash);\n\n    contestIds.push(contestId);\n    contests[contestId] = Contest({\n      owner : msg.sender,\n      // entry fee is AUTOMATICALLY calculated by how much the owner deposits\n      entryFee : msg.value - calculateRake(msg.value),\n      prizePool: 0, // updated in payEntryFeeToContest below\n      live : true\n    });\n    payEntryFeeToContest(contestId, msg.sender, msg.value);\n  }\n\n  function enterContest(bytes32 contestId) public payable {\n    // to enter contest, user must have lineup hash on chain\n    Lineup memory entrantLineup = slateIdToLineups[slateId][msg.sender];\n    require(entrantLineup.submittedHash);\n    payEntryFeeToContest(contestId, msg.sender, msg.value);\n  }\n\n  function payEntryFeeToContest(bytes32 contestId, address msgSender, uint ethEntered) public payable {\n\n    Contest storage activeContest = contests[contestId];\n    if (!activeContest.slateIdToEntered[slateId][msgSender]) {\n      // if they not are already in the contest, pay rake and enter\n      uint rakeToCollect = calculateRake(ethEntered);\n\n      require(ethEntered > activeContest.entryFee + rakeToCollect);\n\n      activeContest.prizePool += activeContest.entryFee;\n      extraEther += rakeToCollect;\n      // if someone sends us extra money,\n      // it goes their balance for the contest\n      // and by default they can get paid out at the end\n      // otherwise they can withdraw\n      activeContest.balances[msgSender] += ethEntered - activeContest.entryFee - rakeToCollect;\n    }\n  }\n\n  // convert a string to bytes32 type using assembly\n  function toBytes32(string memory source) returns (bytes32 result) {\n    bytes memory tempEmptyStringTest = bytes(source);\n    if (tempEmptyStringTest.length == 0) {\n        return 0x0;\n    }\n\n    assembly {\n        result := mload(add(source, 32))\n    }\n}\n\n\n  function setSalaries(string compressedSalaries) public {\n      require(msg.sender == contractAdmin);\n      // TODO: make internal / only contractAdmin\n      slateIdToCompleteScoring[slateId] = false;\n\n      var compressedSalariesSlice = compressedSalaries.toSlice();\n      var playerDelimiter = \" \".toSlice();\n      var salaryDelimiter = \":\".toSlice();\n      uint playerCount = compressedSalariesSlice.count(playerDelimiter) + 1;\n\n      for (uint8 ii = 0; ii < playerCount; ii++) {\n          var playerColonSalary = compressedSalariesSlice.split(playerDelimiter);\n\n          bytes32 pgaPlayerId = toBytes32(playerColonSalary.split(salaryDelimiter).toString());\n\n          int8 salary = int8(parseInt(playerColonSalary.toString()));\n\n          slateIdToGolferIds[slateId].push(pgaPlayerId);\n          SlateGolfer storage slateGolfer = slateIdToSlateGolfers[slateId][pgaPlayerId];\n          slateGolfer.salary = salary;\n      }\n  }\n\n  function setScores(string compressedScores) public {\n    // TODO: make internal / only contractAdmin\n    // TODO: really make sure this works\n    // TODO: difference between var and normal types?\n    require(!slateIdToCompleteScoring[slateId]);\n\n    var compressedScoresSlice = compressedScores.toSlice();\n    var playerDelimiter = \" \".toSlice();\n    var playerScoreSlices = new strings.slice[](compressedScoresSlice.count(playerDelimiter) + 1);\n\n    for (uint16 i = 0; i < playerScoreSlices.length; i++) {\n      playerScoreSlices[i] = compressedScoresSlice.split(playerDelimiter);\n      bytes32 pgaPlayerId = toBytes32(playerScoreSlices[i].split(\":\".toSlice()).toString());\n      uint roundSlices = playerScoreSlices[i].count(\"-\".toSlice()) + 1;\n      for (uint rd = 0; rd < roundSlices; rd++) {\n        int8 rdScore = int8(parseInt(playerScoreSlices[i].split(\"-\".toSlice()).toString()));\n        slateIdToSlateGolfers[slateId][pgaPlayerId].points += int8(80) - rdScore;\n      }\n    }\n    slateIdToCompleteScoring[slateId] = true;\n  }\n\n  function setSingleContestPayouts(bytes32 contestId) public {\n    // everyone who scores > max(0, the contest average) gets paid\n    // you are paid proportional to your squared score\n    require(slateIdToCompleteScoring[slateId]);\n\n    Contest storage contest = contests[contestId];\n    require(contest.live);\n    require(!contest.slateIdToPayoutsSet[slateId]);\n\n    int32 totalEntries = int32(contest.slateIdToEntries[slateId].length);\n    int totalPoints = 0;\n\n    // calculate the average score in the contest\n    for (uint8 ii = 0; ii < totalEntries; ii++) {\n      address entry = contest.slateIdToEntries[slateId][ii];\n      bytes32[8] memory entryPgaIds = slateIdToLineups[slateId][entry].golferIds;\n      for (uint8 g = 0; g < entryPgaIds.length; g++) {\n        contest.slateIdToAddressScores[slateId][entry] += slateIdToSlateGolfers[slateId][entryPgaIds[g]].points;\n      }\n      totalPoints += contest.slateIdToAddressScores[slateId][entry];\n    }\n\n    // of the top half (except any of those that scored < 0),\n    // sum up the squared scores\n    int averagePointsRoundedDown = totalPoints / totalEntries;\n    // ugh... only using storage since memory isnt dynamic\n    address[] storage winningEntries;\n    uint summedSquaredWinningScores = 0;\n\n    for (ii = 0; ii < totalEntries; ii++) {\n      entry = contest.slateIdToEntries[slateId][ii];\n      if (contest.slateIdToAddressScores[slateId][entry] >= averagePointsRoundedDown && contest.slateIdToAddressScores[slateId][entry] >= 0) {\n        uint squaredScore = uint(contest.slateIdToAddressScores[slateId][entry] * contest.slateIdToAddressScores[slateId][entry]);\n        winningEntries.push(entry);\n        summedSquaredWinningScores += squaredScore;\n      }\n    }\n\n    // then pay out people proportional to squared points\n    for (ii = 0; ii < winningEntries.length; ii++) {\n      entry = winningEntries[ii];\n      // TODO: make sure there's no rounding error B.S. going on\n      // that makes us massively over or under pay people\n      squaredScore = uint(contest.slateIdToAddressScores[slateId][entry] * contest.slateIdToAddressScores[slateId][entry]);\n      uint toPayout = (contest.prizePool * squaredScore) / summedSquaredWinningScores;\n      contest.balances[entry] += toPayout;\n    }\n\n    contest.slateIdToPayoutsSet[slateId] = true;\n  }\n\n  function withdrawBalanceFromContest(bytes32 contestId) public {\n    Contest storage contest = contests[contestId];\n    if (contest.balances[msg.sender] > 0) {\n      msg.sender.transfer(contest.balances[msg.sender]);\n      contest.balances[msg.sender] = 0;\n    }\n  }\n\n  function payOutContest(bytes32 contestId) public {\n    require(slateIdToCompleteScoring[slateId]);\n\n    Contest storage contest = contests[contestId];\n    require(contest.slateIdToPayoutsSet[slateId]);\n    require(contest.live);\n\n    for (uint ii = 0; ii < contest.slateIdToEntries[slateId].length; ii++) {\n      address entry = contest.slateIdToEntries[slateId][ii];\n      if (contest.balances[entry] > 0) {\n        entry.transfer(contest.balances[entry]);\n        contest.balances[msg.sender] = 0;\n      }\n    }\n    contest.live = false;\n  }\n\n  function _setCompressedScoresUrl(string _compressedScoresUrl) internal {\n    compressedScoresUrl = _compressedScoresUrl;\n  }\n\n  function _setCompressedSalariesUrl(string _compressedSalariesUrl) internal {\n    compressedSalariesUrl = _compressedSalariesUrl;\n  }\n\n  function getSalariesOnChain() public payable {\n    innerOraclizeQuery(compressedSalariesUrl, \"Salaries\");\n  }\n\n  function getScoresOnChain() public payable {\n    innerOraclizeQuery(compressedScoresUrl, \"Scores\");\n  }\n\n  function setScoresUrlAndGetResultsOnChain(string compressedScoresUrl_) public {\n      require(msg.sender == contractAdmin);\n      _setCompressedScoresUrl(compressedScoresUrl_);\n      getScoresOnChain();\n  }\n\n  function setSalariesUrlAndGetSalariesOnChain(string compressedSalariesUrl_) public {\n      require(msg.sender == contractAdmin);\n      _setCompressedSalariesUrl(compressedSalariesUrl_);\n      getSalariesOnChain();\n  }\n\n  function setNewSlateInfo(\n    bytes12 _newSlateId,\n    string _compressedSalariesUrl,\n    string _compressedScoresUrl,\n    uint lockTimestamp\n  ) public {\n    require(msg.sender == contractAdmin);\n    slateId = _newSlateId;\n    slateIdToLockTimestamp[slateId] = lockTimestamp;\n    _setCompressedScoresUrl(_compressedScoresUrl);\n    _setCompressedSalariesUrl(_compressedSalariesUrl);\n  }\n\n  // ========================= ORACLIZE functions =========================\n\n\n  function innerOraclizeQuery(string queryUrl, string callbackAction) public payable {\n    // TODO: make these views\n    uint cost = 2400000000000000 + (oraclize_getPrice(\"URL\") * 3);\n    uint fee = 100000000000000;\n\n    if (msg.value < cost + fee) {\n      newOraclizeQuery(\"Oraclize query failed. Send more ETH (.0025ETH in gas + $.03 per query\");\n      msg.sender.transfer(msg.value);\n    } else {\n      extraEther += msg.value - cost;\n      newOraclizeQuery(\"Oraclize queries were sent, standing by for the answer.\");\n      bytes32 queryId = oraclize_query(\n        \"URL\",\n        strConcat(\"json(\", queryUrl, \").compressedScores\"),\n        600000\n      );\n      queryIdToCallbackAction[queryId] = callbackAction;\n    }\n  }\n\n  // switch function for callbacks\n  function __callback(bytes32 myid, string result) public {\n    require(msg.sender == oraclize_cbAddress());\n    // can't compare string storage pointers and string literals,\n    // so instead let's compare their keccak256 hashes!\n    bytes32 actionHash = keccak256(queryIdToCallbackAction[myid]);\n    if (actionHash == keccak256(\"Salaries\")) {\n      setSalaries(result);\n    }\n    if (actionHash == keccak256(\"Scores\")) {\n      setScores(result);\n    }\n  }\n\n  // CRYPTO RIC:\n  // should anyone wish to be a good blockchain citizen\n  // and delete a wager that is no longer live\n  function deleteContest(bytes32 contestId) external {\n    require(!contests[contestId].live);\n    // can't delete someone else's contest\n    require(msg.sender == contests[contestId].owner);\n    delete contests[contestId];\n  }\n\n  function getLiveContestIds() public view returns (bytes32[]) {\n    bytes32[] storage liveContestIds;  // why must use storage?\n    for (uint ii = 0; ii < contestIds.length; ii++) {\n      bytes32 contestId = contestIds[ii];\n      if (contests[contestId].live) {\n        liveContestIds.push(contestId);\n      }\n    }\n    return liveContestIds;\n  }\n\n  function getContestById(bytes32 contestId) public view returns (\n      bytes32,\n      uint,\n      uint,\n      address\n    ) {\n      Contest storage contest = contests[contestId];\n      return (\n          contestId,\n          contest.entryFee,\n          contest.slateIdToEntries[slateId].length,\n          contest.owner\n        );\n    }\n\n  function testFunction() public view returns (string) {\n    return 'test';\n  }\n}\n",
  "sourcePath": "/Users/christian/workspace/ddfs/contracts/PgaDfs.sol",
  "compiler": {
    "name": "solc",
    "version": "0.4.18+commit.9cf6e910.Emscripten.clang"
  },
  "schemaVersion": "2.0.0",
  "updatedAt": "2018-08-11T03:37:23.568Z"
}