{
  "contractName": "PgaDfs",
  "abi": [
    {
      "constant": true,
      "inputs": [],
      "name": "contractAdmin",
      "outputs": [
        {
          "name": "",
          "type": "address"
        }
      ],
      "payable": false,
      "stateMutability": "view",
      "type": "function"
    },
    {
      "inputs": [],
      "payable": true,
      "stateMutability": "payable",
      "type": "constructor"
    },
    {
      "anonymous": false,
      "inputs": [
        {
          "indexed": false,
          "name": "description",
          "type": "string"
        }
      ],
      "name": "newOraclizeQuery",
      "type": "event"
    },
    {
      "constant": false,
      "inputs": [],
      "name": "deposit",
      "outputs": [],
      "payable": true,
      "stateMutability": "payable",
      "type": "function"
    },
    {
      "constant": false,
      "inputs": [],
      "name": "withdraw",
      "outputs": [],
      "payable": false,
      "stateMutability": "nonpayable",
      "type": "function"
    },
    {
      "constant": false,
      "inputs": [
        {
          "name": "lineupHash",
          "type": "bytes32"
        }
      ],
      "name": "setLineupHash",
      "outputs": [],
      "payable": false,
      "stateMutability": "nonpayable",
      "type": "function"
    },
    {
      "constant": true,
      "inputs": [
        {
          "name": "entrantAddress",
          "type": "address"
        }
      ],
      "name": "getLineupHash",
      "outputs": [
        {
          "name": "",
          "type": "bytes32"
        }
      ],
      "payable": false,
      "stateMutability": "view",
      "type": "function"
    },
    {
      "constant": true,
      "inputs": [],
      "name": "getEnteredAddressesForCurrentSlate",
      "outputs": [
        {
          "name": "",
          "type": "address[]"
        }
      ],
      "payable": false,
      "stateMutability": "view",
      "type": "function"
    },
    {
      "constant": true,
      "inputs": [
        {
          "name": "address_",
          "type": "address"
        }
      ],
      "name": "getCurrentSlateLineupForAddress",
      "outputs": [
        {
          "name": "",
          "type": "bytes32"
        },
        {
          "name": "",
          "type": "uint16[8]"
        },
        {
          "name": "",
          "type": "int16"
        }
      ],
      "payable": false,
      "stateMutability": "view",
      "type": "function"
    },
    {
      "constant": true,
      "inputs": [],
      "name": "getSlateId",
      "outputs": [
        {
          "name": "",
          "type": "bytes12"
        }
      ],
      "payable": false,
      "stateMutability": "view",
      "type": "function"
    },
    {
      "constant": true,
      "inputs": [
        {
          "name": "pgaId",
          "type": "uint16"
        }
      ],
      "name": "getSalary",
      "outputs": [
        {
          "name": "",
          "type": "int8"
        }
      ],
      "payable": false,
      "stateMutability": "view",
      "type": "function"
    },
    {
      "constant": true,
      "inputs": [
        {
          "name": "pgaId",
          "type": "uint16"
        }
      ],
      "name": "getPoints",
      "outputs": [
        {
          "name": "",
          "type": "int8"
        }
      ],
      "payable": false,
      "stateMutability": "view",
      "type": "function"
    },
    {
      "constant": false,
      "inputs": [
        {
          "name": "golferIdsColonDelimited",
          "type": "string"
        },
        {
          "name": "revealKey",
          "type": "string"
        }
      ],
      "name": "revealLineup",
      "outputs": [
        {
          "name": "",
          "type": "int16"
        }
      ],
      "payable": false,
      "stateMutability": "nonpayable",
      "type": "function"
    },
    {
      "constant": true,
      "inputs": [
        {
          "name": "wei_",
          "type": "uint256"
        }
      ],
      "name": "calculateRake",
      "outputs": [
        {
          "name": "",
          "type": "uint256"
        }
      ],
      "payable": false,
      "stateMutability": "view",
      "type": "function"
    },
    {
      "constant": false,
      "inputs": [
        {
          "name": "contestId",
          "type": "bytes32"
        }
      ],
      "name": "createContest",
      "outputs": [],
      "payable": true,
      "stateMutability": "payable",
      "type": "function"
    },
    {
      "constant": false,
      "inputs": [
        {
          "name": "contestId",
          "type": "bytes32"
        }
      ],
      "name": "enterContest",
      "outputs": [],
      "payable": true,
      "stateMutability": "payable",
      "type": "function"
    },
    {
      "constant": false,
      "inputs": [
        {
          "name": "contestId",
          "type": "bytes32"
        },
        {
          "name": "msgSender",
          "type": "address"
        },
        {
          "name": "ethEntered",
          "type": "uint256"
        }
      ],
      "name": "payEntryFeeToContest",
      "outputs": [],
      "payable": true,
      "stateMutability": "payable",
      "type": "function"
    },
    {
      "constant": false,
      "inputs": [
        {
          "name": "compressedSalaries",
          "type": "string"
        }
      ],
      "name": "setSalaries",
      "outputs": [],
      "payable": false,
      "stateMutability": "nonpayable",
      "type": "function"
    },
    {
      "constant": false,
      "inputs": [
        {
          "name": "compressedScores",
          "type": "string"
        }
      ],
      "name": "setScores",
      "outputs": [],
      "payable": false,
      "stateMutability": "nonpayable",
      "type": "function"
    },
    {
      "constant": false,
      "inputs": [
        {
          "name": "slateId_",
          "type": "bytes12"
        }
      ],
      "name": "scoreEnteredAddresses",
      "outputs": [],
      "payable": false,
      "stateMutability": "nonpayable",
      "type": "function"
    },
    {
      "constant": false,
      "inputs": [
        {
          "name": "contestId",
          "type": "bytes32"
        }
      ],
      "name": "setSingleContestPayouts",
      "outputs": [],
      "payable": false,
      "stateMutability": "nonpayable",
      "type": "function"
    },
    {
      "constant": false,
      "inputs": [
        {
          "name": "contestId",
          "type": "bytes32"
        }
      ],
      "name": "withdrawBalanceFromContest",
      "outputs": [],
      "payable": false,
      "stateMutability": "nonpayable",
      "type": "function"
    },
    {
      "constant": false,
      "inputs": [
        {
          "name": "contestId",
          "type": "bytes32"
        }
      ],
      "name": "payOutContest",
      "outputs": [],
      "payable": false,
      "stateMutability": "nonpayable",
      "type": "function"
    },
    {
      "constant": false,
      "inputs": [],
      "name": "getSalariesOnChain",
      "outputs": [],
      "payable": true,
      "stateMutability": "payable",
      "type": "function"
    },
    {
      "constant": false,
      "inputs": [],
      "name": "getScoresOnChain",
      "outputs": [],
      "payable": true,
      "stateMutability": "payable",
      "type": "function"
    },
    {
      "constant": false,
      "inputs": [
        {
          "name": "compressedScoresUrl_",
          "type": "string"
        }
      ],
      "name": "setScoresUrlAndGetResultsOnChain",
      "outputs": [],
      "payable": false,
      "stateMutability": "nonpayable",
      "type": "function"
    },
    {
      "constant": false,
      "inputs": [
        {
          "name": "compressedSalariesUrl_",
          "type": "string"
        }
      ],
      "name": "setSalariesUrlAndGetSalariesOnChain",
      "outputs": [],
      "payable": false,
      "stateMutability": "nonpayable",
      "type": "function"
    },
    {
      "constant": false,
      "inputs": [
        {
          "name": "_newSlateId",
          "type": "bytes12"
        },
        {
          "name": "_compressedSalariesUrl",
          "type": "string"
        },
        {
          "name": "_compressedScoresUrl",
          "type": "string"
        },
        {
          "name": "lockTimestamp",
          "type": "uint256"
        }
      ],
      "name": "setNewSlateInfo",
      "outputs": [],
      "payable": false,
      "stateMutability": "nonpayable",
      "type": "function"
    },
    {
      "constant": false,
      "inputs": [
        {
          "name": "queryUrl",
          "type": "string"
        },
        {
          "name": "callbackAction",
          "type": "string"
        }
      ],
      "name": "innerOraclizeQuery",
      "outputs": [],
      "payable": true,
      "stateMutability": "payable",
      "type": "function"
    },
    {
      "constant": false,
      "inputs": [
        {
          "name": "myid",
          "type": "bytes32"
        },
        {
          "name": "result",
          "type": "string"
        }
      ],
      "name": "__callback",
      "outputs": [],
      "payable": false,
      "stateMutability": "nonpayable",
      "type": "function"
    },
    {
      "constant": false,
      "inputs": [
        {
          "name": "myid",
          "type": "bytes32"
        },
        {
          "name": "result",
          "type": "string"
        },
        {
          "name": "proof",
          "type": "bytes"
        }
      ],
      "name": "__callback",
      "outputs": [],
      "payable": false,
      "stateMutability": "nonpayable",
      "type": "function"
    },
    {
      "constant": false,
      "inputs": [
        {
          "name": "contestId",
          "type": "bytes32"
        }
      ],
      "name": "deleteContest",
      "outputs": [],
      "payable": false,
      "stateMutability": "nonpayable",
      "type": "function"
    },
    {
      "constant": true,
      "inputs": [],
      "name": "getLiveContestIds",
      "outputs": [
        {
          "name": "",
          "type": "bytes32[]"
        }
      ],
      "payable": false,
      "stateMutability": "view",
      "type": "function"
    },
    {
      "constant": true,
      "inputs": [
        {
          "name": "contestId",
          "type": "bytes32"
        }
      ],
      "name": "getContestById",
      "outputs": [
        {
          "name": "",
          "type": "bytes32"
        },
        {
          "name": "",
          "type": "uint256"
        },
        {
          "name": "",
          "type": "uint256"
        },
        {
          "name": "",
          "type": "address"
        }
      ],
      "payable": false,
      "stateMutability": "view",
      "type": "function"
    },
    {
      "constant": true,
      "inputs": [
        {
          "name": "slateId_",
          "type": "bytes12"
        },
        {
          "name": "contestId",
          "type": "bytes32"
        }
      ],
      "name": "getContestEntries",
      "outputs": [
        {
          "name": "",
          "type": "address[]"
        }
      ],
      "payable": false,
      "stateMutability": "view",
      "type": "function"
    },
    {
      "constant": true,
      "inputs": [
        {
          "name": "slateId_",
          "type": "bytes12"
        },
        {
          "name": "entryAddress",
          "type": "address"
        }
      ],
      "name": "getEntryScore",
      "outputs": [
        {
          "name": "",
          "type": "int32"
        }
      ],
      "payable": false,
      "stateMutability": "view",
      "type": "function"
    },
    {
      "constant": true,
      "inputs": [
        {
          "name": "slateId_",
          "type": "bytes12"
        }
      ],
      "name": "getGolferIdsOnSlate",
      "outputs": [
        {
          "name": "",
          "type": "uint16[]"
        }
      ],
      "payable": false,
      "stateMutability": "view",
      "type": "function"
    },
    {
      "constant": true,
      "inputs": [],
      "name": "testFunction",
      "outputs": [
        {
          "name": "",
          "type": "string"
        }
      ],
      "payable": false,
      "stateMutability": "view",
      "type": "function"
    }
  ],
  "bytecode": "0x6060604052602060405190810160405260008152600b90805162000028929160200190620000af565b50602060405190810160405260008152600c9080516200004d929160200190620000af565b50606460149081556015556007543410156200006857600080fd5b60058054600160a060020a033316600160a060020a03199182161790915534600655600080549091167315ce83f7b43082c21deb5bedd004e2f683b4539217905562000154565b828054600181600116156101000203166002900490600052602060002090601f016020900481019282601f10620000f257805160ff191683800117855562000122565b8280016001018555821562000122579182015b828111156200012257825182559160200191906001019062000105565b506200013092915062000134565b5090565b6200015191905b808211156200013057600081556001016200013b565b90565b613dab80620001646000396000f3006060604052600436106101a85763ffffffff60e060020a6000350416630806498081146101ad5780630aa5743a146101e05780630b4103ee146102255780630fc335601461023d578063137492ff1461024557806318d019dc146102965780631c5c5fa31461030257806326daf164146103ae57806327dc297e146104365780632b58719d1461048c57806338bbfa50146104dd5780633ccfd60b1461057557806344375f6614610588578063471924db1461062c57806348c8fb26146106925780634c55dcde146106b25780634c5e9d18146106c85780634d346a49146107195780636aff681c1461074957806377955245146107635780637ba3612814610792578063807d9e16146107a5578063897e4edb146107b0578063ab4153ad146107bb578063abfb80bc146107de578063bd3b38ff146107f4578063c1c6070e1461080e578063c5012ffc14610824578063cd84d13e14610875578063d0e30db014610895578063d781b7cf1461089d578063e16b4a9b146108c5578063eb1a57241461094f578063f03008ba1461096e578063f5a45c6014610984578063fb9a7aaf146109ce575b600080fd5b34156101b857600080fd5b6101c761ffff600435166109d6565b604051600091820b90910b815260200160405180910390f35b34156101eb57600080fd5b61020c600160a060020a031960043516602435600160a060020a0316610a0f565b604051600391820b90910b815260200160405180910390f35b341561023057600080fd5b61023b600435610a4a565b005b61023b610fda565b341561025057600080fd5b61023b60046024813581810190830135806020601f820181900481020160405190810160405281815292919060208401838380828437509496506110b395505050505050565b34156102a157600080fd5b6102b5600160a060020a03600435166110e2565b604051838152602081018361010080838360005b838110156102e15780820151838201526020016102c9565b505050509050018260010b60010b8152602001935050505060405180910390f35b341561030d57600080fd5b61039560046024813581810190830135806020601f8201819004810201604051908101604052818152929190602084018383808284378201915050505050509190803590602001908201803590602001908080601f01602080910402602001604051908101604052818152929190602084018383808284375094965061120a95505050505050565b604051600191820b90910b815260200160405180910390f35b61023b60046024813581810190830135806020601f8201819004810201604051908101604052818152929190602084018383808284378201915050505050509190803590602001908201803590602001908080601f01602080910402602001604051908101604052818152929190602084018383808284375094965061152695505050505050565b341561044157600080fd5b61023b600480359060446024803590810190830135806020601f820181900481020160405190810160405281815292919060208401838380828437509496506117e695505050505050565b341561049757600080fd5b61023b60046024813581810190830135806020601f8201819004810201604051908101604052818152929190602084018383808284375094965061191195505050505050565b34156104e857600080fd5b61023b600480359060446024803590810190830135806020601f8201819004810201604051908101604052818152929190602084018383808284378201915050505050509190803590602001908201803590602001908080601f01602080910402602001604051908101604052818152929190602084018383808284375094965061190c95505050505050565b341561058057600080fd5b61023b611b0a565b341561059357600080fd5b61023b60048035600160a060020a0319169060446024803590810190830135806020601f8201819004810201604051908101604052818152929190602084018383808284378201915050505050509190803590602001908201803590602001908080601f0160208091040260200160405190810160405281815292919060208401838380828437509496505093359350611b7992505050565b341561063757600080fd5b61063f611beb565b60405160208082528190810183818151815260200191508051906020019060200280838360005b8381101561067e578082015183820152602001610666565b505050509050019250505060405180910390f35b341561069d57600080fd5b61023b600160a060020a031960043516611c4b565b34156106bd57600080fd5b61023b600435611e2a565b34156106d357600080fd5b61023b60046024813581810190830135806020601f82018190048102016040519081016040528181529291906020840183838082843750949650611ea895505050505050565b341561072457600080fd5b61072c6120d6565b604051600160a060020a0319909116815260200160405180910390f35b61023b600435600160a060020a03602435166044356120e2565b341561076e57600080fd5b610776612228565b604051600160a060020a03909116815260200160405180910390f35b341561079d57600080fd5b61063f612237565b61023b6004356122c1565b61023b6004356123a8565b34156107c657600080fd5b61063f600160a060020a0319600435166024356124c5565b34156107e957600080fd5b61023b60043561255a565b34156107ff57600080fd5b6101c761ffff600435166126ea565b341561081957600080fd5b61023b600435612728565b341561082f57600080fd5b61023b60046024813581810190830135806020601f8201819004810201604051908101604052818152929190602084018383808284375094965061280495505050505050565b341561088057600080fd5b61063f600160a060020a031960043516612830565b61023b6128dd565b34156108a857600080fd5b6108b36004356128e7565b60405190815260200160405180910390f35b34156108d057600080fd5b6108d86128f3565b60405160208082528190810183818151815260200191508051906020019080838360005b838110156109145780820151838201526020016108fc565b50505050905090810190601f1680156109415780820380516001836020036101000a031916815260200191505b509250505060405180910390f35b341561095a57600080fd5b6108b3600160a060020a0360043516612934565b341561097957600080fd5b61023b600435612971565b341561098f57600080fd5b61099a600435612a02565b6040519384526020840192909252604080840191909152600160a060020a0390911660608301526080909101905180910390f35b61023b612a49565b60095460a060020a02600160a060020a0319166000908152600e6020908152604080832061ffff85168452909152812054900b5b919050565b600160a060020a031982166000908152601160209081526040808320600160a060020a0385168452909152902054600190810b900b92915050565b6000806000806000610a5a613c1a565b60095460a060020a02600160a060020a0319166000908152601660205260408120548190819081908190819060ff161515610a9457600080fd5b60008d81526013602052604090206004810154909c5060ff161515610ab857600080fd5b60095460a060020a02600160a060020a031916600090815260058d01602052604090205460ff1615610ae957600080fd5b60095460a060020a02600160a060020a031916600090815260068d0160205260408120549b5099508998505b8a61ffff168960ff161015610d5a5760095460a060020a02600160a060020a031916600090815260068d0160205260409020805460ff8b16908110610b5657fe5b60009182526020808320919091015460095460a060020a02600160a060020a0319168352601082526040808420600160a060020a039092168085529190925291819020919950600290910190600890610100905190810160405291906101008301826000855b82829054906101000a900461ffff1661ffff1681526020019060020190602082600101049283019260010382029150808411610bbc57905050505050509650600095505b60088660ff161015610d0a5760095460a060020a02600160a060020a0319166000908152600e60205260408120908860ff891660088110610c3d57fe5b602002015161ffff1661ffff16815260200190815260200160002060000160019054906101000a900460000b60000b8c6008016000600960009054906101000a900460a060020a02600160a060020a031916600160a060020a031916815260200190815260200160002060008a600160a060020a0316600160a060020a0316815260200190815260200160002060008282829054906101000a900460030b0192506101000a81548163ffffffff021916908360030b63ffffffff1602179055508580600101965050610c00565b60095460a060020a02600160a060020a031916600090815260088d0160209081526040808320600160a060020a038c168452909152902054600390810b900b999099019860019890980197610b15565b8a61ffff168a811515610d6957fe5b05945060009250600098505b8a61ffff168960ff161015610ee15760095460a060020a02600160a060020a031916600090815260068d0160205260409020805460ff8b16908110610db657fe5b60009182526020808320919091015460095460a060020a02600160a060020a031916835260088f0182526040808420600160a060020a0390921680855291909252912054909850600390810b900b859012801590610e51575060095460a060020a02600160a060020a031916600090815260088d0160209081526040808320600160a060020a038c168452909152812054600390810b900b12155b15610ed65760095460a060020a02600160a060020a031916600090815260088d0160209081526040808320600160a060020a038c1684529091529020548454600391820b800290910b9250849060018101610eac8382613c43565b5060009182526020909120018054600160a060020a031916600160a060020a038a16179055918101915b600190980197610d75565b600098505b835460ff8a161015610f9a57838960ff16815481101515610f0357fe5b60009182526020808320919091015460095460a060020a02600160a060020a031916835260088f0182526040808420600160a060020a039092168085529190925291205460028e0154919950600390810b8002900b925083908302811515610f6757fe5b600160a060020a038a16600090815260098f01602052604090208054929091049182019055600199909901989050610ee6565b5050600954600160a060020a031960a060020a9091021660009081526005909a0160205250506040909720805460ff191660011790555050505050505050565b6110b1600c8054600181600116156101000203166002900480601f0160208091040260200160405190810160405280929190818152602001828054600181600116156101000203166002900480156110735780601f1061104857610100808354040283529160200191611073565b820191906000526020600020905b81548152906001019060200180831161105657829003601f168201915b505050505060408051908101604052600681527f53636f72657300000000000000000000000000000000000000000000000000006020820152611526565b565b60055433600160a060020a039081169116146110ce57600080fd5b6110d781612b20565b6110df612a49565b50565b60006110ec613c1a565b60006110f6613c67565b60095460a060020a02600160a060020a0319166000908152601060209081526040808320600160a060020a03891684529091529081902090606090519081016040908152825460ff161515825260018301546020830152909190808301906002830190600890610100905190810160405291906101008301826000855b82829054906101000a900461ffff1661ffff1681526020019060020190602082600101049283019260010382029150808411611173579050505050505081525050905080602001518160400151600954600160a060020a031960a060020a909102166000908152601160209081526040808320600160a060020a038b168452909152902054919550935060010b9150509193909250565b6000611214613c8e565b61121c613ca0565b611224613ca0565b600080600080600061126a8b60408051908101604052600181527f7c0000000000000000000000000000000000000000000000000000000000000060208201528c612b33565b6040518082805190602001908083835b602083106112995780518252601f19909201916020918201910161127a565b6001836020036101000a038019825116818451161790925250505091909101925060409150505190819003902060095460a060020a02600160a060020a0319166000908152601060209081526040808320600160a060020a03331684529091529020600101541461130957600080fd5b60086040518059106113185750595b908082528060200260200182016040525097506113348b612b6e565b9650611359604080519081016040526001815260f960020a601d026020820152612b6e565b955061136b878763ffffffff612b9616565b6001019450600885111561137e57600080fd5b60009350600092505b848360ff161015611463576113b26113ad6113a8898963ffffffff612bed16565b612c00565b612c4e565b9150600090505b8260ff168160ff1610156113fb57878160ff16815181106113d657fe5b9060200190602002015161ffff838116911614156113f357600080fd5b6001016113b9565b81888460ff168151811061140b57fe5b61ffff92831660209182029290920181019190915260095460a060020a02600160a060020a0319166000908152600e8252604080822093861682529290915290812054810b900b939093019260019290920191611387565b601454600185900b131561147657600080fd5b600092505b87518360ff16101561151857878360ff168151811061149657fe5b9060200190602002015160095460a060020a02600160a060020a0319166000908152601060209081526040808320600160a060020a0333168452909152902060020160ff8516600881106114e657fe5b601091828204019190066002026101000a81548161ffff021916908361ffff160217905550828060010193505061147b565b505050505050505092915050565b600080600061156760408051908101604052600381527f55524c00000000000000000000000000000000000000000000000000000000006020820152612c61565b600302660886c98b760000019250655af3107a40009150818301341015611670577f46cb989ef9cef13e930e3b7f286225a086e716a90d63e0b7da85d310a9db0c9a60405160208082526046908201527f4f7261636c697a65207175657279206661696c65642e2053656e64206d6f72656040808301919091527f2045544820282e3030323545544820696e20676173202b20242e30332070657260608301527f2071756572790000000000000000000000000000000000000000000000000000608083015260a0909101905180910390a1600160a060020a0333163480156108fc0290604051600060405180830381858888f19350505050151561166b57600080fd5b6117df565b60068054348590030190557f46cb989ef9cef13e930e3b7f286225a086e716a90d63e0b7da85d310a9db0c9a60405160208082526037908201527f4f7261636c697a65207175657269657320776572652073656e742c207374616e6040808301919091527f64696e6720627920666f722074686520616e737765722e00000000000000000060608301526080909101905180910390a16117bb6040805190810160405280600381526020017f55524c00000000000000000000000000000000000000000000000000000000008152506117b26040805190810160405280600581526020017f6a736f6e280000000000000000000000000000000000000000000000000000008152508860408051908101604052601281527f292e636f6d7072657373656453636f72657300000000000000000000000000006020820152612b33565b620927c0612e6f565b60008181526008602052604090209091508480516117dd929160200190613cb7565b505b5050505050565b60006117f06131f5565b600160a060020a031633600160a060020a031614151561180f57600080fd5b60008381526008602052604090819020905180828054600181600116156101000203166002900480156118795780601f10611857576101008083540402835291820191611879565b820191906000526020600020905b815481529060010190602001808311611865575b5050915050604051809103902090506040517f53616c617269657300000000000000000000000000000000000000000000000081526008016040519081900390208114156118ca576118ca82611911565b6040517f53636f7265730000000000000000000000000000000000000000000000000000815260060160405190819003902081141561190c5761190c82611ea8565b505050565b611919613ca0565b611921613ca0565b611929613ca0565b600080611934613ca0565b6005546000908190819033600160a060020a0390811691161461195657600080fd5b60095460a060020a02600160a060020a0319166000908152601660205260409020805460ff191690556119888a612b6e565b98506119c660408051908101604052600181527f20000000000000000000000000000000000000000000000000000000000000006020820152612b6e565b97506119eb604080519081016040526001815260f960020a601d026020820152612b6e565b96506119fd898963ffffffff612b9616565b6001019550600094505b858560ff161015611afe57611a22898963ffffffff612bed16565b9350611a3a6113ad6113a8868a63ffffffff612bed16565b9250611a486113ad85612c00565b60095460a060020a02600160a060020a0319166000908152600d6020526040902080549193509060018101611a7d8382613d35565b50600091825260208083206010808404909101805461ffff808a16600294909606939093026101000a85810293021916919091179055600954600160a060020a031960a060020a909102168352600e81526040808420928452919052812080549184900b60ff1660ff19909216919091178155600195909501949050611a07565b50505050505050505050565b60055433600160a060020a03908116911614611b2557600080fd5b60006007546006540311156110b157600554600754600654600160a060020a03909216910380156108fc0290604051600060405180830381858888f193505050501515611b7157600080fd5b600754600655565b60055433600160a060020a03908116911614611b9457600080fd5b600980546bffffffffffffffffffffffff191660a060020a808704919091179182905502600160a060020a0319166000908152600a60205260409020819055611bdc82613395565b611be583612b20565b50505050565b611bf3613c8e565b6012805480602002602001604051908101604052809291908181526020018280548015611c4057602002820191906000526020600020905b81548152600190910190602001808311611c2b575b505050505090505b90565b600080611c56613c1a565b60095460a060020a02600160a060020a03191660009081526016602052604081205460ff161515611c8657600080fd5b600093505b600160a060020a031985166000908152600f602052604090205460ff851610156117df57600160a060020a031985166000908152600f60205260409020805460ff8616908110611cd757fe5b6000918252602080832090910154600160a060020a031988168352601082526040808420600160a060020a039092168085529190925291819020919450600290910190600890610100905190810160405291906101008301826000855b82829054906101000a900461ffff1661ffff1681526020019060020190602082600101049283019260010382029150808411611d3457905050505050509150600090505b60088160ff161015611e1f57600160a060020a031985166000908152600e60205260408120908360ff841660088110611dad57fe5b602002015161ffff90811682526020808301939093526040918201600090812054600160a060020a03198a16825260118552838220600160a060020a0389168352909452918220805461ffff198116610100909504840b90930b600193840b01830b9091169290921790915501611d78565b600190930192611c8b565b60008181526013602052604090206004015460ff1615611e4957600080fd5b60008181526013602052604090205433600160a060020a03908116911614611e7057600080fd5b60009081526013602052604081208054600160a060020a0319168155600181018290556002810191909155600401805460ff19169055565b611eb0613ca0565b611eb8613ca0565b611ec0613c8e565b60095460a060020a02600160a060020a031916600090815260166020526040812054819060ff1615611ef157600080fd5b611efa86612b6e565b9450611f3860408051908101604052600181527f20000000000000000000000000000000000000000000000000000000000000006020820152612b6e565b9350611f4a858563ffffffff612b9616565b600101604051805910611f5a5750595b908082528060200260200182016040528015611f9057816020015b611f7d613ca0565b815260200190600190039081611f755790505b509250600091505b82518261ffff1610156120a057611fb5858563ffffffff612bed16565b838361ffff1681518110611fc557fe5b602090810290910101526120216113ad6113a8611ffb604080519081016040526001815260f960020a601d026020820152612b6e565b868661ffff168151811061200b57fe5b906020019060200201519063ffffffff612bed16565b90506120486113ad848461ffff168151811061203957fe5b90602001906020020151612c00565b600954600160a060020a031960a060020a909102166000908152600e6020908152604080832061ffff86168452909152812080549290910b60ff166101000261ff001990921691909117905560019190910190611f98565b5050600954600160a060020a031960a060020a909102166000908152601660205260409020805460ff1916600117905550505050565b60095460a060020a0290565b600083815260136020908152604080832060095460a060020a02600160a060020a0319168452600781018352818420600160a060020a038716855290925282205490919060ff161561213357600080fd5b61213c836128e7565b6001830154909150810183101561215257600080fd5b60018281018054600285018054909101905560068054840181559054600160a060020a03871660009081526009808701602090815260408084208054958b03899003909501909455905460a060020a02600160a060020a031916825292860190925290208054909181016121c68382613c43565b5060009182526020808320919091018054600160a060020a03909716600160a060020a0319978816811790915560095460a060020a029096168252600790930183526040808220958252949092525091909120805460ff191660011790555050565b600554600160a060020a031681565b61223f613c8e565b60095460a060020a02600160a060020a0319166000908152600f6020908152604091829020805490929091828102019051908101604052809291908181526020018280548015611c4057602002820191906000526020600020905b8154600160a060020a0316815260019091019060200180831161229a575050505050905090565b6122c9613c67565b60095460a060020a02600160a060020a0319166000908152601060209081526040808320600160a060020a03331684529091529081902090606090519081016040908152825460ff161515825260018301546020830152909190808301906002830190600890610100905190810160405291906101008301826000855b82829054906101000a900461ffff1661ffff168152602001906002019060208260010104928301926001038202915080841161234657905050505050508152505090508060000151151561239957600080fd5b6123a48233346120e2565b5050565b60008181526013602052604090206004015460ff16156123c757600080fd5b60095460a060020a02600160a060020a0319166000908152601060209081526040808320600160a060020a033316845290915290205460ff16151561240b57600080fd5b601280546001810161241d8382613c43565b50600091825260209091200181905560806040519081016040528033600160a060020a03168152602001612450346128e7565b34038152600060208083018290526001604093840152848252601390522081518154600160a060020a031916600160a060020a039190911617815560208201518160010155604082015181600201556060820151600491909101805460ff1916911515919091179055506110df8133346120e2565b6124cd613c8e565b6000828152601360209081526040808320600160a060020a03198716845260068101835292819020805490929091828202909101905190810160405280929190818152602001828054801561254b57602002820191906000526020600020905b8154600160a060020a0316815260019091019060200180831161252d575b505050505091505b5092915050565b60095460a060020a02600160a060020a0319166000908152601660205260408120548190819060ff16151561258e57600080fd5b600084815260136020908152604080832060095460a060020a02600160a060020a0319168452600581019092529091205490935060ff1615156125d057600080fd5b600483015460ff1615156125e357600080fd5b600091505b60095460a060020a02600160a060020a03191660009081526006840160205260409020548210156126da5760095460a060020a02600160a060020a0319166000908152600684016020526040902080548390811061264257fe5b6000918252602080832090910154600160a060020a031680835260098601909152604082205490925011156126cf57600160a060020a0381166000818152600985016020526040908190205480156108fc029151600060405180830381858888f1935050505015156126b357600080fd5b600160a060020a03331660009081526009840160205260408120555b6001909101906125e8565b5050600401805460ff1916905550565b60095460a060020a02600160a060020a0319166000908152600e6020908152604080832061ffff949094168352929052908120546101009004900b90565b60095460a060020a02600160a060020a0319166000908152600a602052604081205442111561275657600080fd5b5060095460a060020a02600160a060020a0319166000908152601060209081526040808320600160a060020a03331684529091529020805460ff1615156127ee5760095460a060020a02600160a060020a0319166000908152600f602052604090208054600181016127c88382613c43565b5060009182526020909120018054600160a060020a03191633600160a060020a03161790555b600180820192909255805460ff19169091179055565b60055433600160a060020a0390811691161461281f57600080fd5b61282881613395565b6110df610fda565b612838613c8e565b600d600083600160a060020a031916600160a060020a03191681526020019081526020016000208054806020026020016040519081016040528092919081815260200182805480156128d157602002820191906000526020600020906000905b82829054906101000a900461ffff1661ffff16815260200190600201906020826001010492830192600103820291508084116128985790505b50505050509050919050565b6006805434019055565b6015546103e891020490565b6128fb613c8e565b60408051908101604052600481527f74657374000000000000000000000000000000000000000000000000000000006020820152905090565b60095460a060020a02600160a060020a0319166000908152601060209081526040808320600160a060020a03949094168352929052206001015490565b6000818152601360209081526040808320600160a060020a03331684526009810190925282205490919011156123a457600160a060020a0333166000818152600983016020526040908190205480156108fc029151600060405180830381858888f1935050505015156129e357600080fd5b600160a060020a03331660009081526009820160205260408120555050565b6000818152601360209081526040808320600181015460095460a060020a02600160a060020a031916855260068201909352922054915492939092600160a060020a031690565b6110b1600b8054600181600116156101000203166002900480601f016020809104026020016040519081016040528092919081815260200182805460018160011615610100020316600290048015612ae25780601f10612ab757610100808354040283529160200191612ae2565b820191906000526020600020905b815481529060010190602001808311612ac557829003601f168201915b505050505060408051908101604052600881527f53616c61726965730000000000000000000000000000000000000000000000006020820152611526565b600b8180516123a4929160200190613cb7565b612b3b613c8e565b612b6684848460206040519081016040528060008152506020604051908101604052600081526133a8565b949350505050565b612b76613ca0565b602082016040805190810160405280845181526020019190915292915050565b6000808251612bb18551866020015186518760200151613618565b0190505b83518460200151018111612553576001909101908251612be5856020015183038651038386518760200151613618565b019050612bb5565b612bf5613ca0565b6125538383836136bb565b612c08613c8e565b612c10613c8e565b60008351604051805910612c215750595b818152601f19601f830116810160200160405290509150602082019050612553818560200151865161372a565b6000612c5b82600061376f565b92915050565b60008054600160a060020a03161580612c8c5750600054612c8a90600160a060020a03166138dd565b155b15612c9d57612c9b60006138e1565b505b60008054600160a060020a0316906338cc483190604051602001526040518163ffffffff1660e060020a028152600401602060405180830381600087803b1515612ce657600080fd5b6102c65a03f11515612cf757600080fd5b5050506040518051600154600160a060020a039081169116149050612d9a5760008054600160a060020a0316906338cc483190604051602001526040518163ffffffff1660e060020a028152600401602060405180830381600087803b1515612d5f57600080fd5b6102c65a03f11515612d7057600080fd5b505050604051805160018054600160a060020a031916600160a060020a0392909216919091179055505b600154600160a060020a031663524f3889836000604051602001526040518263ffffffff1660e060020a0281526004018080602001828103825283818151815260200191508051906020019080838360005b83811015612e04578082015183820152602001612dec565b50505050905090810190601f168015612e315780820380516001836020036101000a031916815260200191505b5092505050602060405180830381600087803b1515612e4f57600080fd5b6102c65a03f11515612e6057600080fd5b50505060405180519392505050565b600080548190600160a060020a03161580612e9c5750600054612e9a90600160a060020a03166138dd565b155b15612ead57612eab60006138e1565b505b60008054600160a060020a0316906338cc483190604051602001526040518163ffffffff1660e060020a028152600401602060405180830381600087803b1515612ef657600080fd5b6102c65a03f11515612f0757600080fd5b5050506040518051600154600160a060020a039081169116149050612faa5760008054600160a060020a0316906338cc483190604051602001526040518163ffffffff1660e060020a028152600401602060405180830381600087803b1515612f6f57600080fd5b6102c65a03f11515612f8057600080fd5b505050604051805160018054600160a060020a031916600160a060020a0392909216919091179055505b600154600160a060020a0316632ef3accc86856000604051602001526040518363ffffffff1660e060020a0281526004018080602001838152602001828103825284818151815260200191508051906020019080838360005b8381101561301b578082015183820152602001613003565b50505050905090810190601f1680156130485780820380516001836020036101000a031916815260200191505b509350505050602060405180830381600087803b151561306757600080fd5b6102c65a03f1151561307857600080fd5b5050506040518051915050670de0b6b3a76400003a8402018111156130a057600091506131ed565b600154600160a060020a031663c51be90f82600088888883604051602001526040518663ffffffff1660e060020a028152600401808581526020018060200180602001848152602001838103835286818151815260200191508051906020019080838360005b8381101561311e578082015183820152602001613106565b50505050905090810190601f16801561314b5780820380516001836020036101000a031916815260200191505b50838103825285818151815260200191508051906020019080838360005b83811015613181578082015183820152602001613169565b50505050905090810190601f1680156131ae5780820380516001836020036101000a031916815260200191505b5096505050505050506020604051808303818588803b15156131cf57600080fd5b6125ee5a03f115156131e057600080fd5b5050505060405180519250505b509392505050565b60008054600160a060020a03161580613220575060005461321e90600160a060020a03166138dd565b155b156132315761322f60006138e1565b505b60008054600160a060020a0316906338cc483190604051602001526040518163ffffffff1660e060020a028152600401602060405180830381600087803b151561327a57600080fd5b6102c65a03f1151561328b57600080fd5b5050506040518051600154600160a060020a03908116911614905061332e5760008054600160a060020a0316906338cc483190604051602001526040518163ffffffff1660e060020a028152600401602060405180830381600087803b15156132f357600080fd5b6102c65a03f1151561330457600080fd5b505050604051805160018054600160a060020a031916600160a060020a0392909216919091179055505b600154600160a060020a031663c281d19e6000604051602001526040518163ffffffff1660e060020a028152600401602060405180830381600087803b151561337657600080fd5b6102c65a03f1151561338757600080fd5b505050604051805191505090565b600c8180516123a4929160200190613cb7565b6133b0613c8e565b6133b8613c8e565b6133c0613c8e565b6133c8613c8e565b6133d0613c8e565b6133d8613c8e565b6133e0613c8e565b6133e8613c8e565b6000808e98508d97508c96508b95508a94508451865188518a518c51010101016040518059106134155750595b818152601f19601f83011681016020016040529050935083925060009150600090505b88518110156134915788818151811061344d57fe5b016020015160f860020a900460f860020a0283838060010194508151811061347157fe5b906020010190600160f860020a031916908160001a905350600101613438565b5060005b87518110156134ee578781815181106134aa57fe5b016020015160f860020a900460f860020a028383806001019450815181106134ce57fe5b906020010190600160f860020a031916908160001a905350600101613495565b5060005b865181101561354b5786818151811061350757fe5b016020015160f860020a900460f860020a0283838060010194508151811061352b57fe5b906020010190600160f860020a031916908160001a9053506001016134f2565b5060005b85518110156135a85785818151811061356457fe5b016020015160f860020a900460f860020a0283838060010194508151811061358857fe5b906020010190600160f860020a031916908160001a90535060010161354f565b5060005b8451811015613605578481815181106135c157fe5b016020015160f860020a900460f860020a028383806001019450815181106135e557fe5b906020010190600160f860020a031916908160001a9053506001016135ac565b50909d9c50505050505050505050505050565b6000808080808887116136a9576020871161366f5760018760200360080260020a031980875116888b038a018a96505b818388511614613664576001870196819010613648578b8b0196505b5050508394506136af565b8686209150879350600092505b86890383116136a9575085832081811415613699578394506136af565b600193840193929092019161367c565b88880194505b50505050949350505050565b6136c3613ca0565b60006136db8551866020015186518760200151613618565b9050846020015160208085019190915285015181038352845185602001510181141561370a5760008552613721565b835183510185818151039052508351810160208601525b50909392505050565b60005b60208210613750578251845260208401935060208301925060208203915061372d565b6001826020036101000a03905080198351168185511617909352505050565b6000613779613c8e565b5082600080805b83518110156138c0577f30000000000000000000000000000000000000000000000000000000000000008482815181106137b657fe5b016020015160f860020a900460f860020a02600160f860020a0319161015801561382757507f390000000000000000000000000000000000000000000000000000000000000084828151811061380857fe5b016020015160f860020a900460f860020a02600160f860020a03191611155b1561387d5781156138465785151561383e576138c0565b600019909501945b600a83029250603084828151811061385a57fe5b016020015160f860020a900460f860020a0260f860020a900403830192506138b8565b83818151811061388957fe5b016020015160f860020a900460f860020a02600160f860020a031916602e60f860020a0214156138b857600191505b600101613780565b60008611156138d25785600a0a830292505b509095945050505050565b3b90565b600080613901731d3b2638a7cc9f2cb3d298a3da7a90b67e5506ed6138dd565b11156139715760008054600160a060020a031916731d3b2638a7cc9f2cb3d298a3da7a90b67e5506ed17905561396960408051908101604052600b81527f6574685f6d61696e6e65740000000000000000000000000000000000000000006020820152613c07565b506001610a0a565b600061399073c03a2615d5efaf5f49f60b7bb6583eaec212fdf16138dd565b11156139f85760008054600160a060020a03191673c03a2615d5efaf5f49f60b7bb6583eaec212fdf117905561396960408051908101604052600c81527f6574685f726f707374656e3300000000000000000000000000000000000000006020820152613c07565b6000613a1773b7a07bcf2ba2f2703b24c0691b5278999c59ac7e6138dd565b1115613a7f5760008054600160a060020a03191673b7a07bcf2ba2f2703b24c0691b5278999c59ac7e17905561396960408051908101604052600981527f6574685f6b6f76616e00000000000000000000000000000000000000000000006020820152613c07565b6000613a9e73146500cfd35b22e4a392fe0adc06de1a1368ed486138dd565b1115613b065760008054600160a060020a03191673146500cfd35b22e4a392fe0adc06de1a1368ed4817905561396960408051908101604052600b81527f6574685f72696e6b6562790000000000000000000000000000000000000000006020820152613c07565b6000613b25736f485c8bf6fc43ea212e93bbf8ce046c7f1cb4756138dd565b1115613b59575060008054600160a060020a031916736f485c8bf6fc43ea212e93bbf8ce046c7f1cb4751790556001610a0a565b6000613b787320e12a1f859b3feae5fb2a0a32c18f5a65555bbf6138dd565b1115613bac575060008054600160a060020a0319167320e12a1f859b3feae5fb2a0a32c18f5a65555bbf1790556001610a0a565b6000613bcb7351efaf4c8b3c9afbd5ab9f4bbc82784ab6ef8faa6138dd565b1115613bff575060008054600160a060020a0319167351efaf4c8b3c9afbd5ab9f4bbc82784ab6ef8faa1790556001610a0a565b506000919050565b60028180516123a4929160200190613cb7565b6101006040519081016040526008815b600081526000199091019060200181613c2a5790505090565b81548183558181151161190c5760008381526020902061190c918101908301613d65565b6101406040519081016040908152600080835260208301528101613c89613c1a565b905290565b60206040519081016040526000815290565b604080519081016040526000808252602082015290565b828054600181600116156101000203166002900490600052602060002090601f016020900481019282601f10613cf857805160ff1916838001178555613d25565b82800160010185558215613d25579182015b82811115613d25578251825591602001919060010190613d0a565b50613d31929150613d65565b5090565b81548183558181151161190c57600f016010900481600f0160109004836000526020600020918201910161190c91905b611c4891905b80821115613d315760008155600101613d6b5600a165627a7a723058209c51677fbd8b1786bc1abc3c20f97e8d5d06fd2b7041969dc81b4004bfd935450029",
  "source": "pragma solidity 0.4.18;\n\nimport \"./lib/oraclize/oraclizeAPI_0.4.sol\";\nimport \"./lib/arachnid/solidity-stringutils/strings.sol\";\n\ncontract PgaDfs is usingOraclize {\n\n  using strings for *;\n\n  struct SlateGolfer {\n    // not storing name,\n    // since we're trying to be minimal with data storage\n    // on ethereum's bloated ass blockchain.\n\n    // increments in 1\n    // salaries are roughly DK salaries / $500\n    // and can be negative!\n    int8 salary;\n\n    // fantasy points at end of tournament\n    int8 points;\n  }\n\n\n  struct Lineup {\n    bool submittedHash;  // true when saved\n    // keccak hash of lineup before revealing\n    // e.g. keccak256(\"21059:94320:85933\")\n    bytes32 golferIdsHash;\n    // MAX of 8 pga tour ids...\n    // you can play less than 8 guys if you want!\n    // e.g. [web3.fromAscii(\"21059\"), web3.fromAscii(\"94320\"), web3.fromAscii(\"85933\")]\n    uint16[8] golferIds;\n  }\n\n  struct Contest {\n    address owner; // creator of contest\n\n    uint entryFee; // TODO(christian): what units? wei?\n    uint prizePool; // TODO: delete\n    // all money in contest balance, payable to winners\n    mapping (bytes12 => uint) slateIdToPrizePool;\n\n    // yay or nay, is this an active contest\n    // must be not live to delete contest\n    bool live;\n\n    // have we calculated the address balances after contest is over?\n    mapping (bytes12 => bool) slateIdToPayoutsSet;\n\n    // map ETH address --> lineup in contest\n    mapping (bytes12 => address[]) slateIdToEntries;\n\n    mapping (bytes12 => mapping(address => bool)) slateIdToEntered;\n    mapping (bytes12 => mapping(address => int32)) slateIdToAddressScores;\n\n    // ETH address --> how much they recouped\n    // once we confirmed the event ends, then payout!\n    mapping(address => uint) balances;\n  }\n\n\n  event newOraclizeQuery(string description);\n\n  // this is the initializer of the contract\n  // who gets special privaledges:\n  // (1) if oraclize fucks up, you set scores manually\n  // (2) you can spend the extraEther in the contract\n  address public contractAdmin;\n  uint private extraEther;\n  uint private minBal;\n\n  // status (bool): is this oraclize query complete or not?\n  mapping(bytes32 => string) queryIdToCallbackAction;\n\n  // this is the CONSTRUCTOR!\n  // we must initialize the lubrication amount\n  // with the miniumum balance, which can never be recovered\n  function PgaDfs() public payable {\n    require(msg.value >= minBal);\n    // in the constructor (this function), msg.sender is\n    // the owner of the contract\n    contractAdmin = msg.sender;\n    extraEther = msg.value;\n\n    // OAR for ethereum-bridge\n    OAR = OraclizeAddrResolverI(0x15Ce83f7B43082C21deB5bEDd004e2F683B45392);\n    // TODO: tinker with this gas value\n    /* oraclize_setCustomGasPrice(1000000000 wei); */\n\n    // execute a dummy transcaction to make fee estimation\n    // work by burning the free transaction\n    /* oraclize_query(\"URL\", \"json(http://api.fixer.io/latest?symbols=USD,GBP).rates.GBP\"); */\n  }\n\n\n  // N.B. FROM CRYPTO RIC:\n  // if we want to fund money into the \"lubrication account\"\n  // this will allow the contract to function if the price\n  // of ether falls dramatically between querires\n  // and, as a result, because the query fee is charged in USD,\n  // the fee for subsequent queries goes up\n  // this should average out over time,\n  // we charge a small fee to make sure it more likely going up\n  // this fee, over the course of 400 wagers,\n  // should offset the irrecovable minimum balance\n  function deposit() payable external {\n    extraEther += msg.value;\n  }\n\n  // CRYPTO RIC:\n  // if we want to withdraw money from the lubrication account\n  // we can only draw from the extraEther gained,\n  // so as to protect and wall off funds from active wagers\n  // we must leave a minBal of .1 ether to serve as lubrication\n  // this protects people with wagers from us withdrawing\n  // all the lubrication while they have bets in, which\n  // would make them have the potential to fail\n  function withdraw() external {\n    require(msg.sender == contractAdmin);\n\n    if (extraEther - minBal > 0) {\n      contractAdmin.transfer(extraEther - minBal);\n      extraEther = minBal;\n    }\n  }\n\n  // active slate id to key slate/lineup mappings\n  bytes12 slateId;\n  mapping (bytes12 => uint) slateIdToLockTimestamp;\n\n  // format: \"{pgaId}:{salary}\"\n  // example: \"34360:1522955700:15 32102:1522963620:-2\" <-- salaries can be negative!\n  string compressedSalariesUrl = \"\"; // e.g. \"https://s3.amazonaws.com/ethdfs/pga/compressedSalaries/2018/471.json\";\n\n  // format: \"{pgaId}:{rd1}-{rd2}-{rd3}-{rd4}\"\n  // example: \"34360:69-66-67-71 32102:70-72-65-67\"\n  string compressedScoresUrl = \"\"; // e.g. \"https://s3.amazonaws.com/ethdfs/pga/compressedScores/2018/471.json\";\n\n\n  // slate id ==> golfer ids\n  // NOTE: uint16 for golfer ids is really fucking pushing it,\n  // as PGA tour is on ID's around 55k or so.\n  // the max uint8 number is 65,535. lol\n  mapping (bytes12 => uint16[]) slateIdToGolferIds;\n  // slate id ==> pga tour id ==> golfer data (salary, scores, etc.)\n  mapping (bytes12 => mapping(uint16 => SlateGolfer)) slateIdToSlateGolfers;\n  mapping (bytes12 => address[]) slateIdToEnteredAddresses;\n  mapping (bytes12 => mapping (address => Lineup)) slateIdToLineups;\n  mapping (bytes12 => mapping (address => int16)) slateIdToEntryScores;\n\n  // contest data\n  bytes32[] contestIds;\n  mapping(bytes32 => Contest) contests;\n\n  // salary cap is 100\n  // salaries are integers and CAN BE NEGATIVE\n  // think mike weir\n  int salaryCap = 100;\n\n  // rake is 2.0% or 20/1000\n  uint rakeTimesOneThousand = 20;\n\n  // is scoring complete for the current slate\n  mapping (bytes12 => bool) slateIdToCompleteScoring;\n\n  function setLineupHash(bytes32 lineupHash) public {\n    // can't change lineup hash after lock\n    require(block.timestamp <= slateIdToLockTimestamp[slateId]);\n    Lineup storage theLineup = slateIdToLineups[slateId][msg.sender];\n    if (!theLineup.submittedHash) {\n        // don't push duped addresses if they already have a lineup\n        slateIdToEnteredAddresses[slateId].push(msg.sender);\n    }\n    theLineup.golferIdsHash = lineupHash;\n    theLineup.submittedHash = true;\n  }\n\n  // returns: Lineup.golferIdsHash\n  function getLineupHash(address entrantAddress) public view returns (bytes32) {\n    return slateIdToLineups[slateId][entrantAddress].golferIdsHash;\n  }\n\n  function getEnteredAddressesForCurrentSlate() public view returns (address[]) {\n      return slateIdToEnteredAddresses[slateId];\n  }\n\n  function getCurrentSlateLineupForAddress(address address_) public view returns (bytes32, uint16[8], int16) {\n      Lineup memory theLineup = slateIdToLineups[slateId][address_];\n      return (theLineup.golferIdsHash, theLineup.golferIds, slateIdToEntryScores[slateId][address_]);\n  }\n\n  function getSlateId() public view returns (bytes12) {\n    return slateId;\n  }\n\n  function getSalary(uint16 pgaId) public view returns (int8) {\n    return slateIdToSlateGolfers[slateId][pgaId].salary;\n  }\n\n  function getPoints(uint16 pgaId) public view returns (int8) {\n    return slateIdToSlateGolfers[slateId][pgaId].points;\n  }\n\n  // lineups must:\n  // have 8 or less players\n  // total salary must be <= salary cap\n  // can only play the same guy once\n  function revealLineup(string golferIdsColonDelimited, string revealKey) public returns (int16) {\n    require(slateIdToLineups[slateId][msg.sender].golferIdsHash == keccak256(strConcat(golferIdsColonDelimited, \"|\", revealKey)));\n\n    var golferIds = new uint16[](8);\n\n    var golferIdsSlice = golferIdsColonDelimited.toSlice();\n    var delimiter = \":\".toSlice();\n    uint256 golferCount = golferIdsSlice.count(delimiter) + 1;\n\n    // must have 8 or less players\n    require(golferCount <= 8);\n\n    // and salary must be under cap\n    int16 totalSalary = 0;\n\n    for (uint8 ii = 0; ii < golferCount; ii++) {\n      // string  --> left padded bytes32\n      // \"29725\" --> \"0x3239373235000000000000000000000000000000000000000000000000000000\"\n      // replicate this with web3.fromAscii('29725')\n      uint16 golferId = uint16(parseInt(golferIdsSlice.split(delimiter).toString()));\n\n      for (uint8 jj = 0; jj < ii; jj++) {\n        require(golferId != golferIds[jj]);\n      }\n      golferIds[ii] = golferId;\n      totalSalary += slateIdToSlateGolfers[slateId][golferId].salary;\n    }\n\n    require(totalSalary <= salaryCap);\n\n    for (ii = 0; ii < golferIds.length; ii++) {\n      slateIdToLineups[slateId][msg.sender].golferIds[ii] = golferIds[ii];\n    }\n  }\n\n  function calculateRake(uint wei_) public view returns (uint) {\n    return (wei_ * rakeTimesOneThousand) / 1000;\n  }\n\n  function createContest(bytes32 contestId) public payable {\n    // contest id cannot be taken already\n    require(!contests[contestId].live);\n    // contest owner must first have lineup hash on chain\n    require(slateIdToLineups[slateId][msg.sender].submittedHash);\n\n    contestIds.push(contestId);\n    contests[contestId] = Contest({\n      owner : msg.sender,\n      // entry fee is AUTOMATICALLY calculated by how much the owner deposits\n      entryFee : msg.value - calculateRake(msg.value),\n      prizePool: 0, // updated in payEntryFeeToContest below\n      live : true\n    });\n    payEntryFeeToContest(contestId, msg.sender, msg.value);\n  }\n\n  function enterContest(bytes32 contestId) public payable {\n    // to enter contest, user must have lineup hash on chain\n    Lineup memory entrantLineup = slateIdToLineups[slateId][msg.sender];\n    require(entrantLineup.submittedHash);\n    payEntryFeeToContest(contestId, msg.sender, msg.value);\n  }\n\n  function payEntryFeeToContest(bytes32 contestId, address msgSender, uint ethEntered) public payable {\n\n    Contest storage activeContest = contests[contestId];\n    // if they not are already in the contest, pay rake and enter\n    require(!activeContest.slateIdToEntered[slateId][msgSender]);\n\n    uint rakeToCollect = calculateRake(ethEntered);\n\n    require(ethEntered >= activeContest.entryFee + rakeToCollect);\n\n    activeContest.prizePool += activeContest.entryFee;\n    extraEther += rakeToCollect;\n    // if someone sends us extra money,\n    // it goes their balance for the contest\n    // and by default they can get paid out at the end\n    // otherwise they can withdraw\n    activeContest.balances[msgSender] += ethEntered - activeContest.entryFee - rakeToCollect;\n    activeContest.slateIdToEntries[slateId].push(msgSender);\n    activeContest.slateIdToEntered[slateId][msgSender] = true;\n  }\n\n  function setSalaries(string compressedSalaries) public {\n      require(msg.sender == contractAdmin);\n      // TODO: make internal / only contractAdmin\n      slateIdToCompleteScoring[slateId] = false;\n\n      var compressedSalariesSlice = compressedSalaries.toSlice();\n      var playerDelimiter = \" \".toSlice();\n      var salaryDelimiter = \":\".toSlice();\n      uint playerCount = compressedSalariesSlice.count(playerDelimiter) + 1;\n\n      for (uint8 ii = 0; ii < playerCount; ii++) {\n          var playerColonSalary = compressedSalariesSlice.split(playerDelimiter);\n\n          uint16 pgaPlayerId = uint16(parseInt(playerColonSalary.split(salaryDelimiter).toString()));\n\n          int8 salary = int8(parseInt(playerColonSalary.toString()));\n\n          slateIdToGolferIds[slateId].push(pgaPlayerId);\n          SlateGolfer storage slateGolfer = slateIdToSlateGolfers[slateId][pgaPlayerId];\n          slateGolfer.salary = salary;\n      }\n  }\n\n  function setScores(string compressedScores) public {\n    // TODO: make internal / only contractAdmin\n    // TODO: really make sure this works\n    // TODO: difference between var and normal types?\n    require(!slateIdToCompleteScoring[slateId]);\n\n    var compressedScoresSlice = compressedScores.toSlice();\n    var playerDelimiter = \" \".toSlice();\n    var playerScoreSlices = new strings.slice[](compressedScoresSlice.count(playerDelimiter) + 1);\n\n    for (uint16 i = 0; i < playerScoreSlices.length; i++) {\n      playerScoreSlices[i] = compressedScoresSlice.split(playerDelimiter);\n      uint16 pgaPlayerId = uint16(parseInt(playerScoreSlices[i].split(\":\".toSlice()).toString()));\n      slateIdToSlateGolfers[slateId][pgaPlayerId].points = int8(parseInt(playerScoreSlices[i].toString()));\n    }\n    slateIdToCompleteScoring[slateId] = true;\n  }\n\n  function scoreEnteredAddresses(bytes12 slateId_) public {\n    require(slateIdToCompleteScoring[slateId]);\n    for (uint8 ii = 0; ii < slateIdToEnteredAddresses[slateId_].length; ii++) {\n      address entry = slateIdToEnteredAddresses[slateId_][ii];\n      uint16[8] memory entryPgaIds = slateIdToLineups[slateId_][entry].golferIds;\n      for (uint8 g = 0; g < entryPgaIds.length; g++) {\n        slateIdToEntryScores[slateId_][entry] += slateIdToSlateGolfers[slateId_][entryPgaIds[g]].points;\n      }\n    }\n  }\n\n  function setSingleContestPayouts(bytes32 contestId) public {\n    // everyone who scores > max(0, the contest average) gets paid\n    // you are paid proportional to your squared score\n    require(slateIdToCompleteScoring[slateId]);\n\n    Contest storage contest = contests[contestId];\n    require(contest.live);\n    require(!contest.slateIdToPayoutsSet[slateId]);\n\n    uint16 totalEntries = uint16(contest.slateIdToEntries[slateId].length);\n    int totalPoints = 0;\n\n    // calculate the average score in the contest\n    for (uint8 ii = 0; ii < totalEntries; ii++) {\n      address entry = contest.slateIdToEntries[slateId][ii];\n      uint16[8] memory entryPgaIds = slateIdToLineups[slateId][entry].golferIds;\n      for (uint8 g = 0; g < entryPgaIds.length; g++) {\n        contest.slateIdToAddressScores[slateId][entry] += slateIdToSlateGolfers[slateId][entryPgaIds[g]].points;\n      }\n      totalPoints += contest.slateIdToAddressScores[slateId][entry];\n    }\n\n    // of the top half (except any of those that scored < 0),\n    // sum up the squared scores\n    int averagePointsRoundedDown = totalPoints / totalEntries;\n    // ugh... only using storage since memory isnt dynamic\n    address[] storage winningEntries;\n    uint summedSquaredWinningScores = 0;\n\n    for (ii = 0; ii < totalEntries; ii++) {\n      entry = contest.slateIdToEntries[slateId][ii];\n      if (contest.slateIdToAddressScores[slateId][entry] >= averagePointsRoundedDown && contest.slateIdToAddressScores[slateId][entry] >= 0) {\n        uint squaredScore = uint(contest.slateIdToAddressScores[slateId][entry] * contest.slateIdToAddressScores[slateId][entry]);\n        winningEntries.push(entry);\n        summedSquaredWinningScores += squaredScore;\n      }\n    }\n\n    // then pay out people proportional to squared points\n    for (ii = 0; ii < winningEntries.length; ii++) {\n      entry = winningEntries[ii];\n      // TODO: make sure there's no rounding error B.S. going on\n      // that makes us massively over or under pay people\n      squaredScore = uint(contest.slateIdToAddressScores[slateId][entry] * contest.slateIdToAddressScores[slateId][entry]);\n      uint toPayout = (contest.prizePool * squaredScore) / summedSquaredWinningScores;\n      contest.balances[entry] += toPayout;\n    }\n\n    contest.slateIdToPayoutsSet[slateId] = true;\n  }\n\n  function withdrawBalanceFromContest(bytes32 contestId) public {\n    Contest storage contest = contests[contestId];\n    if (contest.balances[msg.sender] > 0) {\n      msg.sender.transfer(contest.balances[msg.sender]);\n      contest.balances[msg.sender] = 0;\n    }\n  }\n\n  function payOutContest(bytes32 contestId) public {\n    require(slateIdToCompleteScoring[slateId]);\n\n    Contest storage contest = contests[contestId];\n    require(contest.slateIdToPayoutsSet[slateId]);\n    require(contest.live);\n\n    for (uint ii = 0; ii < contest.slateIdToEntries[slateId].length; ii++) {\n      address entry = contest.slateIdToEntries[slateId][ii];\n      if (contest.balances[entry] > 0) {\n        entry.transfer(contest.balances[entry]);\n        contest.balances[msg.sender] = 0;\n      }\n    }\n    contest.live = false;\n  }\n\n  function _setCompressedScoresUrl(string _compressedScoresUrl) internal {\n    compressedScoresUrl = _compressedScoresUrl;\n  }\n\n  function _setCompressedSalariesUrl(string _compressedSalariesUrl) internal {\n    compressedSalariesUrl = _compressedSalariesUrl;\n  }\n\n  function getSalariesOnChain() public payable {\n    innerOraclizeQuery(compressedSalariesUrl, \"Salaries\");\n  }\n\n  function getScoresOnChain() public payable {\n    innerOraclizeQuery(compressedScoresUrl, \"Scores\");\n  }\n\n  function setScoresUrlAndGetResultsOnChain(string compressedScoresUrl_) public {\n      require(msg.sender == contractAdmin);\n      _setCompressedScoresUrl(compressedScoresUrl_);\n      getScoresOnChain();\n  }\n\n  function setSalariesUrlAndGetSalariesOnChain(string compressedSalariesUrl_) public {\n      require(msg.sender == contractAdmin);\n      _setCompressedSalariesUrl(compressedSalariesUrl_);\n      getSalariesOnChain();\n  }\n\n  function setNewSlateInfo(\n    bytes12 _newSlateId,\n    string _compressedSalariesUrl,\n    string _compressedScoresUrl,\n    uint lockTimestamp\n  ) public {\n    require(msg.sender == contractAdmin);\n    slateId = _newSlateId;\n    slateIdToLockTimestamp[slateId] = lockTimestamp;\n    _setCompressedScoresUrl(_compressedScoresUrl);\n    _setCompressedSalariesUrl(_compressedSalariesUrl);\n  }\n\n  // ========================= ORACLIZE functions =========================\n\n\n  function innerOraclizeQuery(string queryUrl, string callbackAction) public payable {\n    // TODO: make these views\n    uint cost = 2400000000000000 + (oraclize_getPrice(\"URL\") * 3);\n    uint fee = 100000000000000;\n\n    if (msg.value < cost + fee) {\n      newOraclizeQuery(\"Oraclize query failed. Send more ETH (.0025ETH in gas + $.03 per query\");\n      msg.sender.transfer(msg.value);\n    } else {\n      extraEther += msg.value - cost;\n      newOraclizeQuery(\"Oraclize queries were sent, standing by for the answer.\");\n      bytes32 queryId = oraclize_query(\n        \"URL\",\n        strConcat(\"json(\", queryUrl, \").compressedScores\"),\n        600000\n      );\n      queryIdToCallbackAction[queryId] = callbackAction;\n    }\n  }\n\n  // switch function for callbacks\n  function __callback(bytes32 myid, string result) public {\n    require(msg.sender == oraclize_cbAddress());\n    // can't compare string storage pointers and string literals,\n    // so instead let's compare their keccak256 hashes!\n    bytes32 actionHash = keccak256(queryIdToCallbackAction[myid]);\n    if (actionHash == keccak256(\"Salaries\")) {\n      setSalaries(result);\n    }\n    if (actionHash == keccak256(\"Scores\")) {\n      setScores(result);\n    }\n  }\n\n  // CRYPTO RIC:\n  // should anyone wish to be a good blockchain citizen\n  // and delete a wager that is no longer live\n  function deleteContest(bytes32 contestId) external {\n    require(!contests[contestId].live);\n    // can't delete someone else's contest\n    require(msg.sender == contests[contestId].owner);\n    delete contests[contestId];\n  }\n\n  function getLiveContestIds() public view returns (bytes32[]) {\n    /* bytes32[] memory liveContestIds;  // why must use storage?\n    uint jj = 0;\n    for (uint ii = 0; ii < contestIds.length; ii++) {\n      bytes32 contestId = contestIds[ii];\n      if (contests[contestId].live) {\n        liveContestIds[jj] = contestId;\n        jj += 1;\n      }\n    } */\n    return contestIds;\n  }\n\n  function getContestById(bytes32 contestId) public view returns (\n      bytes32,\n      uint,\n      uint,\n      address\n    ) {\n      Contest storage contest = contests[contestId];\n      return (\n          contestId,\n          contest.entryFee,\n          contest.slateIdToEntries[slateId].length,\n          contest.owner\n        );\n    }\n\n  function getContestEntries(bytes12 slateId_, bytes32 contestId) public view returns (address[]) {\n    Contest storage contest = contests[contestId];\n    return contest.slateIdToEntries[slateId_];\n  }\n\n  function getEntryScore(bytes12 slateId_, address entryAddress) public view returns (int32) {\n    return slateIdToEntryScores[slateId_][entryAddress];\n  }\n\n  function getGolferIdsOnSlate(bytes12 slateId_) public view returns (uint16[]) {\n    return slateIdToGolferIds[slateId_];\n  }\n\n  function testFunction() public view returns (string) {\n    return 'test';\n  }\n}\n",
  "sourcePath": "/Users/christian/workspace/ddfs/contracts/PgaDfs.sol",
  "compiler": {
    "name": "solc",
    "version": "0.4.18+commit.9cf6e910.Emscripten.clang"
  },
  "schemaVersion": "2.0.0",
  "updatedAt": "2018-10-06T12:25:33.605Z"
}