{
  "contractName": "PgaDfs",
  "abi": [
    {
      "constant": true,
      "inputs": [],
      "name": "contractAdmin",
      "outputs": [
        {
          "name": "",
          "type": "address"
        }
      ],
      "payable": false,
      "stateMutability": "view",
      "type": "function"
    },
    {
      "inputs": [],
      "payable": true,
      "stateMutability": "payable",
      "type": "constructor"
    },
    {
      "anonymous": false,
      "inputs": [
        {
          "indexed": false,
          "name": "description",
          "type": "string"
        }
      ],
      "name": "newOraclizeQuery",
      "type": "event"
    },
    {
      "constant": false,
      "inputs": [],
      "name": "deposit",
      "outputs": [],
      "payable": true,
      "stateMutability": "payable",
      "type": "function"
    },
    {
      "constant": false,
      "inputs": [],
      "name": "withdraw",
      "outputs": [],
      "payable": false,
      "stateMutability": "nonpayable",
      "type": "function"
    },
    {
      "constant": false,
      "inputs": [
        {
          "name": "lineupHash",
          "type": "bytes32"
        }
      ],
      "name": "setLineupHash",
      "outputs": [],
      "payable": false,
      "stateMutability": "nonpayable",
      "type": "function"
    },
    {
      "constant": true,
      "inputs": [
        {
          "name": "entrantAddress",
          "type": "address"
        }
      ],
      "name": "getLineupHash",
      "outputs": [
        {
          "name": "",
          "type": "bytes32"
        }
      ],
      "payable": false,
      "stateMutability": "view",
      "type": "function"
    },
    {
      "constant": true,
      "inputs": [],
      "name": "getEnteredAddressesForCurrentSlate",
      "outputs": [
        {
          "name": "",
          "type": "address[]"
        }
      ],
      "payable": false,
      "stateMutability": "view",
      "type": "function"
    },
    {
      "constant": true,
      "inputs": [
        {
          "name": "address_",
          "type": "address"
        }
      ],
      "name": "getCurrentSlateLineupForAddress",
      "outputs": [
        {
          "name": "",
          "type": "bytes32"
        },
        {
          "name": "",
          "type": "uint16[8]"
        }
      ],
      "payable": false,
      "stateMutability": "view",
      "type": "function"
    },
    {
      "constant": true,
      "inputs": [],
      "name": "getSlateId",
      "outputs": [
        {
          "name": "",
          "type": "bytes12"
        }
      ],
      "payable": false,
      "stateMutability": "view",
      "type": "function"
    },
    {
      "constant": true,
      "inputs": [
        {
          "name": "pgaId",
          "type": "uint16"
        }
      ],
      "name": "getSalary",
      "outputs": [
        {
          "name": "",
          "type": "int8"
        }
      ],
      "payable": false,
      "stateMutability": "view",
      "type": "function"
    },
    {
      "constant": false,
      "inputs": [
        {
          "name": "golferIdsColonDelimited",
          "type": "string"
        },
        {
          "name": "revealKey",
          "type": "string"
        }
      ],
      "name": "revealLineup",
      "outputs": [
        {
          "name": "",
          "type": "int16"
        }
      ],
      "payable": false,
      "stateMutability": "nonpayable",
      "type": "function"
    },
    {
      "constant": true,
      "inputs": [
        {
          "name": "eth",
          "type": "uint256"
        }
      ],
      "name": "calculateRake",
      "outputs": [
        {
          "name": "",
          "type": "uint256"
        }
      ],
      "payable": false,
      "stateMutability": "view",
      "type": "function"
    },
    {
      "constant": false,
      "inputs": [
        {
          "name": "contestId",
          "type": "bytes32"
        }
      ],
      "name": "createContest",
      "outputs": [],
      "payable": true,
      "stateMutability": "payable",
      "type": "function"
    },
    {
      "constant": false,
      "inputs": [
        {
          "name": "contestId",
          "type": "bytes32"
        }
      ],
      "name": "enterContest",
      "outputs": [],
      "payable": true,
      "stateMutability": "payable",
      "type": "function"
    },
    {
      "constant": false,
      "inputs": [
        {
          "name": "contestId",
          "type": "bytes32"
        },
        {
          "name": "msgSender",
          "type": "address"
        },
        {
          "name": "ethEntered",
          "type": "uint256"
        }
      ],
      "name": "payEntryFeeToContest",
      "outputs": [],
      "payable": true,
      "stateMutability": "payable",
      "type": "function"
    },
    {
      "constant": false,
      "inputs": [
        {
          "name": "compressedSalaries",
          "type": "string"
        }
      ],
      "name": "setSalaries",
      "outputs": [],
      "payable": false,
      "stateMutability": "nonpayable",
      "type": "function"
    },
    {
      "constant": false,
      "inputs": [
        {
          "name": "compressedScores",
          "type": "string"
        }
      ],
      "name": "setScores",
      "outputs": [],
      "payable": false,
      "stateMutability": "nonpayable",
      "type": "function"
    },
    {
      "constant": false,
      "inputs": [
        {
          "name": "contestId",
          "type": "bytes32"
        }
      ],
      "name": "setSingleContestPayouts",
      "outputs": [],
      "payable": false,
      "stateMutability": "nonpayable",
      "type": "function"
    },
    {
      "constant": false,
      "inputs": [
        {
          "name": "contestId",
          "type": "bytes32"
        }
      ],
      "name": "withdrawBalanceFromContest",
      "outputs": [],
      "payable": false,
      "stateMutability": "nonpayable",
      "type": "function"
    },
    {
      "constant": false,
      "inputs": [
        {
          "name": "contestId",
          "type": "bytes32"
        }
      ],
      "name": "payOutContest",
      "outputs": [],
      "payable": false,
      "stateMutability": "nonpayable",
      "type": "function"
    },
    {
      "constant": false,
      "inputs": [],
      "name": "getSalariesOnChain",
      "outputs": [],
      "payable": true,
      "stateMutability": "payable",
      "type": "function"
    },
    {
      "constant": false,
      "inputs": [],
      "name": "getScoresOnChain",
      "outputs": [],
      "payable": true,
      "stateMutability": "payable",
      "type": "function"
    },
    {
      "constant": false,
      "inputs": [
        {
          "name": "compressedScoresUrl_",
          "type": "string"
        }
      ],
      "name": "setScoresUrlAndGetResultsOnChain",
      "outputs": [],
      "payable": false,
      "stateMutability": "nonpayable",
      "type": "function"
    },
    {
      "constant": false,
      "inputs": [
        {
          "name": "compressedSalariesUrl_",
          "type": "string"
        }
      ],
      "name": "setSalariesUrlAndGetSalariesOnChain",
      "outputs": [],
      "payable": false,
      "stateMutability": "nonpayable",
      "type": "function"
    },
    {
      "constant": false,
      "inputs": [
        {
          "name": "_newSlateId",
          "type": "bytes12"
        },
        {
          "name": "_compressedSalariesUrl",
          "type": "string"
        },
        {
          "name": "_compressedScoresUrl",
          "type": "string"
        },
        {
          "name": "lockTimestamp",
          "type": "uint256"
        }
      ],
      "name": "setNewSlateInfo",
      "outputs": [],
      "payable": false,
      "stateMutability": "nonpayable",
      "type": "function"
    },
    {
      "constant": false,
      "inputs": [
        {
          "name": "queryUrl",
          "type": "string"
        },
        {
          "name": "callbackAction",
          "type": "string"
        }
      ],
      "name": "innerOraclizeQuery",
      "outputs": [],
      "payable": true,
      "stateMutability": "payable",
      "type": "function"
    },
    {
      "constant": false,
      "inputs": [
        {
          "name": "myid",
          "type": "bytes32"
        },
        {
          "name": "result",
          "type": "string"
        },
        {
          "name": "proof",
          "type": "bytes"
        }
      ],
      "name": "__callback",
      "outputs": [],
      "payable": false,
      "stateMutability": "nonpayable",
      "type": "function"
    },
    {
      "constant": false,
      "inputs": [
        {
          "name": "myid",
          "type": "bytes32"
        },
        {
          "name": "result",
          "type": "string"
        }
      ],
      "name": "__callback",
      "outputs": [],
      "payable": false,
      "stateMutability": "nonpayable",
      "type": "function"
    },
    {
      "constant": false,
      "inputs": [
        {
          "name": "contestId",
          "type": "bytes32"
        }
      ],
      "name": "deleteContest",
      "outputs": [],
      "payable": false,
      "stateMutability": "nonpayable",
      "type": "function"
    },
    {
      "constant": true,
      "inputs": [],
      "name": "getLiveContestIds",
      "outputs": [
        {
          "name": "",
          "type": "bytes32[]"
        }
      ],
      "payable": false,
      "stateMutability": "view",
      "type": "function"
    },
    {
      "constant": true,
      "inputs": [
        {
          "name": "contestId",
          "type": "bytes32"
        }
      ],
      "name": "getContestById",
      "outputs": [
        {
          "name": "",
          "type": "bytes32"
        },
        {
          "name": "",
          "type": "uint256"
        },
        {
          "name": "",
          "type": "uint256"
        },
        {
          "name": "",
          "type": "address"
        }
      ],
      "payable": false,
      "stateMutability": "view",
      "type": "function"
    },
    {
      "constant": true,
      "inputs": [],
      "name": "testFunction",
      "outputs": [
        {
          "name": "",
          "type": "string"
        }
      ],
      "payable": false,
      "stateMutability": "view",
      "type": "function"
    }
  ],
  "bytecode": "0x60606040526020604051908101604052806000815250600b90805190602001906200002c92919062000113565b506020604051908101604052806000815250600c90805190602001906200005592919062000113565b5060646013556014805560075434101515156200007157600080fd5b33600560006101000a81548173ffffffffffffffffffffffffffffffffffffffff021916908373ffffffffffffffffffffffffffffffffffffffff160217905550346006819055507315ce83f7b43082c21deb5bedd004e2f683b453926000806101000a81548173ffffffffffffffffffffffffffffffffffffffff021916908373ffffffffffffffffffffffffffffffffffffffff160217905550620001c2565b828054600181600116156101000203166002900490600052602060002090601f016020900481019282601f106200015657805160ff191683800117855562000187565b8280016001018555821562000187579182015b828111156200018657825182559160200191906001019062000169565b5b5090506200019691906200019a565b5090565b620001bf91905b80821115620001bb576000816000905550600101620001a1565b5090565b90565b615ea280620001d26000396000f30060606040526004361061018b576000357c0100000000000000000000000000000000000000000000000000000000900463ffffffff16806308064980146101905780630b4103ee146101d15780630fc33560146101f8578063137492ff1461020257806318d019dc1461025f5780631c5c5fa3146102e357806326daf1641461039d57806327dc297e146104325780632b58719d1461049c57806338bbfa50146104f95780633ccfd60b146105a657806344375f66146105bb578063471924db146106845780634c55dcde146106ee5780634c5e9d18146107155780634d346a49146107725780636aff681c146107c9578063779552451461080d5780637ba3612814610862578063807d9e16146108cc578063897e4edb146108e8578063abfb80bc14610904578063c1c6070e1461092b578063c5012ffc14610952578063d0e30db0146109af578063d781b7cf146109b9578063e16b4a9b146109f0578063eb1a572414610a7e578063f03008ba14610ad3578063f5a45c6014610afa578063fb9a7aaf14610b7e575b600080fd5b341561019b57600080fd5b6101b5600480803561ffff16906020019091905050610b88565b604051808260000b60000b815260200191505060405180910390f35b34156101dc57600080fd5b6101f6600480803560001916906020019091905050610c1f565b005b6102006118dc565b005b341561020d57600080fd5b61025d600480803590602001908201803590602001908080601f016020809104026020016040519081016040528093929190818152602001838380828437820191505050505050919050506119b7565b005b341561026a57600080fd5b610296600480803573ffffffffffffffffffffffffffffffffffffffff16906020019091905050611a27565b60405180836000191660001916815260200182600860200280838360005b838110156102cf5780820151818401526020810190506102b4565b505050509050019250505060405180910390f35b34156102ee57600080fd5b610381600480803590602001908201803590602001908080601f0160208091040260200160405190810160405280939291908181526020018383808284378201915050505050509190803590602001908201803590602001908080601f01602080910402602001604051908101604052809392919081815260200183838082843782019150505050505091905050611b99565b604051808260010b60010b815260200191505060405180910390f35b610430600480803590602001908201803590602001908080601f0160208091040260200160405190810160405280939291908181526020018383808284378201915050505050509190803590602001908201803590602001908080601f01602080910402602001604051908101604052809392919081815260200183838082843782019150505050505091905050612035565b005b341561043d57600080fd5b61049a60048080356000191690602001909190803590602001908201803590602001908080601f01602080910402602001604051908101604052809392919081815260200183838082843782019150505050505091905050612323565b005b34156104a757600080fd5b6104f7600480803590602001908201803590602001908080601f0160208091040260200160405190810160405280939291908181526020018383808284378201915050505050509190505061248e565b005b341561050457600080fd5b6105a460048080356000191690602001909190803590602001908201803590602001908080601f0160208091040260200160405190810160405280939291908181526020018383808284378201915050505050509190803590602001908201803590602001908080601f016020809104026020016040519081016040528093929190818152602001838380828437820191505050505050919050506127f2565b005b34156105b157600080fd5b6105b96127f7565b005b34156105c657600080fd5b610682600480803573ffffffffffffffffffffffffffffffffffffffff191690602001909190803590602001908201803590602001908080601f0160208091040260200160405190810160405280939291908181526020018383808284378201915050505050509190803590602001908201803590602001908080601f016020809104026020016040519081016040528093929190818152602001838380828437820191505050505050919080359060200190919050506128d6565b005b341561068f57600080fd5b6106976129ee565b6040518080602001828103825283818151815260200191508051906020019060200280838360005b838110156106da5780820151818401526020810190506106bf565b505050509050019250505060405180910390f35b34156106f957600080fd5b610713600480803560001916906020019091905050612af2565b005b341561072057600080fd5b610770600480803590602001908201803590602001908080601f01602080910402602001604051908101604052809392919081815260200183838082843782019150505050505091905050612c0e565b005b341561077d57600080fd5b610785613061565b604051808273ffffffffffffffffffffffffffffffffffffffff191673ffffffffffffffffffffffffffffffffffffffff1916815260200191505060405180910390f35b61080b60048080356000191690602001909190803573ffffffffffffffffffffffffffffffffffffffff1690602001909190803590602001909190505061308c565b005b341561081857600080fd5b610820613207565b604051808273ffffffffffffffffffffffffffffffffffffffff1673ffffffffffffffffffffffffffffffffffffffff16815260200191505060405180910390f35b341561086d57600080fd5b61087561322d565b6040518080602001828103825283818151815260200191508051906020019060200280838360005b838110156108b857808201518184015260208101905061089d565b505050509050019250505060405180910390f35b6108e6600480803560001916906020019091905050613323565b005b610902600480803560001916906020019091905050613493565b005b341561090f57600080fd5b6109296004808035600019169060200190919050506136a4565b005b341561093657600080fd5b610950600480803560001916906020019091905050613a39565b005b341561095d57600080fd5b6109ad600480803590602001908201803590602001908080601f01602080910402602001604051908101604052809392919081815260200183838082843782019150505050505091905050613c5d565b005b6109b7613ccd565b005b34156109c457600080fd5b6109da6004808035906020019091905050613cdf565b6040518082815260200191505060405180910390f35b34156109fb57600080fd5b610a03613cfc565b6040518080602001828103825283818151815260200191508051906020019080838360005b83811015610a43578082015181840152602081019050610a28565b50505050905090810190601f168015610a705780820380516001836020036101000a031916815260200191505b509250505060405180910390f35b3415610a8957600080fd5b610ab5600480803573ffffffffffffffffffffffffffffffffffffffff16906020019091905050613d3f565b60405180826000191660001916815260200191505060405180910390f35b3415610ade57600080fd5b610af8600480803560001916906020019091905050613ded565b005b3415610b0557600080fd5b610b1f600480803560001916906020019091905050613f23565b6040518085600019166000191681526020018481526020018381526020018273ffffffffffffffffffffffffffffffffffffffff1673ffffffffffffffffffffffffffffffffffffffff16815260200194505050505060405180910390f35b610b86613fed565b005b6000600e6000600960009054906101000a9004740100000000000000000000000000000000000000000273ffffffffffffffffffffffffffffffffffffffff191673ffffffffffffffffffffffffffffffffffffffff1916815260200190815260200160002060008361ffff1661ffff16815260200190815260200160002060000160009054906101000a900460000b9050919050565b6000806000806000610c2f615be6565b60008060008060008060156000600960009054906101000a9004740100000000000000000000000000000000000000000273ffffffffffffffffffffffffffffffffffffffff191673ffffffffffffffffffffffffffffffffffffffff1916815260200190815260200160002060009054906101000a900460ff161515610cb557600080fd5b601260008e600019166000191681526020019081526020016000209b508b60040160009054906101000a900460ff161515610cef57600080fd5b8b6005016000600960009054906101000a9004740100000000000000000000000000000000000000000273ffffffffffffffffffffffffffffffffffffffff191673ffffffffffffffffffffffffffffffffffffffff1916815260200190815260200160002060009054906101000a900460ff16151515610d6f57600080fd5b8b6006016000600960009054906101000a9004740100000000000000000000000000000000000000000273ffffffffffffffffffffffffffffffffffffffff191673ffffffffffffffffffffffffffffffffffffffff19168152602001908152602001600020805490509a5060009950600098505b8a61ffff168960ff1610156111fc578b6006016000600960009054906101000a9004740100000000000000000000000000000000000000000273ffffffffffffffffffffffffffffffffffffffff191673ffffffffffffffffffffffffffffffffffffffff191681526020019081526020016000208960ff16815481101515610e6957fe5b906000526020600020900160009054906101000a900473ffffffffffffffffffffffffffffffffffffffff16975060106000600960009054906101000a9004740100000000000000000000000000000000000000000273ffffffffffffffffffffffffffffffffffffffff191673ffffffffffffffffffffffffffffffffffffffff1916815260200190815260200160002060008973ffffffffffffffffffffffffffffffffffffffff1673ffffffffffffffffffffffffffffffffffffffff168152602001908152602001600020600201600880602002604051908101604052809291908260088015610f9a576020028201916000905b82829054906101000a900461ffff1661ffff1681526020019060020190602082600101049283019260010382029150808411610f615790505b50505050509650600095505b60088660ff16101561113757600e6000600960009054906101000a9004740100000000000000000000000000000000000000000273ffffffffffffffffffffffffffffffffffffffff191673ffffffffffffffffffffffffffffffffffffffff191681526020019081526020016000206000888860ff1660088110151561102957fe5b602002015161ffff1661ffff16815260200190815260200160002060000160019054906101000a900460000b60000b8c6008016000600960009054906101000a9004740100000000000000000000000000000000000000000273ffffffffffffffffffffffffffffffffffffffff191673ffffffffffffffffffffffffffffffffffffffff1916815260200190815260200160002060008a73ffffffffffffffffffffffffffffffffffffffff1673ffffffffffffffffffffffffffffffffffffffff16815260200190815260200160002060008282829054906101000a900460010b0192506101000a81548161ffff021916908360010b61ffff1602179055508580600101965050610fa6565b8b6008016000600960009054906101000a9004740100000000000000000000000000000000000000000273ffffffffffffffffffffffffffffffffffffffff191673ffffffffffffffffffffffffffffffffffffffff1916815260200190815260200160002060008973ffffffffffffffffffffffffffffffffffffffff1673ffffffffffffffffffffffffffffffffffffffff16815260200190815260200160002060009054906101000a900460010b60010b8a0199508880600101995050610de4565b8a61ffff168a81151561120b57fe5b05945060009250600098505b8a61ffff168960ff161015611623578b6006016000600960009054906101000a9004740100000000000000000000000000000000000000000273ffffffffffffffffffffffffffffffffffffffff191673ffffffffffffffffffffffffffffffffffffffff191681526020019081526020016000208960ff1681548110151561129c57fe5b906000526020600020900160009054906101000a900473ffffffffffffffffffffffffffffffffffffffff169750848c6008016000600960009054906101000a9004740100000000000000000000000000000000000000000273ffffffffffffffffffffffffffffffffffffffff191673ffffffffffffffffffffffffffffffffffffffff1916815260200190815260200160002060008a73ffffffffffffffffffffffffffffffffffffffff1673ffffffffffffffffffffffffffffffffffffffff16815260200190815260200160002060009054906101000a900460010b60010b12158015611441575060008c6008016000600960009054906101000a9004740100000000000000000000000000000000000000000273ffffffffffffffffffffffffffffffffffffffff191673ffffffffffffffffffffffffffffffffffffffff1916815260200190815260200160002060008a73ffffffffffffffffffffffffffffffffffffffff1673ffffffffffffffffffffffffffffffffffffffff16815260200190815260200160002060009054906101000a900460010b60010b12155b15611616578b6008016000600960009054906101000a9004740100000000000000000000000000000000000000000273ffffffffffffffffffffffffffffffffffffffff191673ffffffffffffffffffffffffffffffffffffffff1916815260200190815260200160002060008973ffffffffffffffffffffffffffffffffffffffff1673ffffffffffffffffffffffffffffffffffffffff16815260200190815260200160002060009054906101000a900460010b8c6008016000600960009054906101000a9004740100000000000000000000000000000000000000000273ffffffffffffffffffffffffffffffffffffffff191673ffffffffffffffffffffffffffffffffffffffff1916815260200190815260200160002060008a73ffffffffffffffffffffffffffffffffffffffff1673ffffffffffffffffffffffffffffffffffffffff16815260200190815260200160002060009054906101000a900460010b0260010b91508380548060010182816115c19190615c13565b916000526020600020900160008a909190916101000a81548173ffffffffffffffffffffffffffffffffffffffff021916908373ffffffffffffffffffffffffffffffffffffffff1602179055505081830192505b8880600101995050611217565b600098505b83805490508960ff16101561184e57838960ff1681548110151561164857fe5b906000526020600020900160009054906101000a900473ffffffffffffffffffffffffffffffffffffffff1697508b6008016000600960009054906101000a9004740100000000000000000000000000000000000000000273ffffffffffffffffffffffffffffffffffffffff191673ffffffffffffffffffffffffffffffffffffffff1916815260200190815260200160002060008973ffffffffffffffffffffffffffffffffffffffff1673ffffffffffffffffffffffffffffffffffffffff16815260200190815260200160002060009054906101000a900460010b8c6008016000600960009054906101000a9004740100000000000000000000000000000000000000000273ffffffffffffffffffffffffffffffffffffffff191673ffffffffffffffffffffffffffffffffffffffff1916815260200190815260200160002060008a73ffffffffffffffffffffffffffffffffffffffff1673ffffffffffffffffffffffffffffffffffffffff16815260200190815260200160002060009054906101000a900460010b0260010b915082828d60020154028115156117ef57fe5b049050808c60090160008a73ffffffffffffffffffffffffffffffffffffffff1673ffffffffffffffffffffffffffffffffffffffff168152602001908152602001600020600082825401925050819055508880600101995050611628565b60018c6005016000600960009054906101000a9004740100000000000000000000000000000000000000000273ffffffffffffffffffffffffffffffffffffffff191673ffffffffffffffffffffffffffffffffffffffff1916815260200190815260200160002060006101000a81548160ff02191690831515021790555050505050505050505050505050565b6119b5600c8054600181600116156101000203166002900480601f0160208091040260200160405190810160405280929190818152602001828054600181600116156101000203166002900480156119755780601f1061194a57610100808354040283529160200191611975565b820191906000526020600020905b81548152906001019060200180831161195857829003601f168201915b50505050506040805190810160405280600681526020017f53636f7265730000000000000000000000000000000000000000000000000000815250612035565b565b600560009054906101000a900473ffffffffffffffffffffffffffffffffffffffff1673ffffffffffffffffffffffffffffffffffffffff163373ffffffffffffffffffffffffffffffffffffffff16141515611a1357600080fd5b611a1c816140c8565b611a24613fed565b50565b6000611a31615be6565b611a39615c3f565b60106000600960009054906101000a9004740100000000000000000000000000000000000000000273ffffffffffffffffffffffffffffffffffffffff191673ffffffffffffffffffffffffffffffffffffffff1916815260200190815260200160002060008573ffffffffffffffffffffffffffffffffffffffff1673ffffffffffffffffffffffffffffffffffffffff168152602001908152602001600020606060405190810160405290816000820160009054906101000a900460ff1615151515815260200160018201546000191660001916815260200160028201600880602002604051908101604052809291908260088015611b77576020028201916000905b82829054906101000a900461ffff1661ffff1681526020019060020190602082600101049283019260010382029150808411611b3e5790505b5050505050815250509050806020015181604001518090509250925050915091565b6000611ba3615c6d565b611bab615c81565b611bb3615c81565b6000806000806000611bfb8b6040805190810160405280600181526020017f7c000000000000000000000000000000000000000000000000000000000000008152508c6140e2565b6040518082805190602001908083835b602083101515611c305780518252602082019150602081019050602083039250611c0b565b6001836020036101000a03801982511681845116808217855250505050505090500191505060405180910390206000191660106000600960009054906101000a9004740100000000000000000000000000000000000000000273ffffffffffffffffffffffffffffffffffffffff191673ffffffffffffffffffffffffffffffffffffffff1916815260200190815260200160002060003373ffffffffffffffffffffffffffffffffffffffff1673ffffffffffffffffffffffffffffffffffffffff1681526020019081526020016000206001015460001916141515611d1657600080fd5b6008604051805910611d255750595b90808252806020026020018201604052509750611d418b614120565b9650611d816040805190810160405280600181526020017f3a00000000000000000000000000000000000000000000000000000000000000815250614120565b95506001611d98878961414e90919063ffffffff16565b01945060088511151515611dab57600080fd5b60009350600092505b848360ff161015611f0157611de2611ddd611dd8888a6141c590919063ffffffff16565b6141df565b61423d565b9150600090505b8260ff168160ff161015611e3557878160ff16815181101515611e0857fe5b9060200190602002015161ffff168261ffff1614151515611e2857600080fd5b8080600101915050611de9565b81888460ff16815181101515611e4757fe5b9060200190602002019061ffff16908161ffff1681525050600e6000600960009054906101000a9004740100000000000000000000000000000000000000000273ffffffffffffffffffffffffffffffffffffffff191673ffffffffffffffffffffffffffffffffffffffff1916815260200190815260200160002060008361ffff1661ffff16815260200190815260200160002060000160009054906101000a900460000b60000b840193508280600101935050611db4565b6013548460010b13151515611f1557600080fd5b600092505b87518360ff16101561202757878360ff16815181101515611f3757fe5b9060200190602002015160106000600960009054906101000a9004740100000000000000000000000000000000000000000273ffffffffffffffffffffffffffffffffffffffff191673ffffffffffffffffffffffffffffffffffffffff1916815260200190815260200160002060003373ffffffffffffffffffffffffffffffffffffffff1673ffffffffffffffffffffffffffffffffffffffff1681526020019081526020016000206002018460ff16600881101515611ff557fe5b601091828204019190066002026101000a81548161ffff021916908361ffff1602179055508280600101935050611f1a565b505050505050505092915050565b6000806000600361207a6040805190810160405280600381526020017f55524c0000000000000000000000000000000000000000000000000000000000815250614251565b02660886c98b760000019250655af3107a40009150818301341015612192577f46cb989ef9cef13e930e3b7f286225a086e716a90d63e0b7da85d310a9db0c9a6040518080602001828103825260468152602001807f4f7261636c697a65207175657279206661696c65642e2053656e64206d6f726581526020017f2045544820282e3030323545544820696e20676173202b20242e30332070657281526020017f207175657279000000000000000000000000000000000000000000000000000081525060600191505060405180910390a13373ffffffffffffffffffffffffffffffffffffffff166108fc349081150290604051600060405180830381858888f19350505050151561218d57600080fd5b61231c565b8234036006600082825401925050819055507f46cb989ef9cef13e930e3b7f286225a086e716a90d63e0b7da85d310a9db0c9a6040518080602001828103825260378152602001807f4f7261636c697a65207175657269657320776572652073656e742c207374616e81526020017f64696e6720627920666f722074686520616e737765722e00000000000000000081525060400191505060405180910390a16122e96040805190810160405280600381526020017f55524c00000000000000000000000000000000000000000000000000000000008152506122e06040805190810160405280600581526020017f6a736f6e28000000000000000000000000000000000000000000000000000000815250886040805190810160405280601281526020017f292e636f6d7072657373656453636f72657300000000000000000000000000008152506140e2565b620927c06145d9565b905083600860008360001916600019168152602001908152602001600020908051906020019061231a929190615c9b565b505b5050505050565b600061232d614b29565b73ffffffffffffffffffffffffffffffffffffffff163373ffffffffffffffffffffffffffffffffffffffff1614151561236657600080fd5b60086000846000191660001916815260200190815260200160002060405180828054600181600116156101000203166002900480156123dc5780601f106123ba5761010080835404028352918201916123dc565b820191906000526020600020905b8154815290600101906020018083116123c8575b50509150506040518091039020905060405180807f53616c617269657300000000000000000000000000000000000000000000000081525060080190506040518091039020600019168160001916141561243a576124398261248e565b5b60405180807f53636f72657300000000000000000000000000000000000000000000000000008152506006019050604051809103902060001916816000191614156124895761248882612c0e565b5b505050565b612496615c81565b61249e615c81565b6124a6615c81565b6000806124b1615c81565b6000806000600560009054906101000a900473ffffffffffffffffffffffffffffffffffffffff1673ffffffffffffffffffffffffffffffffffffffff163373ffffffffffffffffffffffffffffffffffffffff1614151561251257600080fd5b600060156000600960009054906101000a9004740100000000000000000000000000000000000000000273ffffffffffffffffffffffffffffffffffffffff191673ffffffffffffffffffffffffffffffffffffffff1916815260200190815260200160002060006101000a81548160ff0219169083151502179055506125988a614120565b98506125d86040805190810160405280600181526020017f2000000000000000000000000000000000000000000000000000000000000000815250614120565b97506126186040805190810160405280600181526020017f3a00000000000000000000000000000000000000000000000000000000000000815250614120565b9650600161262f898b61414e90919063ffffffff16565b019550600094505b858560ff1610156127e657612655888a6141c590919063ffffffff16565b935061267a61267561267089876141c590919063ffffffff16565b6141df565b61423d565b925061268d612688856141df565b61423d565b9150600d6000600960009054906101000a9004740100000000000000000000000000000000000000000273ffffffffffffffffffffffffffffffffffffffff191673ffffffffffffffffffffffffffffffffffffffff1916815260200190815260200160002080548060010182816127059190615d1b565b916000526020600020906010918282040191900660020285909190916101000a81548161ffff021916908361ffff16021790555050600e6000600960009054906101000a9004740100000000000000000000000000000000000000000273ffffffffffffffffffffffffffffffffffffffff191673ffffffffffffffffffffffffffffffffffffffff1916815260200190815260200160002060008461ffff1661ffff1681526020019081526020016000209050818160000160006101000a81548160ff021916908360000b60ff1602179055508480600101955050612637565b50505050505050505050565b505050565b600560009054906101000a900473ffffffffffffffffffffffffffffffffffffffff1673ffffffffffffffffffffffffffffffffffffffff163373ffffffffffffffffffffffffffffffffffffffff1614151561285357600080fd5b60006007546006540311156128d457600560009054906101000a900473ffffffffffffffffffffffffffffffffffffffff1673ffffffffffffffffffffffffffffffffffffffff166108fc600754600654039081150290604051600060405180830381858888f1935050505015156128ca57600080fd5b6007546006819055505b565b600560009054906101000a900473ffffffffffffffffffffffffffffffffffffffff1673ffffffffffffffffffffffffffffffffffffffff163373ffffffffffffffffffffffffffffffffffffffff1614151561293257600080fd5b83600960006101000a8154816bffffffffffffffffffffffff0219169083740100000000000000000000000000000000000000009004021790555080600a6000600960009054906101000a9004740100000000000000000000000000000000000000000273ffffffffffffffffffffffffffffffffffffffff191673ffffffffffffffffffffffffffffffffffffffff19168152602001908152602001600020819055506129df82614e3f565b6129e8836140c8565b50505050565b6129f6615d55565b60008060008091505b601180549050821015612a9657601182815481101515612a1b57fe5b906000526020600020900154905060126000826000191660001916815260200190815260200160002060040160009054906101000a900460ff1615612a8957828054806001018281612a6d9190615d69565b9160005260206000209001600083909190915090600019169055505b81806001019250506129ff565b82805480602002602001604051908101604052809291908181526020018280548015612ae557602002820191906000526020600020905b81546000191681526020019060010190808311612acd575b5050505050935050505090565b60126000826000191660001916815260200190815260200160002060040160009054906101000a900460ff16151515612b2a57600080fd5b60126000826000191660001916815260200190815260200160002060000160009054906101000a900473ffffffffffffffffffffffffffffffffffffffff1673ffffffffffffffffffffffffffffffffffffffff163373ffffffffffffffffffffffffffffffffffffffff16141515612ba257600080fd5b601260008260001916600019168152602001908152602001600020600080820160006101000a81549073ffffffffffffffffffffffffffffffffffffffff0219169055600182016000905560028201600090556004820160006101000a81549060ff0219169055505050565b612c16615c81565b612c1e615c81565b612c26615d95565b600080600080600060156000600960009054906101000a9004740100000000000000000000000000000000000000000273ffffffffffffffffffffffffffffffffffffffff191673ffffffffffffffffffffffffffffffffffffffff1916815260200190815260200160002060009054906101000a900460ff16151515612cac57600080fd5b612cb589614120565b9750612cf56040805190810160405280600181526020017f2000000000000000000000000000000000000000000000000000000000000000815250614120565b96506001612d0c888a61414e90919063ffffffff16565b01604051805910612d1a5750595b908082528060200260200182016040528015612d5057816020015b612d3d615da9565b815260200190600190039081612d355790505b509550600094505b85518561ffff161015612fd957612d7887896141c590919063ffffffff16565b868661ffff16815181101515612d8a57fe5b90602001906020020181905250612e12612e0d612e08612dde6040805190810160405280600181526020017f3a00000000000000000000000000000000000000000000000000000000000000815250614120565b898961ffff16815181101515612df057fe5b906020019060200201516141c590919063ffffffff16565b6141df565b61423d565b93506001612e81612e576040805190810160405280600181526020017f2d00000000000000000000000000000000000000000000000000000000000000815250614120565b888861ffff16815181101515612e6957fe5b9060200190602002015161414e90919063ffffffff16565b019250600091505b82821015612fcc57612f0c612f07612f02612ed86040805190810160405280600181526020017f2d00000000000000000000000000000000000000000000000000000000000000815250614120565b898961ffff16815181101515612eea57fe5b906020019060200201516141c590919063ffffffff16565b6141df565b61423d565b905080605003600e6000600960009054906101000a9004740100000000000000000000000000000000000000000273ffffffffffffffffffffffffffffffffffffffff191673ffffffffffffffffffffffffffffffffffffffff1916815260200190815260200160002060008661ffff1661ffff16815260200190815260200160002060000160018282829054906101000a900460000b0192506101000a81548160ff021916908360000b60ff1602179055508180600101925050612e89565b8480600101955050612d58565b600160156000600960009054906101000a9004740100000000000000000000000000000000000000000273ffffffffffffffffffffffffffffffffffffffff191673ffffffffffffffffffffffffffffffffffffffff1916815260200190815260200160002060006101000a81548160ff021916908315150217905550505050505050505050565b6000600960009054906101000a90047401000000000000000000000000000000000000000002905090565b6000806012600086600019166000191681526020019081526020016000209150816007016000600960009054906101000a9004740100000000000000000000000000000000000000000273ffffffffffffffffffffffffffffffffffffffff191673ffffffffffffffffffffffffffffffffffffffff1916815260200190815260200160002060008573ffffffffffffffffffffffffffffffffffffffff1673ffffffffffffffffffffffffffffffffffffffff16815260200190815260200160002060009054906101000a900460ff1615156132005761316c83613cdf565b9050808260010154018311151561318257600080fd5b81600101548260020160008282540192505081905550806006600082825401925050819055508082600101548403038260090160008673ffffffffffffffffffffffffffffffffffffffff1673ffffffffffffffffffffffffffffffffffffffff168152602001908152602001600020600082825401925050819055505b5050505050565b600560009054906101000a900473ffffffffffffffffffffffffffffffffffffffff1681565b613235615dc3565b600f6000600960009054906101000a9004740100000000000000000000000000000000000000000273ffffffffffffffffffffffffffffffffffffffff191673ffffffffffffffffffffffffffffffffffffffff1916815260200190815260200160002080548060200260200160405190810160405280929190818152602001828054801561331957602002820191906000526020600020905b8160009054906101000a900473ffffffffffffffffffffffffffffffffffffffff1673ffffffffffffffffffffffffffffffffffffffff16815260200190600101908083116132cf575b5050505050905090565b61332b615c3f565b60106000600960009054906101000a9004740100000000000000000000000000000000000000000273ffffffffffffffffffffffffffffffffffffffff191673ffffffffffffffffffffffffffffffffffffffff1916815260200190815260200160002060003373ffffffffffffffffffffffffffffffffffffffff1673ffffffffffffffffffffffffffffffffffffffff168152602001908152602001600020606060405190810160405290816000820160009054906101000a900460ff1615151515815260200160018201546000191660001916815260200160028201600880602002604051908101604052809291908260088015613469576020028201916000905b82829054906101000a900461ffff1661ffff16815260200190600201906020826001010492830192600103820291508084116134305790505b50505050508152505090508060000151151561348457600080fd5b61348f82333461308c565b5050565b60126000826000191660001916815260200190815260200160002060040160009054906101000a900460ff161515156134cb57600080fd5b60106000600960009054906101000a9004740100000000000000000000000000000000000000000273ffffffffffffffffffffffffffffffffffffffff191673ffffffffffffffffffffffffffffffffffffffff1916815260200190815260200160002060003373ffffffffffffffffffffffffffffffffffffffff1673ffffffffffffffffffffffffffffffffffffffff16815260200190815260200160002060000160009054906101000a900460ff16151561358857600080fd5b6011805480600101828161359c9190615d69565b9160005260206000209001600083909190915090600019169055506080604051908101604052803373ffffffffffffffffffffffffffffffffffffffff1681526020016135e834613cdf565b34038152602001600081526020016001151581525060126000836000191660001916815260200190815260200160002060008201518160000160006101000a81548173ffffffffffffffffffffffffffffffffffffffff021916908373ffffffffffffffffffffffffffffffffffffffff160217905550602082015181600101556040820151816002015560608201518160040160006101000a81548160ff0219169083151502179055509050506136a181333461308c565b50565b600080600060156000600960009054906101000a9004740100000000000000000000000000000000000000000273ffffffffffffffffffffffffffffffffffffffff191673ffffffffffffffffffffffffffffffffffffffff1916815260200190815260200160002060009054906101000a900460ff16151561372657600080fd5b6012600085600019166000191681526020019081526020016000209250826005016000600960009054906101000a9004740100000000000000000000000000000000000000000273ffffffffffffffffffffffffffffffffffffffff191673ffffffffffffffffffffffffffffffffffffffff1916815260200190815260200160002060009054906101000a900460ff1615156137c257600080fd5b8260040160009054906101000a900460ff1615156137df57600080fd5b600091505b826006016000600960009054906101000a9004740100000000000000000000000000000000000000000273ffffffffffffffffffffffffffffffffffffffff191673ffffffffffffffffffffffffffffffffffffffff1916815260200190815260200160002080549050821015613a1657826006016000600960009054906101000a9004740100000000000000000000000000000000000000000273ffffffffffffffffffffffffffffffffffffffff191673ffffffffffffffffffffffffffffffffffffffff19168152602001908152602001600020828154811015156138c857fe5b906000526020600020900160009054906101000a900473ffffffffffffffffffffffffffffffffffffffff16905060008360090160008373ffffffffffffffffffffffffffffffffffffffff1673ffffffffffffffffffffffffffffffffffffffff168152602001908152602001600020541115613a09578073ffffffffffffffffffffffffffffffffffffffff166108fc8460090160008473ffffffffffffffffffffffffffffffffffffffff1673ffffffffffffffffffffffffffffffffffffffff168152602001908152602001600020549081150290604051600060405180830381858888f1935050505015156139c157600080fd5b60008360090160003373ffffffffffffffffffffffffffffffffffffffff1673ffffffffffffffffffffffffffffffffffffffff168152602001908152602001600020819055505b81806001019250506137e4565b60008360040160006101000a81548160ff02191690831515021790555050505050565b6000600a6000600960009054906101000a9004740100000000000000000000000000000000000000000273ffffffffffffffffffffffffffffffffffffffff191673ffffffffffffffffffffffffffffffffffffffff19168152602001908152602001600020544211151515613aae57600080fd5b60106000600960009054906101000a9004740100000000000000000000000000000000000000000273ffffffffffffffffffffffffffffffffffffffff191673ffffffffffffffffffffffffffffffffffffffff1916815260200190815260200160002060003373ffffffffffffffffffffffffffffffffffffffff1673ffffffffffffffffffffffffffffffffffffffff16815260200190815260200160002090508060000160009054906101000a900460ff161515613c2f57600f6000600960009054906101000a9004740100000000000000000000000000000000000000000273ffffffffffffffffffffffffffffffffffffffff191673ffffffffffffffffffffffffffffffffffffffff191681526020019081526020016000208054806001018281613bdf9190615c13565b9160005260206000209001600033909190916101000a81548173ffffffffffffffffffffffffffffffffffffffff021916908373ffffffffffffffffffffffffffffffffffffffff160217905550505b8181600101816000191690555060018160000160006101000a81548160ff0219169083151502179055505050565b600560009054906101000a900473ffffffffffffffffffffffffffffffffffffffff1673ffffffffffffffffffffffffffffffffffffffff163373ffffffffffffffffffffffffffffffffffffffff16141515613cb957600080fd5b613cc281614e3f565b613cca6118dc565b50565b34600660008282540192505081905550565b60006103e86014548302811515613cf257fe5b0482039050919050565b613d04615dd7565b6040805190810160405280600481526020017f7465737400000000000000000000000000000000000000000000000000000000815250905090565b600060106000600960009054906101000a9004740100000000000000000000000000000000000000000273ffffffffffffffffffffffffffffffffffffffff191673ffffffffffffffffffffffffffffffffffffffff1916815260200190815260200160002060008373ffffffffffffffffffffffffffffffffffffffff1673ffffffffffffffffffffffffffffffffffffffff168152602001908152602001600020600101549050919050565b6000601260008360001916600019168152602001908152602001600020905060008160090160003373ffffffffffffffffffffffffffffffffffffffff1673ffffffffffffffffffffffffffffffffffffffff168152602001908152602001600020541115613f1f573373ffffffffffffffffffffffffffffffffffffffff166108fc8260090160003373ffffffffffffffffffffffffffffffffffffffff1673ffffffffffffffffffffffffffffffffffffffff168152602001908152602001600020549081150290604051600060405180830381858888f193505050501515613ed757600080fd5b60008160090160003373ffffffffffffffffffffffffffffffffffffffff1673ffffffffffffffffffffffffffffffffffffffff168152602001908152602001600020819055505b5050565b60008060008060006012600087600019166000191681526020019081526020016000209050858160010154826006016000600960009054906101000a9004740100000000000000000000000000000000000000000273ffffffffffffffffffffffffffffffffffffffff191673ffffffffffffffffffffffffffffffffffffffff19168152602001908152602001600020805490508360000160009054906101000a900473ffffffffffffffffffffffffffffffffffffffff169450945094509450509193509193565b6140c6600b8054600181600116156101000203166002900480601f0160208091040260200160405190810160405280929190818152602001828054600181600116156101000203166002900480156140865780601f1061405b57610100808354040283529160200191614086565b820191906000526020600020905b81548152906001019060200180831161406957829003601f168201915b50505050506040805190810160405280600881526020017f53616c6172696573000000000000000000000000000000000000000000000000815250612035565b565b80600b90805190602001906140de929190615c9b565b5050565b6140ea615dd7565b61411784848460206040519081016040528060008152506020604051908101604052806000815250614e59565b90509392505050565b614128615c81565b600060208301905060408051908101604052808451815260200182815250915050919050565b60008082600001516141728560000151866020015186600001518760200151615291565b0190505b8360000151846020015101811115156141be57818060010192505082600001516141b6856020015183038660000151038386600001518760200151615291565b019050614176565b5092915050565b6141cd615c81565b6141d883838361534d565b5092915050565b6141e7615dd7565b6141ef615dd7565b600083600001516040518059106142035750595b9080825280601f01601f1916602001820160405250915060208201905061423381856020015186600001516153eb565b8192505050919050565b600061424a826000615436565b9050919050565b6000806000809054906101000a900473ffffffffffffffffffffffffffffffffffffffff1673ffffffffffffffffffffffffffffffffffffffff1614806142c1575060006142bf6000809054906101000a900473ffffffffffffffffffffffffffffffffffffffff16615730565b145b156142d2576142d0600061573b565b505b6000809054906101000a900473ffffffffffffffffffffffffffffffffffffffff1673ffffffffffffffffffffffffffffffffffffffff166338cc48316000604051602001526040518163ffffffff167c0100000000000000000000000000000000000000000000000000000000028152600401602060405180830381600087803b151561435f57600080fd5b6102c65a03f1151561437057600080fd5b5050506040518051905073ffffffffffffffffffffffffffffffffffffffff16600160009054906101000a900473ffffffffffffffffffffffffffffffffffffffff1673ffffffffffffffffffffffffffffffffffffffff161415156144b9576000809054906101000a900473ffffffffffffffffffffffffffffffffffffffff1673ffffffffffffffffffffffffffffffffffffffff166338cc48316000604051602001526040518163ffffffff167c0100000000000000000000000000000000000000000000000000000000028152600401602060405180830381600087803b151561445d57600080fd5b6102c65a03f1151561446e57600080fd5b50505060405180519050600160006101000a81548173ffffffffffffffffffffffffffffffffffffffff021916908373ffffffffffffffffffffffffffffffffffffffff1602179055505b600160009054906101000a900473ffffffffffffffffffffffffffffffffffffffff1673ffffffffffffffffffffffffffffffffffffffff1663524f3889836000604051602001526040518263ffffffff167c01000000000000000000000000000000000000000000000000000000000281526004018080602001828103825283818151815260200191508051906020019080838360005b8381101561456c578082015181840152602081019050614551565b50505050905090810190601f1680156145995780820380516001836020036101000a031916815260200191505b5092505050602060405180830381600087803b15156145b757600080fd5b6102c65a03f115156145c857600080fd5b505050604051805190509050919050565b60008060008060009054906101000a900473ffffffffffffffffffffffffffffffffffffffff1673ffffffffffffffffffffffffffffffffffffffff16148061464b575060006146496000809054906101000a900473ffffffffffffffffffffffffffffffffffffffff16615730565b145b1561465c5761465a600061573b565b505b6000809054906101000a900473ffffffffffffffffffffffffffffffffffffffff1673ffffffffffffffffffffffffffffffffffffffff166338cc48316000604051602001526040518163ffffffff167c0100000000000000000000000000000000000000000000000000000000028152600401602060405180830381600087803b15156146e957600080fd5b6102c65a03f115156146fa57600080fd5b5050506040518051905073ffffffffffffffffffffffffffffffffffffffff16600160009054906101000a900473ffffffffffffffffffffffffffffffffffffffff1673ffffffffffffffffffffffffffffffffffffffff16141515614843576000809054906101000a900473ffffffffffffffffffffffffffffffffffffffff1673ffffffffffffffffffffffffffffffffffffffff166338cc48316000604051602001526040518163ffffffff167c0100000000000000000000000000000000000000000000000000000000028152600401602060405180830381600087803b15156147e757600080fd5b6102c65a03f115156147f857600080fd5b50505060405180519050600160006101000a81548173ffffffffffffffffffffffffffffffffffffffff021916908373ffffffffffffffffffffffffffffffffffffffff1602179055505b600160009054906101000a900473ffffffffffffffffffffffffffffffffffffffff1673ffffffffffffffffffffffffffffffffffffffff16632ef3accc86856000604051602001526040518363ffffffff167c01000000000000000000000000000000000000000000000000000000000281526004018080602001838152602001828103825284818151815260200191508051906020019080838360005b838110156148fd5780820151818401526020810190506148e2565b50505050905090810190601f16801561492a5780820380516001836020036101000a031916815260200191505b509350505050602060405180830381600087803b151561494957600080fd5b6102c65a03f1151561495a57600080fd5b505050604051805190509050823a02670de0b6b3a7640000018111156149865760006001029150614b21565b600160009054906101000a900473ffffffffffffffffffffffffffffffffffffffff1673ffffffffffffffffffffffffffffffffffffffff1663c51be90f8260008888886000604051602001526040518663ffffffff167c0100000000000000000000000000000000000000000000000000000000028152600401808581526020018060200180602001848152602001838103835286818151815260200191508051906020019080838360005b83811015614a4e578082015181840152602081019050614a33565b50505050905090810190601f168015614a7b5780820380516001836020036101000a031916815260200191505b50838103825285818151815260200191508051906020019080838360005b83811015614ab4578082015181840152602081019050614a99565b50505050905090810190601f168015614ae15780820380516001836020036101000a031916815260200191505b5096505050505050506020604051808303818588803b1515614b0257600080fd5b6125ee5a03f11515614b1357600080fd5b505050506040518051905091505b509392505050565b6000806000809054906101000a900473ffffffffffffffffffffffffffffffffffffffff1673ffffffffffffffffffffffffffffffffffffffff161480614b9957506000614b976000809054906101000a900473ffffffffffffffffffffffffffffffffffffffff16615730565b145b15614baa57614ba8600061573b565b505b6000809054906101000a900473ffffffffffffffffffffffffffffffffffffffff1673ffffffffffffffffffffffffffffffffffffffff166338cc48316000604051602001526040518163ffffffff167c0100000000000000000000000000000000000000000000000000000000028152600401602060405180830381600087803b1515614c3757600080fd5b6102c65a03f11515614c4857600080fd5b5050506040518051905073ffffffffffffffffffffffffffffffffffffffff16600160009054906101000a900473ffffffffffffffffffffffffffffffffffffffff1673ffffffffffffffffffffffffffffffffffffffff16141515614d91576000809054906101000a900473ffffffffffffffffffffffffffffffffffffffff1673ffffffffffffffffffffffffffffffffffffffff166338cc48316000604051602001526040518163ffffffff167c0100000000000000000000000000000000000000000000000000000000028152600401602060405180830381600087803b1515614d3557600080fd5b6102c65a03f11515614d4657600080fd5b50505060405180519050600160006101000a81548173ffffffffffffffffffffffffffffffffffffffff021916908373ffffffffffffffffffffffffffffffffffffffff1602179055505b600160009054906101000a900473ffffffffffffffffffffffffffffffffffffffff1673ffffffffffffffffffffffffffffffffffffffff1663c281d19e6000604051602001526040518163ffffffff167c0100000000000000000000000000000000000000000000000000000000028152600401602060405180830381600087803b1515614e1f57600080fd5b6102c65a03f11515614e3057600080fd5b50505060405180519050905090565b80600c9080519060200190614e55929190615c9b565b5050565b614e61615dd7565b614e69615deb565b614e71615deb565b614e79615deb565b614e81615deb565b614e89615deb565b614e91615dd7565b614e99615deb565b6000808e98508d97508c96508b95508a94508451865188518a518c5101010101604051805910614ec65750595b9080825280601f01601f1916602001820160405250935083925060009150600090505b8851811015614f9c578881815181101515614f0057fe5b9060200101517f010000000000000000000000000000000000000000000000000000000000000090047f0100000000000000000000000000000000000000000000000000000000000000028383806001019450815181101515614f5f57fe5b9060200101907effffffffffffffffffffffffffffffffffffffffffffffffffffffffffffff1916908160001a9053508080600101915050614ee9565b600090505b8751811015615054578781815181101515614fb857fe5b9060200101517f010000000000000000000000000000000000000000000000000000000000000090047f010000000000000000000000000000000000000000000000000000000000000002838380600101945081518110151561501757fe5b9060200101907effffffffffffffffffffffffffffffffffffffffffffffffffffffffffffff1916908160001a9053508080600101915050614fa1565b600090505b865181101561510c57868181518110151561507057fe5b9060200101517f010000000000000000000000000000000000000000000000000000000000000090047f01000000000000000000000000000000000000000000000000000000000000000283838060010194508151811015156150cf57fe5b9060200101907effffffffffffffffffffffffffffffffffffffffffffffffffffffffffffff1916908160001a9053508080600101915050615059565b600090505b85518110156151c457858181518110151561512857fe5b9060200101517f010000000000000000000000000000000000000000000000000000000000000090047f010000000000000000000000000000000000000000000000000000000000000002838380600101945081518110151561518757fe5b9060200101907effffffffffffffffffffffffffffffffffffffffffffffffffffffffffffff1916908160001a9053508080600101915050615111565b600090505b845181101561527c5784818151811015156151e057fe5b9060200101517f010000000000000000000000000000000000000000000000000000000000000090047f010000000000000000000000000000000000000000000000000000000000000002838380600101945081518110151561523f57fe5b9060200101907effffffffffffffffffffffffffffffffffffffffffffffffffffffffffffff1916908160001a90535080806001019150506151c9565b82995050505050505050505095945050505050565b6000806000806000888711151561533b576020871115156152f25760018760200360080260020a031980875116888b038a018a96505b8183885116146152e7576001870196508060018803106152c7578b8b0196505b505050839450615341565b8686209150879350600092505b8689038311151561533a57868420905080600019168260001916141561532757839450615341565b60018401935082806001019350506152ff565b5b88880194505b50505050949350505050565b615355615c81565b60006153738560000151866020015186600001518760200151615291565b905084602001518360200181815250508460200151810383600001818152505084600001518560200151018114156153b55760008560000181815250506153e0565b8360000151836000015101856000018181510391508181525050836000015181018560200181815250505b829150509392505050565b60005b60208210151561541357825184526020840193506020830192506020820391506153ee565b6001826020036101000a0390508019835116818551168181178652505050505050565b6000615440615deb565b60008060008693506000925060009150600090505b83518110156157115760307f010000000000000000000000000000000000000000000000000000000000000002848281518110151561549057fe5b9060200101517f010000000000000000000000000000000000000000000000000000000000000090047f0100000000000000000000000000000000000000000000000000000000000000027effffffffffffffffffffffffffffffffffffffffffffffffffffffffffffff1916101580156155a8575060397f010000000000000000000000000000000000000000000000000000000000000002848281518110151561553857fe5b9060200101517f010000000000000000000000000000000000000000000000000000000000000090047f0100000000000000000000000000000000000000000000000000000000000000027effffffffffffffffffffffffffffffffffffffffffffffffffffffffffffff191611155b156156595781156155cb5760008614156155c157615711565b8580600190039650505b600a83029250603084828151811015156155e157fe5b9060200101517f010000000000000000000000000000000000000000000000000000000000000090047f0100000000000000000000000000000000000000000000000000000000000000027f010000000000000000000000000000000000000000000000000000000000000090040383019250615704565b602e7f010000000000000000000000000000000000000000000000000000000000000002848281518110151561568b57fe5b9060200101517f010000000000000000000000000000000000000000000000000000000000000090047f0100000000000000000000000000000000000000000000000000000000000000027effffffffffffffffffffffffffffffffffffffffffffffffffffffffffffff1916141561570357600191505b5b8080600101915050615455565b60008611156157235785600a0a830292505b8294505050505092915050565b6000813b9050919050565b60008061575b731d3b2638a7cc9f2cb3d298a3da7a90b67e5506ed615730565b11156157fc57731d3b2638a7cc9f2cb3d298a3da7a90b67e5506ed6000806101000a81548173ffffffffffffffffffffffffffffffffffffffff021916908373ffffffffffffffffffffffffffffffffffffffff1602179055506157f36040805190810160405280600b81526020017f6574685f6d61696e6e6574000000000000000000000000000000000000000000815250615bcc565b60019050615bc7565b600061581b73c03a2615d5efaf5f49f60b7bb6583eaec212fdf1615730565b11156158bc5773c03a2615d5efaf5f49f60b7bb6583eaec212fdf16000806101000a81548173ffffffffffffffffffffffffffffffffffffffff021916908373ffffffffffffffffffffffffffffffffffffffff1602179055506158b36040805190810160405280600c81526020017f6574685f726f707374656e330000000000000000000000000000000000000000815250615bcc565b60019050615bc7565b60006158db73b7a07bcf2ba2f2703b24c0691b5278999c59ac7e615730565b111561597c5773b7a07bcf2ba2f2703b24c0691b5278999c59ac7e6000806101000a81548173ffffffffffffffffffffffffffffffffffffffff021916908373ffffffffffffffffffffffffffffffffffffffff1602179055506159736040805190810160405280600981526020017f6574685f6b6f76616e0000000000000000000000000000000000000000000000815250615bcc565b60019050615bc7565b600061599b73146500cfd35b22e4a392fe0adc06de1a1368ed48615730565b1115615a3c5773146500cfd35b22e4a392fe0adc06de1a1368ed486000806101000a81548173ffffffffffffffffffffffffffffffffffffffff021916908373ffffffffffffffffffffffffffffffffffffffff160217905550615a336040805190810160405280600b81526020017f6574685f72696e6b656279000000000000000000000000000000000000000000815250615bcc565b60019050615bc7565b6000615a5b736f485c8bf6fc43ea212e93bbf8ce046c7f1cb475615730565b1115615abe57736f485c8bf6fc43ea212e93bbf8ce046c7f1cb4756000806101000a81548173ffffffffffffffffffffffffffffffffffffffff021916908373ffffffffffffffffffffffffffffffffffffffff16021790555060019050615bc7565b6000615add7320e12a1f859b3feae5fb2a0a32c18f5a65555bbf615730565b1115615b40577320e12a1f859b3feae5fb2a0a32c18f5a65555bbf6000806101000a81548173ffffffffffffffffffffffffffffffffffffffff021916908373ffffffffffffffffffffffffffffffffffffffff16021790555060019050615bc7565b6000615b5f7351efaf4c8b3c9afbd5ab9f4bbc82784ab6ef8faa615730565b1115615bc2577351efaf4c8b3c9afbd5ab9f4bbc82784ab6ef8faa6000806101000a81548173ffffffffffffffffffffffffffffffffffffffff021916908373ffffffffffffffffffffffffffffffffffffffff16021790555060019050615bc7565b600090505b919050565b8060029080519060200190615be2929190615c9b565b5050565b610100604051908101604052806008905b600061ffff16815260200190600190039081615bf75790505090565b815481835581811511615c3a57818360005260206000209182019101615c399190615dff565b5b505050565b6101406040519081016040528060001515815260200160008019168152602001615c67615e24565b81525090565b602060405190810160405280600081525090565b604080519081016040528060008152602001600081525090565b828054600181600116156101000203166002900490600052602060002090601f016020900481019282601f10615cdc57805160ff1916838001178555615d0a565b82800160010185558215615d0a579182015b82811115615d09578251825591602001919060010190615cee565b5b509050615d179190615dff565b5090565b815481835581811511615d5057600f016010900481600f01601090048360005260206000209182019101615d4f9190615dff565b5b505050565b602060405190810160405280600081525090565b815481835581811511615d9057818360005260206000209182019101615d8f9190615e51565b5b505050565b602060405190810160405280600081525090565b604080519081016040528060008152602001600081525090565b602060405190810160405280600081525090565b602060405190810160405280600081525090565b602060405190810160405280600081525090565b615e2191905b80821115615e1d576000816000905550600101615e05565b5090565b90565b610100604051908101604052806008905b600061ffff16815260200190600190039081615e355790505090565b615e7391905b80821115615e6f576000816000905550600101615e57565b5090565b905600a165627a7a7230582025293ea6f96a3a46455c961ade6a36d2d4cdea3e0b29abf1fc88864cda1ca18c0029",
  "source": "pragma solidity 0.4.18;\n\nimport \"./lib/oraclize/oraclizeAPI_0.4.sol\";\nimport \"./lib/arachnid/solidity-stringutils/strings.sol\";\n\ncontract PgaDfs is usingOraclize {\n\n  using strings for *;\n\n  struct SlateGolfer {\n    // not storing name,\n    // since we're trying to be minimal with data storage\n    // on ethereum's bloated ass blockchain.\n\n    // increments in 1\n    // salaries are roughly DK salaries / $500\n    // and can be negative!\n    int8 salary;\n\n    // fantasy points at end of tournament\n    int8 points;\n  }\n\n\n  struct Lineup {\n    bool submittedHash;  // true when saved\n    // keccak hash of lineup before revealing\n    // e.g. keccak256(\"21059:94320:85933\")\n    bytes32 golferIdsHash;\n    // MAX of 8 pga tour ids...\n    // you can play less than 8 guys if you want!\n    // e.g. [web3.fromAscii(\"21059\"), web3.fromAscii(\"94320\"), web3.fromAscii(\"85933\")]\n    uint16[8] golferIds;\n  }\n\n  struct Contest {\n    address owner; // creator of contest\n\n    uint entryFee; // TODO(christian): what units? wei?\n    uint prizePool; // TODO: delete\n    // all money in contest balance, payable to winners\n    mapping (bytes12 => uint) slateIdToPrizePool;\n\n    // yay or nay, is this an active contest\n    // must be not live to delete contest\n    bool live;\n\n    // have we calculated the address balances after contest is over?\n    mapping (bytes12 => bool) slateIdToPayoutsSet;\n\n    // map ETH address --> lineup in contest\n    mapping (bytes12 => address[]) slateIdToEntries;\n\n    mapping (bytes12 => mapping(address => bool)) slateIdToEntered;\n    mapping (bytes12 => mapping(address => int16)) slateIdToAddressScores;\n\n    // ETH address --> how much they recouped\n    // once we confirmed the event ends, then payout!\n    mapping(address => uint) balances;\n  }\n\n\n  event newOraclizeQuery(string description);\n\n  // this is the initializer of the contract\n  // who gets special privaledges:\n  // (1) if oraclize fucks up, you set scores manually\n  // (2) you can spend the extraEther in the contract\n  address public contractAdmin;\n  uint private extraEther;\n  uint private minBal;\n\n  // status (bool): is this oraclize query complete or not?\n  mapping(bytes32 => string) queryIdToCallbackAction;\n\n  // this is the CONSTRUCTOR!\n  // we must initialize the lubrication amount\n  // with the miniumum balance, which can never be recovered\n  function PgaDfs() public payable {\n    require(msg.value >= minBal);\n    // in the constructor (this function), msg.sender is\n    // the owner of the contract\n    contractAdmin = msg.sender;\n    extraEther = msg.value;\n\n    // OAR for ethereum-bridge\n    OAR = OraclizeAddrResolverI(0x15Ce83f7B43082C21deB5bEDd004e2F683B45392);\n    // TODO: tinker with this gas value\n    /* oraclize_setCustomGasPrice(1000000000 wei); */\n\n    // execute a dummy transcaction to make fee estimation\n    // work by burning the free transaction\n    /* oraclize_query(\"URL\", \"json(http://api.fixer.io/latest?symbols=USD,GBP).rates.GBP\"); */\n  }\n\n\n  // N.B. FROM CRYPTO RIC:\n  // if we want to fund money into the \"lubrication account\"\n  // this will allow the contract to function if the price\n  // of ether falls dramatically between querires\n  // and, as a result, because the query fee is charged in USD,\n  // the fee for subsequent queries goes up\n  // this should average out over time,\n  // we charge a small fee to make sure it more likely going up\n  // this fee, over the course of 400 wagers,\n  // should offset the irrecovable minimum balance\n  function deposit() payable external {\n    extraEther += msg.value;\n  }\n\n  // CRYPTO RIC:\n  // if we want to withdraw money from the lubrication account\n  // we can only draw from the extraEther gained,\n  // so as to protect and wall off funds from active wagers\n  // we must leave a minBal of .1 ether to serve as lubrication\n  // this protects people with wagers from us withdrawing\n  // all the lubrication while they have bets in, which\n  // would make them have the potential to fail\n  function withdraw() external {\n    require(msg.sender == contractAdmin);\n\n    if (extraEther - minBal > 0) {\n      contractAdmin.transfer(extraEther - minBal);\n      extraEther = minBal;\n    }\n  }\n\n  // active slate id to key slate/lineup mappings\n  bytes12 slateId;\n  mapping (bytes12 => uint) slateIdToLockTimestamp;\n\n  // format: \"{pgaId}:{salary}\"\n  // example: \"34360:1522955700:15 32102:1522963620:-2\" <-- salaries can be negative!\n  string compressedSalariesUrl = \"\"; // e.g. \"https://s3.amazonaws.com/ethdfs/pga/compressedSalaries/2018/471.json\";\n\n  // format: \"{pgaId}:{rd1}-{rd2}-{rd3}-{rd4}\"\n  // example: \"34360:69-66-67-71 32102:70-72-65-67\"\n  string compressedScoresUrl = \"\"; // e.g. \"https://s3.amazonaws.com/ethdfs/pga/compressedScores/2018/471.json\";\n\n\n  // slate id ==> golfer ids\n  mapping (bytes12 => uint16[]) slateIdToGolferIds;\n  // slate id ==> pga tour id ==> golfer data (salary, scores, etc.)\n  mapping (bytes12 => mapping(uint16 => SlateGolfer)) slateIdToSlateGolfers;\n  mapping (bytes12 => address[]) slateIdToEnteredAddresses;\n  mapping (bytes12 => mapping (address => Lineup)) slateIdToLineups;\n\n  // contest data\n  bytes32[] contestIds;\n  mapping(bytes32 => Contest) contests;\n\n  // salary cap is 100\n  // salaries are integers and CAN BE NEGATIVE\n  // think mike weir\n  int salaryCap = 100;\n\n  // rake is 2.0% or 20/1000\n  uint rakeTimesOneThousand = 20;\n\n  // is scoring complete for the current slate\n  mapping (bytes12 => bool) slateIdToCompleteScoring;\n\n  function setLineupHash(bytes32 lineupHash) public {\n    // can't change lineup hash after lock\n    require(block.timestamp <= slateIdToLockTimestamp[slateId]);\n    Lineup storage theLineup = slateIdToLineups[slateId][msg.sender];\n    if (!theLineup.submittedHash) {\n        // don't push duped addresses if they already have a lineup\n        slateIdToEnteredAddresses[slateId].push(msg.sender);\n    }\n    theLineup.golferIdsHash = lineupHash;\n    theLineup.submittedHash = true;\n  }\n\n  // returns: Lineup.golferIdsHash\n  function getLineupHash(address entrantAddress) public view returns (bytes32) {\n    return slateIdToLineups[slateId][entrantAddress].golferIdsHash;\n  }\n\n  function getEnteredAddressesForCurrentSlate() public view returns (address[]) {\n      return slateIdToEnteredAddresses[slateId];\n  }\n\n  function getCurrentSlateLineupForAddress(address address_) public view returns (bytes32, uint16[8]) {\n      Lineup memory theLineup = slateIdToLineups[slateId][address_];\n      return (theLineup.golferIdsHash, theLineup.golferIds);\n  }\n\n  function getSlateId() public view returns (bytes12) {\n    return slateId;\n  }\n\n  function getSalary(uint16 pgaId) public view returns (int8) {\n    return slateIdToSlateGolfers[slateId][pgaId].salary;\n  }\n\n  // lineups must:\n  // have 8 or less players\n  // total salary must be <= salary cap\n  // can only play the same guy once\n  function revealLineup(string golferIdsColonDelimited, string revealKey) public returns (int16) {\n    require(slateIdToLineups[slateId][msg.sender].golferIdsHash == keccak256(strConcat(golferIdsColonDelimited, \"|\", revealKey)));\n\n    var golferIds = new uint16[](8);\n\n    var golferIdsSlice = golferIdsColonDelimited.toSlice();\n    var delimiter = \":\".toSlice();\n    uint256 golferCount = golferIdsSlice.count(delimiter) + 1;\n\n    // must have 8 or less players\n    require(golferCount <= 8);\n\n    // and salary must be under cap\n    int16 totalSalary = 0;\n\n    for (uint8 ii = 0; ii < golferCount; ii++) {\n      // string  --> left padded bytes32\n      // \"29725\" --> \"0x3239373235000000000000000000000000000000000000000000000000000000\"\n      // replicate this with web3.fromAscii('29725')\n      uint16 golferId = uint16(parseInt(golferIdsSlice.split(delimiter).toString()));\n\n      for (uint8 jj = 0; jj < ii; jj++) {\n        require(golferId != golferIds[jj]);\n      }\n      golferIds[ii] = golferId;\n      totalSalary += slateIdToSlateGolfers[slateId][golferId].salary;\n    }\n\n    require(totalSalary <= salaryCap);\n\n    for (ii = 0; ii < golferIds.length; ii++) {\n      slateIdToLineups[slateId][msg.sender].golferIds[ii] = golferIds[ii];\n    }\n  }\n\n  function calculateRake(uint eth) public view returns (uint) {\n    return eth - (eth * rakeTimesOneThousand) / 1000;\n  }\n\n  function createContest(bytes32 contestId) public payable {\n    // contest id cannot be taken already\n    require(!contests[contestId].live);\n    // contest owner must first have lineup hash on chain\n    require(slateIdToLineups[slateId][msg.sender].submittedHash);\n\n    contestIds.push(contestId);\n    contests[contestId] = Contest({\n      owner : msg.sender,\n      // entry fee is AUTOMATICALLY calculated by how much the owner deposits\n      entryFee : msg.value - calculateRake(msg.value),\n      prizePool: 0, // updated in payEntryFeeToContest below\n      live : true\n    });\n    payEntryFeeToContest(contestId, msg.sender, msg.value);\n  }\n\n  function enterContest(bytes32 contestId) public payable {\n    // to enter contest, user must have lineup hash on chain\n    Lineup memory entrantLineup = slateIdToLineups[slateId][msg.sender];\n    require(entrantLineup.submittedHash);\n    payEntryFeeToContest(contestId, msg.sender, msg.value);\n  }\n\n  function payEntryFeeToContest(bytes32 contestId, address msgSender, uint ethEntered) public payable {\n\n    Contest storage activeContest = contests[contestId];\n    if (!activeContest.slateIdToEntered[slateId][msgSender]) {\n      // if they not are already in the contest, pay rake and enter\n      uint rakeToCollect = calculateRake(ethEntered);\n\n      require(ethEntered > activeContest.entryFee + rakeToCollect);\n\n      activeContest.prizePool += activeContest.entryFee;\n      extraEther += rakeToCollect;\n      // if someone sends us extra money,\n      // it goes their balance for the contest\n      // and by default they can get paid out at the end\n      // otherwise they can withdraw\n      activeContest.balances[msgSender] += ethEntered - activeContest.entryFee - rakeToCollect;\n    }\n  }\n\n  function setSalaries(string compressedSalaries) public {\n      require(msg.sender == contractAdmin);\n      // TODO: make internal / only contractAdmin\n      slateIdToCompleteScoring[slateId] = false;\n\n      var compressedSalariesSlice = compressedSalaries.toSlice();\n      var playerDelimiter = \" \".toSlice();\n      var salaryDelimiter = \":\".toSlice();\n      uint playerCount = compressedSalariesSlice.count(playerDelimiter) + 1;\n\n      for (uint8 ii = 0; ii < playerCount; ii++) {\n          var playerColonSalary = compressedSalariesSlice.split(playerDelimiter);\n\n          uint16 pgaPlayerId = uint16(parseInt(playerColonSalary.split(salaryDelimiter).toString()));\n\n          int8 salary = int8(parseInt(playerColonSalary.toString()));\n\n          slateIdToGolferIds[slateId].push(pgaPlayerId);\n          SlateGolfer storage slateGolfer = slateIdToSlateGolfers[slateId][pgaPlayerId];\n          slateGolfer.salary = salary;\n      }\n  }\n\n  function setScores(string compressedScores) public {\n    // TODO: make internal / only contractAdmin\n    // TODO: really make sure this works\n    // TODO: difference between var and normal types?\n    require(!slateIdToCompleteScoring[slateId]);\n\n    var compressedScoresSlice = compressedScores.toSlice();\n    var playerDelimiter = \" \".toSlice();\n    var playerScoreSlices = new strings.slice[](compressedScoresSlice.count(playerDelimiter) + 1);\n\n    for (uint16 i = 0; i < playerScoreSlices.length; i++) {\n      playerScoreSlices[i] = compressedScoresSlice.split(playerDelimiter);\n      uint16 pgaPlayerId = uint16(parseInt(playerScoreSlices[i].split(\":\".toSlice()).toString()));\n      uint roundSlices = playerScoreSlices[i].count(\"-\".toSlice()) + 1;\n      for (uint rd = 0; rd < roundSlices; rd++) {\n        int8 rdScore = int8(parseInt(playerScoreSlices[i].split(\"-\".toSlice()).toString()));\n        slateIdToSlateGolfers[slateId][pgaPlayerId].points += int8(80) - rdScore;\n      }\n    }\n    slateIdToCompleteScoring[slateId] = true;\n  }\n\n  function setSingleContestPayouts(bytes32 contestId) public {\n    // everyone who scores > max(0, the contest average) gets paid\n    // you are paid proportional to your squared score\n    require(slateIdToCompleteScoring[slateId]);\n\n    Contest storage contest = contests[contestId];\n    require(contest.live);\n    require(!contest.slateIdToPayoutsSet[slateId]);\n\n    uint16 totalEntries = uint16(contest.slateIdToEntries[slateId].length);\n    int totalPoints = 0;\n\n    // calculate the average score in the contest\n    for (uint8 ii = 0; ii < totalEntries; ii++) {\n      address entry = contest.slateIdToEntries[slateId][ii];\n      uint16[8] memory entryPgaIds = slateIdToLineups[slateId][entry].golferIds;\n      for (uint8 g = 0; g < entryPgaIds.length; g++) {\n        contest.slateIdToAddressScores[slateId][entry] += slateIdToSlateGolfers[slateId][entryPgaIds[g]].points;\n      }\n      totalPoints += contest.slateIdToAddressScores[slateId][entry];\n    }\n\n    // of the top half (except any of those that scored < 0),\n    // sum up the squared scores\n    int averagePointsRoundedDown = totalPoints / totalEntries;\n    // ugh... only using storage since memory isnt dynamic\n    address[] storage winningEntries;\n    uint summedSquaredWinningScores = 0;\n\n    for (ii = 0; ii < totalEntries; ii++) {\n      entry = contest.slateIdToEntries[slateId][ii];\n      if (contest.slateIdToAddressScores[slateId][entry] >= averagePointsRoundedDown && contest.slateIdToAddressScores[slateId][entry] >= 0) {\n        uint squaredScore = uint(contest.slateIdToAddressScores[slateId][entry] * contest.slateIdToAddressScores[slateId][entry]);\n        winningEntries.push(entry);\n        summedSquaredWinningScores += squaredScore;\n      }\n    }\n\n    // then pay out people proportional to squared points\n    for (ii = 0; ii < winningEntries.length; ii++) {\n      entry = winningEntries[ii];\n      // TODO: make sure there's no rounding error B.S. going on\n      // that makes us massively over or under pay people\n      squaredScore = uint(contest.slateIdToAddressScores[slateId][entry] * contest.slateIdToAddressScores[slateId][entry]);\n      uint toPayout = (contest.prizePool * squaredScore) / summedSquaredWinningScores;\n      contest.balances[entry] += toPayout;\n    }\n\n    contest.slateIdToPayoutsSet[slateId] = true;\n  }\n\n  function withdrawBalanceFromContest(bytes32 contestId) public {\n    Contest storage contest = contests[contestId];\n    if (contest.balances[msg.sender] > 0) {\n      msg.sender.transfer(contest.balances[msg.sender]);\n      contest.balances[msg.sender] = 0;\n    }\n  }\n\n  function payOutContest(bytes32 contestId) public {\n    require(slateIdToCompleteScoring[slateId]);\n\n    Contest storage contest = contests[contestId];\n    require(contest.slateIdToPayoutsSet[slateId]);\n    require(contest.live);\n\n    for (uint ii = 0; ii < contest.slateIdToEntries[slateId].length; ii++) {\n      address entry = contest.slateIdToEntries[slateId][ii];\n      if (contest.balances[entry] > 0) {\n        entry.transfer(contest.balances[entry]);\n        contest.balances[msg.sender] = 0;\n      }\n    }\n    contest.live = false;\n  }\n\n  function _setCompressedScoresUrl(string _compressedScoresUrl) internal {\n    compressedScoresUrl = _compressedScoresUrl;\n  }\n\n  function _setCompressedSalariesUrl(string _compressedSalariesUrl) internal {\n    compressedSalariesUrl = _compressedSalariesUrl;\n  }\n\n  function getSalariesOnChain() public payable {\n    innerOraclizeQuery(compressedSalariesUrl, \"Salaries\");\n  }\n\n  function getScoresOnChain() public payable {\n    innerOraclizeQuery(compressedScoresUrl, \"Scores\");\n  }\n\n  function setScoresUrlAndGetResultsOnChain(string compressedScoresUrl_) public {\n      require(msg.sender == contractAdmin);\n      _setCompressedScoresUrl(compressedScoresUrl_);\n      getScoresOnChain();\n  }\n\n  function setSalariesUrlAndGetSalariesOnChain(string compressedSalariesUrl_) public {\n      require(msg.sender == contractAdmin);\n      _setCompressedSalariesUrl(compressedSalariesUrl_);\n      getSalariesOnChain();\n  }\n\n  function setNewSlateInfo(\n    bytes12 _newSlateId,\n    string _compressedSalariesUrl,\n    string _compressedScoresUrl,\n    uint lockTimestamp\n  ) public {\n    require(msg.sender == contractAdmin);\n    slateId = _newSlateId;\n    slateIdToLockTimestamp[slateId] = lockTimestamp;\n    _setCompressedScoresUrl(_compressedScoresUrl);\n    _setCompressedSalariesUrl(_compressedSalariesUrl);\n  }\n\n  // ========================= ORACLIZE functions =========================\n\n\n  function innerOraclizeQuery(string queryUrl, string callbackAction) public payable {\n    // TODO: make these views\n    uint cost = 2400000000000000 + (oraclize_getPrice(\"URL\") * 3);\n    uint fee = 100000000000000;\n\n    if (msg.value < cost + fee) {\n      newOraclizeQuery(\"Oraclize query failed. Send more ETH (.0025ETH in gas + $.03 per query\");\n      msg.sender.transfer(msg.value);\n    } else {\n      extraEther += msg.value - cost;\n      newOraclizeQuery(\"Oraclize queries were sent, standing by for the answer.\");\n      bytes32 queryId = oraclize_query(\n        \"URL\",\n        strConcat(\"json(\", queryUrl, \").compressedScores\"),\n        600000\n      );\n      queryIdToCallbackAction[queryId] = callbackAction;\n    }\n  }\n\n  // switch function for callbacks\n  function __callback(bytes32 myid, string result) public {\n    require(msg.sender == oraclize_cbAddress());\n    // can't compare string storage pointers and string literals,\n    // so instead let's compare their keccak256 hashes!\n    bytes32 actionHash = keccak256(queryIdToCallbackAction[myid]);\n    if (actionHash == keccak256(\"Salaries\")) {\n      setSalaries(result);\n    }\n    if (actionHash == keccak256(\"Scores\")) {\n      setScores(result);\n    }\n  }\n\n  // CRYPTO RIC:\n  // should anyone wish to be a good blockchain citizen\n  // and delete a wager that is no longer live\n  function deleteContest(bytes32 contestId) external {\n    require(!contests[contestId].live);\n    // can't delete someone else's contest\n    require(msg.sender == contests[contestId].owner);\n    delete contests[contestId];\n  }\n\n  function getLiveContestIds() public view returns (bytes32[]) {\n    bytes32[] storage liveContestIds;  // why must use storage?\n    for (uint ii = 0; ii < contestIds.length; ii++) {\n      bytes32 contestId = contestIds[ii];\n      if (contests[contestId].live) {\n        liveContestIds.push(contestId);\n      }\n    }\n    return liveContestIds;\n  }\n\n  function getContestById(bytes32 contestId) public view returns (\n      bytes32,\n      uint,\n      uint,\n      address\n    ) {\n      Contest storage contest = contests[contestId];\n      return (\n          contestId,\n          contest.entryFee,\n          contest.slateIdToEntries[slateId].length,\n          contest.owner\n        );\n    }\n\n  function testFunction() public view returns (string) {\n    return 'test';\n  }\n}\n",
  "sourcePath": "/Users/christian/workspace/ddfs/contracts/PgaDfs.sol",
  "compiler": {
    "name": "solc",
    "version": "0.4.18+commit.9cf6e910.Emscripten.clang"
  },
  "schemaVersion": "2.0.0",
  "updatedAt": "2018-10-06T05:57:49.462Z"
}