{
  "contractName": "PgaDfs",
  "abi": [
    {
      "constant": true,
      "inputs": [],
      "name": "contractAdmin",
      "outputs": [
        {
          "name": "",
          "type": "address"
        }
      ],
      "payable": false,
      "stateMutability": "view",
      "type": "function"
    },
    {
      "inputs": [],
      "payable": true,
      "stateMutability": "payable",
      "type": "constructor"
    },
    {
      "anonymous": false,
      "inputs": [
        {
          "indexed": false,
          "name": "description",
          "type": "string"
        }
      ],
      "name": "newOraclizeQuery",
      "type": "event"
    },
    {
      "constant": false,
      "inputs": [],
      "name": "deposit",
      "outputs": [],
      "payable": true,
      "stateMutability": "payable",
      "type": "function"
    },
    {
      "constant": false,
      "inputs": [],
      "name": "withdraw",
      "outputs": [],
      "payable": false,
      "stateMutability": "nonpayable",
      "type": "function"
    },
    {
      "constant": false,
      "inputs": [
        {
          "name": "lineupHash",
          "type": "bytes32"
        }
      ],
      "name": "setLineupHash",
      "outputs": [],
      "payable": false,
      "stateMutability": "nonpayable",
      "type": "function"
    },
    {
      "constant": true,
      "inputs": [
        {
          "name": "entrantAddress",
          "type": "address"
        }
      ],
      "name": "getLineupHash",
      "outputs": [
        {
          "name": "",
          "type": "bytes32"
        }
      ],
      "payable": false,
      "stateMutability": "view",
      "type": "function"
    },
    {
      "constant": true,
      "inputs": [],
      "name": "getEnteredAddressesForCurrentSlate",
      "outputs": [
        {
          "name": "",
          "type": "address[]"
        }
      ],
      "payable": false,
      "stateMutability": "view",
      "type": "function"
    },
    {
      "constant": true,
      "inputs": [
        {
          "name": "address_",
          "type": "address"
        }
      ],
      "name": "getCurrentSlateLineupForAddress",
      "outputs": [
        {
          "name": "",
          "type": "bytes32"
        },
        {
          "name": "",
          "type": "uint16[8]"
        },
        {
          "name": "",
          "type": "int16"
        }
      ],
      "payable": false,
      "stateMutability": "view",
      "type": "function"
    },
    {
      "constant": true,
      "inputs": [],
      "name": "getSlateId",
      "outputs": [
        {
          "name": "",
          "type": "bytes12"
        }
      ],
      "payable": false,
      "stateMutability": "view",
      "type": "function"
    },
    {
      "constant": true,
      "inputs": [
        {
          "name": "pgaId",
          "type": "uint16"
        }
      ],
      "name": "getSalary",
      "outputs": [
        {
          "name": "",
          "type": "int8"
        }
      ],
      "payable": false,
      "stateMutability": "view",
      "type": "function"
    },
    {
      "constant": true,
      "inputs": [
        {
          "name": "pgaId",
          "type": "uint16"
        }
      ],
      "name": "getPoints",
      "outputs": [
        {
          "name": "",
          "type": "int8"
        }
      ],
      "payable": false,
      "stateMutability": "view",
      "type": "function"
    },
    {
      "constant": false,
      "inputs": [
        {
          "name": "golferIdsColonDelimited",
          "type": "string"
        },
        {
          "name": "revealKey",
          "type": "string"
        }
      ],
      "name": "revealLineup",
      "outputs": [
        {
          "name": "",
          "type": "int16"
        }
      ],
      "payable": false,
      "stateMutability": "nonpayable",
      "type": "function"
    },
    {
      "constant": true,
      "inputs": [
        {
          "name": "wei_",
          "type": "uint256"
        }
      ],
      "name": "calculateRake",
      "outputs": [
        {
          "name": "",
          "type": "uint256"
        }
      ],
      "payable": false,
      "stateMutability": "view",
      "type": "function"
    },
    {
      "constant": false,
      "inputs": [
        {
          "name": "contestId",
          "type": "bytes32"
        }
      ],
      "name": "createContest",
      "outputs": [],
      "payable": true,
      "stateMutability": "payable",
      "type": "function"
    },
    {
      "constant": false,
      "inputs": [
        {
          "name": "contestId",
          "type": "bytes32"
        }
      ],
      "name": "enterContest",
      "outputs": [],
      "payable": true,
      "stateMutability": "payable",
      "type": "function"
    },
    {
      "constant": false,
      "inputs": [
        {
          "name": "contestId",
          "type": "bytes32"
        },
        {
          "name": "msgSender",
          "type": "address"
        },
        {
          "name": "ethEntered",
          "type": "uint256"
        }
      ],
      "name": "payEntryFeeToContest",
      "outputs": [],
      "payable": true,
      "stateMutability": "payable",
      "type": "function"
    },
    {
      "constant": false,
      "inputs": [
        {
          "name": "compressedSalaries",
          "type": "string"
        }
      ],
      "name": "setSalaries",
      "outputs": [],
      "payable": false,
      "stateMutability": "nonpayable",
      "type": "function"
    },
    {
      "constant": false,
      "inputs": [
        {
          "name": "compressedScores",
          "type": "string"
        }
      ],
      "name": "setScores",
      "outputs": [],
      "payable": false,
      "stateMutability": "nonpayable",
      "type": "function"
    },
    {
      "constant": false,
      "inputs": [
        {
          "name": "slateId_",
          "type": "bytes12"
        }
      ],
      "name": "scoreEnteredAddresses",
      "outputs": [],
      "payable": false,
      "stateMutability": "nonpayable",
      "type": "function"
    },
    {
      "constant": false,
      "inputs": [
        {
          "name": "contestId",
          "type": "bytes32"
        }
      ],
      "name": "setSingleContestPayouts",
      "outputs": [],
      "payable": false,
      "stateMutability": "nonpayable",
      "type": "function"
    },
    {
      "constant": false,
      "inputs": [
        {
          "name": "contestId",
          "type": "bytes32"
        },
        {
          "name": "entry",
          "type": "address"
        }
      ],
      "name": "withdrawBalanceFromContest",
      "outputs": [],
      "payable": true,
      "stateMutability": "payable",
      "type": "function"
    },
    {
      "constant": false,
      "inputs": [
        {
          "name": "contestId",
          "type": "bytes32"
        }
      ],
      "name": "payOutContest",
      "outputs": [],
      "payable": true,
      "stateMutability": "payable",
      "type": "function"
    },
    {
      "constant": false,
      "inputs": [],
      "name": "getSalariesOnChain",
      "outputs": [],
      "payable": true,
      "stateMutability": "payable",
      "type": "function"
    },
    {
      "constant": false,
      "inputs": [],
      "name": "getScoresOnChain",
      "outputs": [],
      "payable": true,
      "stateMutability": "payable",
      "type": "function"
    },
    {
      "constant": false,
      "inputs": [
        {
          "name": "compressedScoresUrl_",
          "type": "string"
        }
      ],
      "name": "setScoresUrlAndGetResultsOnChain",
      "outputs": [],
      "payable": false,
      "stateMutability": "nonpayable",
      "type": "function"
    },
    {
      "constant": false,
      "inputs": [
        {
          "name": "compressedSalariesUrl_",
          "type": "string"
        }
      ],
      "name": "setSalariesUrlAndGetSalariesOnChain",
      "outputs": [],
      "payable": false,
      "stateMutability": "nonpayable",
      "type": "function"
    },
    {
      "constant": false,
      "inputs": [
        {
          "name": "_newSlateId",
          "type": "bytes12"
        },
        {
          "name": "_compressedSalariesUrl",
          "type": "string"
        },
        {
          "name": "_compressedScoresUrl",
          "type": "string"
        },
        {
          "name": "lockTimestamp",
          "type": "uint256"
        }
      ],
      "name": "setNewSlateInfo",
      "outputs": [],
      "payable": false,
      "stateMutability": "nonpayable",
      "type": "function"
    },
    {
      "constant": false,
      "inputs": [
        {
          "name": "queryUrl",
          "type": "string"
        },
        {
          "name": "callbackAction",
          "type": "string"
        }
      ],
      "name": "innerOraclizeQuery",
      "outputs": [],
      "payable": true,
      "stateMutability": "payable",
      "type": "function"
    },
    {
      "constant": false,
      "inputs": [
        {
          "name": "myid",
          "type": "bytes32"
        },
        {
          "name": "result",
          "type": "string"
        }
      ],
      "name": "__callback",
      "outputs": [],
      "payable": false,
      "stateMutability": "nonpayable",
      "type": "function"
    },
    {
      "constant": false,
      "inputs": [
        {
          "name": "myid",
          "type": "bytes32"
        },
        {
          "name": "result",
          "type": "string"
        },
        {
          "name": "proof",
          "type": "bytes"
        }
      ],
      "name": "__callback",
      "outputs": [],
      "payable": false,
      "stateMutability": "nonpayable",
      "type": "function"
    },
    {
      "constant": false,
      "inputs": [
        {
          "name": "contestId",
          "type": "bytes32"
        }
      ],
      "name": "deleteContest",
      "outputs": [],
      "payable": false,
      "stateMutability": "nonpayable",
      "type": "function"
    },
    {
      "constant": true,
      "inputs": [],
      "name": "getLiveContestIds",
      "outputs": [
        {
          "name": "",
          "type": "bytes32[]"
        }
      ],
      "payable": false,
      "stateMutability": "view",
      "type": "function"
    },
    {
      "constant": true,
      "inputs": [
        {
          "name": "contestId",
          "type": "bytes32"
        }
      ],
      "name": "getContestById",
      "outputs": [
        {
          "name": "",
          "type": "bytes32"
        },
        {
          "name": "",
          "type": "uint256"
        },
        {
          "name": "",
          "type": "uint256"
        },
        {
          "name": "",
          "type": "address"
        }
      ],
      "payable": false,
      "stateMutability": "view",
      "type": "function"
    },
    {
      "constant": true,
      "inputs": [
        {
          "name": "slateId_",
          "type": "bytes12"
        },
        {
          "name": "contestId",
          "type": "bytes32"
        }
      ],
      "name": "getContestEntries",
      "outputs": [
        {
          "name": "",
          "type": "address[]"
        }
      ],
      "payable": false,
      "stateMutability": "view",
      "type": "function"
    },
    {
      "constant": true,
      "inputs": [
        {
          "name": "slateId_",
          "type": "bytes12"
        },
        {
          "name": "entryAddress",
          "type": "address"
        }
      ],
      "name": "getEntryScore",
      "outputs": [
        {
          "name": "",
          "type": "int16"
        }
      ],
      "payable": false,
      "stateMutability": "view",
      "type": "function"
    },
    {
      "constant": true,
      "inputs": [
        {
          "name": "slateId_",
          "type": "bytes12"
        }
      ],
      "name": "getGolferIdsOnSlate",
      "outputs": [
        {
          "name": "",
          "type": "uint16[]"
        }
      ],
      "payable": false,
      "stateMutability": "view",
      "type": "function"
    },
    {
      "constant": true,
      "inputs": [],
      "name": "testFunction",
      "outputs": [
        {
          "name": "",
          "type": "string"
        }
      ],
      "payable": false,
      "stateMutability": "view",
      "type": "function"
    }
  ],
  "bytecode": "0x6060604052602060405190810160405260008152600b90805162000028929160200190620000af565b50602060405190810160405260008152600c9080516200004d929160200190620000af565b50606460149081556015556007543410156200006857600080fd5b60058054600160a060020a033316600160a060020a03199182161790915534600655600080549091167315ce83f7b43082c21deb5bedd004e2f683b4539217905562000154565b828054600181600116156101000203166002900490600052602060002090601f016020900481019282601f10620000f257805160ff191683800117855562000122565b8280016001018555821562000122579182015b828111156200012257825182559160200191906001019062000105565b506200013092915062000134565b5090565b6200015191905b808211156200013057600081556001016200013b565b90565b613b0a80620001646000396000f3006060604052600436106101a85763ffffffff60e060020a6000350416630806498081146101ad5780630aa5743a146101e05780630b4103ee146102255780630e91f1a51461023d5780630fc3356014610254578063137492ff1461025c57806318d019dc146102ad5780631c5c5fa31461031957806326daf164146103ac57806327dc297e146104345780632b58719d1461048a57806338bbfa50146104db5780633ccfd60b1461057357806344375f6614610586578063471924db1461062a57806348c8fb26146106905780634c55dcde146106b05780634c5e9d18146106c65780634d346a49146107175780636aff681c1461074757806377955245146107615780637ba3612814610790578063807d9e16146107a3578063897e4edb146107ae578063ab4153ad146107b9578063abfb80bc146107dc578063bd3b38ff146107e7578063c1c6070e14610801578063c5012ffc14610817578063cd84d13e14610868578063d0e30db014610888578063d781b7cf14610890578063e16b4a9b146108b8578063eb1a572414610942578063f5a45c6014610961578063fb9a7aaf146109ab575b600080fd5b34156101b857600080fd5b6101c761ffff600435166109b3565b604051600091820b90910b815260200160405180910390f35b34156101eb57600080fd5b61020c600160a060020a031960043516602435600160a060020a03166109ec565b604051600191820b90910b815260200160405180910390f35b341561023057600080fd5b61023b600435610a23565b005b61023b600435600160a060020a0360243516610d95565b61023b610e2b565b341561026757600080fd5b61023b60046024813581810190830135806020601f82018190048102016040519081016040528181529291906020840183838082843750949650610f0495505050505050565b34156102b857600080fd5b6102cc600160a060020a0360043516610f33565b604051838152602081018361010080838360005b838110156102f85780820151838201526020016102e0565b505050509050018260010b60010b8152602001935050505060405180910390f35b341561032457600080fd5b61020c60046024813581810190830135806020601f8201819004810201604051908101604052818152929190602084018383808284378201915050505050509190803590602001908201803590602001908080601f01602080910402602001604051908101604052818152929190602084018383808284375094965061105b95505050505050565b61023b60046024813581810190830135806020601f8201819004810201604051908101604052818152929190602084018383808284378201915050505050509190803590602001908201803590602001908080601f01602080910402602001604051908101604052818152929190602084018383808284375094965061137795505050505050565b341561043f57600080fd5b61023b600480359060446024803590810190830135806020601f8201819004810201604051908101604052818152929190602084018383808284375094965061163795505050505050565b341561049557600080fd5b61023b60046024813581810190830135806020601f8201819004810201604051908101604052818152929190602084018383808284375094965061176295505050505050565b34156104e657600080fd5b61023b600480359060446024803590810190830135806020601f8201819004810201604051908101604052818152929190602084018383808284378201915050505050509190803590602001908201803590602001908080601f01602080910402602001604051908101604052818152929190602084018383808284375094965061175d95505050505050565b341561057e57600080fd5b61023b611956565b341561059157600080fd5b61023b60048035600160a060020a0319169060446024803590810190830135806020601f8201819004810201604051908101604052818152929190602084018383808284378201915050505050509190803590602001908201803590602001908080601f01602080910402602001604051908101604052818152929190602084018383808284375094965050933593506119c592505050565b341561063557600080fd5b61063d611a37565b60405160208082528190810183818151815260200191508051906020019060200280838360005b8381101561067c578082015183820152602001610664565b505050509050019250505060405180910390f35b341561069b57600080fd5b61023b600160a060020a031960043516611a97565b34156106bb57600080fd5b61023b600435611c6e565b34156106d157600080fd5b61023b60046024813581810190830135806020601f82018190048102016040519081016040528181529291906020840183838082843750949650611cec95505050505050565b341561072257600080fd5b61072a611f1a565b604051600160a060020a0319909116815260200160405180910390f35b61023b600435600160a060020a0360243516604435611f26565b341561076c57600080fd5b61077461206c565b604051600160a060020a03909116815260200160405180910390f35b341561079b57600080fd5b61063d61207b565b61023b600435612105565b61023b6004356121ec565b34156107c457600080fd5b61063d600160a060020a031960043516602435612309565b61023b60043561239e565b34156107f257600080fd5b6101c761ffff600435166124da565b341561080c57600080fd5b61023b600435612518565b341561082257600080fd5b61023b60046024813581810190830135806020601f820181900481020160405190810160405281815292919060208401838380828437509496506125f495505050505050565b341561087357600080fd5b61063d600160a060020a031960043516612620565b61023b6126cd565b341561089b57600080fd5b6108a66004356126d7565b60405190815260200160405180910390f35b34156108c357600080fd5b6108cb6126e3565b60405160208082528190810183818151815260200191508051906020019080838360005b838110156109075780820151838201526020016108ef565b50505050905090810190601f1680156109345780820380516001836020036101000a031916815260200191505b509250505060405180910390f35b341561094d57600080fd5b6108a6600160a060020a0360043516612724565b341561096c57600080fd5b610977600435612761565b6040519384526020840192909252604080840191909152600160a060020a0390911660608301526080909101905180910390f35b61023b6127a8565b60095460a060020a02600160a060020a0319166000908152600e6020908152604080832061ffff85168452909152812054900b5b919050565b600160a060020a031982166000908152601160209081526040808320600160a060020a038516845290915290205460010b92915050565b60095460a060020a02600160a060020a03191660009081526016602052604081205481908190819081908190819081908190819060ff161515610a6557600080fd5b60008b81526013602052604090206004810154909a5060ff161515610a8957600080fd5b60095460a060020a02600160a060020a031916600090815260058b01602052604090205460ff1615610aba57600080fd5b60095460a060020a02600160a060020a031916600090815260068b016020526040812054995097508796505b8861ffff168760ff161015610b815760095460a060020a02600160a060020a031916600090815260068b0160205260409020805460ff8916908110610b2757fe5b60009182526020808320919091015460095460a060020a02600160a060020a0319168352601182526040808420600160a060020a0390921680855291909252912054600190810b810b999099019897909701969550610ae6565b8861ffff1688811515610b9057fe5b05945060009350600096505b8861ffff168760ff161015610c5d5760095460a060020a02600160a060020a031916600090815260068b0160205260409020805460ff8916908110610bdd57fe5b60009182526020808320919091015460095460a060020a02600160a060020a0319168352601182526040808420600160a060020a0390921680855291909252912054909650600190810b935083900b859012801590610c40575060008360010b12155b15610c525782800260010b9384019391505b600190960195610b9c565b600096505b8861ffff168760ff161015610d575760095460a060020a02600160a060020a031916600090815260068b0160205260409020805460ff8916908110610ca357fe5b60009182526020808320919091015460095460a060020a02600160a060020a0319168352601182526040808420600160a060020a0390921680855291909252912054909650600190810b935083900b859012801590610d06575060008360010b12155b15610d4c5782830260010b915083828b6002015402811515610d2457fe5b600160a060020a038816600090815260098d0160205260409020805492909104918201905590505b600190960195610c62565b5050600954600160a060020a031960a060020a909102166000908152600590980160205250506040909520805460ff19166001179055505050505050565b6000828152601360209081526040808320600160a060020a03851684526009810190925282205490919011610dc957600080fd5b600160a060020a0382166000818152600983016020526040908190205480156108fc029151600060405180830381858888f193505050501515610e0b57600080fd5b600160a060020a0390911660009081526009909101602052604081205550565b610f02600c8054600181600116156101000203166002900480601f016020809104026020016040519081016040528092919081815260200182805460018160011615610100020316600290048015610ec45780601f10610e9957610100808354040283529160200191610ec4565b820191906000526020600020905b815481529060010190602001808311610ea757829003601f168201915b505050505060408051908101604052600681527f53636f72657300000000000000000000000000000000000000000000000000006020820152611377565b565b60055433600160a060020a03908116911614610f1f57600080fd5b610f288161287f565b610f306127a8565b50565b6000610f3d613979565b6000610f476139a2565b60095460a060020a02600160a060020a0319166000908152601060209081526040808320600160a060020a03891684529091529081902090606090519081016040908152825460ff161515825260018301546020830152909190808301906002830190600890610100905190810160405291906101008301826000855b82829054906101000a900461ffff1661ffff1681526020019060020190602082600101049283019260010382029150808411610fc4579050505050505081525050905080602001518160400151600954600160a060020a031960a060020a909102166000908152601160209081526040808320600160a060020a038b168452909152902054919550935060010b9150509193909250565b60006110656139c9565b61106d6139db565b6110756139db565b60008060008060006110bb8b60408051908101604052600181527f7c0000000000000000000000000000000000000000000000000000000000000060208201528c612892565b6040518082805190602001908083835b602083106110ea5780518252601f1990920191602091820191016110cb565b6001836020036101000a038019825116818451161790925250505091909101925060409150505190819003902060095460a060020a02600160a060020a0319166000908152601060209081526040808320600160a060020a03331684529091529020600101541461115a57600080fd5b60086040518059106111695750595b908082528060200260200182016040525097506111858b6128cd565b96506111aa604080519081016040526001815260f960020a601d0260208201526128cd565b95506111bc878763ffffffff6128f516565b600101945060088511156111cf57600080fd5b60009350600092505b848360ff1610156112b4576112036111fe6111f9898963ffffffff61294c16565b61295f565b6129ad565b9150600090505b8260ff168160ff16101561124c57878160ff168151811061122757fe5b9060200190602002015161ffff8381169116141561124457600080fd5b60010161120a565b81888460ff168151811061125c57fe5b61ffff92831660209182029290920181019190915260095460a060020a02600160a060020a0319166000908152600e8252604080822093861682529290915290812054810b900b9390930192600192909201916111d8565b601454600185900b13156112c757600080fd5b600092505b87518360ff16101561136957878360ff16815181106112e757fe5b9060200190602002015160095460a060020a02600160a060020a0319166000908152601060209081526040808320600160a060020a0333168452909152902060020160ff85166008811061133757fe5b601091828204019190066002026101000a81548161ffff021916908361ffff16021790555082806001019350506112cc565b505050505050505092915050565b60008060006113b860408051908101604052600381527f55524c000000000000000000000000000000000000000000000000000000000060208201526129c0565b600302660886c98b760000019250655af3107a400091508183013410156114c1577f46cb989ef9cef13e930e3b7f286225a086e716a90d63e0b7da85d310a9db0c9a60405160208082526046908201527f4f7261636c697a65207175657279206661696c65642e2053656e64206d6f72656040808301919091527f2045544820282e3030323545544820696e20676173202b20242e30332070657260608301527f2071756572790000000000000000000000000000000000000000000000000000608083015260a0909101905180910390a1600160a060020a0333163480156108fc0290604051600060405180830381858888f1935050505015156114bc57600080fd5b611630565b60068054348590030190557f46cb989ef9cef13e930e3b7f286225a086e716a90d63e0b7da85d310a9db0c9a60405160208082526037908201527f4f7261636c697a65207175657269657320776572652073656e742c207374616e6040808301919091527f64696e6720627920666f722074686520616e737765722e00000000000000000060608301526080909101905180910390a161160c6040805190810160405280600381526020017f55524c00000000000000000000000000000000000000000000000000000000008152506116036040805190810160405280600581526020017f6a736f6e280000000000000000000000000000000000000000000000000000008152508860408051908101604052601281527f292e636f6d7072657373656453636f72657300000000000000000000000000006020820152612892565b620927c0612bce565b600081815260086020526040902090915084805161162e9291602001906139f2565b505b5050505050565b6000611641612f54565b600160a060020a031633600160a060020a031614151561166057600080fd5b60008381526008602052604090819020905180828054600181600116156101000203166002900480156116ca5780601f106116a85761010080835404028352918201916116ca565b820191906000526020600020905b8154815290600101906020018083116116b6575b5050915050604051809103902090506040517f53616c6172696573000000000000000000000000000000000000000000000000815260080160405190819003902081141561171b5761171b82611762565b6040517f53636f7265730000000000000000000000000000000000000000000000000000815260060160405190819003902081141561175d5761175d82611cec565b505050565b61176a6139db565b6117726139db565b61177a6139db565b6000806117856139db565b60055460009033600160a060020a039081169116146117a357600080fd5b60095460a060020a02600160a060020a0319166000908152601660205260409020805460ff191690556117d5886128cd565b965061181360408051908101604052600181527f200000000000000000000000000000000000000000000000000000000000000060208201526128cd565b9550611838604080519081016040526001815260f960020a601d0260208201526128cd565b945061184a878763ffffffff6128f516565b6001019350600092505b838360ff16101561194c5761186f878763ffffffff61294c16565b91506118876111fe6111f9848863ffffffff61294c16565b60095460a060020a02600160a060020a0319166000908152600d60205260409020805491925090600181016118bc8382613a70565b916000526020600020906010918282040191900660020283909190916101000a81548161ffff021916908361ffff160217905550506118fd6111fe8361295f565b60095460a060020a02600160a060020a0319166000908152600e6020908152604080832061ffff861684529091528120805460ff191660ff9390920b9290921617905560019290920191611854565b5050505050505050565b60055433600160a060020a0390811691161461197157600080fd5b6000600754600654031115610f0257600554600754600654600160a060020a03909216910380156108fc0290604051600060405180830381858888f1935050505015156119bd57600080fd5b600754600655565b60055433600160a060020a039081169116146119e057600080fd5b600980546bffffffffffffffffffffffff191660a060020a808704919091179182905502600160a060020a0319166000908152600a60205260409020819055611a28826130f4565b611a318361287f565b50505050565b611a3f6139c9565b6012805480602002602001604051908101604052809291908181526020018280548015611a8c57602002820191906000526020600020905b81548152600190910190602001808311611a77575b505050505090505b90565b600080611aa2613979565b600160a060020a0319841660009081526016602052604081205460ff161515611aca57600080fd5b600093505b600160a060020a031985166000908152600f602052604090205460ff8516101561163057600160a060020a031985166000908152600f60205260409020805460ff8616908110611b1b57fe5b6000918252602080832090910154600160a060020a031988168352601082526040808420600160a060020a039092168085529190925291819020919450600290910190600890610100905190810160405291906101008301826000855b82829054906101000a900461ffff1661ffff1681526020019060020190602082600101049283019260010382029150808411611b7857905050505050509150600090505b60088160ff161015611c6357600160a060020a031985166000908152600e60205260408120908360ff841660088110611bf157fe5b602002015161ffff90811682526020808301939093526040918201600090812054600160a060020a03198a16825260118552838220600160a060020a0389168352909452918220805461ffff198116610100909504840b90930b600193840b01830b9091169290921790915501611bbc565b600190930192611acf565b60008181526013602052604090206004015460ff1615611c8d57600080fd5b60008181526013602052604090205433600160a060020a03908116911614611cb457600080fd5b60009081526013602052604081208054600160a060020a0319168155600181018290556002810191909155600401805460ff19169055565b611cf46139db565b611cfc6139db565b611d046139c9565b60095460a060020a02600160a060020a031916600090815260166020526040812054819060ff1615611d3557600080fd5b611d3e866128cd565b9450611d7c60408051908101604052600181527f200000000000000000000000000000000000000000000000000000000000000060208201526128cd565b9350611d8e858563ffffffff6128f516565b600101604051805910611d9e5750595b908082528060200260200182016040528015611dd457816020015b611dc16139db565b815260200190600190039081611db95790505b509250600091505b82518261ffff161015611ee457611df9858563ffffffff61294c16565b838361ffff1681518110611e0957fe5b60209081029091010152611e656111fe6111f9611e3f604080519081016040526001815260f960020a601d0260208201526128cd565b868661ffff1681518110611e4f57fe5b906020019060200201519063ffffffff61294c16565b9050611e8c6111fe848461ffff1681518110611e7d57fe5b9060200190602002015161295f565b600954600160a060020a031960a060020a909102166000908152600e6020908152604080832061ffff86168452909152812080549290910b60ff166101000261ff001990921691909117905560019190910190611ddc565b5050600954600160a060020a031960a060020a909102166000908152601660205260409020805460ff1916600117905550505050565b60095460a060020a0290565b600083815260136020908152604080832060095460a060020a02600160a060020a0319168452600781018352818420600160a060020a038716855290925282205490919060ff1615611f7757600080fd5b611f80836126d7565b60018301549091508101831015611f9657600080fd5b60018281018054600285018054909101905560068054840181559054600160a060020a03871660009081526009808701602090815260408084208054958b03899003909501909455905460a060020a02600160a060020a0319168252928601909252902080549091810161200a8382613aa4565b5060009182526020808320919091018054600160a060020a03909716600160a060020a0319978816811790915560095460a060020a029096168252600790930183526040808220958252949092525091909120805460ff191660011790555050565b600554600160a060020a031681565b6120836139c9565b60095460a060020a02600160a060020a0319166000908152600f6020908152604091829020805490929091828102019051908101604052809291908181526020018280548015611a8c57602002820191906000526020600020905b8154600160a060020a031681526001909101906020018083116120de575050505050905090565b61210d6139a2565b60095460a060020a02600160a060020a0319166000908152601060209081526040808320600160a060020a03331684529091529081902090606090519081016040908152825460ff161515825260018301546020830152909190808301906002830190600890610100905190810160405291906101008301826000855b82829054906101000a900461ffff1661ffff168152602001906002019060208260010104928301926001038202915080841161218a5790505050505050815250509050806000015115156121dd57600080fd5b6121e8823334611f26565b5050565b60008181526013602052604090206004015460ff161561220b57600080fd5b60095460a060020a02600160a060020a0319166000908152601060209081526040808320600160a060020a033316845290915290205460ff16151561224f57600080fd5b60128054600181016122618382613aa4565b50600091825260209091200181905560806040519081016040528033600160a060020a03168152602001612294346126d7565b34038152600060208083018290526001604093840152848252601390522081518154600160a060020a031916600160a060020a039190911617815560208201518160010155604082015181600201556060820151600491909101805460ff191691151591909117905550610f30813334611f26565b6123116139c9565b6000828152601360209081526040808320600160a060020a03198716845260068101835292819020805490929091828202909101905190810160405280929190818152602001828054801561238f57602002820191906000526020600020905b8154600160a060020a03168152600190910190602001808311612371575b505050505091505b5092915050565b60095460a060020a02600160a060020a0319166000908152601660205260408120548190819060ff1615156123d257600080fd5b600084815260136020908152604080832060095460a060020a02600160a060020a0319168452600581019092529091205490935060ff16151561241457600080fd5b600483015460ff16151561242757600080fd5b600091505b60095460a060020a02600160a060020a03191660009081526006840160205260409020548210156124ca5760095460a060020a02600160a060020a0319166000908152600684016020526040902080548390811061248657fe5b6000918252602080832090910154600160a060020a031680835260098601909152604082205490925011156124bf576124bf8482610d95565b60019091019061242c565b5050600401805460ff1916905550565b60095460a060020a02600160a060020a0319166000908152600e6020908152604080832061ffff949094168352929052908120546101009004900b90565b60095460a060020a02600160a060020a0319166000908152600a602052604081205442111561254657600080fd5b5060095460a060020a02600160a060020a0319166000908152601060209081526040808320600160a060020a03331684529091529020805460ff1615156125de5760095460a060020a02600160a060020a0319166000908152600f602052604090208054600181016125b88382613aa4565b5060009182526020909120018054600160a060020a03191633600160a060020a03161790555b600180820192909255805460ff19169091179055565b60055433600160a060020a0390811691161461260f57600080fd5b612618816130f4565b610f30610e2b565b6126286139c9565b600d600083600160a060020a031916600160a060020a03191681526020019081526020016000208054806020026020016040519081016040528092919081815260200182805480156126c157602002820191906000526020600020906000905b82829054906101000a900461ffff1661ffff16815260200190600201906020826001010492830192600103820291508084116126885790505b50505050509050919050565b6006805434019055565b6015546103e891020490565b6126eb6139c9565b60408051908101604052600481527f74657374000000000000000000000000000000000000000000000000000000006020820152905090565b60095460a060020a02600160a060020a0319166000908152601060209081526040808320600160a060020a03949094168352929052206001015490565b6000818152601360209081526040808320600181015460095460a060020a02600160a060020a031916855260068201909352922054915492939092600160a060020a031690565b610f02600b8054600181600116156101000203166002900480601f0160208091040260200160405190810160405280929190818152602001828054600181600116156101000203166002900480156128415780601f1061281657610100808354040283529160200191612841565b820191906000526020600020905b81548152906001019060200180831161282457829003601f168201915b505050505060408051908101604052600881527f53616c61726965730000000000000000000000000000000000000000000000006020820152611377565b600b8180516121e89291602001906139f2565b61289a6139c9565b6128c58484846020604051908101604052806000815250602060405190810160405260008152613107565b949350505050565b6128d56139db565b602082016040805190810160405280845181526020019190915292915050565b60008082516129108551866020015186518760200151613377565b0190505b83518460200151018111612397576001909101908251612944856020015183038651038386518760200151613377565b019050612914565b6129546139db565b61239783838361341a565b6129676139c9565b61296f6139c9565b600083516040518059106129805750595b818152601f19601f8301168101602001604052905091506020820190506123978185602001518651613489565b60006129ba8260006134ce565b92915050565b60008054600160a060020a031615806129eb57506000546129e990600160a060020a031661363c565b155b156129fc576129fa6000613640565b505b60008054600160a060020a0316906338cc483190604051602001526040518163ffffffff1660e060020a028152600401602060405180830381600087803b1515612a4557600080fd5b6102c65a03f11515612a5657600080fd5b5050506040518051600154600160a060020a039081169116149050612af95760008054600160a060020a0316906338cc483190604051602001526040518163ffffffff1660e060020a028152600401602060405180830381600087803b1515612abe57600080fd5b6102c65a03f11515612acf57600080fd5b505050604051805160018054600160a060020a031916600160a060020a0392909216919091179055505b600154600160a060020a031663524f3889836000604051602001526040518263ffffffff1660e060020a0281526004018080602001828103825283818151815260200191508051906020019080838360005b83811015612b63578082015183820152602001612b4b565b50505050905090810190601f168015612b905780820380516001836020036101000a031916815260200191505b5092505050602060405180830381600087803b1515612bae57600080fd5b6102c65a03f11515612bbf57600080fd5b50505060405180519392505050565b600080548190600160a060020a03161580612bfb5750600054612bf990600160a060020a031661363c565b155b15612c0c57612c0a6000613640565b505b60008054600160a060020a0316906338cc483190604051602001526040518163ffffffff1660e060020a028152600401602060405180830381600087803b1515612c5557600080fd5b6102c65a03f11515612c6657600080fd5b5050506040518051600154600160a060020a039081169116149050612d095760008054600160a060020a0316906338cc483190604051602001526040518163ffffffff1660e060020a028152600401602060405180830381600087803b1515612cce57600080fd5b6102c65a03f11515612cdf57600080fd5b505050604051805160018054600160a060020a031916600160a060020a0392909216919091179055505b600154600160a060020a0316632ef3accc86856000604051602001526040518363ffffffff1660e060020a0281526004018080602001838152602001828103825284818151815260200191508051906020019080838360005b83811015612d7a578082015183820152602001612d62565b50505050905090810190601f168015612da75780820380516001836020036101000a031916815260200191505b509350505050602060405180830381600087803b1515612dc657600080fd5b6102c65a03f11515612dd757600080fd5b5050506040518051915050670de0b6b3a76400003a840201811115612dff5760009150612f4c565b600154600160a060020a031663c51be90f82600088888883604051602001526040518663ffffffff1660e060020a028152600401808581526020018060200180602001848152602001838103835286818151815260200191508051906020019080838360005b83811015612e7d578082015183820152602001612e65565b50505050905090810190601f168015612eaa5780820380516001836020036101000a031916815260200191505b50838103825285818151815260200191508051906020019080838360005b83811015612ee0578082015183820152602001612ec8565b50505050905090810190601f168015612f0d5780820380516001836020036101000a031916815260200191505b5096505050505050506020604051808303818588803b1515612f2e57600080fd5b6125ee5a03f11515612f3f57600080fd5b5050505060405180519250505b509392505050565b60008054600160a060020a03161580612f7f5750600054612f7d90600160a060020a031661363c565b155b15612f9057612f8e6000613640565b505b60008054600160a060020a0316906338cc483190604051602001526040518163ffffffff1660e060020a028152600401602060405180830381600087803b1515612fd957600080fd5b6102c65a03f11515612fea57600080fd5b5050506040518051600154600160a060020a03908116911614905061308d5760008054600160a060020a0316906338cc483190604051602001526040518163ffffffff1660e060020a028152600401602060405180830381600087803b151561305257600080fd5b6102c65a03f1151561306357600080fd5b505050604051805160018054600160a060020a031916600160a060020a0392909216919091179055505b600154600160a060020a031663c281d19e6000604051602001526040518163ffffffff1660e060020a028152600401602060405180830381600087803b15156130d557600080fd5b6102c65a03f115156130e657600080fd5b505050604051805191505090565b600c8180516121e89291602001906139f2565b61310f6139c9565b6131176139c9565b61311f6139c9565b6131276139c9565b61312f6139c9565b6131376139c9565b61313f6139c9565b6131476139c9565b6000808e98508d97508c96508b95508a94508451865188518a518c51010101016040518059106131745750595b818152601f19601f83011681016020016040529050935083925060009150600090505b88518110156131f0578881815181106131ac57fe5b016020015160f860020a900460f860020a028383806001019450815181106131d057fe5b906020010190600160f860020a031916908160001a905350600101613197565b5060005b875181101561324d5787818151811061320957fe5b016020015160f860020a900460f860020a0283838060010194508151811061322d57fe5b906020010190600160f860020a031916908160001a9053506001016131f4565b5060005b86518110156132aa5786818151811061326657fe5b016020015160f860020a900460f860020a0283838060010194508151811061328a57fe5b906020010190600160f860020a031916908160001a905350600101613251565b5060005b8551811015613307578581815181106132c357fe5b016020015160f860020a900460f860020a028383806001019450815181106132e757fe5b906020010190600160f860020a031916908160001a9053506001016132ae565b5060005b84518110156133645784818151811061332057fe5b016020015160f860020a900460f860020a0283838060010194508151811061334457fe5b906020010190600160f860020a031916908160001a90535060010161330b565b50909d9c50505050505050505050505050565b60008080808088871161340857602087116133ce5760018760200360080260020a031980875116888b038a018a96505b8183885116146133c35760018701968190106133a7578b8b0196505b50505083945061340e565b8686209150879350600092505b86890383116134085750858320818114156133f85783945061340e565b60019384019392909201916133db565b88880194505b50505050949350505050565b6134226139db565b600061343a8551866020015186518760200151613377565b905084602001516020808501919091528501518103835284518560200151018114156134695760008552613480565b835183510185818151039052508351810160208601525b50909392505050565b60005b602082106134af578251845260208401935060208301925060208203915061348c565b6001826020036101000a03905080198351168185511617909352505050565b60006134d86139c9565b5082600080805b835181101561361f577f300000000000000000000000000000000000000000000000000000000000000084828151811061351557fe5b016020015160f860020a900460f860020a02600160f860020a0319161015801561358657507f390000000000000000000000000000000000000000000000000000000000000084828151811061356757fe5b016020015160f860020a900460f860020a02600160f860020a03191611155b156135dc5781156135a55785151561359d5761361f565b600019909501945b600a8302925060308482815181106135b957fe5b016020015160f860020a900460f860020a0260f860020a90040383019250613617565b8381815181106135e857fe5b016020015160f860020a900460f860020a02600160f860020a031916602e60f860020a02141561361757600191505b6001016134df565b60008611156136315785600a0a830292505b509095945050505050565b3b90565b600080613660731d3b2638a7cc9f2cb3d298a3da7a90b67e5506ed61363c565b11156136d05760008054600160a060020a031916731d3b2638a7cc9f2cb3d298a3da7a90b67e5506ed1790556136c860408051908101604052600b81527f6574685f6d61696e6e65740000000000000000000000000000000000000000006020820152613966565b5060016109e7565b60006136ef73c03a2615d5efaf5f49f60b7bb6583eaec212fdf161363c565b11156137575760008054600160a060020a03191673c03a2615d5efaf5f49f60b7bb6583eaec212fdf11790556136c860408051908101604052600c81527f6574685f726f707374656e3300000000000000000000000000000000000000006020820152613966565b600061377673b7a07bcf2ba2f2703b24c0691b5278999c59ac7e61363c565b11156137de5760008054600160a060020a03191673b7a07bcf2ba2f2703b24c0691b5278999c59ac7e1790556136c860408051908101604052600981527f6574685f6b6f76616e00000000000000000000000000000000000000000000006020820152613966565b60006137fd73146500cfd35b22e4a392fe0adc06de1a1368ed4861363c565b11156138655760008054600160a060020a03191673146500cfd35b22e4a392fe0adc06de1a1368ed481790556136c860408051908101604052600b81527f6574685f72696e6b6562790000000000000000000000000000000000000000006020820152613966565b6000613884736f485c8bf6fc43ea212e93bbf8ce046c7f1cb47561363c565b11156138b8575060008054600160a060020a031916736f485c8bf6fc43ea212e93bbf8ce046c7f1cb47517905560016109e7565b60006138d77320e12a1f859b3feae5fb2a0a32c18f5a65555bbf61363c565b111561390b575060008054600160a060020a0319167320e12a1f859b3feae5fb2a0a32c18f5a65555bbf17905560016109e7565b600061392a7351efaf4c8b3c9afbd5ab9f4bbc82784ab6ef8faa61363c565b111561395e575060008054600160a060020a0319167351efaf4c8b3c9afbd5ab9f4bbc82784ab6ef8faa17905560016109e7565b506000919050565b60028180516121e89291602001906139f2565b6101006040519081016040526008815b6000815260001990910190602001816139895790505090565b61014060405190810160409081526000808352602083015281016139c4613979565b905290565b60206040519081016040526000815290565b604080519081016040526000808252602082015290565b828054600181600116156101000203166002900490600052602060002090601f016020900481019282601f10613a3357805160ff1916838001178555613a60565b82800160010185558215613a60579182015b82811115613a60578251825591602001919060010190613a45565b50613a6c929150613ac4565b5090565b81548183558181151161175d57600f016010900481600f0160109004836000526020600020918201910161175d9190613ac4565b81548183558181151161175d5760008381526020902061175d9181019083015b611a9491905b80821115613a6c5760008155600101613aca5600a165627a7a72305820fdd7d12d0a390957876013aa3e1fd2f97c3bb49369b4e1e529b4f5ab2a1548280029",
  "source": "pragma solidity 0.4.18;\n\nimport \"./lib/oraclize/oraclizeAPI_0.4.sol\";\nimport \"./lib/arachnid/solidity-stringutils/strings.sol\";\n\ncontract PgaDfs is usingOraclize {\n\n  using strings for *;\n\n  struct SlateGolfer {\n    // not storing name,\n    // since we're trying to be minimal with data storage\n    // on ethereum's bloated ass blockchain.\n\n    // increments in 1\n    // salaries are roughly DK salaries / $500\n    // and can be negative!\n    int8 salary;\n\n    // fantasy points at end of tournament\n    int8 points;\n  }\n\n\n  struct Lineup {\n    bool submittedHash;  // true when saved\n    // keccak hash of lineup before revealing\n    // e.g. keccak256(\"21059:94320:85933\")\n    bytes32 golferIdsHash;\n    // MAX of 8 pga tour ids...\n    // you can play less than 8 guys if you want!\n    // e.g. [web3.fromAscii(\"21059\"), web3.fromAscii(\"94320\"), web3.fromAscii(\"85933\")]\n    uint16[8] golferIds;\n  }\n\n  struct Contest {\n    address owner; // creator of contest\n\n    uint entryFee; // TODO(christian): what units? wei?\n    uint prizePool; // TODO: delete\n    // all money in contest balance, payable to winners\n    mapping (bytes12 => uint) slateIdToPrizePool;\n\n    // yay or nay, is this an active contest\n    // must be not live to delete contest\n    bool live;\n\n    // have we calculated the address balances after contest is over?\n    mapping (bytes12 => bool) slateIdToPayoutsSet;\n\n    // map ETH address --> lineup in contest\n    mapping (bytes12 => address[]) slateIdToEntries;\n\n    mapping (bytes12 => mapping(address => bool)) slateIdToEntered;\n    mapping (bytes12 => mapping(address => int32)) slateIdToAddressScores;\n\n    // ETH address --> how much they recouped\n    // once we confirmed the event ends, then payout!\n    mapping(address => uint) balances;\n  }\n\n\n  event newOraclizeQuery(string description);\n\n  // this is the initializer of the contract\n  // who gets special privaledges:\n  // (1) if oraclize fucks up, you set scores manually\n  // (2) you can spend the extraEther in the contract\n  address public contractAdmin;\n  uint private extraEther;\n  uint private minBal;\n\n  // status (bool): is this oraclize query complete or not?\n  mapping(bytes32 => string) queryIdToCallbackAction;\n\n  // this is the CONSTRUCTOR!\n  // we must initialize the lubrication amount\n  // with the miniumum balance, which can never be recovered\n  function PgaDfs() public payable {\n    require(msg.value >= minBal);\n    // in the constructor (this function), msg.sender is\n    // the owner of the contract\n    contractAdmin = msg.sender;\n    extraEther = msg.value;\n\n    // OAR for ethereum-bridge\n    OAR = OraclizeAddrResolverI(0x15Ce83f7B43082C21deB5bEDd004e2F683B45392);\n    // TODO: tinker with this gas value\n    /* oraclize_setCustomGasPrice(1000000000 wei); */\n\n    // execute a dummy transcaction to make fee estimation\n    // work by burning the free transaction\n    /* oraclize_query(\"URL\", \"json(http://api.fixer.io/latest?symbols=USD,GBP).rates.GBP\"); */\n  }\n\n\n  // N.B. FROM CRYPTO RIC:\n  // if we want to fund money into the \"lubrication account\"\n  // this will allow the contract to function if the price\n  // of ether falls dramatically between querires\n  // and, as a result, because the query fee is charged in USD,\n  // the fee for subsequent queries goes up\n  // this should average out over time,\n  // we charge a small fee to make sure it more likely going up\n  // this fee, over the course of 400 wagers,\n  // should offset the irrecovable minimum balance\n  function deposit() payable external {\n    extraEther += msg.value;\n  }\n\n  // CRYPTO RIC:\n  // if we want to withdraw money from the lubrication account\n  // we can only draw from the extraEther gained,\n  // so as to protect and wall off funds from active wagers\n  // we must leave a minBal of .1 ether to serve as lubrication\n  // this protects people with wagers from us withdrawing\n  // all the lubrication while they have bets in, which\n  // would make them have the potential to fail\n  function withdraw() external {\n    require(msg.sender == contractAdmin);\n\n    if (extraEther - minBal > 0) {\n      contractAdmin.transfer(extraEther - minBal);\n      extraEther = minBal;\n    }\n  }\n\n  // active slate id to key slate/lineup mappings\n  bytes12 slateId;\n  mapping (bytes12 => uint) slateIdToLockTimestamp;\n\n  // format: \"{pgaId}:{salary}\"\n  // example: \"34360:1522955700:15 32102:1522963620:-2\" <-- salaries can be negative!\n  string compressedSalariesUrl = \"\"; // e.g. \"https://s3.amazonaws.com/ethdfs/pga/compressedSalaries/2018/471.json\";\n\n  // format: \"{pgaId}:{rd1}-{rd2}-{rd3}-{rd4}\"\n  // example: \"34360:69-66-67-71 32102:70-72-65-67\"\n  string compressedScoresUrl = \"\"; // e.g. \"https://s3.amazonaws.com/ethdfs/pga/compressedScores/2018/471.json\";\n\n\n  // slate id ==> golfer ids\n  // NOTE: uint16 for golfer ids is really fucking pushing it,\n  // as PGA tour is on ID's around 55k or so.\n  // the max uint8 number is 65,535. lol\n  mapping (bytes12 => uint16[]) slateIdToGolferIds;\n  // slate id ==> pga tour id ==> golfer data (salary, scores, etc.)\n  mapping (bytes12 => mapping(uint16 => SlateGolfer)) slateIdToSlateGolfers;\n  mapping (bytes12 => address[]) slateIdToEnteredAddresses;\n  mapping (bytes12 => mapping (address => Lineup)) slateIdToLineups;\n  mapping (bytes12 => mapping (address => int16)) slateIdToEntryScores;\n\n  // contest data\n  bytes32[] contestIds;\n  mapping(bytes32 => Contest) contests;\n\n  // salary cap is 100\n  // salaries are integers and CAN BE NEGATIVE\n  // think mike weir\n  int salaryCap = 100;\n\n  // rake is 2.0% or 20/1000\n  uint rakeTimesOneThousand = 20;\n\n  // is scoring complete for the current slate\n  mapping (bytes12 => bool) slateIdToCompleteScoring;\n\n  function setLineupHash(bytes32 lineupHash) public {\n    // can't change lineup hash after lock\n    require(block.timestamp <= slateIdToLockTimestamp[slateId]);\n    Lineup storage theLineup = slateIdToLineups[slateId][msg.sender];\n    if (!theLineup.submittedHash) {\n        // don't push duped addresses if they already have a lineup\n        slateIdToEnteredAddresses[slateId].push(msg.sender);\n    }\n    theLineup.golferIdsHash = lineupHash;\n    theLineup.submittedHash = true;\n  }\n\n  // returns: Lineup.golferIdsHash\n  function getLineupHash(address entrantAddress) public view returns (bytes32) {\n    return slateIdToLineups[slateId][entrantAddress].golferIdsHash;\n  }\n\n  function getEnteredAddressesForCurrentSlate() public view returns (address[]) {\n      return slateIdToEnteredAddresses[slateId];\n  }\n\n  function getCurrentSlateLineupForAddress(address address_) public view returns (bytes32, uint16[8], int16) {\n      Lineup memory theLineup = slateIdToLineups[slateId][address_];\n      return (theLineup.golferIdsHash, theLineup.golferIds, slateIdToEntryScores[slateId][address_]);\n  }\n\n  function getSlateId() public view returns (bytes12) {\n    return slateId;\n  }\n\n  function getSalary(uint16 pgaId) public view returns (int8) {\n    return slateIdToSlateGolfers[slateId][pgaId].salary;\n  }\n\n  function getPoints(uint16 pgaId) public view returns (int8) {\n    return slateIdToSlateGolfers[slateId][pgaId].points;\n  }\n\n  // lineups must:\n  // have 8 or less players\n  // total salary must be <= salary cap\n  // can only play the same guy once\n  function revealLineup(string golferIdsColonDelimited, string revealKey) public returns (int16) {\n    require(slateIdToLineups[slateId][msg.sender].golferIdsHash == keccak256(strConcat(golferIdsColonDelimited, \"|\", revealKey)));\n\n    var golferIds = new uint16[](8);\n\n    var golferIdsSlice = golferIdsColonDelimited.toSlice();\n    var delimiter = \":\".toSlice();\n    uint256 golferCount = golferIdsSlice.count(delimiter) + 1;\n\n    // must have 8 or less players\n    require(golferCount <= 8);\n\n    // and salary must be under cap\n    int16 totalSalary = 0;\n\n    for (uint8 ii = 0; ii < golferCount; ii++) {\n      // string  --> left padded bytes32\n      // \"29725\" --> \"0x3239373235000000000000000000000000000000000000000000000000000000\"\n      // replicate this with web3.fromAscii('29725')\n      uint16 golferId = uint16(parseInt(golferIdsSlice.split(delimiter).toString()));\n\n      for (uint8 jj = 0; jj < ii; jj++) {\n        require(golferId != golferIds[jj]);\n      }\n      golferIds[ii] = golferId;\n      totalSalary += slateIdToSlateGolfers[slateId][golferId].salary;\n    }\n\n    require(totalSalary <= salaryCap);\n\n    for (ii = 0; ii < golferIds.length; ii++) {\n      slateIdToLineups[slateId][msg.sender].golferIds[ii] = golferIds[ii];\n    }\n  }\n\n  function calculateRake(uint wei_) public view returns (uint) {\n    return (wei_ * rakeTimesOneThousand) / 1000;\n  }\n\n  function createContest(bytes32 contestId) public payable {\n    // contest id cannot be taken already\n    require(!contests[contestId].live);\n    // contest owner must first have lineup hash on chain\n    require(slateIdToLineups[slateId][msg.sender].submittedHash);\n\n    contestIds.push(contestId);\n    contests[contestId] = Contest({\n      owner : msg.sender,\n      // entry fee is AUTOMATICALLY calculated by how much the owner deposits\n      entryFee : msg.value - calculateRake(msg.value),\n      prizePool: 0, // updated in payEntryFeeToContest below\n      live : true\n    });\n    payEntryFeeToContest(contestId, msg.sender, msg.value);\n  }\n\n  function enterContest(bytes32 contestId) public payable {\n    // to enter contest, user must have lineup hash on chain\n    Lineup memory entrantLineup = slateIdToLineups[slateId][msg.sender];\n    require(entrantLineup.submittedHash);\n    payEntryFeeToContest(contestId, msg.sender, msg.value);\n  }\n\n  function payEntryFeeToContest(bytes32 contestId, address msgSender, uint ethEntered) public payable {\n\n    Contest storage activeContest = contests[contestId];\n    // if they not are already in the contest, pay rake and enter\n    require(!activeContest.slateIdToEntered[slateId][msgSender]);\n\n    uint rakeToCollect = calculateRake(ethEntered);\n\n    require(ethEntered >= activeContest.entryFee + rakeToCollect);\n\n    activeContest.prizePool += activeContest.entryFee;\n    extraEther += rakeToCollect;\n    // if someone sends us extra money,\n    // it goes their balance for the contest\n    // and by default they can get paid out at the end\n    // otherwise they can withdraw\n    activeContest.balances[msgSender] += ethEntered - activeContest.entryFee - rakeToCollect;\n    activeContest.slateIdToEntries[slateId].push(msgSender);\n    activeContest.slateIdToEntered[slateId][msgSender] = true;\n  }\n\n  function setSalaries(string compressedSalaries) public {\n      require(msg.sender == contractAdmin);\n      // TODO: make internal / only contractAdmin\n      slateIdToCompleteScoring[slateId] = false;\n\n      var compressedSalariesSlice = compressedSalaries.toSlice();\n      var playerDelimiter = \" \".toSlice();\n      var salaryDelimiter = \":\".toSlice();\n      uint playerCount = compressedSalariesSlice.count(playerDelimiter) + 1;\n\n      for (uint8 ii = 0; ii < playerCount; ii++) {\n          var playerColonSalary = compressedSalariesSlice.split(playerDelimiter);\n\n          uint16 pgaPlayerId = uint16(parseInt(playerColonSalary.split(salaryDelimiter).toString()));\n\n          slateIdToGolferIds[slateId].push(pgaPlayerId);\n          slateIdToSlateGolfers[slateId][pgaPlayerId].salary = int8(parseInt(playerColonSalary.toString()));\n      }\n  }\n\n  function setScores(string compressedScores) public {\n    // TODO: make internal / only contractAdmin\n    // TODO: really make sure this works\n    // TODO: difference between var and normal types?\n    require(!slateIdToCompleteScoring[slateId]);\n\n    var compressedScoresSlice = compressedScores.toSlice();\n    var playerDelimiter = \" \".toSlice();\n    var playerScoreSlices = new strings.slice[](compressedScoresSlice.count(playerDelimiter) + 1);\n\n    for (uint16 i = 0; i < playerScoreSlices.length; i++) {\n      playerScoreSlices[i] = compressedScoresSlice.split(playerDelimiter);\n      uint16 pgaPlayerId = uint16(parseInt(playerScoreSlices[i].split(\":\".toSlice()).toString()));\n      slateIdToSlateGolfers[slateId][pgaPlayerId].points = int8(parseInt(playerScoreSlices[i].toString()));\n    }\n    slateIdToCompleteScoring[slateId] = true;\n  }\n\n  function scoreEnteredAddresses(bytes12 slateId_) public {\n    require(slateIdToCompleteScoring[slateId_]);\n    for (uint8 ii = 0; ii < slateIdToEnteredAddresses[slateId_].length; ii++) {\n      address entry = slateIdToEnteredAddresses[slateId_][ii];\n      uint16[8] memory entryPgaIds = slateIdToLineups[slateId_][entry].golferIds;\n      for (uint8 g = 0; g < entryPgaIds.length; g++) {\n        slateIdToEntryScores[slateId_][entry] += slateIdToSlateGolfers[slateId_][entryPgaIds[g]].points;\n      }\n    }\n  }\n\n  function setSingleContestPayouts(bytes32 contestId) public {\n    // everyone who scores > max(0, the contest average) gets paid\n    // you are paid proportional to your squared score\n    require(slateIdToCompleteScoring[slateId]);\n\n    Contest storage contest = contests[contestId];\n    require(contest.live);\n    require(!contest.slateIdToPayoutsSet[slateId]);\n\n    uint16 totalEntries = uint16(contest.slateIdToEntries[slateId].length);\n    int totalPoints = 0;\n\n    // calculate the average score in the contest\n    for (uint8 ii = 0; ii < totalEntries; ii++) {\n      address entry = contest.slateIdToEntries[slateId][ii];\n      totalPoints += slateIdToEntryScores[slateId][entry];\n    }\n\n    // of the top half (except any of those that scored < 0),\n    // sum up the squared scores\n    int averagePointsRoundedDown = totalPoints / totalEntries;\n    uint summedSquaredWinningScores = 0;\n\n    for (ii = 0; ii < totalEntries; ii++) {\n      entry = contest.slateIdToEntries[slateId][ii];\n      int16 score = slateIdToEntryScores[slateId][entry];\n      if (score >= averagePointsRoundedDown && score >= 0) {\n        uint squaredScore = uint(score * score);\n        summedSquaredWinningScores += squaredScore;\n      }\n    }\n\n    // then pay out people proportional to squared points\n    for (ii = 0; ii < totalEntries; ii++) {\n      entry = contest.slateIdToEntries[slateId][ii];\n      score = slateIdToEntryScores[slateId][entry];\n      if (score >= averagePointsRoundedDown && score >= 0) {\n        // TODO: make sure there's no rounding error B.S. going on\n        // that makes us massively over or under pay people\n        squaredScore = uint(score * score);\n        uint toPayout = (contest.prizePool * squaredScore) / summedSquaredWinningScores;\n        contest.balances[entry] += toPayout;\n      }\n    }\n    contest.slateIdToPayoutsSet[slateId] = true;\n  }\n\n  function withdrawBalanceFromContest(bytes32 contestId, address entry) public payable {\n    Contest storage contest = contests[contestId];\n    require (contest.balances[entry] > 0);\n    entry.transfer(contest.balances[entry]);\n    contest.balances[entry] = 0;\n  }\n\n  function payOutContest(bytes32 contestId) public payable {\n    require(slateIdToCompleteScoring[slateId]);\n\n    Contest storage contest = contests[contestId];\n    require(contest.slateIdToPayoutsSet[slateId]);\n    require(contest.live);\n\n    for (uint ii = 0; ii < contest.slateIdToEntries[slateId].length; ii++) {\n      address entry = contest.slateIdToEntries[slateId][ii];\n      if (contest.balances[entry] > 0) {\n        withdrawBalanceFromContest(contestId, entry);\n      }\n    }\n    contest.live = false;\n  }\n\n  function _setCompressedScoresUrl(string _compressedScoresUrl) internal {\n    compressedScoresUrl = _compressedScoresUrl;\n  }\n\n  function _setCompressedSalariesUrl(string _compressedSalariesUrl) internal {\n    compressedSalariesUrl = _compressedSalariesUrl;\n  }\n\n  function getSalariesOnChain() public payable {\n    innerOraclizeQuery(compressedSalariesUrl, \"Salaries\");\n  }\n\n  function getScoresOnChain() public payable {\n    innerOraclizeQuery(compressedScoresUrl, \"Scores\");\n  }\n\n  function setScoresUrlAndGetResultsOnChain(string compressedScoresUrl_) public {\n      require(msg.sender == contractAdmin);\n      _setCompressedScoresUrl(compressedScoresUrl_);\n      getScoresOnChain();\n  }\n\n  function setSalariesUrlAndGetSalariesOnChain(string compressedSalariesUrl_) public {\n      require(msg.sender == contractAdmin);\n      _setCompressedSalariesUrl(compressedSalariesUrl_);\n      getSalariesOnChain();\n  }\n\n  function setNewSlateInfo(\n    bytes12 _newSlateId,\n    string _compressedSalariesUrl,\n    string _compressedScoresUrl,\n    uint lockTimestamp\n  ) public {\n    require(msg.sender == contractAdmin);\n    slateId = _newSlateId;\n    slateIdToLockTimestamp[slateId] = lockTimestamp;\n    _setCompressedScoresUrl(_compressedScoresUrl);\n    _setCompressedSalariesUrl(_compressedSalariesUrl);\n  }\n\n  // ========================= ORACLIZE functions =========================\n\n\n  function innerOraclizeQuery(string queryUrl, string callbackAction) public payable {\n    // TODO: make these views\n    uint cost = 2400000000000000 + (oraclize_getPrice(\"URL\") * 3);\n    uint fee = 100000000000000;\n\n    if (msg.value < cost + fee) {\n      newOraclizeQuery(\"Oraclize query failed. Send more ETH (.0025ETH in gas + $.03 per query\");\n      msg.sender.transfer(msg.value);\n    } else {\n      extraEther += msg.value - cost;\n      newOraclizeQuery(\"Oraclize queries were sent, standing by for the answer.\");\n      bytes32 queryId = oraclize_query(\n        \"URL\",\n        strConcat(\"json(\", queryUrl, \").compressedScores\"),\n        600000\n      );\n      queryIdToCallbackAction[queryId] = callbackAction;\n    }\n  }\n\n  // switch function for callbacks\n  function __callback(bytes32 myid, string result) public {\n    require(msg.sender == oraclize_cbAddress());\n    // can't compare string storage pointers and string literals,\n    // so instead let's compare their keccak256 hashes!\n    bytes32 actionHash = keccak256(queryIdToCallbackAction[myid]);\n    if (actionHash == keccak256(\"Salaries\")) {\n      setSalaries(result);\n    }\n    if (actionHash == keccak256(\"Scores\")) {\n      setScores(result);\n    }\n  }\n\n  // CRYPTO RIC:\n  // should anyone wish to be a good blockchain citizen\n  // and delete a wager that is no longer live\n  function deleteContest(bytes32 contestId) external {\n    require(!contests[contestId].live);\n    // can't delete someone else's contest\n    require(msg.sender == contests[contestId].owner);\n    delete contests[contestId];\n  }\n\n  function getLiveContestIds() public view returns (bytes32[]) {\n    /* bytes32[] memory liveContestIds;  // why must use storage?\n    uint jj = 0;\n    for (uint ii = 0; ii < contestIds.length; ii++) {\n      bytes32 contestId = contestIds[ii];\n      if (contests[contestId].live) {\n        liveContestIds[jj] = contestId;\n        jj += 1;\n      }\n    } */\n    return contestIds;\n  }\n\n  function getContestById(bytes32 contestId) public view returns (\n      bytes32,\n      uint,\n      uint,\n      address\n    ) {\n      Contest storage contest = contests[contestId];\n      return (\n          contestId,\n          contest.entryFee,\n          contest.slateIdToEntries[slateId].length,\n          contest.owner\n        );\n    }\n\n  function getContestEntries(bytes12 slateId_, bytes32 contestId) public view returns (address[]) {\n    Contest storage contest = contests[contestId];\n    return contest.slateIdToEntries[slateId_];\n  }\n\n  function getEntryScore(bytes12 slateId_, address entryAddress) public view returns (int16) {\n    return slateIdToEntryScores[slateId_][entryAddress];\n  }\n\n  function getGolferIdsOnSlate(bytes12 slateId_) public view returns (uint16[]) {\n    return slateIdToGolferIds[slateId_];\n  }\n\n  function testFunction() public view returns (string) {\n    return 'test';\n  }\n}\n",
  "sourcePath": "/Users/christian/workspace/ddfs/contracts/PgaDfs.sol",
  "compiler": {
    "name": "solc",
    "version": "0.4.18+commit.9cf6e910.Emscripten.clang"
  },
  "schemaVersion": "2.0.0",
  "updatedAt": "2018-10-06T13:49:41.054Z"
}