{
  "contractName": "PgaDfs",
  "abi": [
    {
      "constant": true,
      "inputs": [],
      "name": "contractAdmin",
      "outputs": [
        {
          "name": "",
          "type": "address"
        }
      ],
      "payable": false,
      "stateMutability": "view",
      "type": "function"
    },
    {
      "inputs": [],
      "payable": true,
      "stateMutability": "payable",
      "type": "constructor"
    },
    {
      "anonymous": false,
      "inputs": [
        {
          "indexed": false,
          "name": "description",
          "type": "string"
        }
      ],
      "name": "newOraclizeQuery",
      "type": "event"
    },
    {
      "constant": false,
      "inputs": [],
      "name": "deposit",
      "outputs": [],
      "payable": true,
      "stateMutability": "payable",
      "type": "function"
    },
    {
      "constant": false,
      "inputs": [],
      "name": "withdraw",
      "outputs": [],
      "payable": false,
      "stateMutability": "nonpayable",
      "type": "function"
    },
    {
      "constant": false,
      "inputs": [
        {
          "name": "lineupHash",
          "type": "bytes32"
        }
      ],
      "name": "setLineupHash",
      "outputs": [],
      "payable": false,
      "stateMutability": "nonpayable",
      "type": "function"
    },
    {
      "constant": true,
      "inputs": [
        {
          "name": "entrantAddress",
          "type": "address"
        }
      ],
      "name": "getLineupHash",
      "outputs": [
        {
          "name": "",
          "type": "bytes32"
        }
      ],
      "payable": false,
      "stateMutability": "view",
      "type": "function"
    },
    {
      "constant": true,
      "inputs": [],
      "name": "getEnteredAddressesForCurrentSlate",
      "outputs": [
        {
          "name": "",
          "type": "address[]"
        }
      ],
      "payable": false,
      "stateMutability": "view",
      "type": "function"
    },
    {
      "constant": true,
      "inputs": [
        {
          "name": "address_",
          "type": "address"
        }
      ],
      "name": "getCurrentSlateLineupForAddress",
      "outputs": [
        {
          "name": "",
          "type": "bytes32"
        },
        {
          "name": "",
          "type": "uint16[8]"
        }
      ],
      "payable": false,
      "stateMutability": "view",
      "type": "function"
    },
    {
      "constant": true,
      "inputs": [],
      "name": "getSlateId",
      "outputs": [
        {
          "name": "",
          "type": "bytes12"
        }
      ],
      "payable": false,
      "stateMutability": "view",
      "type": "function"
    },
    {
      "constant": true,
      "inputs": [
        {
          "name": "pgaId",
          "type": "uint16"
        }
      ],
      "name": "getSalary",
      "outputs": [
        {
          "name": "",
          "type": "int8"
        }
      ],
      "payable": false,
      "stateMutability": "view",
      "type": "function"
    },
    {
      "constant": false,
      "inputs": [
        {
          "name": "golferIdsColonDelimited",
          "type": "string"
        },
        {
          "name": "revealKey",
          "type": "string"
        }
      ],
      "name": "revealLineup",
      "outputs": [
        {
          "name": "",
          "type": "int16"
        }
      ],
      "payable": false,
      "stateMutability": "nonpayable",
      "type": "function"
    },
    {
      "constant": true,
      "inputs": [
        {
          "name": "eth",
          "type": "uint256"
        }
      ],
      "name": "calculateRake",
      "outputs": [
        {
          "name": "",
          "type": "uint256"
        }
      ],
      "payable": false,
      "stateMutability": "view",
      "type": "function"
    },
    {
      "constant": false,
      "inputs": [
        {
          "name": "contestId",
          "type": "bytes32"
        }
      ],
      "name": "createContest",
      "outputs": [],
      "payable": true,
      "stateMutability": "payable",
      "type": "function"
    },
    {
      "constant": false,
      "inputs": [
        {
          "name": "contestId",
          "type": "bytes32"
        }
      ],
      "name": "enterContest",
      "outputs": [],
      "payable": true,
      "stateMutability": "payable",
      "type": "function"
    },
    {
      "constant": false,
      "inputs": [
        {
          "name": "contestId",
          "type": "bytes32"
        },
        {
          "name": "msgSender",
          "type": "address"
        },
        {
          "name": "ethEntered",
          "type": "uint256"
        }
      ],
      "name": "payEntryFeeToContest",
      "outputs": [],
      "payable": true,
      "stateMutability": "payable",
      "type": "function"
    },
    {
      "constant": false,
      "inputs": [
        {
          "name": "compressedSalaries",
          "type": "string"
        }
      ],
      "name": "setSalaries",
      "outputs": [],
      "payable": false,
      "stateMutability": "nonpayable",
      "type": "function"
    },
    {
      "constant": false,
      "inputs": [
        {
          "name": "compressedScores",
          "type": "string"
        }
      ],
      "name": "setScores",
      "outputs": [],
      "payable": false,
      "stateMutability": "nonpayable",
      "type": "function"
    },
    {
      "constant": false,
      "inputs": [
        {
          "name": "contestId",
          "type": "bytes32"
        }
      ],
      "name": "setSingleContestPayouts",
      "outputs": [],
      "payable": false,
      "stateMutability": "nonpayable",
      "type": "function"
    },
    {
      "constant": false,
      "inputs": [
        {
          "name": "contestId",
          "type": "bytes32"
        }
      ],
      "name": "withdrawBalanceFromContest",
      "outputs": [],
      "payable": false,
      "stateMutability": "nonpayable",
      "type": "function"
    },
    {
      "constant": false,
      "inputs": [
        {
          "name": "contestId",
          "type": "bytes32"
        }
      ],
      "name": "payOutContest",
      "outputs": [],
      "payable": false,
      "stateMutability": "nonpayable",
      "type": "function"
    },
    {
      "constant": false,
      "inputs": [],
      "name": "getSalariesOnChain",
      "outputs": [],
      "payable": true,
      "stateMutability": "payable",
      "type": "function"
    },
    {
      "constant": false,
      "inputs": [],
      "name": "getScoresOnChain",
      "outputs": [],
      "payable": true,
      "stateMutability": "payable",
      "type": "function"
    },
    {
      "constant": false,
      "inputs": [
        {
          "name": "compressedScoresUrl_",
          "type": "string"
        }
      ],
      "name": "setScoresUrlAndGetResultsOnChain",
      "outputs": [],
      "payable": false,
      "stateMutability": "nonpayable",
      "type": "function"
    },
    {
      "constant": false,
      "inputs": [
        {
          "name": "compressedSalariesUrl_",
          "type": "string"
        }
      ],
      "name": "setSalariesUrlAndGetSalariesOnChain",
      "outputs": [],
      "payable": false,
      "stateMutability": "nonpayable",
      "type": "function"
    },
    {
      "constant": false,
      "inputs": [
        {
          "name": "_newSlateId",
          "type": "bytes12"
        },
        {
          "name": "_compressedSalariesUrl",
          "type": "string"
        },
        {
          "name": "_compressedScoresUrl",
          "type": "string"
        },
        {
          "name": "lockTimestamp",
          "type": "uint256"
        }
      ],
      "name": "setNewSlateInfo",
      "outputs": [],
      "payable": false,
      "stateMutability": "nonpayable",
      "type": "function"
    },
    {
      "constant": false,
      "inputs": [
        {
          "name": "queryUrl",
          "type": "string"
        },
        {
          "name": "callbackAction",
          "type": "string"
        }
      ],
      "name": "innerOraclizeQuery",
      "outputs": [],
      "payable": true,
      "stateMutability": "payable",
      "type": "function"
    },
    {
      "constant": false,
      "inputs": [
        {
          "name": "myid",
          "type": "bytes32"
        },
        {
          "name": "result",
          "type": "string"
        },
        {
          "name": "proof",
          "type": "bytes"
        }
      ],
      "name": "__callback",
      "outputs": [],
      "payable": false,
      "stateMutability": "nonpayable",
      "type": "function"
    },
    {
      "constant": false,
      "inputs": [
        {
          "name": "myid",
          "type": "bytes32"
        },
        {
          "name": "result",
          "type": "string"
        }
      ],
      "name": "__callback",
      "outputs": [],
      "payable": false,
      "stateMutability": "nonpayable",
      "type": "function"
    },
    {
      "constant": false,
      "inputs": [
        {
          "name": "contestId",
          "type": "bytes32"
        }
      ],
      "name": "deleteContest",
      "outputs": [],
      "payable": false,
      "stateMutability": "nonpayable",
      "type": "function"
    },
    {
      "constant": true,
      "inputs": [],
      "name": "getLiveContestIds",
      "outputs": [
        {
          "name": "",
          "type": "bytes32[]"
        }
      ],
      "payable": false,
      "stateMutability": "view",
      "type": "function"
    },
    {
      "constant": true,
      "inputs": [
        {
          "name": "contestId",
          "type": "bytes32"
        }
      ],
      "name": "getContestById",
      "outputs": [
        {
          "name": "",
          "type": "bytes32"
        },
        {
          "name": "",
          "type": "uint256"
        },
        {
          "name": "",
          "type": "uint256"
        },
        {
          "name": "",
          "type": "address"
        }
      ],
      "payable": false,
      "stateMutability": "view",
      "type": "function"
    },
    {
      "constant": true,
      "inputs": [],
      "name": "testFunction",
      "outputs": [
        {
          "name": "",
          "type": "string"
        }
      ],
      "payable": false,
      "stateMutability": "view",
      "type": "function"
    }
  ],
  "bytecode": "0x60606040526020604051908101604052806000815250600b90805190602001906200002c92919062000113565b506020604051908101604052806000815250600c90805190602001906200005592919062000113565b5060646013556014805560075434101515156200007157600080fd5b33600560006101000a81548173ffffffffffffffffffffffffffffffffffffffff021916908373ffffffffffffffffffffffffffffffffffffffff160217905550346006819055507315ce83f7b43082c21deb5bedd004e2f683b453926000806101000a81548173ffffffffffffffffffffffffffffffffffffffff021916908373ffffffffffffffffffffffffffffffffffffffff160217905550620001c2565b828054600181600116156101000203166002900490600052602060002090601f016020900481019282601f106200015657805160ff191683800117855562000187565b8280016001018555821562000187579182015b828111156200018657825182559160200191906001019062000169565b5b5090506200019691906200019a565b5090565b620001bf91905b80821115620001bb576000816000905550600101620001a1565b5090565b90565b615e5c80620001d26000396000f30060606040526004361061018b576000357c0100000000000000000000000000000000000000000000000000000000900463ffffffff16806308064980146101905780630b4103ee146101d15780630fc33560146101f8578063137492ff1461020257806318d019dc1461025f5780631c5c5fa3146102e357806326daf1641461039d57806327dc297e146104325780632b58719d1461049c57806338bbfa50146104f95780633ccfd60b146105a657806344375f66146105bb578063471924db146106845780634c55dcde146106ee5780634c5e9d18146107155780634d346a49146107725780636aff681c146107c9578063779552451461080d5780637ba3612814610862578063807d9e16146108cc578063897e4edb146108e8578063abfb80bc14610904578063c1c6070e1461092b578063c5012ffc14610952578063d0e30db0146109af578063d781b7cf146109b9578063e16b4a9b146109f0578063eb1a572414610a7e578063f03008ba14610ad3578063f5a45c6014610afa578063fb9a7aaf14610b7e575b600080fd5b341561019b57600080fd5b6101b5600480803561ffff16906020019091905050610b88565b604051808260000b60000b815260200191505060405180910390f35b34156101dc57600080fd5b6101f6600480803560001916906020019091905050610c1f565b005b6102006118dc565b005b341561020d57600080fd5b61025d600480803590602001908201803590602001908080601f016020809104026020016040519081016040528093929190818152602001838380828437820191505050505050919050506119b7565b005b341561026a57600080fd5b610296600480803573ffffffffffffffffffffffffffffffffffffffff16906020019091905050611a27565b60405180836000191660001916815260200182600860200280838360005b838110156102cf5780820151818401526020810190506102b4565b505050509050019250505060405180910390f35b34156102ee57600080fd5b610381600480803590602001908201803590602001908080601f0160208091040260200160405190810160405280939291908181526020018383808284378201915050505050509190803590602001908201803590602001908080601f01602080910402602001604051908101604052809392919081815260200183838082843782019150505050505091905050611b99565b604051808260010b60010b815260200191505060405180910390f35b610430600480803590602001908201803590602001908080601f0160208091040260200160405190810160405280939291908181526020018383808284378201915050505050509190803590602001908201803590602001908080601f01602080910402602001604051908101604052809392919081815260200183838082843782019150505050505091905050612035565b005b341561043d57600080fd5b61049a60048080356000191690602001909190803590602001908201803590602001908080601f01602080910402602001604051908101604052809392919081815260200183838082843782019150505050505091905050612323565b005b34156104a757600080fd5b6104f7600480803590602001908201803590602001908080601f0160208091040260200160405190810160405280939291908181526020018383808284378201915050505050509190505061248e565b005b341561050457600080fd5b6105a460048080356000191690602001909190803590602001908201803590602001908080601f0160208091040260200160405190810160405280939291908181526020018383808284378201915050505050509190803590602001908201803590602001908080601f016020809104026020016040519081016040528093929190818152602001838380828437820191505050505050919050506127f2565b005b34156105b157600080fd5b6105b96127f7565b005b34156105c657600080fd5b610682600480803573ffffffffffffffffffffffffffffffffffffffff191690602001909190803590602001908201803590602001908080601f0160208091040260200160405190810160405280939291908181526020018383808284378201915050505050509190803590602001908201803590602001908080601f016020809104026020016040519081016040528093929190818152602001838380828437820191505050505050919080359060200190919050506128d6565b005b341561068f57600080fd5b6106976129ee565b6040518080602001828103825283818151815260200191508051906020019060200280838360005b838110156106da5780820151818401526020810190506106bf565b505050509050019250505060405180910390f35b34156106f957600080fd5b610713600480803560001916906020019091905050612aab565b005b341561072057600080fd5b610770600480803590602001908201803590602001908080601f01602080910402602001604051908101604052809392919081815260200183838082843782019150505050505091905050612bc7565b005b341561077d57600080fd5b61078561301a565b604051808273ffffffffffffffffffffffffffffffffffffffff191673ffffffffffffffffffffffffffffffffffffffff1916815260200191505060405180910390f35b61080b60048080356000191690602001909190803573ffffffffffffffffffffffffffffffffffffffff16906020019091908035906020019091905050613045565b005b341561081857600080fd5b6108206131c1565b604051808273ffffffffffffffffffffffffffffffffffffffff1673ffffffffffffffffffffffffffffffffffffffff16815260200191505060405180910390f35b341561086d57600080fd5b6108756131e7565b6040518080602001828103825283818151815260200191508051906020019060200280838360005b838110156108b857808201518184015260208101905061089d565b505050509050019250505060405180910390f35b6108e66004808035600019169060200190919050506132dd565b005b61090260048080356000191690602001909190505061344d565b005b341561090f57600080fd5b61092960048080356000191690602001909190505061365e565b005b341561093657600080fd5b6109506004808035600019169060200190919050506139f3565b005b341561095d57600080fd5b6109ad600480803590602001908201803590602001908080601f01602080910402602001604051908101604052809392919081815260200183838082843782019150505050505091905050613c17565b005b6109b7613c87565b005b34156109c457600080fd5b6109da6004808035906020019091905050613c99565b6040518082815260200191505060405180910390f35b34156109fb57600080fd5b610a03613cb6565b6040518080602001828103825283818151815260200191508051906020019080838360005b83811015610a43578082015181840152602081019050610a28565b50505050905090810190601f168015610a705780820380516001836020036101000a031916815260200191505b509250505060405180910390f35b3415610a8957600080fd5b610ab5600480803573ffffffffffffffffffffffffffffffffffffffff16906020019091905050613cf9565b60405180826000191660001916815260200191505060405180910390f35b3415610ade57600080fd5b610af8600480803560001916906020019091905050613da7565b005b3415610b0557600080fd5b610b1f600480803560001916906020019091905050613edd565b6040518085600019166000191681526020018481526020018381526020018273ffffffffffffffffffffffffffffffffffffffff1673ffffffffffffffffffffffffffffffffffffffff16815260200194505050505060405180910390f35b610b86613fa7565b005b6000600e6000600960009054906101000a9004740100000000000000000000000000000000000000000273ffffffffffffffffffffffffffffffffffffffff191673ffffffffffffffffffffffffffffffffffffffff1916815260200190815260200160002060008361ffff1661ffff16815260200190815260200160002060000160009054906101000a900460000b9050919050565b6000806000806000610c2f615ba0565b60008060008060008060156000600960009054906101000a9004740100000000000000000000000000000000000000000273ffffffffffffffffffffffffffffffffffffffff191673ffffffffffffffffffffffffffffffffffffffff1916815260200190815260200160002060009054906101000a900460ff161515610cb557600080fd5b601260008e600019166000191681526020019081526020016000209b508b60040160009054906101000a900460ff161515610cef57600080fd5b8b6005016000600960009054906101000a9004740100000000000000000000000000000000000000000273ffffffffffffffffffffffffffffffffffffffff191673ffffffffffffffffffffffffffffffffffffffff1916815260200190815260200160002060009054906101000a900460ff16151515610d6f57600080fd5b8b6006016000600960009054906101000a9004740100000000000000000000000000000000000000000273ffffffffffffffffffffffffffffffffffffffff191673ffffffffffffffffffffffffffffffffffffffff19168152602001908152602001600020805490509a5060009950600098505b8a61ffff168960ff1610156111fc578b6006016000600960009054906101000a9004740100000000000000000000000000000000000000000273ffffffffffffffffffffffffffffffffffffffff191673ffffffffffffffffffffffffffffffffffffffff191681526020019081526020016000208960ff16815481101515610e6957fe5b906000526020600020900160009054906101000a900473ffffffffffffffffffffffffffffffffffffffff16975060106000600960009054906101000a9004740100000000000000000000000000000000000000000273ffffffffffffffffffffffffffffffffffffffff191673ffffffffffffffffffffffffffffffffffffffff1916815260200190815260200160002060008973ffffffffffffffffffffffffffffffffffffffff1673ffffffffffffffffffffffffffffffffffffffff168152602001908152602001600020600201600880602002604051908101604052809291908260088015610f9a576020028201916000905b82829054906101000a900461ffff1661ffff1681526020019060020190602082600101049283019260010382029150808411610f615790505b50505050509650600095505b60088660ff16101561113757600e6000600960009054906101000a9004740100000000000000000000000000000000000000000273ffffffffffffffffffffffffffffffffffffffff191673ffffffffffffffffffffffffffffffffffffffff191681526020019081526020016000206000888860ff1660088110151561102957fe5b602002015161ffff1661ffff16815260200190815260200160002060000160019054906101000a900460000b60000b8c6008016000600960009054906101000a9004740100000000000000000000000000000000000000000273ffffffffffffffffffffffffffffffffffffffff191673ffffffffffffffffffffffffffffffffffffffff1916815260200190815260200160002060008a73ffffffffffffffffffffffffffffffffffffffff1673ffffffffffffffffffffffffffffffffffffffff16815260200190815260200160002060008282829054906101000a900460010b0192506101000a81548161ffff021916908360010b61ffff1602179055508580600101965050610fa6565b8b6008016000600960009054906101000a9004740100000000000000000000000000000000000000000273ffffffffffffffffffffffffffffffffffffffff191673ffffffffffffffffffffffffffffffffffffffff1916815260200190815260200160002060008973ffffffffffffffffffffffffffffffffffffffff1673ffffffffffffffffffffffffffffffffffffffff16815260200190815260200160002060009054906101000a900460010b60010b8a0199508880600101995050610de4565b8a61ffff168a81151561120b57fe5b05945060009250600098505b8a61ffff168960ff161015611623578b6006016000600960009054906101000a9004740100000000000000000000000000000000000000000273ffffffffffffffffffffffffffffffffffffffff191673ffffffffffffffffffffffffffffffffffffffff191681526020019081526020016000208960ff1681548110151561129c57fe5b906000526020600020900160009054906101000a900473ffffffffffffffffffffffffffffffffffffffff169750848c6008016000600960009054906101000a9004740100000000000000000000000000000000000000000273ffffffffffffffffffffffffffffffffffffffff191673ffffffffffffffffffffffffffffffffffffffff1916815260200190815260200160002060008a73ffffffffffffffffffffffffffffffffffffffff1673ffffffffffffffffffffffffffffffffffffffff16815260200190815260200160002060009054906101000a900460010b60010b12158015611441575060008c6008016000600960009054906101000a9004740100000000000000000000000000000000000000000273ffffffffffffffffffffffffffffffffffffffff191673ffffffffffffffffffffffffffffffffffffffff1916815260200190815260200160002060008a73ffffffffffffffffffffffffffffffffffffffff1673ffffffffffffffffffffffffffffffffffffffff16815260200190815260200160002060009054906101000a900460010b60010b12155b15611616578b6008016000600960009054906101000a9004740100000000000000000000000000000000000000000273ffffffffffffffffffffffffffffffffffffffff191673ffffffffffffffffffffffffffffffffffffffff1916815260200190815260200160002060008973ffffffffffffffffffffffffffffffffffffffff1673ffffffffffffffffffffffffffffffffffffffff16815260200190815260200160002060009054906101000a900460010b8c6008016000600960009054906101000a9004740100000000000000000000000000000000000000000273ffffffffffffffffffffffffffffffffffffffff191673ffffffffffffffffffffffffffffffffffffffff1916815260200190815260200160002060008a73ffffffffffffffffffffffffffffffffffffffff1673ffffffffffffffffffffffffffffffffffffffff16815260200190815260200160002060009054906101000a900460010b0260010b91508380548060010182816115c19190615bcd565b916000526020600020900160008a909190916101000a81548173ffffffffffffffffffffffffffffffffffffffff021916908373ffffffffffffffffffffffffffffffffffffffff1602179055505081830192505b8880600101995050611217565b600098505b83805490508960ff16101561184e57838960ff1681548110151561164857fe5b906000526020600020900160009054906101000a900473ffffffffffffffffffffffffffffffffffffffff1697508b6008016000600960009054906101000a9004740100000000000000000000000000000000000000000273ffffffffffffffffffffffffffffffffffffffff191673ffffffffffffffffffffffffffffffffffffffff1916815260200190815260200160002060008973ffffffffffffffffffffffffffffffffffffffff1673ffffffffffffffffffffffffffffffffffffffff16815260200190815260200160002060009054906101000a900460010b8c6008016000600960009054906101000a9004740100000000000000000000000000000000000000000273ffffffffffffffffffffffffffffffffffffffff191673ffffffffffffffffffffffffffffffffffffffff1916815260200190815260200160002060008a73ffffffffffffffffffffffffffffffffffffffff1673ffffffffffffffffffffffffffffffffffffffff16815260200190815260200160002060009054906101000a900460010b0260010b915082828d60020154028115156117ef57fe5b049050808c60090160008a73ffffffffffffffffffffffffffffffffffffffff1673ffffffffffffffffffffffffffffffffffffffff168152602001908152602001600020600082825401925050819055508880600101995050611628565b60018c6005016000600960009054906101000a9004740100000000000000000000000000000000000000000273ffffffffffffffffffffffffffffffffffffffff191673ffffffffffffffffffffffffffffffffffffffff1916815260200190815260200160002060006101000a81548160ff02191690831515021790555050505050505050505050505050565b6119b5600c8054600181600116156101000203166002900480601f0160208091040260200160405190810160405280929190818152602001828054600181600116156101000203166002900480156119755780601f1061194a57610100808354040283529160200191611975565b820191906000526020600020905b81548152906001019060200180831161195857829003601f168201915b50505050506040805190810160405280600681526020017f53636f7265730000000000000000000000000000000000000000000000000000815250612035565b565b600560009054906101000a900473ffffffffffffffffffffffffffffffffffffffff1673ffffffffffffffffffffffffffffffffffffffff163373ffffffffffffffffffffffffffffffffffffffff16141515611a1357600080fd5b611a1c81614082565b611a24613fa7565b50565b6000611a31615ba0565b611a39615bf9565b60106000600960009054906101000a9004740100000000000000000000000000000000000000000273ffffffffffffffffffffffffffffffffffffffff191673ffffffffffffffffffffffffffffffffffffffff1916815260200190815260200160002060008573ffffffffffffffffffffffffffffffffffffffff1673ffffffffffffffffffffffffffffffffffffffff168152602001908152602001600020606060405190810160405290816000820160009054906101000a900460ff1615151515815260200160018201546000191660001916815260200160028201600880602002604051908101604052809291908260088015611b77576020028201916000905b82829054906101000a900461ffff1661ffff1681526020019060020190602082600101049283019260010382029150808411611b3e5790505b5050505050815250509050806020015181604001518090509250925050915091565b6000611ba3615c27565b611bab615c3b565b611bb3615c3b565b6000806000806000611bfb8b6040805190810160405280600181526020017f7c000000000000000000000000000000000000000000000000000000000000008152508c61409c565b6040518082805190602001908083835b602083101515611c305780518252602082019150602081019050602083039250611c0b565b6001836020036101000a03801982511681845116808217855250505050505090500191505060405180910390206000191660106000600960009054906101000a9004740100000000000000000000000000000000000000000273ffffffffffffffffffffffffffffffffffffffff191673ffffffffffffffffffffffffffffffffffffffff1916815260200190815260200160002060003373ffffffffffffffffffffffffffffffffffffffff1673ffffffffffffffffffffffffffffffffffffffff1681526020019081526020016000206001015460001916141515611d1657600080fd5b6008604051805910611d255750595b90808252806020026020018201604052509750611d418b6140da565b9650611d816040805190810160405280600181526020017f3a000000000000000000000000000000000000000000000000000000000000008152506140da565b95506001611d98878961410890919063ffffffff16565b01945060088511151515611dab57600080fd5b60009350600092505b848360ff161015611f0157611de2611ddd611dd8888a61417f90919063ffffffff16565b614199565b6141f7565b9150600090505b8260ff168160ff161015611e3557878160ff16815181101515611e0857fe5b9060200190602002015161ffff168261ffff1614151515611e2857600080fd5b8080600101915050611de9565b81888460ff16815181101515611e4757fe5b9060200190602002019061ffff16908161ffff1681525050600e6000600960009054906101000a9004740100000000000000000000000000000000000000000273ffffffffffffffffffffffffffffffffffffffff191673ffffffffffffffffffffffffffffffffffffffff1916815260200190815260200160002060008361ffff1661ffff16815260200190815260200160002060000160009054906101000a900460000b60000b840193508280600101935050611db4565b6013548460010b13151515611f1557600080fd5b600092505b87518360ff16101561202757878360ff16815181101515611f3757fe5b9060200190602002015160106000600960009054906101000a9004740100000000000000000000000000000000000000000273ffffffffffffffffffffffffffffffffffffffff191673ffffffffffffffffffffffffffffffffffffffff1916815260200190815260200160002060003373ffffffffffffffffffffffffffffffffffffffff1673ffffffffffffffffffffffffffffffffffffffff1681526020019081526020016000206002018460ff16600881101515611ff557fe5b601091828204019190066002026101000a81548161ffff021916908361ffff1602179055508280600101935050611f1a565b505050505050505092915050565b6000806000600361207a6040805190810160405280600381526020017f55524c000000000000000000000000000000000000000000000000000000000081525061420b565b02660886c98b760000019250655af3107a40009150818301341015612192577f46cb989ef9cef13e930e3b7f286225a086e716a90d63e0b7da85d310a9db0c9a6040518080602001828103825260468152602001807f4f7261636c697a65207175657279206661696c65642e2053656e64206d6f726581526020017f2045544820282e3030323545544820696e20676173202b20242e30332070657281526020017f207175657279000000000000000000000000000000000000000000000000000081525060600191505060405180910390a13373ffffffffffffffffffffffffffffffffffffffff166108fc349081150290604051600060405180830381858888f19350505050151561218d57600080fd5b61231c565b8234036006600082825401925050819055507f46cb989ef9cef13e930e3b7f286225a086e716a90d63e0b7da85d310a9db0c9a6040518080602001828103825260378152602001807f4f7261636c697a65207175657269657320776572652073656e742c207374616e81526020017f64696e6720627920666f722074686520616e737765722e00000000000000000081525060400191505060405180910390a16122e96040805190810160405280600381526020017f55524c00000000000000000000000000000000000000000000000000000000008152506122e06040805190810160405280600581526020017f6a736f6e28000000000000000000000000000000000000000000000000000000815250886040805190810160405280601281526020017f292e636f6d7072657373656453636f726573000000000000000000000000000081525061409c565b620927c0614593565b905083600860008360001916600019168152602001908152602001600020908051906020019061231a929190615c55565b505b5050505050565b600061232d614ae3565b73ffffffffffffffffffffffffffffffffffffffff163373ffffffffffffffffffffffffffffffffffffffff1614151561236657600080fd5b60086000846000191660001916815260200190815260200160002060405180828054600181600116156101000203166002900480156123dc5780601f106123ba5761010080835404028352918201916123dc565b820191906000526020600020905b8154815290600101906020018083116123c8575b50509150506040518091039020905060405180807f53616c617269657300000000000000000000000000000000000000000000000081525060080190506040518091039020600019168160001916141561243a576124398261248e565b5b60405180807f53636f72657300000000000000000000000000000000000000000000000000008152506006019050604051809103902060001916816000191614156124895761248882612bc7565b5b505050565b612496615c3b565b61249e615c3b565b6124a6615c3b565b6000806124b1615c3b565b6000806000600560009054906101000a900473ffffffffffffffffffffffffffffffffffffffff1673ffffffffffffffffffffffffffffffffffffffff163373ffffffffffffffffffffffffffffffffffffffff1614151561251257600080fd5b600060156000600960009054906101000a9004740100000000000000000000000000000000000000000273ffffffffffffffffffffffffffffffffffffffff191673ffffffffffffffffffffffffffffffffffffffff1916815260200190815260200160002060006101000a81548160ff0219169083151502179055506125988a6140da565b98506125d86040805190810160405280600181526020017f20000000000000000000000000000000000000000000000000000000000000008152506140da565b97506126186040805190810160405280600181526020017f3a000000000000000000000000000000000000000000000000000000000000008152506140da565b9650600161262f898b61410890919063ffffffff16565b019550600094505b858560ff1610156127e657612655888a61417f90919063ffffffff16565b935061267a612675612670898761417f90919063ffffffff16565b614199565b6141f7565b925061268d61268885614199565b6141f7565b9150600d6000600960009054906101000a9004740100000000000000000000000000000000000000000273ffffffffffffffffffffffffffffffffffffffff191673ffffffffffffffffffffffffffffffffffffffff1916815260200190815260200160002080548060010182816127059190615cd5565b916000526020600020906010918282040191900660020285909190916101000a81548161ffff021916908361ffff16021790555050600e6000600960009054906101000a9004740100000000000000000000000000000000000000000273ffffffffffffffffffffffffffffffffffffffff191673ffffffffffffffffffffffffffffffffffffffff1916815260200190815260200160002060008461ffff1661ffff1681526020019081526020016000209050818160000160006101000a81548160ff021916908360000b60ff1602179055508480600101955050612637565b50505050505050505050565b505050565b600560009054906101000a900473ffffffffffffffffffffffffffffffffffffffff1673ffffffffffffffffffffffffffffffffffffffff163373ffffffffffffffffffffffffffffffffffffffff1614151561285357600080fd5b60006007546006540311156128d457600560009054906101000a900473ffffffffffffffffffffffffffffffffffffffff1673ffffffffffffffffffffffffffffffffffffffff166108fc600754600654039081150290604051600060405180830381858888f1935050505015156128ca57600080fd5b6007546006819055505b565b600560009054906101000a900473ffffffffffffffffffffffffffffffffffffffff1673ffffffffffffffffffffffffffffffffffffffff163373ffffffffffffffffffffffffffffffffffffffff1614151561293257600080fd5b83600960006101000a8154816bffffffffffffffffffffffff0219169083740100000000000000000000000000000000000000009004021790555080600a6000600960009054906101000a9004740100000000000000000000000000000000000000000273ffffffffffffffffffffffffffffffffffffffff191673ffffffffffffffffffffffffffffffffffffffff19168152602001908152602001600020819055506129df82614df9565b6129e883614082565b50505050565b6129f6615d0f565b6129fe615d0f565b6000806000809250600091505b601180549050821015612aa157601182815481101515612a2757fe5b906000526020600020900154905060126000826000191660001916815260200190815260200160002060040160009054906101000a900460ff1615612a9457808484815181101515612a7557fe5b9060200190602002019060001916908160001916815250506001830192505b8180600101925050612a0b565b8394505050505090565b60126000826000191660001916815260200190815260200160002060040160009054906101000a900460ff16151515612ae357600080fd5b60126000826000191660001916815260200190815260200160002060000160009054906101000a900473ffffffffffffffffffffffffffffffffffffffff1673ffffffffffffffffffffffffffffffffffffffff163373ffffffffffffffffffffffffffffffffffffffff16141515612b5b57600080fd5b601260008260001916600019168152602001908152602001600020600080820160006101000a81549073ffffffffffffffffffffffffffffffffffffffff0219169055600182016000905560028201600090556004820160006101000a81549060ff0219169055505050565b612bcf615c3b565b612bd7615c3b565b612bdf615d23565b600080600080600060156000600960009054906101000a9004740100000000000000000000000000000000000000000273ffffffffffffffffffffffffffffffffffffffff191673ffffffffffffffffffffffffffffffffffffffff1916815260200190815260200160002060009054906101000a900460ff16151515612c6557600080fd5b612c6e896140da565b9750612cae6040805190810160405280600181526020017f20000000000000000000000000000000000000000000000000000000000000008152506140da565b96506001612cc5888a61410890919063ffffffff16565b01604051805910612cd35750595b908082528060200260200182016040528015612d0957816020015b612cf6615d37565b815260200190600190039081612cee5790505b509550600094505b85518561ffff161015612f9257612d31878961417f90919063ffffffff16565b868661ffff16815181101515612d4357fe5b90602001906020020181905250612dcb612dc6612dc1612d976040805190810160405280600181526020017f3a000000000000000000000000000000000000000000000000000000000000008152506140da565b898961ffff16815181101515612da957fe5b9060200190602002015161417f90919063ffffffff16565b614199565b6141f7565b93506001612e3a612e106040805190810160405280600181526020017f2d000000000000000000000000000000000000000000000000000000000000008152506140da565b888861ffff16815181101515612e2257fe5b9060200190602002015161410890919063ffffffff16565b019250600091505b82821015612f8557612ec5612ec0612ebb612e916040805190810160405280600181526020017f2d000000000000000000000000000000000000000000000000000000000000008152506140da565b898961ffff16815181101515612ea357fe5b9060200190602002015161417f90919063ffffffff16565b614199565b6141f7565b905080605003600e6000600960009054906101000a9004740100000000000000000000000000000000000000000273ffffffffffffffffffffffffffffffffffffffff191673ffffffffffffffffffffffffffffffffffffffff1916815260200190815260200160002060008661ffff1661ffff16815260200190815260200160002060000160018282829054906101000a900460000b0192506101000a81548160ff021916908360000b60ff1602179055508180600101925050612e42565b8480600101955050612d11565b600160156000600960009054906101000a9004740100000000000000000000000000000000000000000273ffffffffffffffffffffffffffffffffffffffff191673ffffffffffffffffffffffffffffffffffffffff1916815260200190815260200160002060006101000a81548160ff021916908315150217905550505050505050505050565b6000600960009054906101000a90047401000000000000000000000000000000000000000002905090565b6000806012600086600019166000191681526020019081526020016000209150816007016000600960009054906101000a9004740100000000000000000000000000000000000000000273ffffffffffffffffffffffffffffffffffffffff191673ffffffffffffffffffffffffffffffffffffffff1916815260200190815260200160002060008573ffffffffffffffffffffffffffffffffffffffff1673ffffffffffffffffffffffffffffffffffffffff16815260200190815260200160002060009054906101000a900460ff1615156131ba5761312583613c99565b905080826001015401831015151561313c57600080fd5b81600101548260020160008282540192505081905550806006600082825401925050819055508082600101548403038260090160008673ffffffffffffffffffffffffffffffffffffffff1673ffffffffffffffffffffffffffffffffffffffff168152602001908152602001600020600082825401925050819055505b5050505050565b600560009054906101000a900473ffffffffffffffffffffffffffffffffffffffff1681565b6131ef615d51565b600f6000600960009054906101000a9004740100000000000000000000000000000000000000000273ffffffffffffffffffffffffffffffffffffffff191673ffffffffffffffffffffffffffffffffffffffff191681526020019081526020016000208054806020026020016040519081016040528092919081815260200182805480156132d357602002820191906000526020600020905b8160009054906101000a900473ffffffffffffffffffffffffffffffffffffffff1673ffffffffffffffffffffffffffffffffffffffff1681526020019060010190808311613289575b5050505050905090565b6132e5615bf9565b60106000600960009054906101000a9004740100000000000000000000000000000000000000000273ffffffffffffffffffffffffffffffffffffffff191673ffffffffffffffffffffffffffffffffffffffff1916815260200190815260200160002060003373ffffffffffffffffffffffffffffffffffffffff1673ffffffffffffffffffffffffffffffffffffffff168152602001908152602001600020606060405190810160405290816000820160009054906101000a900460ff1615151515815260200160018201546000191660001916815260200160028201600880602002604051908101604052809291908260088015613423576020028201916000905b82829054906101000a900461ffff1661ffff16815260200190600201906020826001010492830192600103820291508084116133ea5790505b50505050508152505090508060000151151561343e57600080fd5b613449823334613045565b5050565b60126000826000191660001916815260200190815260200160002060040160009054906101000a900460ff1615151561348557600080fd5b60106000600960009054906101000a9004740100000000000000000000000000000000000000000273ffffffffffffffffffffffffffffffffffffffff191673ffffffffffffffffffffffffffffffffffffffff1916815260200190815260200160002060003373ffffffffffffffffffffffffffffffffffffffff1673ffffffffffffffffffffffffffffffffffffffff16815260200190815260200160002060000160009054906101000a900460ff16151561354257600080fd5b601180548060010182816135569190615d65565b9160005260206000209001600083909190915090600019169055506080604051908101604052803373ffffffffffffffffffffffffffffffffffffffff1681526020016135a234613c99565b34038152602001600081526020016001151581525060126000836000191660001916815260200190815260200160002060008201518160000160006101000a81548173ffffffffffffffffffffffffffffffffffffffff021916908373ffffffffffffffffffffffffffffffffffffffff160217905550602082015181600101556040820151816002015560608201518160040160006101000a81548160ff02191690831515021790555090505061365b813334613045565b50565b600080600060156000600960009054906101000a9004740100000000000000000000000000000000000000000273ffffffffffffffffffffffffffffffffffffffff191673ffffffffffffffffffffffffffffffffffffffff1916815260200190815260200160002060009054906101000a900460ff1615156136e057600080fd5b6012600085600019166000191681526020019081526020016000209250826005016000600960009054906101000a9004740100000000000000000000000000000000000000000273ffffffffffffffffffffffffffffffffffffffff191673ffffffffffffffffffffffffffffffffffffffff1916815260200190815260200160002060009054906101000a900460ff16151561377c57600080fd5b8260040160009054906101000a900460ff16151561379957600080fd5b600091505b826006016000600960009054906101000a9004740100000000000000000000000000000000000000000273ffffffffffffffffffffffffffffffffffffffff191673ffffffffffffffffffffffffffffffffffffffff19168152602001908152602001600020805490508210156139d057826006016000600960009054906101000a9004740100000000000000000000000000000000000000000273ffffffffffffffffffffffffffffffffffffffff191673ffffffffffffffffffffffffffffffffffffffff191681526020019081526020016000208281548110151561388257fe5b906000526020600020900160009054906101000a900473ffffffffffffffffffffffffffffffffffffffff16905060008360090160008373ffffffffffffffffffffffffffffffffffffffff1673ffffffffffffffffffffffffffffffffffffffff1681526020019081526020016000205411156139c3578073ffffffffffffffffffffffffffffffffffffffff166108fc8460090160008473ffffffffffffffffffffffffffffffffffffffff1673ffffffffffffffffffffffffffffffffffffffff168152602001908152602001600020549081150290604051600060405180830381858888f19350505050151561397b57600080fd5b60008360090160003373ffffffffffffffffffffffffffffffffffffffff1673ffffffffffffffffffffffffffffffffffffffff168152602001908152602001600020819055505b818060010192505061379e565b60008360040160006101000a81548160ff02191690831515021790555050505050565b6000600a6000600960009054906101000a9004740100000000000000000000000000000000000000000273ffffffffffffffffffffffffffffffffffffffff191673ffffffffffffffffffffffffffffffffffffffff19168152602001908152602001600020544211151515613a6857600080fd5b60106000600960009054906101000a9004740100000000000000000000000000000000000000000273ffffffffffffffffffffffffffffffffffffffff191673ffffffffffffffffffffffffffffffffffffffff1916815260200190815260200160002060003373ffffffffffffffffffffffffffffffffffffffff1673ffffffffffffffffffffffffffffffffffffffff16815260200190815260200160002090508060000160009054906101000a900460ff161515613be957600f6000600960009054906101000a9004740100000000000000000000000000000000000000000273ffffffffffffffffffffffffffffffffffffffff191673ffffffffffffffffffffffffffffffffffffffff191681526020019081526020016000208054806001018281613b999190615bcd565b9160005260206000209001600033909190916101000a81548173ffffffffffffffffffffffffffffffffffffffff021916908373ffffffffffffffffffffffffffffffffffffffff160217905550505b8181600101816000191690555060018160000160006101000a81548160ff0219169083151502179055505050565b600560009054906101000a900473ffffffffffffffffffffffffffffffffffffffff1673ffffffffffffffffffffffffffffffffffffffff163373ffffffffffffffffffffffffffffffffffffffff16141515613c7357600080fd5b613c7c81614df9565b613c846118dc565b50565b34600660008282540192505081905550565b60006103e86014548302811515613cac57fe5b0482039050919050565b613cbe615d91565b6040805190810160405280600481526020017f7465737400000000000000000000000000000000000000000000000000000000815250905090565b600060106000600960009054906101000a9004740100000000000000000000000000000000000000000273ffffffffffffffffffffffffffffffffffffffff191673ffffffffffffffffffffffffffffffffffffffff1916815260200190815260200160002060008373ffffffffffffffffffffffffffffffffffffffff1673ffffffffffffffffffffffffffffffffffffffff168152602001908152602001600020600101549050919050565b6000601260008360001916600019168152602001908152602001600020905060008160090160003373ffffffffffffffffffffffffffffffffffffffff1673ffffffffffffffffffffffffffffffffffffffff168152602001908152602001600020541115613ed9573373ffffffffffffffffffffffffffffffffffffffff166108fc8260090160003373ffffffffffffffffffffffffffffffffffffffff1673ffffffffffffffffffffffffffffffffffffffff168152602001908152602001600020549081150290604051600060405180830381858888f193505050501515613e9157600080fd5b60008160090160003373ffffffffffffffffffffffffffffffffffffffff1673ffffffffffffffffffffffffffffffffffffffff168152602001908152602001600020819055505b5050565b60008060008060006012600087600019166000191681526020019081526020016000209050858160010154826006016000600960009054906101000a9004740100000000000000000000000000000000000000000273ffffffffffffffffffffffffffffffffffffffff191673ffffffffffffffffffffffffffffffffffffffff19168152602001908152602001600020805490508360000160009054906101000a900473ffffffffffffffffffffffffffffffffffffffff169450945094509450509193509193565b614080600b8054600181600116156101000203166002900480601f0160208091040260200160405190810160405280929190818152602001828054600181600116156101000203166002900480156140405780601f1061401557610100808354040283529160200191614040565b820191906000526020600020905b81548152906001019060200180831161402357829003601f168201915b50505050506040805190810160405280600881526020017f53616c6172696573000000000000000000000000000000000000000000000000815250612035565b565b80600b9080519060200190614098929190615c55565b5050565b6140a4615d91565b6140d184848460206040519081016040528060008152506020604051908101604052806000815250614e13565b90509392505050565b6140e2615c3b565b600060208301905060408051908101604052808451815260200182815250915050919050565b600080826000015161412c856000015186602001518660000151876020015161524b565b0190505b836000015184602001510181111515614178578180600101925050826000015161417085602001518303866000015103838660000151876020015161524b565b019050614130565b5092915050565b614187615c3b565b614192838383615307565b5092915050565b6141a1615d91565b6141a9615d91565b600083600001516040518059106141bd5750595b9080825280601f01601f191660200182016040525091506020820190506141ed81856020015186600001516153a5565b8192505050919050565b60006142048260006153f0565b9050919050565b6000806000809054906101000a900473ffffffffffffffffffffffffffffffffffffffff1673ffffffffffffffffffffffffffffffffffffffff16148061427b575060006142796000809054906101000a900473ffffffffffffffffffffffffffffffffffffffff166156ea565b145b1561428c5761428a60006156f5565b505b6000809054906101000a900473ffffffffffffffffffffffffffffffffffffffff1673ffffffffffffffffffffffffffffffffffffffff166338cc48316000604051602001526040518163ffffffff167c0100000000000000000000000000000000000000000000000000000000028152600401602060405180830381600087803b151561431957600080fd5b6102c65a03f1151561432a57600080fd5b5050506040518051905073ffffffffffffffffffffffffffffffffffffffff16600160009054906101000a900473ffffffffffffffffffffffffffffffffffffffff1673ffffffffffffffffffffffffffffffffffffffff16141515614473576000809054906101000a900473ffffffffffffffffffffffffffffffffffffffff1673ffffffffffffffffffffffffffffffffffffffff166338cc48316000604051602001526040518163ffffffff167c0100000000000000000000000000000000000000000000000000000000028152600401602060405180830381600087803b151561441757600080fd5b6102c65a03f1151561442857600080fd5b50505060405180519050600160006101000a81548173ffffffffffffffffffffffffffffffffffffffff021916908373ffffffffffffffffffffffffffffffffffffffff1602179055505b600160009054906101000a900473ffffffffffffffffffffffffffffffffffffffff1673ffffffffffffffffffffffffffffffffffffffff1663524f3889836000604051602001526040518263ffffffff167c01000000000000000000000000000000000000000000000000000000000281526004018080602001828103825283818151815260200191508051906020019080838360005b8381101561452657808201518184015260208101905061450b565b50505050905090810190601f1680156145535780820380516001836020036101000a031916815260200191505b5092505050602060405180830381600087803b151561457157600080fd5b6102c65a03f1151561458257600080fd5b505050604051805190509050919050565b60008060008060009054906101000a900473ffffffffffffffffffffffffffffffffffffffff1673ffffffffffffffffffffffffffffffffffffffff161480614605575060006146036000809054906101000a900473ffffffffffffffffffffffffffffffffffffffff166156ea565b145b156146165761461460006156f5565b505b6000809054906101000a900473ffffffffffffffffffffffffffffffffffffffff1673ffffffffffffffffffffffffffffffffffffffff166338cc48316000604051602001526040518163ffffffff167c0100000000000000000000000000000000000000000000000000000000028152600401602060405180830381600087803b15156146a357600080fd5b6102c65a03f115156146b457600080fd5b5050506040518051905073ffffffffffffffffffffffffffffffffffffffff16600160009054906101000a900473ffffffffffffffffffffffffffffffffffffffff1673ffffffffffffffffffffffffffffffffffffffff161415156147fd576000809054906101000a900473ffffffffffffffffffffffffffffffffffffffff1673ffffffffffffffffffffffffffffffffffffffff166338cc48316000604051602001526040518163ffffffff167c0100000000000000000000000000000000000000000000000000000000028152600401602060405180830381600087803b15156147a157600080fd5b6102c65a03f115156147b257600080fd5b50505060405180519050600160006101000a81548173ffffffffffffffffffffffffffffffffffffffff021916908373ffffffffffffffffffffffffffffffffffffffff1602179055505b600160009054906101000a900473ffffffffffffffffffffffffffffffffffffffff1673ffffffffffffffffffffffffffffffffffffffff16632ef3accc86856000604051602001526040518363ffffffff167c01000000000000000000000000000000000000000000000000000000000281526004018080602001838152602001828103825284818151815260200191508051906020019080838360005b838110156148b757808201518184015260208101905061489c565b50505050905090810190601f1680156148e45780820380516001836020036101000a031916815260200191505b509350505050602060405180830381600087803b151561490357600080fd5b6102c65a03f1151561491457600080fd5b505050604051805190509050823a02670de0b6b3a7640000018111156149405760006001029150614adb565b600160009054906101000a900473ffffffffffffffffffffffffffffffffffffffff1673ffffffffffffffffffffffffffffffffffffffff1663c51be90f8260008888886000604051602001526040518663ffffffff167c0100000000000000000000000000000000000000000000000000000000028152600401808581526020018060200180602001848152602001838103835286818151815260200191508051906020019080838360005b83811015614a085780820151818401526020810190506149ed565b50505050905090810190601f168015614a355780820380516001836020036101000a031916815260200191505b50838103825285818151815260200191508051906020019080838360005b83811015614a6e578082015181840152602081019050614a53565b50505050905090810190601f168015614a9b5780820380516001836020036101000a031916815260200191505b5096505050505050506020604051808303818588803b1515614abc57600080fd5b6125ee5a03f11515614acd57600080fd5b505050506040518051905091505b509392505050565b6000806000809054906101000a900473ffffffffffffffffffffffffffffffffffffffff1673ffffffffffffffffffffffffffffffffffffffff161480614b5357506000614b516000809054906101000a900473ffffffffffffffffffffffffffffffffffffffff166156ea565b145b15614b6457614b6260006156f5565b505b6000809054906101000a900473ffffffffffffffffffffffffffffffffffffffff1673ffffffffffffffffffffffffffffffffffffffff166338cc48316000604051602001526040518163ffffffff167c0100000000000000000000000000000000000000000000000000000000028152600401602060405180830381600087803b1515614bf157600080fd5b6102c65a03f11515614c0257600080fd5b5050506040518051905073ffffffffffffffffffffffffffffffffffffffff16600160009054906101000a900473ffffffffffffffffffffffffffffffffffffffff1673ffffffffffffffffffffffffffffffffffffffff16141515614d4b576000809054906101000a900473ffffffffffffffffffffffffffffffffffffffff1673ffffffffffffffffffffffffffffffffffffffff166338cc48316000604051602001526040518163ffffffff167c0100000000000000000000000000000000000000000000000000000000028152600401602060405180830381600087803b1515614cef57600080fd5b6102c65a03f11515614d0057600080fd5b50505060405180519050600160006101000a81548173ffffffffffffffffffffffffffffffffffffffff021916908373ffffffffffffffffffffffffffffffffffffffff1602179055505b600160009054906101000a900473ffffffffffffffffffffffffffffffffffffffff1673ffffffffffffffffffffffffffffffffffffffff1663c281d19e6000604051602001526040518163ffffffff167c0100000000000000000000000000000000000000000000000000000000028152600401602060405180830381600087803b1515614dd957600080fd5b6102c65a03f11515614dea57600080fd5b50505060405180519050905090565b80600c9080519060200190614e0f929190615c55565b5050565b614e1b615d91565b614e23615da5565b614e2b615da5565b614e33615da5565b614e3b615da5565b614e43615da5565b614e4b615d91565b614e53615da5565b6000808e98508d97508c96508b95508a94508451865188518a518c5101010101604051805910614e805750595b9080825280601f01601f1916602001820160405250935083925060009150600090505b8851811015614f56578881815181101515614eba57fe5b9060200101517f010000000000000000000000000000000000000000000000000000000000000090047f0100000000000000000000000000000000000000000000000000000000000000028383806001019450815181101515614f1957fe5b9060200101907effffffffffffffffffffffffffffffffffffffffffffffffffffffffffffff1916908160001a9053508080600101915050614ea3565b600090505b875181101561500e578781815181101515614f7257fe5b9060200101517f010000000000000000000000000000000000000000000000000000000000000090047f0100000000000000000000000000000000000000000000000000000000000000028383806001019450815181101515614fd157fe5b9060200101907effffffffffffffffffffffffffffffffffffffffffffffffffffffffffffff1916908160001a9053508080600101915050614f5b565b600090505b86518110156150c657868181518110151561502a57fe5b9060200101517f010000000000000000000000000000000000000000000000000000000000000090047f010000000000000000000000000000000000000000000000000000000000000002838380600101945081518110151561508957fe5b9060200101907effffffffffffffffffffffffffffffffffffffffffffffffffffffffffffff1916908160001a9053508080600101915050615013565b600090505b855181101561517e5785818151811015156150e257fe5b9060200101517f010000000000000000000000000000000000000000000000000000000000000090047f010000000000000000000000000000000000000000000000000000000000000002838380600101945081518110151561514157fe5b9060200101907effffffffffffffffffffffffffffffffffffffffffffffffffffffffffffff1916908160001a90535080806001019150506150cb565b600090505b845181101561523657848181518110151561519a57fe5b9060200101517f010000000000000000000000000000000000000000000000000000000000000090047f01000000000000000000000000000000000000000000000000000000000000000283838060010194508151811015156151f957fe5b9060200101907effffffffffffffffffffffffffffffffffffffffffffffffffffffffffffff1916908160001a9053508080600101915050615183565b82995050505050505050505095945050505050565b600080600080600088871115156152f5576020871115156152ac5760018760200360080260020a031980875116888b038a018a96505b8183885116146152a157600187019650806001880310615281578b8b0196505b5050508394506152fb565b8686209150879350600092505b868903831115156152f45786842090508060001916826000191614156152e1578394506152fb565b60018401935082806001019350506152b9565b5b88880194505b50505050949350505050565b61530f615c3b565b600061532d856000015186602001518660000151876020015161524b565b9050846020015183602001818152505084602001518103836000018181525050846000015185602001510181141561536f57600085600001818152505061539a565b8360000151836000015101856000018181510391508181525050836000015181018560200181815250505b829150509392505050565b60005b6020821015156153cd57825184526020840193506020830192506020820391506153a8565b6001826020036101000a0390508019835116818551168181178652505050505050565b60006153fa615da5565b60008060008693506000925060009150600090505b83518110156156cb5760307f010000000000000000000000000000000000000000000000000000000000000002848281518110151561544a57fe5b9060200101517f010000000000000000000000000000000000000000000000000000000000000090047f0100000000000000000000000000000000000000000000000000000000000000027effffffffffffffffffffffffffffffffffffffffffffffffffffffffffffff191610158015615562575060397f01000000000000000000000000000000000000000000000000000000000000000284828151811015156154f257fe5b9060200101517f010000000000000000000000000000000000000000000000000000000000000090047f0100000000000000000000000000000000000000000000000000000000000000027effffffffffffffffffffffffffffffffffffffffffffffffffffffffffffff191611155b1561561357811561558557600086141561557b576156cb565b8580600190039650505b600a830292506030848281518110151561559b57fe5b9060200101517f010000000000000000000000000000000000000000000000000000000000000090047f0100000000000000000000000000000000000000000000000000000000000000027f0100000000000000000000000000000000000000000000000000000000000000900403830192506156be565b602e7f010000000000000000000000000000000000000000000000000000000000000002848281518110151561564557fe5b9060200101517f010000000000000000000000000000000000000000000000000000000000000090047f0100000000000000000000000000000000000000000000000000000000000000027effffffffffffffffffffffffffffffffffffffffffffffffffffffffffffff191614156156bd57600191505b5b808060010191505061540f565b60008611156156dd5785600a0a830292505b8294505050505092915050565b6000813b9050919050565b600080615715731d3b2638a7cc9f2cb3d298a3da7a90b67e5506ed6156ea565b11156157b657731d3b2638a7cc9f2cb3d298a3da7a90b67e5506ed6000806101000a81548173ffffffffffffffffffffffffffffffffffffffff021916908373ffffffffffffffffffffffffffffffffffffffff1602179055506157ad6040805190810160405280600b81526020017f6574685f6d61696e6e6574000000000000000000000000000000000000000000815250615b86565b60019050615b81565b60006157d573c03a2615d5efaf5f49f60b7bb6583eaec212fdf16156ea565b11156158765773c03a2615d5efaf5f49f60b7bb6583eaec212fdf16000806101000a81548173ffffffffffffffffffffffffffffffffffffffff021916908373ffffffffffffffffffffffffffffffffffffffff16021790555061586d6040805190810160405280600c81526020017f6574685f726f707374656e330000000000000000000000000000000000000000815250615b86565b60019050615b81565b600061589573b7a07bcf2ba2f2703b24c0691b5278999c59ac7e6156ea565b11156159365773b7a07bcf2ba2f2703b24c0691b5278999c59ac7e6000806101000a81548173ffffffffffffffffffffffffffffffffffffffff021916908373ffffffffffffffffffffffffffffffffffffffff16021790555061592d6040805190810160405280600981526020017f6574685f6b6f76616e0000000000000000000000000000000000000000000000815250615b86565b60019050615b81565b600061595573146500cfd35b22e4a392fe0adc06de1a1368ed486156ea565b11156159f65773146500cfd35b22e4a392fe0adc06de1a1368ed486000806101000a81548173ffffffffffffffffffffffffffffffffffffffff021916908373ffffffffffffffffffffffffffffffffffffffff1602179055506159ed6040805190810160405280600b81526020017f6574685f72696e6b656279000000000000000000000000000000000000000000815250615b86565b60019050615b81565b6000615a15736f485c8bf6fc43ea212e93bbf8ce046c7f1cb4756156ea565b1115615a7857736f485c8bf6fc43ea212e93bbf8ce046c7f1cb4756000806101000a81548173ffffffffffffffffffffffffffffffffffffffff021916908373ffffffffffffffffffffffffffffffffffffffff16021790555060019050615b81565b6000615a977320e12a1f859b3feae5fb2a0a32c18f5a65555bbf6156ea565b1115615afa577320e12a1f859b3feae5fb2a0a32c18f5a65555bbf6000806101000a81548173ffffffffffffffffffffffffffffffffffffffff021916908373ffffffffffffffffffffffffffffffffffffffff16021790555060019050615b81565b6000615b197351efaf4c8b3c9afbd5ab9f4bbc82784ab6ef8faa6156ea565b1115615b7c577351efaf4c8b3c9afbd5ab9f4bbc82784ab6ef8faa6000806101000a81548173ffffffffffffffffffffffffffffffffffffffff021916908373ffffffffffffffffffffffffffffffffffffffff16021790555060019050615b81565b600090505b919050565b8060029080519060200190615b9c929190615c55565b5050565b610100604051908101604052806008905b600061ffff16815260200190600190039081615bb15790505090565b815481835581811511615bf457818360005260206000209182019101615bf39190615db9565b5b505050565b6101406040519081016040528060001515815260200160008019168152602001615c21615dde565b81525090565b602060405190810160405280600081525090565b604080519081016040528060008152602001600081525090565b828054600181600116156101000203166002900490600052602060002090601f016020900481019282601f10615c9657805160ff1916838001178555615cc4565b82800160010185558215615cc4579182015b82811115615cc3578251825591602001919060010190615ca8565b5b509050615cd19190615db9565b5090565b815481835581811511615d0a57600f016010900481600f01601090048360005260206000209182019101615d099190615db9565b5b505050565b602060405190810160405280600081525090565b602060405190810160405280600081525090565b604080519081016040528060008152602001600081525090565b602060405190810160405280600081525090565b815481835581811511615d8c57818360005260206000209182019101615d8b9190615e0b565b5b505050565b602060405190810160405280600081525090565b602060405190810160405280600081525090565b615ddb91905b80821115615dd7576000816000905550600101615dbf565b5090565b90565b610100604051908101604052806008905b600061ffff16815260200190600190039081615def5790505090565b615e2d91905b80821115615e29576000816000905550600101615e11565b5090565b905600a165627a7a72305820d14d330f8f75c85aae58d728c980bf72a21e5e069bf0c76cc5ebb318ce7568770029",
  "source": "pragma solidity 0.4.18;\n\nimport \"./lib/oraclize/oraclizeAPI_0.4.sol\";\nimport \"./lib/arachnid/solidity-stringutils/strings.sol\";\n\ncontract PgaDfs is usingOraclize {\n\n  using strings for *;\n\n  struct SlateGolfer {\n    // not storing name,\n    // since we're trying to be minimal with data storage\n    // on ethereum's bloated ass blockchain.\n\n    // increments in 1\n    // salaries are roughly DK salaries / $500\n    // and can be negative!\n    int8 salary;\n\n    // fantasy points at end of tournament\n    int8 points;\n  }\n\n\n  struct Lineup {\n    bool submittedHash;  // true when saved\n    // keccak hash of lineup before revealing\n    // e.g. keccak256(\"21059:94320:85933\")\n    bytes32 golferIdsHash;\n    // MAX of 8 pga tour ids...\n    // you can play less than 8 guys if you want!\n    // e.g. [web3.fromAscii(\"21059\"), web3.fromAscii(\"94320\"), web3.fromAscii(\"85933\")]\n    uint16[8] golferIds;\n  }\n\n  struct Contest {\n    address owner; // creator of contest\n\n    uint entryFee; // TODO(christian): what units? wei?\n    uint prizePool; // TODO: delete\n    // all money in contest balance, payable to winners\n    mapping (bytes12 => uint) slateIdToPrizePool;\n\n    // yay or nay, is this an active contest\n    // must be not live to delete contest\n    bool live;\n\n    // have we calculated the address balances after contest is over?\n    mapping (bytes12 => bool) slateIdToPayoutsSet;\n\n    // map ETH address --> lineup in contest\n    mapping (bytes12 => address[]) slateIdToEntries;\n\n    mapping (bytes12 => mapping(address => bool)) slateIdToEntered;\n    mapping (bytes12 => mapping(address => int16)) slateIdToAddressScores;\n\n    // ETH address --> how much they recouped\n    // once we confirmed the event ends, then payout!\n    mapping(address => uint) balances;\n  }\n\n\n  event newOraclizeQuery(string description);\n\n  // this is the initializer of the contract\n  // who gets special privaledges:\n  // (1) if oraclize fucks up, you set scores manually\n  // (2) you can spend the extraEther in the contract\n  address public contractAdmin;\n  uint private extraEther;\n  uint private minBal;\n\n  // status (bool): is this oraclize query complete or not?\n  mapping(bytes32 => string) queryIdToCallbackAction;\n\n  // this is the CONSTRUCTOR!\n  // we must initialize the lubrication amount\n  // with the miniumum balance, which can never be recovered\n  function PgaDfs() public payable {\n    require(msg.value >= minBal);\n    // in the constructor (this function), msg.sender is\n    // the owner of the contract\n    contractAdmin = msg.sender;\n    extraEther = msg.value;\n\n    // OAR for ethereum-bridge\n    OAR = OraclizeAddrResolverI(0x15Ce83f7B43082C21deB5bEDd004e2F683B45392);\n    // TODO: tinker with this gas value\n    /* oraclize_setCustomGasPrice(1000000000 wei); */\n\n    // execute a dummy transcaction to make fee estimation\n    // work by burning the free transaction\n    /* oraclize_query(\"URL\", \"json(http://api.fixer.io/latest?symbols=USD,GBP).rates.GBP\"); */\n  }\n\n\n  // N.B. FROM CRYPTO RIC:\n  // if we want to fund money into the \"lubrication account\"\n  // this will allow the contract to function if the price\n  // of ether falls dramatically between querires\n  // and, as a result, because the query fee is charged in USD,\n  // the fee for subsequent queries goes up\n  // this should average out over time,\n  // we charge a small fee to make sure it more likely going up\n  // this fee, over the course of 400 wagers,\n  // should offset the irrecovable minimum balance\n  function deposit() payable external {\n    extraEther += msg.value;\n  }\n\n  // CRYPTO RIC:\n  // if we want to withdraw money from the lubrication account\n  // we can only draw from the extraEther gained,\n  // so as to protect and wall off funds from active wagers\n  // we must leave a minBal of .1 ether to serve as lubrication\n  // this protects people with wagers from us withdrawing\n  // all the lubrication while they have bets in, which\n  // would make them have the potential to fail\n  function withdraw() external {\n    require(msg.sender == contractAdmin);\n\n    if (extraEther - minBal > 0) {\n      contractAdmin.transfer(extraEther - minBal);\n      extraEther = minBal;\n    }\n  }\n\n  // active slate id to key slate/lineup mappings\n  bytes12 slateId;\n  mapping (bytes12 => uint) slateIdToLockTimestamp;\n\n  // format: \"{pgaId}:{salary}\"\n  // example: \"34360:1522955700:15 32102:1522963620:-2\" <-- salaries can be negative!\n  string compressedSalariesUrl = \"\"; // e.g. \"https://s3.amazonaws.com/ethdfs/pga/compressedSalaries/2018/471.json\";\n\n  // format: \"{pgaId}:{rd1}-{rd2}-{rd3}-{rd4}\"\n  // example: \"34360:69-66-67-71 32102:70-72-65-67\"\n  string compressedScoresUrl = \"\"; // e.g. \"https://s3.amazonaws.com/ethdfs/pga/compressedScores/2018/471.json\";\n\n\n  // slate id ==> golfer ids\n  // NOTE: uint16 for golfer ids is really fucking pushing it,\n  // as PGA tour is on ID's around 55k or so.\n  // the max uint8 number is 65,535. lol\n  mapping (bytes12 => uint16[]) slateIdToGolferIds;\n  // slate id ==> pga tour id ==> golfer data (salary, scores, etc.)\n  mapping (bytes12 => mapping(uint16 => SlateGolfer)) slateIdToSlateGolfers;\n  mapping (bytes12 => address[]) slateIdToEnteredAddresses;\n  mapping (bytes12 => mapping (address => Lineup)) slateIdToLineups;\n\n  // contest data\n  bytes32[] contestIds;\n  mapping(bytes32 => Contest) contests;\n\n  // salary cap is 100\n  // salaries are integers and CAN BE NEGATIVE\n  // think mike weir\n  int salaryCap = 100;\n\n  // rake is 2.0% or 20/1000\n  uint rakeTimesOneThousand = 20;\n\n  // is scoring complete for the current slate\n  mapping (bytes12 => bool) slateIdToCompleteScoring;\n\n  function setLineupHash(bytes32 lineupHash) public {\n    // can't change lineup hash after lock\n    require(block.timestamp <= slateIdToLockTimestamp[slateId]);\n    Lineup storage theLineup = slateIdToLineups[slateId][msg.sender];\n    if (!theLineup.submittedHash) {\n        // don't push duped addresses if they already have a lineup\n        slateIdToEnteredAddresses[slateId].push(msg.sender);\n    }\n    theLineup.golferIdsHash = lineupHash;\n    theLineup.submittedHash = true;\n  }\n\n  // returns: Lineup.golferIdsHash\n  function getLineupHash(address entrantAddress) public view returns (bytes32) {\n    return slateIdToLineups[slateId][entrantAddress].golferIdsHash;\n  }\n\n  function getEnteredAddressesForCurrentSlate() public view returns (address[]) {\n      return slateIdToEnteredAddresses[slateId];\n  }\n\n  function getCurrentSlateLineupForAddress(address address_) public view returns (bytes32, uint16[8]) {\n      Lineup memory theLineup = slateIdToLineups[slateId][address_];\n      return (theLineup.golferIdsHash, theLineup.golferIds);\n  }\n\n  function getSlateId() public view returns (bytes12) {\n    return slateId;\n  }\n\n  function getSalary(uint16 pgaId) public view returns (int8) {\n    return slateIdToSlateGolfers[slateId][pgaId].salary;\n  }\n\n  // lineups must:\n  // have 8 or less players\n  // total salary must be <= salary cap\n  // can only play the same guy once\n  function revealLineup(string golferIdsColonDelimited, string revealKey) public returns (int16) {\n    require(slateIdToLineups[slateId][msg.sender].golferIdsHash == keccak256(strConcat(golferIdsColonDelimited, \"|\", revealKey)));\n\n    var golferIds = new uint16[](8);\n\n    var golferIdsSlice = golferIdsColonDelimited.toSlice();\n    var delimiter = \":\".toSlice();\n    uint256 golferCount = golferIdsSlice.count(delimiter) + 1;\n\n    // must have 8 or less players\n    require(golferCount <= 8);\n\n    // and salary must be under cap\n    int16 totalSalary = 0;\n\n    for (uint8 ii = 0; ii < golferCount; ii++) {\n      // string  --> left padded bytes32\n      // \"29725\" --> \"0x3239373235000000000000000000000000000000000000000000000000000000\"\n      // replicate this with web3.fromAscii('29725')\n      uint16 golferId = uint16(parseInt(golferIdsSlice.split(delimiter).toString()));\n\n      for (uint8 jj = 0; jj < ii; jj++) {\n        require(golferId != golferIds[jj]);\n      }\n      golferIds[ii] = golferId;\n      totalSalary += slateIdToSlateGolfers[slateId][golferId].salary;\n    }\n\n    require(totalSalary <= salaryCap);\n\n    for (ii = 0; ii < golferIds.length; ii++) {\n      slateIdToLineups[slateId][msg.sender].golferIds[ii] = golferIds[ii];\n    }\n  }\n\n  function calculateRake(uint eth) public view returns (uint) {\n    return eth - (eth * rakeTimesOneThousand) / 1000;\n  }\n\n  function createContest(bytes32 contestId) public payable {\n    // contest id cannot be taken already\n    require(!contests[contestId].live);\n    // contest owner must first have lineup hash on chain\n    require(slateIdToLineups[slateId][msg.sender].submittedHash);\n\n    contestIds.push(contestId);\n    contests[contestId] = Contest({\n      owner : msg.sender,\n      // entry fee is AUTOMATICALLY calculated by how much the owner deposits\n      entryFee : msg.value - calculateRake(msg.value),\n      prizePool: 0, // updated in payEntryFeeToContest below\n      live : true\n    });\n    payEntryFeeToContest(contestId, msg.sender, msg.value);\n  }\n\n  function enterContest(bytes32 contestId) public payable {\n    // to enter contest, user must have lineup hash on chain\n    Lineup memory entrantLineup = slateIdToLineups[slateId][msg.sender];\n    require(entrantLineup.submittedHash);\n    payEntryFeeToContest(contestId, msg.sender, msg.value);\n  }\n\n  function payEntryFeeToContest(bytes32 contestId, address msgSender, uint ethEntered) public payable {\n\n    Contest storage activeContest = contests[contestId];\n    if (!activeContest.slateIdToEntered[slateId][msgSender]) {\n      // if they not are already in the contest, pay rake and enter\n      uint rakeToCollect = calculateRake(ethEntered);\n\n      require(ethEntered >= activeContest.entryFee + rakeToCollect);\n\n      activeContest.prizePool += activeContest.entryFee;\n      extraEther += rakeToCollect;\n      // if someone sends us extra money,\n      // it goes their balance for the contest\n      // and by default they can get paid out at the end\n      // otherwise they can withdraw\n      activeContest.balances[msgSender] += ethEntered - activeContest.entryFee - rakeToCollect;\n    }\n  }\n\n  function setSalaries(string compressedSalaries) public {\n      require(msg.sender == contractAdmin);\n      // TODO: make internal / only contractAdmin\n      slateIdToCompleteScoring[slateId] = false;\n\n      var compressedSalariesSlice = compressedSalaries.toSlice();\n      var playerDelimiter = \" \".toSlice();\n      var salaryDelimiter = \":\".toSlice();\n      uint playerCount = compressedSalariesSlice.count(playerDelimiter) + 1;\n\n      for (uint8 ii = 0; ii < playerCount; ii++) {\n          var playerColonSalary = compressedSalariesSlice.split(playerDelimiter);\n\n          uint16 pgaPlayerId = uint16(parseInt(playerColonSalary.split(salaryDelimiter).toString()));\n\n          int8 salary = int8(parseInt(playerColonSalary.toString()));\n\n          slateIdToGolferIds[slateId].push(pgaPlayerId);\n          SlateGolfer storage slateGolfer = slateIdToSlateGolfers[slateId][pgaPlayerId];\n          slateGolfer.salary = salary;\n      }\n  }\n\n  function setScores(string compressedScores) public {\n    // TODO: make internal / only contractAdmin\n    // TODO: really make sure this works\n    // TODO: difference between var and normal types?\n    require(!slateIdToCompleteScoring[slateId]);\n\n    var compressedScoresSlice = compressedScores.toSlice();\n    var playerDelimiter = \" \".toSlice();\n    var playerScoreSlices = new strings.slice[](compressedScoresSlice.count(playerDelimiter) + 1);\n\n    for (uint16 i = 0; i < playerScoreSlices.length; i++) {\n      playerScoreSlices[i] = compressedScoresSlice.split(playerDelimiter);\n      uint16 pgaPlayerId = uint16(parseInt(playerScoreSlices[i].split(\":\".toSlice()).toString()));\n      uint roundSlices = playerScoreSlices[i].count(\"-\".toSlice()) + 1;\n      for (uint rd = 0; rd < roundSlices; rd++) {\n        int8 rdScore = int8(parseInt(playerScoreSlices[i].split(\"-\".toSlice()).toString()));\n        slateIdToSlateGolfers[slateId][pgaPlayerId].points += int8(80) - rdScore;\n      }\n    }\n    slateIdToCompleteScoring[slateId] = true;\n  }\n\n  function setSingleContestPayouts(bytes32 contestId) public {\n    // everyone who scores > max(0, the contest average) gets paid\n    // you are paid proportional to your squared score\n    require(slateIdToCompleteScoring[slateId]);\n\n    Contest storage contest = contests[contestId];\n    require(contest.live);\n    require(!contest.slateIdToPayoutsSet[slateId]);\n\n    uint16 totalEntries = uint16(contest.slateIdToEntries[slateId].length);\n    int totalPoints = 0;\n\n    // calculate the average score in the contest\n    for (uint8 ii = 0; ii < totalEntries; ii++) {\n      address entry = contest.slateIdToEntries[slateId][ii];\n      uint16[8] memory entryPgaIds = slateIdToLineups[slateId][entry].golferIds;\n      for (uint8 g = 0; g < entryPgaIds.length; g++) {\n        contest.slateIdToAddressScores[slateId][entry] += slateIdToSlateGolfers[slateId][entryPgaIds[g]].points;\n      }\n      totalPoints += contest.slateIdToAddressScores[slateId][entry];\n    }\n\n    // of the top half (except any of those that scored < 0),\n    // sum up the squared scores\n    int averagePointsRoundedDown = totalPoints / totalEntries;\n    // ugh... only using storage since memory isnt dynamic\n    address[] storage winningEntries;\n    uint summedSquaredWinningScores = 0;\n\n    for (ii = 0; ii < totalEntries; ii++) {\n      entry = contest.slateIdToEntries[slateId][ii];\n      if (contest.slateIdToAddressScores[slateId][entry] >= averagePointsRoundedDown && contest.slateIdToAddressScores[slateId][entry] >= 0) {\n        uint squaredScore = uint(contest.slateIdToAddressScores[slateId][entry] * contest.slateIdToAddressScores[slateId][entry]);\n        winningEntries.push(entry);\n        summedSquaredWinningScores += squaredScore;\n      }\n    }\n\n    // then pay out people proportional to squared points\n    for (ii = 0; ii < winningEntries.length; ii++) {\n      entry = winningEntries[ii];\n      // TODO: make sure there's no rounding error B.S. going on\n      // that makes us massively over or under pay people\n      squaredScore = uint(contest.slateIdToAddressScores[slateId][entry] * contest.slateIdToAddressScores[slateId][entry]);\n      uint toPayout = (contest.prizePool * squaredScore) / summedSquaredWinningScores;\n      contest.balances[entry] += toPayout;\n    }\n\n    contest.slateIdToPayoutsSet[slateId] = true;\n  }\n\n  function withdrawBalanceFromContest(bytes32 contestId) public {\n    Contest storage contest = contests[contestId];\n    if (contest.balances[msg.sender] > 0) {\n      msg.sender.transfer(contest.balances[msg.sender]);\n      contest.balances[msg.sender] = 0;\n    }\n  }\n\n  function payOutContest(bytes32 contestId) public {\n    require(slateIdToCompleteScoring[slateId]);\n\n    Contest storage contest = contests[contestId];\n    require(contest.slateIdToPayoutsSet[slateId]);\n    require(contest.live);\n\n    for (uint ii = 0; ii < contest.slateIdToEntries[slateId].length; ii++) {\n      address entry = contest.slateIdToEntries[slateId][ii];\n      if (contest.balances[entry] > 0) {\n        entry.transfer(contest.balances[entry]);\n        contest.balances[msg.sender] = 0;\n      }\n    }\n    contest.live = false;\n  }\n\n  function _setCompressedScoresUrl(string _compressedScoresUrl) internal {\n    compressedScoresUrl = _compressedScoresUrl;\n  }\n\n  function _setCompressedSalariesUrl(string _compressedSalariesUrl) internal {\n    compressedSalariesUrl = _compressedSalariesUrl;\n  }\n\n  function getSalariesOnChain() public payable {\n    innerOraclizeQuery(compressedSalariesUrl, \"Salaries\");\n  }\n\n  function getScoresOnChain() public payable {\n    innerOraclizeQuery(compressedScoresUrl, \"Scores\");\n  }\n\n  function setScoresUrlAndGetResultsOnChain(string compressedScoresUrl_) public {\n      require(msg.sender == contractAdmin);\n      _setCompressedScoresUrl(compressedScoresUrl_);\n      getScoresOnChain();\n  }\n\n  function setSalariesUrlAndGetSalariesOnChain(string compressedSalariesUrl_) public {\n      require(msg.sender == contractAdmin);\n      _setCompressedSalariesUrl(compressedSalariesUrl_);\n      getSalariesOnChain();\n  }\n\n  function setNewSlateInfo(\n    bytes12 _newSlateId,\n    string _compressedSalariesUrl,\n    string _compressedScoresUrl,\n    uint lockTimestamp\n  ) public {\n    require(msg.sender == contractAdmin);\n    slateId = _newSlateId;\n    slateIdToLockTimestamp[slateId] = lockTimestamp;\n    _setCompressedScoresUrl(_compressedScoresUrl);\n    _setCompressedSalariesUrl(_compressedSalariesUrl);\n  }\n\n  // ========================= ORACLIZE functions =========================\n\n\n  function innerOraclizeQuery(string queryUrl, string callbackAction) public payable {\n    // TODO: make these views\n    uint cost = 2400000000000000 + (oraclize_getPrice(\"URL\") * 3);\n    uint fee = 100000000000000;\n\n    if (msg.value < cost + fee) {\n      newOraclizeQuery(\"Oraclize query failed. Send more ETH (.0025ETH in gas + $.03 per query\");\n      msg.sender.transfer(msg.value);\n    } else {\n      extraEther += msg.value - cost;\n      newOraclizeQuery(\"Oraclize queries were sent, standing by for the answer.\");\n      bytes32 queryId = oraclize_query(\n        \"URL\",\n        strConcat(\"json(\", queryUrl, \").compressedScores\"),\n        600000\n      );\n      queryIdToCallbackAction[queryId] = callbackAction;\n    }\n  }\n\n  // switch function for callbacks\n  function __callback(bytes32 myid, string result) public {\n    require(msg.sender == oraclize_cbAddress());\n    // can't compare string storage pointers and string literals,\n    // so instead let's compare their keccak256 hashes!\n    bytes32 actionHash = keccak256(queryIdToCallbackAction[myid]);\n    if (actionHash == keccak256(\"Salaries\")) {\n      setSalaries(result);\n    }\n    if (actionHash == keccak256(\"Scores\")) {\n      setScores(result);\n    }\n  }\n\n  // CRYPTO RIC:\n  // should anyone wish to be a good blockchain citizen\n  // and delete a wager that is no longer live\n  function deleteContest(bytes32 contestId) external {\n    require(!contests[contestId].live);\n    // can't delete someone else's contest\n    require(msg.sender == contests[contestId].owner);\n    delete contests[contestId];\n  }\n\n  function getLiveContestIds() public view returns (bytes32[]) {\n    bytes32[] memory liveContestIds;  // why must use storage?\n    uint jj = 0;\n    for (uint ii = 0; ii < contestIds.length; ii++) {\n      bytes32 contestId = contestIds[ii];\n      if (contests[contestId].live) {\n        liveContestIds[jj] = contestId;\n        jj += 1;\n      }\n    }\n    return liveContestIds;\n  }\n\n  function getContestById(bytes32 contestId) public view returns (\n      bytes32,\n      uint,\n      uint,\n      address\n    ) {\n      Contest storage contest = contests[contestId];\n      return (\n          contestId,\n          contest.entryFee,\n          contest.slateIdToEntries[slateId].length,\n          contest.owner\n        );\n    }\n\n  function testFunction() public view returns (string) {\n    return 'test';\n  }\n}\n",
  "sourcePath": "/Users/christian/workspace/ddfs/contracts/PgaDfs.sol",
  "compiler": {
    "name": "solc",
    "version": "0.4.18+commit.9cf6e910.Emscripten.clang"
  },
  "schemaVersion": "2.0.0",
  "updatedAt": "2018-10-06T07:02:10.527Z"
}