{
  "contractName": "PgaDfs",
  "abi": [
    {
      "constant": true,
      "inputs": [],
      "name": "contractAdmin",
      "outputs": [
        {
          "name": "",
          "type": "address"
        }
      ],
      "payable": false,
      "stateMutability": "view",
      "type": "function"
    },
    {
      "inputs": [],
      "payable": true,
      "stateMutability": "payable",
      "type": "constructor"
    },
    {
      "anonymous": false,
      "inputs": [
        {
          "indexed": false,
          "name": "description",
          "type": "string"
        }
      ],
      "name": "newOraclizeQuery",
      "type": "event"
    },
    {
      "constant": false,
      "inputs": [],
      "name": "deposit",
      "outputs": [],
      "payable": true,
      "stateMutability": "payable",
      "type": "function"
    },
    {
      "constant": false,
      "inputs": [],
      "name": "withdraw",
      "outputs": [],
      "payable": false,
      "stateMutability": "nonpayable",
      "type": "function"
    },
    {
      "constant": false,
      "inputs": [
        {
          "name": "lineupHash",
          "type": "bytes32"
        }
      ],
      "name": "setLineupHash",
      "outputs": [],
      "payable": false,
      "stateMutability": "nonpayable",
      "type": "function"
    },
    {
      "constant": true,
      "inputs": [
        {
          "name": "entrantAddress",
          "type": "address"
        }
      ],
      "name": "getLineupHash",
      "outputs": [
        {
          "name": "",
          "type": "bytes32"
        }
      ],
      "payable": false,
      "stateMutability": "view",
      "type": "function"
    },
    {
      "constant": true,
      "inputs": [],
      "name": "getEnteredAddressesForCurrentSlate",
      "outputs": [
        {
          "name": "",
          "type": "address[]"
        }
      ],
      "payable": false,
      "stateMutability": "view",
      "type": "function"
    },
    {
      "constant": true,
      "inputs": [
        {
          "name": "address_",
          "type": "address"
        }
      ],
      "name": "getCurrentSlateLineupForAddress",
      "outputs": [
        {
          "name": "",
          "type": "bytes32"
        },
        {
          "name": "",
          "type": "uint16[8]"
        }
      ],
      "payable": false,
      "stateMutability": "view",
      "type": "function"
    },
    {
      "constant": true,
      "inputs": [],
      "name": "getSlateId",
      "outputs": [
        {
          "name": "",
          "type": "bytes12"
        }
      ],
      "payable": false,
      "stateMutability": "view",
      "type": "function"
    },
    {
      "constant": true,
      "inputs": [
        {
          "name": "pgaId",
          "type": "uint16"
        }
      ],
      "name": "getSalary",
      "outputs": [
        {
          "name": "",
          "type": "int8"
        }
      ],
      "payable": false,
      "stateMutability": "view",
      "type": "function"
    },
    {
      "constant": true,
      "inputs": [
        {
          "name": "pgaId",
          "type": "uint16"
        }
      ],
      "name": "getPoints",
      "outputs": [
        {
          "name": "",
          "type": "int8"
        }
      ],
      "payable": false,
      "stateMutability": "view",
      "type": "function"
    },
    {
      "constant": false,
      "inputs": [
        {
          "name": "golferIdsColonDelimited",
          "type": "string"
        },
        {
          "name": "revealKey",
          "type": "string"
        }
      ],
      "name": "revealLineup",
      "outputs": [
        {
          "name": "",
          "type": "int16"
        }
      ],
      "payable": false,
      "stateMutability": "nonpayable",
      "type": "function"
    },
    {
      "constant": true,
      "inputs": [
        {
          "name": "wei_",
          "type": "uint256"
        }
      ],
      "name": "calculateRake",
      "outputs": [
        {
          "name": "",
          "type": "uint256"
        }
      ],
      "payable": false,
      "stateMutability": "view",
      "type": "function"
    },
    {
      "constant": false,
      "inputs": [
        {
          "name": "contestId",
          "type": "bytes32"
        }
      ],
      "name": "createContest",
      "outputs": [],
      "payable": true,
      "stateMutability": "payable",
      "type": "function"
    },
    {
      "constant": false,
      "inputs": [
        {
          "name": "contestId",
          "type": "bytes32"
        }
      ],
      "name": "enterContest",
      "outputs": [],
      "payable": true,
      "stateMutability": "payable",
      "type": "function"
    },
    {
      "constant": false,
      "inputs": [
        {
          "name": "contestId",
          "type": "bytes32"
        },
        {
          "name": "msgSender",
          "type": "address"
        },
        {
          "name": "ethEntered",
          "type": "uint256"
        }
      ],
      "name": "payEntryFeeToContest",
      "outputs": [],
      "payable": true,
      "stateMutability": "payable",
      "type": "function"
    },
    {
      "constant": false,
      "inputs": [
        {
          "name": "compressedSalaries",
          "type": "string"
        }
      ],
      "name": "setSalaries",
      "outputs": [],
      "payable": false,
      "stateMutability": "nonpayable",
      "type": "function"
    },
    {
      "constant": false,
      "inputs": [
        {
          "name": "compressedScores",
          "type": "string"
        }
      ],
      "name": "setScores",
      "outputs": [],
      "payable": false,
      "stateMutability": "nonpayable",
      "type": "function"
    },
    {
      "constant": false,
      "inputs": [
        {
          "name": "contestId",
          "type": "bytes32"
        }
      ],
      "name": "setSingleContestPayouts",
      "outputs": [],
      "payable": false,
      "stateMutability": "nonpayable",
      "type": "function"
    },
    {
      "constant": false,
      "inputs": [
        {
          "name": "contestId",
          "type": "bytes32"
        }
      ],
      "name": "withdrawBalanceFromContest",
      "outputs": [],
      "payable": false,
      "stateMutability": "nonpayable",
      "type": "function"
    },
    {
      "constant": false,
      "inputs": [
        {
          "name": "contestId",
          "type": "bytes32"
        }
      ],
      "name": "payOutContest",
      "outputs": [],
      "payable": false,
      "stateMutability": "nonpayable",
      "type": "function"
    },
    {
      "constant": false,
      "inputs": [],
      "name": "getSalariesOnChain",
      "outputs": [],
      "payable": true,
      "stateMutability": "payable",
      "type": "function"
    },
    {
      "constant": false,
      "inputs": [],
      "name": "getScoresOnChain",
      "outputs": [],
      "payable": true,
      "stateMutability": "payable",
      "type": "function"
    },
    {
      "constant": false,
      "inputs": [
        {
          "name": "compressedScoresUrl_",
          "type": "string"
        }
      ],
      "name": "setScoresUrlAndGetResultsOnChain",
      "outputs": [],
      "payable": false,
      "stateMutability": "nonpayable",
      "type": "function"
    },
    {
      "constant": false,
      "inputs": [
        {
          "name": "compressedSalariesUrl_",
          "type": "string"
        }
      ],
      "name": "setSalariesUrlAndGetSalariesOnChain",
      "outputs": [],
      "payable": false,
      "stateMutability": "nonpayable",
      "type": "function"
    },
    {
      "constant": false,
      "inputs": [
        {
          "name": "_newSlateId",
          "type": "bytes12"
        },
        {
          "name": "_compressedSalariesUrl",
          "type": "string"
        },
        {
          "name": "_compressedScoresUrl",
          "type": "string"
        },
        {
          "name": "lockTimestamp",
          "type": "uint256"
        }
      ],
      "name": "setNewSlateInfo",
      "outputs": [],
      "payable": false,
      "stateMutability": "nonpayable",
      "type": "function"
    },
    {
      "constant": false,
      "inputs": [
        {
          "name": "queryUrl",
          "type": "string"
        },
        {
          "name": "callbackAction",
          "type": "string"
        }
      ],
      "name": "innerOraclizeQuery",
      "outputs": [],
      "payable": true,
      "stateMutability": "payable",
      "type": "function"
    },
    {
      "constant": false,
      "inputs": [
        {
          "name": "myid",
          "type": "bytes32"
        },
        {
          "name": "result",
          "type": "string"
        }
      ],
      "name": "__callback",
      "outputs": [],
      "payable": false,
      "stateMutability": "nonpayable",
      "type": "function"
    },
    {
      "constant": false,
      "inputs": [
        {
          "name": "myid",
          "type": "bytes32"
        },
        {
          "name": "result",
          "type": "string"
        },
        {
          "name": "proof",
          "type": "bytes"
        }
      ],
      "name": "__callback",
      "outputs": [],
      "payable": false,
      "stateMutability": "nonpayable",
      "type": "function"
    },
    {
      "constant": false,
      "inputs": [
        {
          "name": "contestId",
          "type": "bytes32"
        }
      ],
      "name": "deleteContest",
      "outputs": [],
      "payable": false,
      "stateMutability": "nonpayable",
      "type": "function"
    },
    {
      "constant": true,
      "inputs": [],
      "name": "getLiveContestIds",
      "outputs": [
        {
          "name": "",
          "type": "bytes32[]"
        }
      ],
      "payable": false,
      "stateMutability": "view",
      "type": "function"
    },
    {
      "constant": true,
      "inputs": [
        {
          "name": "contestId",
          "type": "bytes32"
        }
      ],
      "name": "getContestById",
      "outputs": [
        {
          "name": "",
          "type": "bytes32"
        },
        {
          "name": "",
          "type": "uint256"
        },
        {
          "name": "",
          "type": "uint256"
        },
        {
          "name": "",
          "type": "address"
        }
      ],
      "payable": false,
      "stateMutability": "view",
      "type": "function"
    },
    {
      "constant": true,
      "inputs": [
        {
          "name": "slateId_",
          "type": "bytes12"
        }
      ],
      "name": "getGolferIdsOnSlate",
      "outputs": [
        {
          "name": "",
          "type": "uint16[]"
        }
      ],
      "payable": false,
      "stateMutability": "view",
      "type": "function"
    },
    {
      "constant": true,
      "inputs": [],
      "name": "testFunction",
      "outputs": [
        {
          "name": "",
          "type": "string"
        }
      ],
      "payable": false,
      "stateMutability": "view",
      "type": "function"
    }
  ],
  "bytecode": "0x6060604052602060405190810160405260008152600b90805162000028929160200190620000ae565b50602060405190810160405260008152600c9080516200004d929160200190620000ae565b506064601355601480556007543410156200006757600080fd5b60058054600160a060020a033316600160a060020a03199182161790915534600655600080549091167315ce83f7b43082c21deb5bedd004e2f683b4539217905562000153565b828054600181600116156101000203166002900490600052602060002090601f016020900481019282601f10620000f157805160ff191683800117855562000121565b8280016001018555821562000121579182015b828111156200012157825182559160200191906001019062000104565b506200012f92915062000133565b5090565b6200015091905b808211156200012f57600081556001016200013a565b90565b6139ee80620001636000396000f3006060604052600436106101875763ffffffff60e060020a60003504166308064980811461018c5780630b4103ee146101bf5780630fc33560146101d7578063137492ff146101df57806318d019dc146102305780631c5c5fa31461028f57806326daf1641461033b57806327dc297e146103c35780632b58719d1461041957806338bbfa501461046a5780633ccfd60b1461050257806344375f6614610515578063471924db146105b95780634c55dcde1461060a5780634c5e9d18146106205780634d346a49146106715780636aff681c146106a157806377955245146106bb5780637ba36128146106ea578063807d9e16146106fd578063897e4edb14610708578063abfb80bc14610713578063bd3b38ff14610729578063c1c6070e14610743578063c5012ffc14610759578063cd84d13e146107aa578063d0e30db0146107ca578063d781b7cf146107d2578063e16b4a9b146107fa578063eb1a572414610884578063f03008ba146108a3578063f5a45c60146108b9578063fb9a7aaf14610903575b600080fd5b341561019757600080fd5b6101a661ffff6004351661090b565b604051600091820b90910b815260200160405180910390f35b34156101ca57600080fd5b6101d5600435610944565b005b6101d5610ecb565b34156101ea57600080fd5b6101d560046024813581810190830135806020601f82018190048102016040519081016040528181529291906020840183838082843750949650610fa495505050505050565b341561023b57600080fd5b61024f600160a060020a0360043516610fd3565b604051828152602081018261010080838360005b8381101561027b578082015183820152602001610263565b505050509050019250505060405180910390f35b341561029a57600080fd5b61032260046024813581810190830135806020601f8201819004810201604051908101604052818152929190602084018383808284378201915050505050509190803590602001908201803590602001908080601f0160208091040260200160405190810160405281815292919060208401838380828437509496506110ba95505050505050565b604051600191820b90910b815260200160405180910390f35b6101d560046024813581810190830135806020601f8201819004810201604051908101604052818152929190602084018383808284378201915050505050509190803590602001908201803590602001908080601f0160208091040260200160405190810160405281815292919060208401838380828437509496506113d695505050505050565b34156103ce57600080fd5b6101d5600480359060446024803590810190830135806020601f8201819004810201604051908101604052818152929190602084018383808284375094965061169695505050505050565b341561042457600080fd5b6101d560046024813581810190830135806020601f820181900481020160405190810160405281815292919060208401838380828437509496506117c195505050505050565b341561047557600080fd5b6101d5600480359060446024803590810190830135806020601f8201819004810201604051908101604052818152929190602084018383808284378201915050505050509190803590602001908201803590602001908080601f0160208091040260200160405190810160405281815292919060208401838380828437509496506117bc95505050505050565b341561050d57600080fd5b6101d56119ba565b341561052057600080fd5b6101d560048035600160a060020a0319169060446024803590810190830135806020601f8201819004810201604051908101604052818152929190602084018383808284378201915050505050509190803590602001908201803590602001908080601f0160208091040260200160405190810160405281815292919060208401838380828437509496505093359350611a2992505050565b34156105c457600080fd5b6105cc611a9b565b60405160208082528190810183818151815260200191508051906020019060200280838360008381101561027b578082015183820152602001610263565b341561061557600080fd5b6101d5600435611afb565b341561062b57600080fd5b6101d560046024813581810190830135806020601f82018190048102016040519081016040528181529291906020840183838082843750949650611b7995505050505050565b341561067c57600080fd5b610684611da7565b604051600160a060020a0319909116815260200160405180910390f35b6101d5600435600160a060020a0360243516604435611db3565b34156106c657600080fd5b6106ce611ef9565b604051600160a060020a03909116815260200160405180910390f35b34156106f557600080fd5b6105cc611f08565b6101d5600435611f92565b6101d5600435612079565b341561071e57600080fd5b6101d5600435612196565b341561073457600080fd5b6101a661ffff60043516612326565b341561074e57600080fd5b6101d5600435612364565b341561076457600080fd5b6101d560046024813581810190830135806020601f8201819004810201604051908101604052818152929190602084018383808284375094965061244095505050505050565b34156107b557600080fd5b6105cc600160a060020a03196004351661246c565b6101d5612519565b34156107dd57600080fd5b6107e8600435612523565b60405190815260200160405180910390f35b341561080557600080fd5b61080d61252f565b60405160208082528190810183818151815260200191508051906020019080838360005b83811015610849578082015183820152602001610831565b50505050905090810190601f1680156108765780820380516001836020036101000a031916815260200191505b509250505060405180910390f35b341561088f57600080fd5b6107e8600160a060020a0360043516612570565b34156108ae57600080fd5b6101d56004356125ad565b34156108c457600080fd5b6108cf60043561263e565b6040519384526020840192909252604080840191909152600160a060020a0390911660608301526080909101905180910390f35b6101d5612685565b60095460a060020a02600160a060020a0319166000908152600e6020908152604080832061ffff85168452909152812054900b5b919050565b600080600080600061095461385d565b60095460a060020a02600160a060020a0319166000908152601560205260408120548190819081908190819060ff16151561098e57600080fd5b60008d81526012602052604090206004810154909c5060ff1615156109b257600080fd5b60095460a060020a02600160a060020a031916600090815260058d01602052604090205460ff16156109e357600080fd5b60095460a060020a02600160a060020a031916600090815260068d0160205260408120549b5099508998505b8a61ffff168960ff161015610c4e5760095460a060020a02600160a060020a031916600090815260068d0160205260409020805460ff8b16908110610a5057fe5b60009182526020808320919091015460095460a060020a02600160a060020a0319168352601082526040808420600160a060020a039092168085529190925291819020919950600290910190600890610100905190810160405291906101008301826000855b82829054906101000a900461ffff1661ffff1681526020019060020190602082600101049283019260010382029150808411610ab657905050505050509650600095505b60088660ff161015610c005760095460a060020a02600160a060020a0319166000908152600e60205260408120908860ff891660088110610b3757fe5b602002015161ffff1661ffff16815260200190815260200160002060000160019054906101000a900460000b60000b8c6008016000600960009054906101000a900460a060020a02600160a060020a031916600160a060020a031916815260200190815260200160002060008a600160a060020a0316600160a060020a0316815260200190815260200160002060008282829054906101000a900460010b0192506101000a81548161ffff021916908360010b61ffff1602179055508580600101965050610afa565b60095460a060020a02600160a060020a031916600090815260088d0160209081526040808320600160a060020a038c168452909152902054600190810b810b9a909a01999890980197610a0f565b8a61ffff168a811515610c5d57fe5b05945060009250600098505b8a61ffff168960ff161015610dd25760095460a060020a02600160a060020a031916600090815260068d0160205260409020805460ff8b16908110610caa57fe5b60009182526020808320919091015460095460a060020a02600160a060020a031916835260088f0182526040808420600160a060020a0390921680855291909252912054909850600190810b900b859012801590610d45575060095460a060020a02600160a060020a031916600090815260088d0160209081526040808320600160a060020a038c168452909152812054600190810b900b12155b15610dc75760095460a060020a02600160a060020a031916600090815260088d0160209081526040808320600160a060020a038c1684529091529020548454600191820b8002820b935085918101610d9d8382613886565b5060009182526020909120018054600160a060020a031916600160a060020a038a16179055918101915b600190980197610c69565b600098505b835460ff8a161015610e8b57838960ff16815481101515610df457fe5b60009182526020808320919091015460095460a060020a02600160a060020a031916835260088f0182526040808420600160a060020a039092168085529190925291205460028e0154919950600190810b8002900b925083908302811515610e5857fe5b600160a060020a038a16600090815260098f01602052604090208054929091049182019055600199909901989050610dd7565b5050600954600160a060020a031960a060020a9091021660009081526005909a0160205250506040909720805460ff191660011790555050505050505050565b610fa2600c8054600181600116156101000203166002900480601f016020809104026020016040519081016040528092919081815260200182805460018160011615610100020316600290048015610f645780601f10610f3957610100808354040283529160200191610f64565b820191906000526020600020905b815481529060010190602001808311610f4757829003601f168201915b505050505060408051908101604052600681527f53636f726573000000000000000000000000000000000000000000000000000060208201526113d6565b565b60055433600160a060020a03908116911614610fbf57600080fd5b610fc88161275c565b610fd0612685565b50565b6000610fdd61385d565b610fe56138aa565b60095460a060020a02600160a060020a0319166000908152601060209081526040808320600160a060020a03881684529091529081902090606090519081016040908152825460ff161515825260018301546020830152909190808301906002830190600890610100905190810160405291906101008301826000855b82829054906101000a900461ffff1661ffff1681526020019060020190602082600101049283019260010382029150808411611062579050505050505081525050905080602001518160400151909350915050915091565b60006110c46138d1565b6110cc6138e3565b6110d46138e3565b600080600080600061111a8b60408051908101604052600181527f7c0000000000000000000000000000000000000000000000000000000000000060208201528c61276f565b6040518082805190602001908083835b602083106111495780518252601f19909201916020918201910161112a565b6001836020036101000a038019825116818451161790925250505091909101925060409150505190819003902060095460a060020a02600160a060020a0319166000908152601060209081526040808320600160a060020a0333168452909152902060010154146111b957600080fd5b60086040518059106111c85750595b908082528060200260200182016040525097506111e48b6127aa565b9650611209604080519081016040526001815260f960020a601d0260208201526127aa565b955061121b878763ffffffff6127d216565b6001019450600885111561122e57600080fd5b60009350600092505b848360ff1610156113135761126261125d611258898963ffffffff61283016565b612843565b612891565b9150600090505b8260ff168160ff1610156112ab57878160ff168151811061128657fe5b9060200190602002015161ffff838116911614156112a357600080fd5b600101611269565b81888460ff16815181106112bb57fe5b61ffff92831660209182029290920181019190915260095460a060020a02600160a060020a0319166000908152600e8252604080822093861682529290915290812054810b900b939093019260019290920191611237565b601354600185900b131561132657600080fd5b600092505b87518360ff1610156113c857878360ff168151811061134657fe5b9060200190602002015160095460a060020a02600160a060020a0319166000908152601060209081526040808320600160a060020a0333168452909152902060020160ff85166008811061139657fe5b601091828204019190066002026101000a81548161ffff021916908361ffff160217905550828060010193505061132b565b505050505050505092915050565b600080600061141760408051908101604052600381527f55524c000000000000000000000000000000000000000000000000000000000060208201526128a4565b600302660886c98b760000019250655af3107a40009150818301341015611520577f46cb989ef9cef13e930e3b7f286225a086e716a90d63e0b7da85d310a9db0c9a60405160208082526046908201527f4f7261636c697a65207175657279206661696c65642e2053656e64206d6f72656040808301919091527f2045544820282e3030323545544820696e20676173202b20242e30332070657260608301527f2071756572790000000000000000000000000000000000000000000000000000608083015260a0909101905180910390a1600160a060020a0333163480156108fc0290604051600060405180830381858888f19350505050151561151b57600080fd5b61168f565b60068054348590030190557f46cb989ef9cef13e930e3b7f286225a086e716a90d63e0b7da85d310a9db0c9a60405160208082526037908201527f4f7261636c697a65207175657269657320776572652073656e742c207374616e6040808301919091527f64696e6720627920666f722074686520616e737765722e00000000000000000060608301526080909101905180910390a161166b6040805190810160405280600381526020017f55524c00000000000000000000000000000000000000000000000000000000008152506116626040805190810160405280600581526020017f6a736f6e280000000000000000000000000000000000000000000000000000008152508860408051908101604052601281527f292e636f6d7072657373656453636f7265730000000000000000000000000000602082015261276f565b620927c0612ab2565b600081815260086020526040902090915084805161168d9291602001906138fa565b505b5050505050565b60006116a0612e38565b600160a060020a031633600160a060020a03161415156116bf57600080fd5b60008381526008602052604090819020905180828054600181600116156101000203166002900480156117295780601f10611707576101008083540402835291820191611729565b820191906000526020600020905b815481529060010190602001808311611715575b5050915050604051809103902090506040517f53616c6172696573000000000000000000000000000000000000000000000000815260080160405190819003902081141561177a5761177a826117c1565b6040517f53636f726573000000000000000000000000000000000000000000000000000081526006016040519081900390208114156117bc576117bc82611b79565b505050565b6117c96138e3565b6117d16138e3565b6117d96138e3565b6000806117e46138e3565b6005546000908190819033600160a060020a0390811691161461180657600080fd5b60095460a060020a02600160a060020a0319166000908152601560205260409020805460ff191690556118388a6127aa565b985061187660408051908101604052600181527f200000000000000000000000000000000000000000000000000000000000000060208201526127aa565b975061189b604080519081016040526001815260f960020a601d0260208201526127aa565b96506118ad898963ffffffff6127d216565b6001019550600094505b858560ff1610156119ae576118d2898963ffffffff61283016565b93506118ea61125d611258868a63ffffffff61283016565b92506118f861125d85612843565b60095460a060020a02600160a060020a0319166000908152600d602052604090208054919350906001810161192d8382613978565b50600091825260208083206010808404909101805461ffff808a16600294909606939093026101000a85810293021916919091179055600954600160a060020a031960a060020a909102168352600e81526040808420928452919052812080549184900b60ff1660ff199092169190911781556001959095019490506118b7565b50505050505050505050565b60055433600160a060020a039081169116146119d557600080fd5b6000600754600654031115610fa257600554600754600654600160a060020a03909216910380156108fc0290604051600060405180830381858888f193505050501515611a2157600080fd5b600754600655565b60055433600160a060020a03908116911614611a4457600080fd5b600980546bffffffffffffffffffffffff191660a060020a808704919091179182905502600160a060020a0319166000908152600a60205260409020819055611a8c82612fd8565b611a958361275c565b50505050565b611aa36138d1565b6011805480602002602001604051908101604052809291908181526020018280548015611af057602002820191906000526020600020905b81548152600190910190602001808311611adb575b505050505090505b90565b60008181526012602052604090206004015460ff1615611b1a57600080fd5b60008181526012602052604090205433600160a060020a03908116911614611b4157600080fd5b60009081526012602052604081208054600160a060020a0319168155600181018290556002810191909155600401805460ff19169055565b611b816138e3565b611b896138e3565b611b916138d1565b60095460a060020a02600160a060020a031916600090815260156020526040812054819060ff1615611bc257600080fd5b611bcb866127aa565b9450611c0960408051908101604052600181527f200000000000000000000000000000000000000000000000000000000000000060208201526127aa565b9350611c1b858563ffffffff6127d216565b600101604051805910611c2b5750595b908082528060200260200182016040528015611c6157816020015b611c4e6138e3565b815260200190600190039081611c465790505b509250600091505b82518261ffff161015611d7157611c86858563ffffffff61283016565b838361ffff1681518110611c9657fe5b60209081029091010152611cf261125d611258611ccc604080519081016040526001815260f960020a601d0260208201526127aa565b868661ffff1681518110611cdc57fe5b906020019060200201519063ffffffff61283016565b9050611d1961125d848461ffff1681518110611d0a57fe5b90602001906020020151612843565b600954600160a060020a031960a060020a909102166000908152600e6020908152604080832061ffff86168452909152812080549290910b60ff166101000261ff001990921691909117905560019190910190611c69565b5050600954600160a060020a031960a060020a909102166000908152601560205260409020805460ff1916600117905550505050565b60095460a060020a0290565b600083815260126020908152604080832060095460a060020a02600160a060020a0319168452600781018352818420600160a060020a038716855290925282205490919060ff1615611e0457600080fd5b611e0d83612523565b60018301549091508101831015611e2357600080fd5b60018281018054600285018054909101905560068054840181559054600160a060020a03871660009081526009808701602090815260408084208054958b03899003909501909455905460a060020a02600160a060020a03191682529286019092529020805490918101611e978382613886565b5060009182526020808320919091018054600160a060020a03909716600160a060020a0319978816811790915560095460a060020a029096168252600790930183526040808220958252949092525091909120805460ff191660011790555050565b600554600160a060020a031681565b611f106138d1565b60095460a060020a02600160a060020a0319166000908152600f6020908152604091829020805490929091828102019051908101604052809291908181526020018280548015611af057602002820191906000526020600020905b8154600160a060020a03168152600190910190602001808311611f6b575050505050905090565b611f9a6138aa565b60095460a060020a02600160a060020a0319166000908152601060209081526040808320600160a060020a03331684529091529081902090606090519081016040908152825460ff161515825260018301546020830152909190808301906002830190600890610100905190810160405291906101008301826000855b82829054906101000a900461ffff1661ffff168152602001906002019060208260010104928301926001038202915080841161201757905050505050508152505090508060000151151561206a57600080fd5b612075823334611db3565b5050565b60008181526012602052604090206004015460ff161561209857600080fd5b60095460a060020a02600160a060020a0319166000908152601060209081526040808320600160a060020a033316845290915290205460ff1615156120dc57600080fd5b60118054600181016120ee8382613886565b50600091825260209091200181905560806040519081016040528033600160a060020a0316815260200161212134612523565b34038152600060208083018290526001604093840152848252601290522081518154600160a060020a031916600160a060020a039190911617815560208201518160010155604082015181600201556060820151600491909101805460ff191691151591909117905550610fd0813334611db3565b60095460a060020a02600160a060020a0319166000908152601560205260408120548190819060ff1615156121ca57600080fd5b600084815260126020908152604080832060095460a060020a02600160a060020a0319168452600581019092529091205490935060ff16151561220c57600080fd5b600483015460ff16151561221f57600080fd5b600091505b60095460a060020a02600160a060020a03191660009081526006840160205260409020548210156123165760095460a060020a02600160a060020a0319166000908152600684016020526040902080548390811061227e57fe5b6000918252602080832090910154600160a060020a0316808352600986019091526040822054909250111561230b57600160a060020a0381166000818152600985016020526040908190205480156108fc029151600060405180830381858888f1935050505015156122ef57600080fd5b600160a060020a03331660009081526009840160205260408120555b600190910190612224565b5050600401805460ff1916905550565b60095460a060020a02600160a060020a0319166000908152600e6020908152604080832061ffff949094168352929052908120546101009004900b90565b60095460a060020a02600160a060020a0319166000908152600a602052604081205442111561239257600080fd5b5060095460a060020a02600160a060020a0319166000908152601060209081526040808320600160a060020a03331684529091529020805460ff16151561242a5760095460a060020a02600160a060020a0319166000908152600f602052604090208054600181016124048382613886565b5060009182526020909120018054600160a060020a03191633600160a060020a03161790555b600180820192909255805460ff19169091179055565b60055433600160a060020a0390811691161461245b57600080fd5b61246481612fd8565b610fd0610ecb565b6124746138d1565b600d600083600160a060020a031916600160a060020a031916815260200190815260200160002080548060200260200160405190810160405280929190818152602001828054801561250d57602002820191906000526020600020906000905b82829054906101000a900461ffff1661ffff16815260200190600201906020826001010492830192600103820291508084116124d45790505b50505050509050919050565b6006805434019055565b6014546103e891020490565b6125376138d1565b60408051908101604052600481527f74657374000000000000000000000000000000000000000000000000000000006020820152905090565b60095460a060020a02600160a060020a0319166000908152601060209081526040808320600160a060020a03949094168352929052206001015490565b6000818152601260209081526040808320600160a060020a033316845260098101909252822054909190111561207557600160a060020a0333166000818152600983016020526040908190205480156108fc029151600060405180830381858888f19350505050151561261f57600080fd5b600160a060020a03331660009081526009820160205260408120555050565b6000818152601260209081526040808320600181015460095460a060020a02600160a060020a031916855260068201909352922054915492939092600160a060020a031690565b610fa2600b8054600181600116156101000203166002900480601f01602080910402602001604051908101604052809291908181526020018280546001816001161561010002031660029004801561271e5780601f106126f35761010080835404028352916020019161271e565b820191906000526020600020905b81548152906001019060200180831161270157829003601f168201915b505050505060408051908101604052600881527f53616c617269657300000000000000000000000000000000000000000000000060208201526113d6565b600b8180516120759291602001906138fa565b6127776138d1565b6127a28484846020604051908101604052806000815250602060405190810160405260008152612feb565b949350505050565b6127b26138e3565b602082016040805190810160405280845181526020019190915292915050565b60008082516127ed855186602001518651876020015161325b565b0190505b8351846020015101811161282957600190910190825161282185602001518303865103838651876020015161325b565b0190506127f1565b5092915050565b6128386138e3565b6128298383836132fe565b61284b6138d1565b6128536138d1565b600083516040518059106128645750595b818152601f19601f830116810160200160405290509150602082019050612829818560200151865161336d565b600061289e8260006133b2565b92915050565b60008054600160a060020a031615806128cf57506000546128cd90600160a060020a0316613520565b155b156128e0576128de6000613524565b505b60008054600160a060020a0316906338cc483190604051602001526040518163ffffffff1660e060020a028152600401602060405180830381600087803b151561292957600080fd5b6102c65a03f1151561293a57600080fd5b5050506040518051600154600160a060020a0390811691161490506129dd5760008054600160a060020a0316906338cc483190604051602001526040518163ffffffff1660e060020a028152600401602060405180830381600087803b15156129a257600080fd5b6102c65a03f115156129b357600080fd5b505050604051805160018054600160a060020a031916600160a060020a0392909216919091179055505b600154600160a060020a031663524f3889836000604051602001526040518263ffffffff1660e060020a0281526004018080602001828103825283818151815260200191508051906020019080838360005b83811015612a47578082015183820152602001612a2f565b50505050905090810190601f168015612a745780820380516001836020036101000a031916815260200191505b5092505050602060405180830381600087803b1515612a9257600080fd5b6102c65a03f11515612aa357600080fd5b50505060405180519392505050565b600080548190600160a060020a03161580612adf5750600054612add90600160a060020a0316613520565b155b15612af057612aee6000613524565b505b60008054600160a060020a0316906338cc483190604051602001526040518163ffffffff1660e060020a028152600401602060405180830381600087803b1515612b3957600080fd5b6102c65a03f11515612b4a57600080fd5b5050506040518051600154600160a060020a039081169116149050612bed5760008054600160a060020a0316906338cc483190604051602001526040518163ffffffff1660e060020a028152600401602060405180830381600087803b1515612bb257600080fd5b6102c65a03f11515612bc357600080fd5b505050604051805160018054600160a060020a031916600160a060020a0392909216919091179055505b600154600160a060020a0316632ef3accc86856000604051602001526040518363ffffffff1660e060020a0281526004018080602001838152602001828103825284818151815260200191508051906020019080838360005b83811015612c5e578082015183820152602001612c46565b50505050905090810190601f168015612c8b5780820380516001836020036101000a031916815260200191505b509350505050602060405180830381600087803b1515612caa57600080fd5b6102c65a03f11515612cbb57600080fd5b5050506040518051915050670de0b6b3a76400003a840201811115612ce35760009150612e30565b600154600160a060020a031663c51be90f82600088888883604051602001526040518663ffffffff1660e060020a028152600401808581526020018060200180602001848152602001838103835286818151815260200191508051906020019080838360005b83811015612d61578082015183820152602001612d49565b50505050905090810190601f168015612d8e5780820380516001836020036101000a031916815260200191505b50838103825285818151815260200191508051906020019080838360005b83811015612dc4578082015183820152602001612dac565b50505050905090810190601f168015612df15780820380516001836020036101000a031916815260200191505b5096505050505050506020604051808303818588803b1515612e1257600080fd5b6125ee5a03f11515612e2357600080fd5b5050505060405180519250505b509392505050565b60008054600160a060020a03161580612e635750600054612e6190600160a060020a0316613520565b155b15612e7457612e726000613524565b505b60008054600160a060020a0316906338cc483190604051602001526040518163ffffffff1660e060020a028152600401602060405180830381600087803b1515612ebd57600080fd5b6102c65a03f11515612ece57600080fd5b5050506040518051600154600160a060020a039081169116149050612f715760008054600160a060020a0316906338cc483190604051602001526040518163ffffffff1660e060020a028152600401602060405180830381600087803b1515612f3657600080fd5b6102c65a03f11515612f4757600080fd5b505050604051805160018054600160a060020a031916600160a060020a0392909216919091179055505b600154600160a060020a031663c281d19e6000604051602001526040518163ffffffff1660e060020a028152600401602060405180830381600087803b1515612fb957600080fd5b6102c65a03f11515612fca57600080fd5b505050604051805191505090565b600c8180516120759291602001906138fa565b612ff36138d1565b612ffb6138d1565b6130036138d1565b61300b6138d1565b6130136138d1565b61301b6138d1565b6130236138d1565b61302b6138d1565b6000808e98508d97508c96508b95508a94508451865188518a518c51010101016040518059106130585750595b818152601f19601f83011681016020016040529050935083925060009150600090505b88518110156130d45788818151811061309057fe5b016020015160f860020a900460f860020a028383806001019450815181106130b457fe5b906020010190600160f860020a031916908160001a90535060010161307b565b5060005b8751811015613131578781815181106130ed57fe5b016020015160f860020a900460f860020a0283838060010194508151811061311157fe5b906020010190600160f860020a031916908160001a9053506001016130d8565b5060005b865181101561318e5786818151811061314a57fe5b016020015160f860020a900460f860020a0283838060010194508151811061316e57fe5b906020010190600160f860020a031916908160001a905350600101613135565b5060005b85518110156131eb578581815181106131a757fe5b016020015160f860020a900460f860020a028383806001019450815181106131cb57fe5b906020010190600160f860020a031916908160001a905350600101613192565b5060005b84518110156132485784818151811061320457fe5b016020015160f860020a900460f860020a0283838060010194508151811061322857fe5b906020010190600160f860020a031916908160001a9053506001016131ef565b50909d9c50505050505050505050505050565b6000808080808887116132ec57602087116132b25760018760200360080260020a031980875116888b038a018a96505b8183885116146132a757600187019681901061328b578b8b0196505b5050508394506132f2565b8686209150879350600092505b86890383116132ec5750858320818114156132dc578394506132f2565b60019384019392909201916132bf565b88880194505b50505050949350505050565b6133066138e3565b600061331e855186602001518651876020015161325b565b9050846020015160208085019190915285015181038352845185602001510181141561334d5760008552613364565b835183510185818151039052508351810160208601525b50909392505050565b60005b602082106133935782518452602084019350602083019250602082039150613370565b6001826020036101000a03905080198351168185511617909352505050565b60006133bc6138d1565b5082600080805b8351811015613503577f30000000000000000000000000000000000000000000000000000000000000008482815181106133f957fe5b016020015160f860020a900460f860020a02600160f860020a0319161015801561346a57507f390000000000000000000000000000000000000000000000000000000000000084828151811061344b57fe5b016020015160f860020a900460f860020a02600160f860020a03191611155b156134c05781156134895785151561348157613503565b600019909501945b600a83029250603084828151811061349d57fe5b016020015160f860020a900460f860020a0260f860020a900403830192506134fb565b8381815181106134cc57fe5b016020015160f860020a900460f860020a02600160f860020a031916602e60f860020a0214156134fb57600191505b6001016133c3565b60008611156135155785600a0a830292505b509095945050505050565b3b90565b600080613544731d3b2638a7cc9f2cb3d298a3da7a90b67e5506ed613520565b11156135b45760008054600160a060020a031916731d3b2638a7cc9f2cb3d298a3da7a90b67e5506ed1790556135ac60408051908101604052600b81527f6574685f6d61696e6e6574000000000000000000000000000000000000000000602082015261384a565b50600161093f565b60006135d373c03a2615d5efaf5f49f60b7bb6583eaec212fdf1613520565b111561363b5760008054600160a060020a03191673c03a2615d5efaf5f49f60b7bb6583eaec212fdf11790556135ac60408051908101604052600c81527f6574685f726f707374656e330000000000000000000000000000000000000000602082015261384a565b600061365a73b7a07bcf2ba2f2703b24c0691b5278999c59ac7e613520565b11156136c25760008054600160a060020a03191673b7a07bcf2ba2f2703b24c0691b5278999c59ac7e1790556135ac60408051908101604052600981527f6574685f6b6f76616e0000000000000000000000000000000000000000000000602082015261384a565b60006136e173146500cfd35b22e4a392fe0adc06de1a1368ed48613520565b11156137495760008054600160a060020a03191673146500cfd35b22e4a392fe0adc06de1a1368ed481790556135ac60408051908101604052600b81527f6574685f72696e6b656279000000000000000000000000000000000000000000602082015261384a565b6000613768736f485c8bf6fc43ea212e93bbf8ce046c7f1cb475613520565b111561379c575060008054600160a060020a031916736f485c8bf6fc43ea212e93bbf8ce046c7f1cb475179055600161093f565b60006137bb7320e12a1f859b3feae5fb2a0a32c18f5a65555bbf613520565b11156137ef575060008054600160a060020a0319167320e12a1f859b3feae5fb2a0a32c18f5a65555bbf179055600161093f565b600061380e7351efaf4c8b3c9afbd5ab9f4bbc82784ab6ef8faa613520565b1115613842575060008054600160a060020a0319167351efaf4c8b3c9afbd5ab9f4bbc82784ab6ef8faa179055600161093f565b506000919050565b60028180516120759291602001906138fa565b6101006040519081016040526008815b60008152600019909101906020018161386d5790505090565b8154818355818115116117bc576000838152602090206117bc9181019083016139a8565b61014060405190810160409081526000808352602083015281016138cc61385d565b905290565b60206040519081016040526000815290565b604080519081016040526000808252602082015290565b828054600181600116156101000203166002900490600052602060002090601f016020900481019282601f1061393b57805160ff1916838001178555613968565b82800160010185558215613968579182015b8281111561396857825182559160200191906001019061394d565b506139749291506139a8565b5090565b8154818355818115116117bc57600f016010900481600f016010900483600052602060002091820191016117bc91905b611af891905b8082111561397457600081556001016139ae5600a165627a7a723058203bc6aecf23a0b41a2a550c0b90ce1e790bd152ace2fe9d481356109714f9fba30029",
  "source": "pragma solidity 0.4.18;\n\nimport \"./lib/oraclize/oraclizeAPI_0.4.sol\";\nimport \"./lib/arachnid/solidity-stringutils/strings.sol\";\n\ncontract PgaDfs is usingOraclize {\n\n  using strings for *;\n\n  struct SlateGolfer {\n    // not storing name,\n    // since we're trying to be minimal with data storage\n    // on ethereum's bloated ass blockchain.\n\n    // increments in 1\n    // salaries are roughly DK salaries / $500\n    // and can be negative!\n    int8 salary;\n\n    // fantasy points at end of tournament\n    int8 points;\n  }\n\n\n  struct Lineup {\n    bool submittedHash;  // true when saved\n    // keccak hash of lineup before revealing\n    // e.g. keccak256(\"21059:94320:85933\")\n    bytes32 golferIdsHash;\n    // MAX of 8 pga tour ids...\n    // you can play less than 8 guys if you want!\n    // e.g. [web3.fromAscii(\"21059\"), web3.fromAscii(\"94320\"), web3.fromAscii(\"85933\")]\n    uint16[8] golferIds;\n  }\n\n  struct Contest {\n    address owner; // creator of contest\n\n    uint entryFee; // TODO(christian): what units? wei?\n    uint prizePool; // TODO: delete\n    // all money in contest balance, payable to winners\n    mapping (bytes12 => uint) slateIdToPrizePool;\n\n    // yay or nay, is this an active contest\n    // must be not live to delete contest\n    bool live;\n\n    // have we calculated the address balances after contest is over?\n    mapping (bytes12 => bool) slateIdToPayoutsSet;\n\n    // map ETH address --> lineup in contest\n    mapping (bytes12 => address[]) slateIdToEntries;\n\n    mapping (bytes12 => mapping(address => bool)) slateIdToEntered;\n    mapping (bytes12 => mapping(address => int16)) slateIdToAddressScores;\n\n    // ETH address --> how much they recouped\n    // once we confirmed the event ends, then payout!\n    mapping(address => uint) balances;\n  }\n\n\n  event newOraclizeQuery(string description);\n\n  // this is the initializer of the contract\n  // who gets special privaledges:\n  // (1) if oraclize fucks up, you set scores manually\n  // (2) you can spend the extraEther in the contract\n  address public contractAdmin;\n  uint private extraEther;\n  uint private minBal;\n\n  // status (bool): is this oraclize query complete or not?\n  mapping(bytes32 => string) queryIdToCallbackAction;\n\n  // this is the CONSTRUCTOR!\n  // we must initialize the lubrication amount\n  // with the miniumum balance, which can never be recovered\n  function PgaDfs() public payable {\n    require(msg.value >= minBal);\n    // in the constructor (this function), msg.sender is\n    // the owner of the contract\n    contractAdmin = msg.sender;\n    extraEther = msg.value;\n\n    // OAR for ethereum-bridge\n    OAR = OraclizeAddrResolverI(0x15Ce83f7B43082C21deB5bEDd004e2F683B45392);\n    // TODO: tinker with this gas value\n    /* oraclize_setCustomGasPrice(1000000000 wei); */\n\n    // execute a dummy transcaction to make fee estimation\n    // work by burning the free transaction\n    /* oraclize_query(\"URL\", \"json(http://api.fixer.io/latest?symbols=USD,GBP).rates.GBP\"); */\n  }\n\n\n  // N.B. FROM CRYPTO RIC:\n  // if we want to fund money into the \"lubrication account\"\n  // this will allow the contract to function if the price\n  // of ether falls dramatically between querires\n  // and, as a result, because the query fee is charged in USD,\n  // the fee for subsequent queries goes up\n  // this should average out over time,\n  // we charge a small fee to make sure it more likely going up\n  // this fee, over the course of 400 wagers,\n  // should offset the irrecovable minimum balance\n  function deposit() payable external {\n    extraEther += msg.value;\n  }\n\n  // CRYPTO RIC:\n  // if we want to withdraw money from the lubrication account\n  // we can only draw from the extraEther gained,\n  // so as to protect and wall off funds from active wagers\n  // we must leave a minBal of .1 ether to serve as lubrication\n  // this protects people with wagers from us withdrawing\n  // all the lubrication while they have bets in, which\n  // would make them have the potential to fail\n  function withdraw() external {\n    require(msg.sender == contractAdmin);\n\n    if (extraEther - minBal > 0) {\n      contractAdmin.transfer(extraEther - minBal);\n      extraEther = minBal;\n    }\n  }\n\n  // active slate id to key slate/lineup mappings\n  bytes12 slateId;\n  mapping (bytes12 => uint) slateIdToLockTimestamp;\n\n  // format: \"{pgaId}:{salary}\"\n  // example: \"34360:1522955700:15 32102:1522963620:-2\" <-- salaries can be negative!\n  string compressedSalariesUrl = \"\"; // e.g. \"https://s3.amazonaws.com/ethdfs/pga/compressedSalaries/2018/471.json\";\n\n  // format: \"{pgaId}:{rd1}-{rd2}-{rd3}-{rd4}\"\n  // example: \"34360:69-66-67-71 32102:70-72-65-67\"\n  string compressedScoresUrl = \"\"; // e.g. \"https://s3.amazonaws.com/ethdfs/pga/compressedScores/2018/471.json\";\n\n\n  // slate id ==> golfer ids\n  // NOTE: uint16 for golfer ids is really fucking pushing it,\n  // as PGA tour is on ID's around 55k or so.\n  // the max uint8 number is 65,535. lol\n  mapping (bytes12 => uint16[]) slateIdToGolferIds;\n  // slate id ==> pga tour id ==> golfer data (salary, scores, etc.)\n  mapping (bytes12 => mapping(uint16 => SlateGolfer)) slateIdToSlateGolfers;\n  mapping (bytes12 => address[]) slateIdToEnteredAddresses;\n  mapping (bytes12 => mapping (address => Lineup)) slateIdToLineups;\n\n  // contest data\n  bytes32[] contestIds;\n  mapping(bytes32 => Contest) contests;\n\n  // salary cap is 100\n  // salaries are integers and CAN BE NEGATIVE\n  // think mike weir\n  int salaryCap = 100;\n\n  // rake is 2.0% or 20/1000\n  uint rakeTimesOneThousand = 20;\n\n  // is scoring complete for the current slate\n  mapping (bytes12 => bool) slateIdToCompleteScoring;\n\n  function setLineupHash(bytes32 lineupHash) public {\n    // can't change lineup hash after lock\n    require(block.timestamp <= slateIdToLockTimestamp[slateId]);\n    Lineup storage theLineup = slateIdToLineups[slateId][msg.sender];\n    if (!theLineup.submittedHash) {\n        // don't push duped addresses if they already have a lineup\n        slateIdToEnteredAddresses[slateId].push(msg.sender);\n    }\n    theLineup.golferIdsHash = lineupHash;\n    theLineup.submittedHash = true;\n  }\n\n  // returns: Lineup.golferIdsHash\n  function getLineupHash(address entrantAddress) public view returns (bytes32) {\n    return slateIdToLineups[slateId][entrantAddress].golferIdsHash;\n  }\n\n  function getEnteredAddressesForCurrentSlate() public view returns (address[]) {\n      return slateIdToEnteredAddresses[slateId];\n  }\n\n  function getCurrentSlateLineupForAddress(address address_) public view returns (bytes32, uint16[8]) {\n      Lineup memory theLineup = slateIdToLineups[slateId][address_];\n      return (theLineup.golferIdsHash, theLineup.golferIds);\n  }\n\n  function getSlateId() public view returns (bytes12) {\n    return slateId;\n  }\n\n  function getSalary(uint16 pgaId) public view returns (int8) {\n    return slateIdToSlateGolfers[slateId][pgaId].salary;\n  }\n\n  function getPoints(uint16 pgaId) public view returns (int8) {\n    return slateIdToSlateGolfers[slateId][pgaId].points;\n  }\n\n  // lineups must:\n  // have 8 or less players\n  // total salary must be <= salary cap\n  // can only play the same guy once\n  function revealLineup(string golferIdsColonDelimited, string revealKey) public returns (int16) {\n    require(slateIdToLineups[slateId][msg.sender].golferIdsHash == keccak256(strConcat(golferIdsColonDelimited, \"|\", revealKey)));\n\n    var golferIds = new uint16[](8);\n\n    var golferIdsSlice = golferIdsColonDelimited.toSlice();\n    var delimiter = \":\".toSlice();\n    uint256 golferCount = golferIdsSlice.count(delimiter) + 1;\n\n    // must have 8 or less players\n    require(golferCount <= 8);\n\n    // and salary must be under cap\n    int16 totalSalary = 0;\n\n    for (uint8 ii = 0; ii < golferCount; ii++) {\n      // string  --> left padded bytes32\n      // \"29725\" --> \"0x3239373235000000000000000000000000000000000000000000000000000000\"\n      // replicate this with web3.fromAscii('29725')\n      uint16 golferId = uint16(parseInt(golferIdsSlice.split(delimiter).toString()));\n\n      for (uint8 jj = 0; jj < ii; jj++) {\n        require(golferId != golferIds[jj]);\n      }\n      golferIds[ii] = golferId;\n      totalSalary += slateIdToSlateGolfers[slateId][golferId].salary;\n    }\n\n    require(totalSalary <= salaryCap);\n\n    for (ii = 0; ii < golferIds.length; ii++) {\n      slateIdToLineups[slateId][msg.sender].golferIds[ii] = golferIds[ii];\n    }\n  }\n\n  function calculateRake(uint wei_) public view returns (uint) {\n    return (wei_ * rakeTimesOneThousand) / 1000;\n  }\n\n  function createContest(bytes32 contestId) public payable {\n    // contest id cannot be taken already\n    require(!contests[contestId].live);\n    // contest owner must first have lineup hash on chain\n    require(slateIdToLineups[slateId][msg.sender].submittedHash);\n\n    contestIds.push(contestId);\n    contests[contestId] = Contest({\n      owner : msg.sender,\n      // entry fee is AUTOMATICALLY calculated by how much the owner deposits\n      entryFee : msg.value - calculateRake(msg.value),\n      prizePool: 0, // updated in payEntryFeeToContest below\n      live : true\n    });\n    payEntryFeeToContest(contestId, msg.sender, msg.value);\n  }\n\n  function enterContest(bytes32 contestId) public payable {\n    // to enter contest, user must have lineup hash on chain\n    Lineup memory entrantLineup = slateIdToLineups[slateId][msg.sender];\n    require(entrantLineup.submittedHash);\n    payEntryFeeToContest(contestId, msg.sender, msg.value);\n  }\n\n  function payEntryFeeToContest(bytes32 contestId, address msgSender, uint ethEntered) public payable {\n\n    Contest storage activeContest = contests[contestId];\n    // if they not are already in the contest, pay rake and enter\n    require(!activeContest.slateIdToEntered[slateId][msgSender]);\n\n    uint rakeToCollect = calculateRake(ethEntered);\n\n    require(ethEntered >= activeContest.entryFee + rakeToCollect);\n\n    activeContest.prizePool += activeContest.entryFee;\n    extraEther += rakeToCollect;\n    // if someone sends us extra money,\n    // it goes their balance for the contest\n    // and by default they can get paid out at the end\n    // otherwise they can withdraw\n    activeContest.balances[msgSender] += ethEntered - activeContest.entryFee - rakeToCollect;\n    activeContest.slateIdToEntries[slateId].push(msgSender);\n    activeContest.slateIdToEntered[slateId][msgSender] = true;\n  }\n\n  function setSalaries(string compressedSalaries) public {\n      require(msg.sender == contractAdmin);\n      // TODO: make internal / only contractAdmin\n      slateIdToCompleteScoring[slateId] = false;\n\n      var compressedSalariesSlice = compressedSalaries.toSlice();\n      var playerDelimiter = \" \".toSlice();\n      var salaryDelimiter = \":\".toSlice();\n      uint playerCount = compressedSalariesSlice.count(playerDelimiter) + 1;\n\n      for (uint8 ii = 0; ii < playerCount; ii++) {\n          var playerColonSalary = compressedSalariesSlice.split(playerDelimiter);\n\n          uint16 pgaPlayerId = uint16(parseInt(playerColonSalary.split(salaryDelimiter).toString()));\n\n          int8 salary = int8(parseInt(playerColonSalary.toString()));\n\n          slateIdToGolferIds[slateId].push(pgaPlayerId);\n          SlateGolfer storage slateGolfer = slateIdToSlateGolfers[slateId][pgaPlayerId];\n          slateGolfer.salary = salary;\n      }\n  }\n\n  function setScores(string compressedScores) public {\n    // TODO: make internal / only contractAdmin\n    // TODO: really make sure this works\n    // TODO: difference between var and normal types?\n    require(!slateIdToCompleteScoring[slateId]);\n\n    var compressedScoresSlice = compressedScores.toSlice();\n    var playerDelimiter = \" \".toSlice();\n    var playerScoreSlices = new strings.slice[](compressedScoresSlice.count(playerDelimiter) + 1);\n\n    for (uint16 i = 0; i < playerScoreSlices.length; i++) {\n      playerScoreSlices[i] = compressedScoresSlice.split(playerDelimiter);\n      uint16 pgaPlayerId = uint16(parseInt(playerScoreSlices[i].split(\":\".toSlice()).toString()));\n      slateIdToSlateGolfers[slateId][pgaPlayerId].points = int8(parseInt(playerScoreSlices[i].toString()));\n    }\n    slateIdToCompleteScoring[slateId] = true;\n  }\n\n  function setSingleContestPayouts(bytes32 contestId) public {\n    // everyone who scores > max(0, the contest average) gets paid\n    // you are paid proportional to your squared score\n    require(slateIdToCompleteScoring[slateId]);\n\n    Contest storage contest = contests[contestId];\n    require(contest.live);\n    require(!contest.slateIdToPayoutsSet[slateId]);\n\n    uint16 totalEntries = uint16(contest.slateIdToEntries[slateId].length);\n    int totalPoints = 0;\n\n    // calculate the average score in the contest\n    for (uint8 ii = 0; ii < totalEntries; ii++) {\n      address entry = contest.slateIdToEntries[slateId][ii];\n      uint16[8] memory entryPgaIds = slateIdToLineups[slateId][entry].golferIds;\n      for (uint8 g = 0; g < entryPgaIds.length; g++) {\n        contest.slateIdToAddressScores[slateId][entry] += slateIdToSlateGolfers[slateId][entryPgaIds[g]].points;\n      }\n      totalPoints += contest.slateIdToAddressScores[slateId][entry];\n    }\n\n    // of the top half (except any of those that scored < 0),\n    // sum up the squared scores\n    int averagePointsRoundedDown = totalPoints / totalEntries;\n    // ugh... only using storage since memory isnt dynamic\n    address[] storage winningEntries;\n    uint summedSquaredWinningScores = 0;\n\n    for (ii = 0; ii < totalEntries; ii++) {\n      entry = contest.slateIdToEntries[slateId][ii];\n      if (contest.slateIdToAddressScores[slateId][entry] >= averagePointsRoundedDown && contest.slateIdToAddressScores[slateId][entry] >= 0) {\n        uint squaredScore = uint(contest.slateIdToAddressScores[slateId][entry] * contest.slateIdToAddressScores[slateId][entry]);\n        winningEntries.push(entry);\n        summedSquaredWinningScores += squaredScore;\n      }\n    }\n\n    // then pay out people proportional to squared points\n    for (ii = 0; ii < winningEntries.length; ii++) {\n      entry = winningEntries[ii];\n      // TODO: make sure there's no rounding error B.S. going on\n      // that makes us massively over or under pay people\n      squaredScore = uint(contest.slateIdToAddressScores[slateId][entry] * contest.slateIdToAddressScores[slateId][entry]);\n      uint toPayout = (contest.prizePool * squaredScore) / summedSquaredWinningScores;\n      contest.balances[entry] += toPayout;\n    }\n\n    contest.slateIdToPayoutsSet[slateId] = true;\n  }\n\n  function withdrawBalanceFromContest(bytes32 contestId) public {\n    Contest storage contest = contests[contestId];\n    if (contest.balances[msg.sender] > 0) {\n      msg.sender.transfer(contest.balances[msg.sender]);\n      contest.balances[msg.sender] = 0;\n    }\n  }\n\n  function payOutContest(bytes32 contestId) public {\n    require(slateIdToCompleteScoring[slateId]);\n\n    Contest storage contest = contests[contestId];\n    require(contest.slateIdToPayoutsSet[slateId]);\n    require(contest.live);\n\n    for (uint ii = 0; ii < contest.slateIdToEntries[slateId].length; ii++) {\n      address entry = contest.slateIdToEntries[slateId][ii];\n      if (contest.balances[entry] > 0) {\n        entry.transfer(contest.balances[entry]);\n        contest.balances[msg.sender] = 0;\n      }\n    }\n    contest.live = false;\n  }\n\n  function _setCompressedScoresUrl(string _compressedScoresUrl) internal {\n    compressedScoresUrl = _compressedScoresUrl;\n  }\n\n  function _setCompressedSalariesUrl(string _compressedSalariesUrl) internal {\n    compressedSalariesUrl = _compressedSalariesUrl;\n  }\n\n  function getSalariesOnChain() public payable {\n    innerOraclizeQuery(compressedSalariesUrl, \"Salaries\");\n  }\n\n  function getScoresOnChain() public payable {\n    innerOraclizeQuery(compressedScoresUrl, \"Scores\");\n  }\n\n  function setScoresUrlAndGetResultsOnChain(string compressedScoresUrl_) public {\n      require(msg.sender == contractAdmin);\n      _setCompressedScoresUrl(compressedScoresUrl_);\n      getScoresOnChain();\n  }\n\n  function setSalariesUrlAndGetSalariesOnChain(string compressedSalariesUrl_) public {\n      require(msg.sender == contractAdmin);\n      _setCompressedSalariesUrl(compressedSalariesUrl_);\n      getSalariesOnChain();\n  }\n\n  function setNewSlateInfo(\n    bytes12 _newSlateId,\n    string _compressedSalariesUrl,\n    string _compressedScoresUrl,\n    uint lockTimestamp\n  ) public {\n    require(msg.sender == contractAdmin);\n    slateId = _newSlateId;\n    slateIdToLockTimestamp[slateId] = lockTimestamp;\n    _setCompressedScoresUrl(_compressedScoresUrl);\n    _setCompressedSalariesUrl(_compressedSalariesUrl);\n  }\n\n  // ========================= ORACLIZE functions =========================\n\n\n  function innerOraclizeQuery(string queryUrl, string callbackAction) public payable {\n    // TODO: make these views\n    uint cost = 2400000000000000 + (oraclize_getPrice(\"URL\") * 3);\n    uint fee = 100000000000000;\n\n    if (msg.value < cost + fee) {\n      newOraclizeQuery(\"Oraclize query failed. Send more ETH (.0025ETH in gas + $.03 per query\");\n      msg.sender.transfer(msg.value);\n    } else {\n      extraEther += msg.value - cost;\n      newOraclizeQuery(\"Oraclize queries were sent, standing by for the answer.\");\n      bytes32 queryId = oraclize_query(\n        \"URL\",\n        strConcat(\"json(\", queryUrl, \").compressedScores\"),\n        600000\n      );\n      queryIdToCallbackAction[queryId] = callbackAction;\n    }\n  }\n\n  // switch function for callbacks\n  function __callback(bytes32 myid, string result) public {\n    require(msg.sender == oraclize_cbAddress());\n    // can't compare string storage pointers and string literals,\n    // so instead let's compare their keccak256 hashes!\n    bytes32 actionHash = keccak256(queryIdToCallbackAction[myid]);\n    if (actionHash == keccak256(\"Salaries\")) {\n      setSalaries(result);\n    }\n    if (actionHash == keccak256(\"Scores\")) {\n      setScores(result);\n    }\n  }\n\n  // CRYPTO RIC:\n  // should anyone wish to be a good blockchain citizen\n  // and delete a wager that is no longer live\n  function deleteContest(bytes32 contestId) external {\n    require(!contests[contestId].live);\n    // can't delete someone else's contest\n    require(msg.sender == contests[contestId].owner);\n    delete contests[contestId];\n  }\n\n  function getLiveContestIds() public view returns (bytes32[]) {\n    /* bytes32[] memory liveContestIds;  // why must use storage?\n    uint jj = 0;\n    for (uint ii = 0; ii < contestIds.length; ii++) {\n      bytes32 contestId = contestIds[ii];\n      if (contests[contestId].live) {\n        liveContestIds[jj] = contestId;\n        jj += 1;\n      }\n    } */\n    return contestIds;\n  }\n\n  function getContestById(bytes32 contestId) public view returns (\n      bytes32,\n      uint,\n      uint,\n      address\n    ) {\n      Contest storage contest = contests[contestId];\n      return (\n          contestId,\n          contest.entryFee,\n          contest.slateIdToEntries[slateId].length,\n          contest.owner\n        );\n    }\n\n  function getGolferIdsOnSlate(bytes12 slateId_) public view returns (uint16[]) {\n    return slateIdToGolferIds[slateId_];\n  }\n\n  function testFunction() public view returns (string) {\n    return 'test';\n  }\n}\n",
  "sourcePath": "/Users/christian/workspace/ddfs/contracts/PgaDfs.sol",
  "compiler": {
    "name": "solc",
    "version": "0.4.18+commit.9cf6e910.Emscripten.clang"
  },
  "schemaVersion": "2.0.0",
  "updatedAt": "2018-10-06T11:12:01.538Z"
}