{
  "contractName": "PgaDfs",
  "abi": [
    {
      "constant": true,
      "inputs": [],
      "name": "contractAdmin",
      "outputs": [
        {
          "name": "",
          "type": "address"
        }
      ],
      "payable": false,
      "stateMutability": "view",
      "type": "function"
    },
    {
      "inputs": [],
      "payable": true,
      "stateMutability": "payable",
      "type": "constructor"
    },
    {
      "anonymous": false,
      "inputs": [
        {
          "indexed": false,
          "name": "description",
          "type": "string"
        }
      ],
      "name": "newOraclizeQuery",
      "type": "event"
    },
    {
      "constant": false,
      "inputs": [],
      "name": "deposit",
      "outputs": [],
      "payable": true,
      "stateMutability": "payable",
      "type": "function"
    },
    {
      "constant": false,
      "inputs": [],
      "name": "withdraw",
      "outputs": [],
      "payable": false,
      "stateMutability": "nonpayable",
      "type": "function"
    },
    {
      "constant": true,
      "inputs": [
        {
          "name": "proposedGolferIds",
          "type": "bytes6[8]"
        }
      ],
      "name": "isValidLineup",
      "outputs": [
        {
          "name": "",
          "type": "bool"
        }
      ],
      "payable": false,
      "stateMutability": "view",
      "type": "function"
    },
    {
      "constant": false,
      "inputs": [
        {
          "name": "contestId",
          "type": "string"
        },
        {
          "name": "proposedGolferIds",
          "type": "bytes6[8]"
        },
        {
          "name": "lineupAddress",
          "type": "address"
        }
      ],
      "name": "setAlreadyValidatedLineup",
      "outputs": [],
      "payable": false,
      "stateMutability": "nonpayable",
      "type": "function"
    },
    {
      "constant": true,
      "inputs": [
        {
          "name": "contestId",
          "type": "string"
        },
        {
          "name": "proposedNewOwner",
          "type": "address"
        }
      ],
      "name": "isNewContestValid",
      "outputs": [
        {
          "name": "",
          "type": "bool"
        }
      ],
      "payable": false,
      "stateMutability": "view",
      "type": "function"
    },
    {
      "constant": true,
      "inputs": [
        {
          "name": "eth",
          "type": "uint256"
        }
      ],
      "name": "calculateRake",
      "outputs": [
        {
          "name": "",
          "type": "uint256"
        }
      ],
      "payable": false,
      "stateMutability": "view",
      "type": "function"
    },
    {
      "constant": false,
      "inputs": [
        {
          "name": "contestId",
          "type": "string"
        },
        {
          "name": "proposedGolferIds",
          "type": "bytes6[8]"
        }
      ],
      "name": "createContest",
      "outputs": [],
      "payable": true,
      "stateMutability": "payable",
      "type": "function"
    },
    {
      "constant": false,
      "inputs": [
        {
          "name": "contestId",
          "type": "string"
        },
        {
          "name": "proposedGolferIds",
          "type": "bytes6[8]"
        }
      ],
      "name": "enterContest",
      "outputs": [],
      "payable": true,
      "stateMutability": "payable",
      "type": "function"
    },
    {
      "constant": false,
      "inputs": [
        {
          "name": "contestId",
          "type": "string"
        },
        {
          "name": "proposedGolferIds",
          "type": "bytes6[8]"
        }
      ],
      "name": "editLineupInContest",
      "outputs": [],
      "payable": false,
      "stateMutability": "nonpayable",
      "type": "function"
    },
    {
      "constant": false,
      "inputs": [
        {
          "name": "contestId",
          "type": "string"
        },
        {
          "name": "msgSender",
          "type": "address"
        },
        {
          "name": "ethEntered",
          "type": "uint256"
        }
      ],
      "name": "payEntryFeeToContest",
      "outputs": [],
      "payable": true,
      "stateMutability": "payable",
      "type": "function"
    },
    {
      "constant": false,
      "inputs": [
        {
          "name": "source",
          "type": "string"
        }
      ],
      "name": "toBytes6",
      "outputs": [
        {
          "name": "result",
          "type": "bytes6"
        }
      ],
      "payable": false,
      "stateMutability": "nonpayable",
      "type": "function"
    },
    {
      "constant": false,
      "inputs": [
        {
          "name": "compressedSalaries",
          "type": "string"
        }
      ],
      "name": "setSalaries",
      "outputs": [],
      "payable": false,
      "stateMutability": "nonpayable",
      "type": "function"
    },
    {
      "constant": false,
      "inputs": [
        {
          "name": "compressedScores",
          "type": "string"
        }
      ],
      "name": "setScores",
      "outputs": [],
      "payable": false,
      "stateMutability": "nonpayable",
      "type": "function"
    },
    {
      "constant": false,
      "inputs": [
        {
          "name": "contestId",
          "type": "string"
        }
      ],
      "name": "setSingleContestPayouts",
      "outputs": [],
      "payable": false,
      "stateMutability": "nonpayable",
      "type": "function"
    },
    {
      "constant": false,
      "inputs": [
        {
          "name": "contestId",
          "type": "string"
        }
      ],
      "name": "withdrawBalanceFromContest",
      "outputs": [],
      "payable": false,
      "stateMutability": "nonpayable",
      "type": "function"
    },
    {
      "constant": false,
      "inputs": [
        {
          "name": "contestId",
          "type": "string"
        }
      ],
      "name": "payOutContest",
      "outputs": [],
      "payable": false,
      "stateMutability": "nonpayable",
      "type": "function"
    },
    {
      "constant": false,
      "inputs": [
        {
          "name": "compressedScoresUrl_",
          "type": "string"
        }
      ],
      "name": "setScoresUrlAndGetResultsOnChain",
      "outputs": [],
      "payable": false,
      "stateMutability": "nonpayable",
      "type": "function"
    },
    {
      "constant": false,
      "inputs": [
        {
          "name": "compressedSalariesUrl_",
          "type": "string"
        }
      ],
      "name": "setSalariesUrlAndGetSalariesOnChain",
      "outputs": [],
      "payable": false,
      "stateMutability": "nonpayable",
      "type": "function"
    },
    {
      "constant": false,
      "inputs": [
        {
          "name": "compressedScoresUrl_",
          "type": "string"
        }
      ],
      "name": "setCompressedScoresUrl",
      "outputs": [],
      "payable": false,
      "stateMutability": "nonpayable",
      "type": "function"
    },
    {
      "constant": false,
      "inputs": [
        {
          "name": "compressedSalariesUrl_",
          "type": "string"
        }
      ],
      "name": "setcompressedSalariesUrl",
      "outputs": [],
      "payable": false,
      "stateMutability": "nonpayable",
      "type": "function"
    },
    {
      "constant": false,
      "inputs": [],
      "name": "getSalariesOnChain",
      "outputs": [],
      "payable": true,
      "stateMutability": "payable",
      "type": "function"
    },
    {
      "constant": false,
      "inputs": [],
      "name": "getScoresOnChain",
      "outputs": [],
      "payable": true,
      "stateMutability": "payable",
      "type": "function"
    },
    {
      "constant": false,
      "inputs": [
        {
          "name": "queryUrl",
          "type": "string"
        },
        {
          "name": "callbackAction",
          "type": "string"
        }
      ],
      "name": "innerOraclizeQuery",
      "outputs": [],
      "payable": true,
      "stateMutability": "payable",
      "type": "function"
    },
    {
      "constant": false,
      "inputs": [
        {
          "name": "myid",
          "type": "bytes32"
        },
        {
          "name": "result",
          "type": "string"
        }
      ],
      "name": "__callback",
      "outputs": [],
      "payable": false,
      "stateMutability": "nonpayable",
      "type": "function"
    },
    {
      "constant": false,
      "inputs": [
        {
          "name": "myid",
          "type": "bytes32"
        },
        {
          "name": "result",
          "type": "string"
        },
        {
          "name": "proof",
          "type": "bytes"
        }
      ],
      "name": "__callback",
      "outputs": [],
      "payable": false,
      "stateMutability": "nonpayable",
      "type": "function"
    },
    {
      "constant": false,
      "inputs": [
        {
          "name": "contestId",
          "type": "string"
        }
      ],
      "name": "deleteContest",
      "outputs": [],
      "payable": false,
      "stateMutability": "nonpayable",
      "type": "function"
    },
    {
      "constant": true,
      "inputs": [
        {
          "name": "contestId",
          "type": "string"
        }
      ],
      "name": "getContestIsLive",
      "outputs": [
        {
          "name": "",
          "type": "bool"
        }
      ],
      "payable": false,
      "stateMutability": "view",
      "type": "function"
    }
  ],
  "bytecode": "0x60606040526064600d556014600e556020604051908101604052806000815250601090805190602001906200003692919062001068565b506020604051908101604052806000815250601190805190602001906200005f92919062001068565b5060075434101515156200007257600080fd5b33600560006101000a81548173ffffffffffffffffffffffffffffffffffffffff021916908373ffffffffffffffffffffffffffffffffffffffff16021790555034600681905550736f485c8bf6fc43ea212e93bbf8ce046c7f1cb4756000806101000a81548173ffffffffffffffffffffffffffffffffffffffff021916908373ffffffffffffffffffffffffffffffffffffffff16021790555062000131633b9aca00620001e964010000000002620051da176401000000009004565b620001e26040805190810160405280600381526020017f55524c0000000000000000000000000000000000000000000000000000000000815250606060405190810160405280603a81526020017f6a736f6e28687474703a2f2f6170692e66697865722e696f2f6c61746573743f81526020017f73796d626f6c733d5553442c474250292e72617465732e4742500000000000008152506200052c64010000000002620054e8176401000000009004565b5062001117565b60008060009054906101000a900473ffffffffffffffffffffffffffffffffffffffff1673ffffffffffffffffffffffffffffffffffffffff1614806200026f575060006200026d6000809054906101000a900473ffffffffffffffffffffffffffffffffffffffff1662000ab06401000000000262003fc8176401000000009004565b145b15620002975762000295600062000abb6401000000000262003fd3176401000000009004565b505b6000809054906101000a900473ffffffffffffffffffffffffffffffffffffffff1673ffffffffffffffffffffffffffffffffffffffff166338cc48316000604051602001526040518163ffffffff167c0100000000000000000000000000000000000000000000000000000000028152600401602060405180830381600087803b15156200032557600080fd5b6102c65a03f115156200033757600080fd5b5050506040518051905073ffffffffffffffffffffffffffffffffffffffff16600160009054906101000a900473ffffffffffffffffffffffffffffffffffffffff1673ffffffffffffffffffffffffffffffffffffffff1614151562000483576000809054906101000a900473ffffffffffffffffffffffffffffffffffffffff1673ffffffffffffffffffffffffffffffffffffffff166338cc48316000604051602001526040518163ffffffff167c0100000000000000000000000000000000000000000000000000000000028152600401602060405180830381600087803b15156200042657600080fd5b6102c65a03f115156200043857600080fd5b50505060405180519050600160006101000a81548173ffffffffffffffffffffffffffffffffffffffff021916908373ffffffffffffffffffffffffffffffffffffffff1602179055505b600160009054906101000a900473ffffffffffffffffffffffffffffffffffffffff1673ffffffffffffffffffffffffffffffffffffffff1663ca6ad1e4826040518263ffffffff167c010000000000000000000000000000000000000000000000000000000002815260040180828152602001915050600060405180830381600087803b15156200051457600080fd5b6102c65a03f115156200052657600080fd5b50505050565b60008060008060009054906101000a900473ffffffffffffffffffffffffffffffffffffffff1673ffffffffffffffffffffffffffffffffffffffff161480620005b557506000620005b36000809054906101000a900473ffffffffffffffffffffffffffffffffffffffff1662000ab06401000000000262003fc8176401000000009004565b145b15620005dd57620005db600062000abb6401000000000262003fd3176401000000009004565b505b6000809054906101000a900473ffffffffffffffffffffffffffffffffffffffff1673ffffffffffffffffffffffffffffffffffffffff166338cc48316000604051602001526040518163ffffffff167c0100000000000000000000000000000000000000000000000000000000028152600401602060405180830381600087803b15156200066b57600080fd5b6102c65a03f115156200067d57600080fd5b5050506040518051905073ffffffffffffffffffffffffffffffffffffffff16600160009054906101000a900473ffffffffffffffffffffffffffffffffffffffff1673ffffffffffffffffffffffffffffffffffffffff16141515620007c9576000809054906101000a900473ffffffffffffffffffffffffffffffffffffffff1673ffffffffffffffffffffffffffffffffffffffff166338cc48316000604051602001526040518163ffffffff167c0100000000000000000000000000000000000000000000000000000000028152600401602060405180830381600087803b15156200076c57600080fd5b6102c65a03f115156200077e57600080fd5b50505060405180519050600160006101000a81548173ffffffffffffffffffffffffffffffffffffffff021916908373ffffffffffffffffffffffffffffffffffffffff1602179055505b600160009054906101000a900473ffffffffffffffffffffffffffffffffffffffff1673ffffffffffffffffffffffffffffffffffffffff1663524f3889856000604051602001526040518263ffffffff167c01000000000000000000000000000000000000000000000000000000000281526004018080602001828103825283818151815260200191508051906020019080838360005b838110156200087e57808201518184015260208101905062000861565b50505050905090810190601f168015620008ac5780820380516001836020036101000a031916815260200191505b5092505050602060405180830381600087803b1515620008cb57600080fd5b6102c65a03f11515620008dd57600080fd5b50505060405180519050905062030d403a02670de0b6b3a7640000018111156200090e576000600102915062000aa9565b600160009054906101000a900473ffffffffffffffffffffffffffffffffffffffff1673ffffffffffffffffffffffffffffffffffffffff1663adf59f9982600087876000604051602001526040518563ffffffff167c0100000000000000000000000000000000000000000000000000000000028152600401808481526020018060200180602001838103835285818151815260200191508051906020019080838360005b83811015620009d1578082015181840152602081019050620009b4565b50505050905090810190601f168015620009ff5780820380516001836020036101000a031916815260200191505b50838103825284818151815260200191508051906020019080838360005b8381101562000a3a57808201518184015260208101905062000a1d565b50505050905090810190601f16801562000a685780820380516001836020036101000a031916815260200191505b50955050505050506020604051808303818588803b151562000a8957600080fd5b6125ee5a03f1151562000a9b57600080fd5b505050506040518051905091505b5092915050565b6000813b9050919050565b60008062000af1731d3b2638a7cc9f2cb3d298a3da7a90b67e5506ed62000ab06401000000000262003fc8176401000000009004565b111562000baa57731d3b2638a7cc9f2cb3d298a3da7a90b67e5506ed6000806101000a81548173ffffffffffffffffffffffffffffffffffffffff021916908373ffffffffffffffffffffffffffffffffffffffff16021790555062000ba06040805190810160405280600b81526020017f6574685f6d61696e6e65740000000000000000000000000000000000000000008152506200104c6401000000000262004d3b176401000000009004565b6001905062001047565b600062000bdf73c03a2615d5efaf5f49f60b7bb6583eaec212fdf162000ab06401000000000262003fc8176401000000009004565b111562000c985773c03a2615d5efaf5f49f60b7bb6583eaec212fdf16000806101000a81548173ffffffffffffffffffffffffffffffffffffffff021916908373ffffffffffffffffffffffffffffffffffffffff16021790555062000c8e6040805190810160405280600c81526020017f6574685f726f707374656e3300000000000000000000000000000000000000008152506200104c6401000000000262004d3b176401000000009004565b6001905062001047565b600062000ccd73b7a07bcf2ba2f2703b24c0691b5278999c59ac7e62000ab06401000000000262003fc8176401000000009004565b111562000d865773b7a07bcf2ba2f2703b24c0691b5278999c59ac7e6000806101000a81548173ffffffffffffffffffffffffffffffffffffffff021916908373ffffffffffffffffffffffffffffffffffffffff16021790555062000d7c6040805190810160405280600981526020017f6574685f6b6f76616e00000000000000000000000000000000000000000000008152506200104c6401000000000262004d3b176401000000009004565b6001905062001047565b600062000dbb73146500cfd35b22e4a392fe0adc06de1a1368ed4862000ab06401000000000262003fc8176401000000009004565b111562000e745773146500cfd35b22e4a392fe0adc06de1a1368ed486000806101000a81548173ffffffffffffffffffffffffffffffffffffffff021916908373ffffffffffffffffffffffffffffffffffffffff16021790555062000e6a6040805190810160405280600b81526020017f6574685f72696e6b6562790000000000000000000000000000000000000000008152506200104c6401000000000262004d3b176401000000009004565b6001905062001047565b600062000ea9736f485c8bf6fc43ea212e93bbf8ce046c7f1cb47562000ab06401000000000262003fc8176401000000009004565b111562000f0e57736f485c8bf6fc43ea212e93bbf8ce046c7f1cb4756000806101000a81548173ffffffffffffffffffffffffffffffffffffffff021916908373ffffffffffffffffffffffffffffffffffffffff1602179055506001905062001047565b600062000f437320e12a1f859b3feae5fb2a0a32c18f5a65555bbf62000ab06401000000000262003fc8176401000000009004565b111562000fa8577320e12a1f859b3feae5fb2a0a32c18f5a65555bbf6000806101000a81548173ffffffffffffffffffffffffffffffffffffffff021916908373ffffffffffffffffffffffffffffffffffffffff1602179055506001905062001047565b600062000fdd7351efaf4c8b3c9afbd5ab9f4bbc82784ab6ef8faa62000ab06401000000000262003fc8176401000000009004565b111562001042577351efaf4c8b3c9afbd5ab9f4bbc82784ab6ef8faa6000806101000a81548173ffffffffffffffffffffffffffffffffffffffff021916908373ffffffffffffffffffffffffffffffffffffffff1602179055506001905062001047565b600090505b919050565b80600290805190602001906200106492919062001068565b5050565b828054600181600116156101000203166002900490600052602060002090601f016020900481019282601f10620010ab57805160ff1916838001178555620010dc565b82800160010185558215620010dc579182015b82811115620010db578251825591602001919060010190620010be565b5b509050620010eb9190620010ef565b5090565b6200111491905b8082111562001110576000816000905550600101620010f6565b5090565b90565b615a5680620011276000396000f30060606040526004361061016a576000357c0100000000000000000000000000000000000000000000000000000000900463ffffffff1680630de385b31461016f5780630ee6a107146101cc5780630fc3356014610212578063137492ff1461021c5780631e85a0d91461027957806326daf164146102d657806327dc297e1461036b5780632b58719d146103d557806336815bf41461043257806338bbfa50146104915780633ccfd60b1461053e578063492a3a41146105535780634aa8fd7a146105b05780634c5e9d181461065b5780635890f9d2146106b857806359add3101461074c5780635c77f2d2146107cb57806362cd0f701461082857806377955245146108a757806379ebbe65146108fc57806396b48a1114610986578063a70059b6146109e3578063a885d80f14610a8c578063c5012ffc14610aba578063d0e30db014610b17578063d781b7cf14610b21578063e5a73dd314610b58578063fb9a7aaf14610bd2575b600080fd5b341561017a57600080fd5b6101ca600480803590602001908201803590602001908080601f01602080910402602001604051908101604052809392919081815260200183838082843782019150505050505091905050610bdc565b005b34156101d757600080fd5b6101f860048080359060200190820180359060200191909192905050610e39565b604051808215151515815260200191505060405180910390f35b61021a610e79565b005b341561022757600080fd5b610277600480803590602001908201803590602001908080601f01602080910402602001604051908101604052809392919081815260200183838082843782019150505050505091905050610f54565b005b341561028457600080fd5b6102d4600480803590602001908201803590602001908080601f01602080910402602001604051908101604052809392919081815260200183838082843782019150505050505091905050610fc4565b005b610369600480803590602001908201803590602001908080601f0160208091040260200160405190810160405280939291908181526020018383808284378201915050505050509190803590602001908201803590602001908080601f0160208091040260200160405190810160405280939291908181526020018383808284378201915050505050509190505061114a565b005b341561037657600080fd5b6103d360048080356000191690602001909190803590602001908201803590602001908080601f01602080910402602001604051908101604052809392919081815260200183838082843782019150505050505091905050611438565b005b34156103e057600080fd5b610430600480803590602001908201803590602001908080601f016020809104026020016040519081016040528093929190818152602001838380828437820191505050505050919050506115a3565b005b341561043d57600080fd5b6104776004808061010001906008806020026040519081016040528092919082600860200280828437820191505050505091905050611adb565b604051808215151515815260200191505060405180910390f35b341561049c57600080fd5b61053c60048080356000191690602001909190803590602001908201803590602001908080601f0160208091040260200160405190810160405280939291908181526020018383808284378201915050505050509190803590602001908201803590602001908080601f01602080910402602001604051908101604052809392919081815260200183838082843782019150505050505091905050611ba6565b005b341561054957600080fd5b610551611bab565b005b341561055e57600080fd5b6105ae600480803590602001908201803590602001908080601f01602080910402602001604051908101604052809392919081815260200183838082843782019150505050505091905050611c8a565b005b34156105bb57600080fd5b61060b600480803590602001908201803590602001908080601f01602080910402602001604051908101604052809392919081815260200183838082843782019150505050505091905050611d00565b604051808279ffffffffffffffffffffffffffffffffffffffffffffffffffff191679ffffffffffffffffffffffffffffffffffffffffffffffffffff1916815260200191505060405180910390f35b341561066657600080fd5b6106b6600480803590602001908201803590602001908080601f01602080910402602001604051908101604052809392919081815260200183838082843782019150505050505091905050611d4b565b005b34156106c357600080fd5b610732600480803590602001908201803590602001908080601f0160208091040260200160405190810160405280939291908181526020018383808284378201915050505050509190803573ffffffffffffffffffffffffffffffffffffffff169060200190919050506120aa565b604051808215151515815260200191505060405180910390f35b6107c9600480803590602001908201803590602001908080601f0160208091040260200160405190810160405280939291908181526020018383808284378201915050505050509190806101000190600880602002604051908101604052809291908260086020028082843782019150505050509190505061235b565b005b34156107d657600080fd5b610826600480803590602001908201803590602001908080601f016020809104026020016040519081016040528093929190818152602001838380828437820191505050505050919050506125a3565b005b6108a5600480803590602001908201803590602001908080601f01602080910402602001604051908101604052809392919081815260200183838082843782019150505050505091908061010001906008806020026040519081016040528092919082600860200280828437820191505050505091905050612619565b005b34156108b257600080fd5b6108ba612647565b604051808273ffffffffffffffffffffffffffffffffffffffff1673ffffffffffffffffffffffffffffffffffffffff16815260200191505060405180910390f35b341561090757600080fd5b610984600480803590602001908201803590602001908080601f0160208091040260200160405190810160405280939291908181526020018383808284378201915050505050509190806101000190600880602002604051908101604052809291908260086020028082843782019150505050509190505061266d565b005b341561099157600080fd5b6109e1600480803590602001908201803590602001908080601f01602080910402602001604051908101604052809392919081815260200183838082843782019150505050505091905050612690565b005b34156109ee57600080fd5b610a8a600480803590602001908201803590602001908080601f0160208091040260200160405190810160405280939291908181526020018383808284378201915050505050509190806101000190600880602002604051908101604052809291908260086020028082843782019150505050509190803573ffffffffffffffffffffffffffffffffffffffff16906020019091905050612d54565b005b3415610a9757600080fd5b610ab860048080359060200190820180359060200191909192905050612e8f565b005b3415610ac557600080fd5b610b15600480803590602001908201803590602001908080601f01602080910402602001604051908101604052809392919081815260200183838082843782019150505050505091905050612f88565b005b610b1f612ff8565b005b3415610b2c57600080fd5b610b42600480803590602001909190505061300a565b6040518082815260200191505060405180910390f35b610bd0600480803590602001908201803590602001908080601f0160208091040260200160405190810160405280939291908181526020018383808284378201915050505050509190803573ffffffffffffffffffffffffffffffffffffffff16906020019091908035906020019091905050613027565b005b610bda613190565b005b6000806000600f60009054906101000a900460ff161515610bfc57600080fd5b600c846040518082805190602001908083835b602083101515610c345780518252602082019150602081019050602083039250610c0f565b6001836020036101000a038019825116818451168082178552505050505050905001915050908152602001604051809103902092508260030160019054906101000a900460ff161515610c8657600080fd5b8260030160009054906101000a900460ff161515610ca357600080fd5b600091505b8260050180549050821015610e16578260050182815481101515610cc857fe5b906000526020600020900160009054906101000a900473ffffffffffffffffffffffffffffffffffffffff16905060008360090160008373ffffffffffffffffffffffffffffffffffffffff1673ffffffffffffffffffffffffffffffffffffffff168152602001908152602001600020541115610e09578073ffffffffffffffffffffffffffffffffffffffff166108fc8460090160008473ffffffffffffffffffffffffffffffffffffffff1673ffffffffffffffffffffffffffffffffffffffff168152602001908152602001600020549081150290604051600060405180830381858888f193505050501515610dc157600080fd5b60008360090160003373ffffffffffffffffffffffffffffffffffffffff1673ffffffffffffffffffffffffffffffffffffffff168152602001908152602001600020819055505b8180600101925050610ca8565b60008360030160006101000a81548160ff02191690831515021790555050505050565b6000600c838360405180838380828437820191505092505050908152602001604051809103902060030160009054906101000a900460ff16905092915050565b610f5260118054600181600116156101000203166002900480601f016020809104026020016040519081016040528092919081815260200182805460018160011615610100020316600290048015610f125780601f10610ee757610100808354040283529160200191610f12565b820191906000526020600020905b815481529060010190602001808311610ef557829003601f168201915b50505050506040805190810160405280600681526020017f73636f726573000000000000000000000000000000000000000000000000000081525061114a565b565b600560009054906101000a900473ffffffffffffffffffffffffffffffffffffffff1673ffffffffffffffffffffffffffffffffffffffff163373ffffffffffffffffffffffffffffffffffffffff16141515610fb057600080fd5b610fb9816125a3565b610fc1613190565b50565b6000600c826040518082805190602001908083835b602083101515610ffe5780518252602082019150602081019050602083039250610fd9565b6001836020036101000a0380198251168184511680821785525050505050509050019150509081526020016040518091039020905060008160090160003373ffffffffffffffffffffffffffffffffffffffff1673ffffffffffffffffffffffffffffffffffffffff168152602001908152602001600020541115611146573373ffffffffffffffffffffffffffffffffffffffff166108fc8260090160003373ffffffffffffffffffffffffffffffffffffffff1673ffffffffffffffffffffffffffffffffffffffff168152602001908152602001600020549081150290604051600060405180830381858888f1935050505015156110fe57600080fd5b60008160090160003373ffffffffffffffffffffffffffffffffffffffff1673ffffffffffffffffffffffffffffffffffffffff168152602001908152602001600020819055505b5050565b6000806000600361118f6040805190810160405280600381526020017f55524c000000000000000000000000000000000000000000000000000000000081525061326b565b02660886c98b760000019250655af3107a400091508183013410156112a7577f46cb989ef9cef13e930e3b7f286225a086e716a90d63e0b7da85d310a9db0c9a6040518080602001828103825260468152602001807f4f7261636c697a65207175657279206661696c65642e2053656e64206d6f726581526020017f2045544820282e3030323545544820696e20676173202b20242e30332070657281526020017f207175657279000000000000000000000000000000000000000000000000000081525060600191505060405180910390a13373ffffffffffffffffffffffffffffffffffffffff166108fc349081150290604051600060405180830381858888f1935050505015156112a257600080fd5b611431565b8234036006600082825401925050819055507f46cb989ef9cef13e930e3b7f286225a086e716a90d63e0b7da85d310a9db0c9a6040518080602001828103825260378152602001807f4f7261636c697a65207175657269657320776572652073656e742c207374616e81526020017f64696e6720627920666f722074686520616e737765722e00000000000000000081525060400191505060405180910390a16113fe6040805190810160405280600381526020017f55524c00000000000000000000000000000000000000000000000000000000008152506113f56040805190810160405280600581526020017f6a736f6e28000000000000000000000000000000000000000000000000000000815250886040805190810160405280601281526020017f292e636f6d7072657373656453636f72657300000000000000000000000000008152506135f3565b620927c0613631565b905083600860008360001916600019168152602001908152602001600020908051906020019061142f929190614d55565b505b5050505050565b6000611442613b81565b73ffffffffffffffffffffffffffffffffffffffff163373ffffffffffffffffffffffffffffffffffffffff1614151561147b57600080fd5b60086000846000191660001916815260200190815260200160002060405180828054600181600116156101000203166002900480156114f15780601f106114cf5761010080835404028352918201916114f1565b820191906000526020600020905b8154815290600101906020018083116114dd575b50509150506040518091039020905060405180807f53616c617269657300000000000000000000000000000000000000000000000081525060080190506040518091039020600019168160001916141561154f5761154e826115a3565b5b60405180807f73636f726573000000000000000000000000000000000000000000000000000081525060060190506040518091039020600019168160001916141561159e5761159d82611d4b565b5b505050565b60006115ad614dd5565b6115b5614dd5565b6115bd614def565b60008060008096505b6009805490508761ffff1610156116ff57600a600060098961ffff168154811015156115ee57fe5b90600052602060002090600591828204019190066006029054906101000a90047a0100000000000000000000000000000000000000000000000000000279ffffffffffffffffffffffffffffffffffffffffffffffffffff191679ffffffffffffffffffffffffffffffffffffffffffffffffffff19168152602001908152602001600020600080820160006101000a81549060ff02191690556000820160016101000a81549063ffffffff02191690556000820160056101000a81549060ff0219169055505060098761ffff168154811015156116c857fe5b90600052602060002090600591828204019190066006026101000a81549065ffffffffffff021916905586806001019750506115c6565b6000600f60006101000a81548160ff02191690831515021790555061172388613e97565b95506117636040805190810160405280600181526020017f2000000000000000000000000000000000000000000000000000000000000000815250613e97565b9450600161177a8688613ec590919063ffffffff16565b016040518059106117885750595b9080825280602002602001820160405280156117be57816020015b6117ab614e03565b8152602001906001900390816117a35790505b509350600096505b83518761ffff161015611ad1576117e68587613f3c90919063ffffffff16565b848861ffff168151811015156117f857fe5b9060200190602002018190525061188061187b61187661184c6040805190810160405280600181526020017f3a00000000000000000000000000000000000000000000000000000000000000815250613e97565b878b61ffff1681518110151561185e57fe5b90602001906020020151613f3c90919063ffffffff16565b613f56565b611d00565b92506118fd6118f86118f36118c96040805190810160405280600181526020017f2d00000000000000000000000000000000000000000000000000000000000000815250613e97565b878b61ffff168151811015156118db57fe5b90602001906020020151613f3c90919063ffffffff16565b613f56565b613fb4565b915061197a6119756119706119466040805190810160405280600181526020017f2d00000000000000000000000000000000000000000000000000000000000000815250613e97565b878b61ffff1681518110151561195857fe5b90602001906020020151613f3c90919063ffffffff16565b613f56565b613fb4565b90508260098861ffff1681548110151561199057fe5b90600052602060002090600591828204019190066006026101000a81548165ffffffffffff02191690837a010000000000000000000000000000000000000000000000000000900402179055506060604051908101604052808260000b81526020018363ffffffff1681526020016000800b815250600a60008579ffffffffffffffffffffffffffffffffffffffffffffffffffff191679ffffffffffffffffffffffffffffffffffffffffffffffffffff1916815260200190815260200160002060008201518160000160006101000a81548160ff021916908360000b60ff16021790555060208201518160000160016101000a81548163ffffffff021916908363ffffffff16021790555060408201518160000160056101000a81548160ff021916908360000b60ff16021790555090505086806001019750506117c6565b5050505050505050565b600080600080600892506008831115611af75760009350611b9e565b60009150600090505b828160ff161015611b9257600a6000868360ff16600881101515611b2057fe5b602002015179ffffffffffffffffffffffffffffffffffffffffffffffffffff191679ffffffffffffffffffffffffffffffffffffffffffffffffffff1916815260200190815260200160002060000160009054906101000a900460000b60000b820191508080600101915050611b00565b600d548260010b131593505b505050919050565b505050565b600560009054906101000a900473ffffffffffffffffffffffffffffffffffffffff1673ffffffffffffffffffffffffffffffffffffffff163373ffffffffffffffffffffffffffffffffffffffff16141515611c0757600080fd5b6000600754600654031115611c8857600560009054906101000a900473ffffffffffffffffffffffffffffffffffffffff1673ffffffffffffffffffffffffffffffffffffffff166108fc600754600654039081150290604051600060405180830381858888f193505050501515611c7e57600080fd5b6007546006819055505b565b600560009054906101000a900473ffffffffffffffffffffffffffffffffffffffff1673ffffffffffffffffffffffffffffffffffffffff163373ffffffffffffffffffffffffffffffffffffffff16141515611ce657600080fd5b8060119080519060200190611cfc929190614d55565b5050565b6000611d0a614e1d565b829050600081511415611d3d5760007a010000000000000000000000000000000000000000000000000000029150611d45565b600683015191505b50919050565b611d53614dd5565b611d5b614dd5565b611d63614def565b6000806000806000600f60009054906101000a900460ff16151515611d8757600080fd5b611d9089613e97565b9750611dd06040805190810160405280600181526020017f2000000000000000000000000000000000000000000000000000000000000000815250613e97565b96506001611de7888a613ec590919063ffffffff16565b01604051805910611df55750595b908082528060200260200182016040528015611e2b57816020015b611e18614e03565b815260200190600190039081611e105790505b509550600094505b85518561ffff16101561208457611e538789613f3c90919063ffffffff16565b868661ffff16815181101515611e6557fe5b90602001906020020181905250611eed611ee8611ee3611eb96040805190810160405280600181526020017f3a00000000000000000000000000000000000000000000000000000000000000815250613e97565b898961ffff16815181101515611ecb57fe5b90602001906020020151613f3c90919063ffffffff16565b613f56565b611d00565b93506001611f5c611f326040805190810160405280600181526020017f2d00000000000000000000000000000000000000000000000000000000000000815250613e97565b888861ffff16815181101515611f4457fe5b90602001906020020151613ec590919063ffffffff16565b019250600091505b8282101561207757611fe7611fe2611fdd611fb36040805190810160405280600181526020017f2d00000000000000000000000000000000000000000000000000000000000000815250613e97565b898961ffff16815181101515611fc557fe5b90602001906020020151613f3c90919063ffffffff16565b613f56565b613fb4565b905080605003600a60008679ffffffffffffffffffffffffffffffffffffffffffffffffffff191679ffffffffffffffffffffffffffffffffffffffffffffffffffff1916815260200190815260200160002060000160058282829054906101000a900460000b0192506101000a81548160ff021916908360000b60ff1602179055508180600101925050611f64565b8480600101955050611e33565b6001600f60006101000a81548160ff021916908315150217905550505050505050505050565b60006120b4614e31565b600c846040518082805190602001908083835b6020831015156120ec57805182526020820191506020810190506020830392506120c7565b6001836020036101000a038019825116818451168082178552505050505050905001915050908152602001604051809103902060000160149054906101000a900460ff161561234f57600c846040518082805190602001908083835b60208310151561216d5780518252602082019150602081019050602083039250612148565b6001836020036101000a038019825116818451168082178552505050505050905001915050908152602001604051809103902061010060405190810160405290816000820160009054906101000a900473ffffffffffffffffffffffffffffffffffffffff1673ffffffffffffffffffffffffffffffffffffffff1673ffffffffffffffffffffffffffffffffffffffff1681526020016000820160149054906101000a900460ff1615151515815260200160018201548152602001600282015481526020016003820160009054906101000a900460ff161515151581526020016003820160019054906101000a900460ff1615151515815260200160048201548152602001600582018054806020026020016040519081016040528092919081815260200182805480156122f757602002820191906000526020600020905b8160009054906101000a900473ffffffffffffffffffffffffffffffffffffffff1673ffffffffffffffffffffffffffffffffffffffff16815260200190600101908083116122ad575b50505050508152505090508060800151156123155760009150612354565b8273ffffffffffffffffffffffffffffffffffffffff16816000015173ffffffffffffffffffffffffffffffffffffffff16149150612354565b600191505b5092915050565b61236582336120aa565b151561237057600080fd5b61237981611adb565b151561238457600080fd5b600b80548060010182816123989190614e99565b9160005260206000209001600084909190915090805190602001906123be929190614d55565b5050610100604051908101604052803373ffffffffffffffffffffffffffffffffffffffff1681526020016001151581526020016123fb3461300a565b340381526020016000815260200160011515815260200160001515815260200142815260200160006040518059106124305750595b9080825280602002602001820160405250815250600c836040518082805190602001908083835b60208310151561247c5780518252602082019150602081019050602083039250612457565b6001836020036101000a038019825116818451168082178552505050505050905001915050908152602001604051809103902060008201518160000160006101000a81548173ffffffffffffffffffffffffffffffffffffffff021916908373ffffffffffffffffffffffffffffffffffffffff16021790555060208201518160000160146101000a81548160ff021916908315150217905550604082015181600101556060820151816002015560808201518160030160006101000a81548160ff02191690831515021790555060a08201518160030160016101000a81548160ff02191690831515021790555060c0820151816004015560e0820151816005019080519060200190612590929190614ec5565b5090505061259f823334613027565b5050565b600560009054906101000a900473ffffffffffffffffffffffffffffffffffffffff1673ffffffffffffffffffffffffffffffffffffffff163373ffffffffffffffffffffffffffffffffffffffff161415156125ff57600080fd5b8060109080519060200190612615929190614d55565b5050565b61262281611adb565b151561262d57600080fd5b612638823334613027565b612643828233612d54565b5050565b600560009054906101000a900473ffffffffffffffffffffffffffffffffffffffff1681565b61267681611adb565b151561268157600080fd5b61268c828233612d54565b5050565b60008060008060006126a0614f4f565b600080600080600080600f60009054906101000a900460ff1615156126c457600080fd5b600c8d6040518082805190602001908083835b6020831015156126fc57805182526020820191506020810190506020830392506126d7565b6001836020036101000a03801982511681845116808217855250505050505090500191505090815260200160405180910390209b508b60030160009054906101000a900460ff16151561274e57600080fd5b8b60030160019054906101000a900460ff1615151561276c57600080fd5b8b600501805490509a5060009950600098505b8a60030b8960ff1612156129e0578b6005018960ff168154811015156127a157fe5b906000526020600020900160009054906101000a900473ffffffffffffffffffffffffffffffffffffffff1697508b60070160008973ffffffffffffffffffffffffffffffffffffffff1673ffffffffffffffffffffffffffffffffffffffff1681526020019081526020016000206000016008806020026040519081016040528092919082600880156128a4576020028201916000905b82829054906101000a90047a0100000000000000000000000000000000000000000000000000000279ffffffffffffffffffffffffffffffffffffffffffffffffffff1916815260200190600601906020826005010492830192600103820291508084116128395790505b50505050509650600095505b60088660ff16101561298d57600a6000888860ff166008811015156128d157fe5b602002015179ffffffffffffffffffffffffffffffffffffffffffffffffffff191679ffffffffffffffffffffffffffffffffffffffffffffffffffff1916815260200190815260200160002060000160059054906101000a900460000b60000b8c60080160008a73ffffffffffffffffffffffffffffffffffffffff1673ffffffffffffffffffffffffffffffffffffffff1681526020019081526020016000206000828254019250508190555085806001019650506128b0565b8b60080160008973ffffffffffffffffffffffffffffffffffffffff1673ffffffffffffffffffffffffffffffffffffffff168152602001908152602001600020548a019950888060010199505061277f565b8a60030b8a8115156129ee57fe5b05945060009250600098505b8a60030b8960ff161215612bde578b6005018960ff16815481101515612a1c57fe5b906000526020600020900160009054906101000a900473ffffffffffffffffffffffffffffffffffffffff169750848c60080160008a73ffffffffffffffffffffffffffffffffffffffff1673ffffffffffffffffffffffffffffffffffffffff1681526020019081526020016000205412158015612add575060008c60080160008a73ffffffffffffffffffffffffffffffffffffffff1673ffffffffffffffffffffffffffffffffffffffff1681526020019081526020016000205412155b15612bd1578b60080160008973ffffffffffffffffffffffffffffffffffffffff1673ffffffffffffffffffffffffffffffffffffffff168152602001908152602001600020548c60080160008a73ffffffffffffffffffffffffffffffffffffffff1673ffffffffffffffffffffffffffffffffffffffff16815260200190815260200160002054029150838054806001018281612b7c9190614f95565b916000526020600020900160008a909190916101000a81548173ffffffffffffffffffffffffffffffffffffffff021916908373ffffffffffffffffffffffffffffffffffffffff1602179055505081830192505b88806001019950506129fa565b600098505b83805490508960ff161015612d2857838960ff16815481101515612c0357fe5b906000526020600020900160009054906101000a900473ffffffffffffffffffffffffffffffffffffffff1697508b60080160008973ffffffffffffffffffffffffffffffffffffffff1673ffffffffffffffffffffffffffffffffffffffff168152602001908152602001600020548c60080160008a73ffffffffffffffffffffffffffffffffffffffff1673ffffffffffffffffffffffffffffffffffffffff1681526020019081526020016000205402915082828d6002015402811515612cc957fe5b049050808c60090160008a73ffffffffffffffffffffffffffffffffffffffff1673ffffffffffffffffffffffffffffffffffffffff168152602001908152602001600020600082825401925050819055508880600101995050612be3565b60018c60030160016101000a81548160ff02191690831515021790555050505050505050505050505050565b6000600c846040518082805190602001908083835b602083101515612d8e5780518252602082019150602081019050602083039250612d69565b6001836020036101000a03801982511681845116808217855250505050505090500191505090815260200160405180910390209050602060405190810160405280848152508160070160008473ffffffffffffffffffffffffffffffffffffffff1673ffffffffffffffffffffffffffffffffffffffff168152602001908152602001600020600082015181600001906008612e2b929190614fc1565b5090505060018160060160008473ffffffffffffffffffffffffffffffffffffffff1673ffffffffffffffffffffffffffffffffffffffff16815260200190815260200160002060006101000a81548160ff02191690831515021790555050505050565b600c828260405180838380828437820191505092505050908152602001604051809103902060030160009054906101000a900460ff16151515612ed157600080fd5b600c8282604051808383808284378201915050925050509081526020016040518091039020600080820160006101000a81549073ffffffffffffffffffffffffffffffffffffffff02191690556000820160146101000a81549060ff0219169055600182016000905560028201600090556003820160006101000a81549060ff02191690556003820160016101000a81549060ff02191690556004820160009055600582016000612f829190615080565b50505050565b600560009054906101000a900473ffffffffffffffffffffffffffffffffffffffff1673ffffffffffffffffffffffffffffffffffffffff163373ffffffffffffffffffffffffffffffffffffffff16141515612fe457600080fd5b612fed81611c8a565b612ff5610e79565b50565b34600660008282540192505081905550565b60006103e8600e54830281151561301d57fe5b0482039050919050565b600080600c856040518082805190602001908083835b602083101515613062578051825260208201915060208101905060208303925061303d565b6001836020036101000a038019825116818451168082178552505050505050905001915050908152602001604051809103902091508160060160008573ffffffffffffffffffffffffffffffffffffffff1673ffffffffffffffffffffffffffffffffffffffff16815260200190815260200160002060009054906101000a900460ff161515613189576130f58361300a565b9050808260010154018311151561310b57600080fd5b81600101548260020160008282540192505081905550806006600082825401925050819055508082600101548403038260090160008673ffffffffffffffffffffffffffffffffffffffff1673ffffffffffffffffffffffffffffffffffffffff168152602001908152602001600020600082825401925050819055505b5050505050565b61326960108054600181600116156101000203166002900480601f0160208091040260200160405190810160405280929190818152602001828054600181600116156101000203166002900480156132295780601f106131fe57610100808354040283529160200191613229565b820191906000526020600020905b81548152906001019060200180831161320c57829003601f168201915b50505050506040805190810160405280600881526020017f53616c617269657300000000000000000000000000000000000000000000000081525061114a565b565b6000806000809054906101000a900473ffffffffffffffffffffffffffffffffffffffff1673ffffffffffffffffffffffffffffffffffffffff1614806132db575060006132d96000809054906101000a900473ffffffffffffffffffffffffffffffffffffffff16613fc8565b145b156132ec576132ea6000613fd3565b505b6000809054906101000a900473ffffffffffffffffffffffffffffffffffffffff1673ffffffffffffffffffffffffffffffffffffffff166338cc48316000604051602001526040518163ffffffff167c0100000000000000000000000000000000000000000000000000000000028152600401602060405180830381600087803b151561337957600080fd5b6102c65a03f1151561338a57600080fd5b5050506040518051905073ffffffffffffffffffffffffffffffffffffffff16600160009054906101000a900473ffffffffffffffffffffffffffffffffffffffff1673ffffffffffffffffffffffffffffffffffffffff161415156134d3576000809054906101000a900473ffffffffffffffffffffffffffffffffffffffff1673ffffffffffffffffffffffffffffffffffffffff166338cc48316000604051602001526040518163ffffffff167c0100000000000000000000000000000000000000000000000000000000028152600401602060405180830381600087803b151561347757600080fd5b6102c65a03f1151561348857600080fd5b50505060405180519050600160006101000a81548173ffffffffffffffffffffffffffffffffffffffff021916908373ffffffffffffffffffffffffffffffffffffffff1602179055505b600160009054906101000a900473ffffffffffffffffffffffffffffffffffffffff1673ffffffffffffffffffffffffffffffffffffffff1663524f3889836000604051602001526040518263ffffffff167c01000000000000000000000000000000000000000000000000000000000281526004018080602001828103825283818151815260200191508051906020019080838360005b8381101561358657808201518184015260208101905061356b565b50505050905090810190601f1680156135b35780820380516001836020036101000a031916815260200191505b5092505050602060405180830381600087803b15156135d157600080fd5b6102c65a03f115156135e257600080fd5b505050604051805190509050919050565b6135fb6150a1565b61362884848460206040519081016040528060008152506020604051908101604052806000815250614464565b90509392505050565b60008060008060009054906101000a900473ffffffffffffffffffffffffffffffffffffffff1673ffffffffffffffffffffffffffffffffffffffff1614806136a3575060006136a16000809054906101000a900473ffffffffffffffffffffffffffffffffffffffff16613fc8565b145b156136b4576136b26000613fd3565b505b6000809054906101000a900473ffffffffffffffffffffffffffffffffffffffff1673ffffffffffffffffffffffffffffffffffffffff166338cc48316000604051602001526040518163ffffffff167c0100000000000000000000000000000000000000000000000000000000028152600401602060405180830381600087803b151561374157600080fd5b6102c65a03f1151561375257600080fd5b5050506040518051905073ffffffffffffffffffffffffffffffffffffffff16600160009054906101000a900473ffffffffffffffffffffffffffffffffffffffff1673ffffffffffffffffffffffffffffffffffffffff1614151561389b576000809054906101000a900473ffffffffffffffffffffffffffffffffffffffff1673ffffffffffffffffffffffffffffffffffffffff166338cc48316000604051602001526040518163ffffffff167c0100000000000000000000000000000000000000000000000000000000028152600401602060405180830381600087803b151561383f57600080fd5b6102c65a03f1151561385057600080fd5b50505060405180519050600160006101000a81548173ffffffffffffffffffffffffffffffffffffffff021916908373ffffffffffffffffffffffffffffffffffffffff1602179055505b600160009054906101000a900473ffffffffffffffffffffffffffffffffffffffff1673ffffffffffffffffffffffffffffffffffffffff16632ef3accc86856000604051602001526040518363ffffffff167c01000000000000000000000000000000000000000000000000000000000281526004018080602001838152602001828103825284818151815260200191508051906020019080838360005b8381101561395557808201518184015260208101905061393a565b50505050905090810190601f1680156139825780820380516001836020036101000a031916815260200191505b509350505050602060405180830381600087803b15156139a157600080fd5b6102c65a03f115156139b257600080fd5b505050604051805190509050823a02670de0b6b3a7640000018111156139de5760006001029150613b79565b600160009054906101000a900473ffffffffffffffffffffffffffffffffffffffff1673ffffffffffffffffffffffffffffffffffffffff1663c51be90f8260008888886000604051602001526040518663ffffffff167c0100000000000000000000000000000000000000000000000000000000028152600401808581526020018060200180602001848152602001838103835286818151815260200191508051906020019080838360005b83811015613aa6578082015181840152602081019050613a8b565b50505050905090810190601f168015613ad35780820380516001836020036101000a031916815260200191505b50838103825285818151815260200191508051906020019080838360005b83811015613b0c578082015181840152602081019050613af1565b50505050905090810190601f168015613b395780820380516001836020036101000a031916815260200191505b5096505050505050506020604051808303818588803b1515613b5a57600080fd5b6125ee5a03f11515613b6b57600080fd5b505050506040518051905091505b509392505050565b6000806000809054906101000a900473ffffffffffffffffffffffffffffffffffffffff1673ffffffffffffffffffffffffffffffffffffffff161480613bf157506000613bef6000809054906101000a900473ffffffffffffffffffffffffffffffffffffffff16613fc8565b145b15613c0257613c006000613fd3565b505b6000809054906101000a900473ffffffffffffffffffffffffffffffffffffffff1673ffffffffffffffffffffffffffffffffffffffff166338cc48316000604051602001526040518163ffffffff167c0100000000000000000000000000000000000000000000000000000000028152600401602060405180830381600087803b1515613c8f57600080fd5b6102c65a03f11515613ca057600080fd5b5050506040518051905073ffffffffffffffffffffffffffffffffffffffff16600160009054906101000a900473ffffffffffffffffffffffffffffffffffffffff1673ffffffffffffffffffffffffffffffffffffffff16141515613de9576000809054906101000a900473ffffffffffffffffffffffffffffffffffffffff1673ffffffffffffffffffffffffffffffffffffffff166338cc48316000604051602001526040518163ffffffff167c0100000000000000000000000000000000000000000000000000000000028152600401602060405180830381600087803b1515613d8d57600080fd5b6102c65a03f11515613d9e57600080fd5b50505060405180519050600160006101000a81548173ffffffffffffffffffffffffffffffffffffffff021916908373ffffffffffffffffffffffffffffffffffffffff1602179055505b600160009054906101000a900473ffffffffffffffffffffffffffffffffffffffff1673ffffffffffffffffffffffffffffffffffffffff1663c281d19e6000604051602001526040518163ffffffff167c0100000000000000000000000000000000000000000000000000000000028152600401602060405180830381600087803b1515613e7757600080fd5b6102c65a03f11515613e8857600080fd5b50505060405180519050905090565b613e9f614dd5565b600060208301905060408051908101604052808451815260200182815250915050919050565b6000808260000151613ee9856000015186602001518660000151876020015161489c565b0190505b836000015184602001510181111515613f355781806001019250508260000151613f2d85602001518303866000015103838660000151876020015161489c565b019050613eed565b5092915050565b613f44614dd5565b613f4f838383614958565b5092915050565b613f5e6150a1565b613f666150a1565b60008360000151604051805910613f7a5750595b9080825280601f01601f19166020018201604052509150602082019050613faa81856020015186600001516149f6565b8192505050919050565b6000613fc1826000614a41565b9050919050565b6000813b9050919050565b600080613ff3731d3b2638a7cc9f2cb3d298a3da7a90b67e5506ed613fc8565b111561409457731d3b2638a7cc9f2cb3d298a3da7a90b67e5506ed6000806101000a81548173ffffffffffffffffffffffffffffffffffffffff021916908373ffffffffffffffffffffffffffffffffffffffff16021790555061408b6040805190810160405280600b81526020017f6574685f6d61696e6e6574000000000000000000000000000000000000000000815250614d3b565b6001905061445f565b60006140b373c03a2615d5efaf5f49f60b7bb6583eaec212fdf1613fc8565b11156141545773c03a2615d5efaf5f49f60b7bb6583eaec212fdf16000806101000a81548173ffffffffffffffffffffffffffffffffffffffff021916908373ffffffffffffffffffffffffffffffffffffffff16021790555061414b6040805190810160405280600c81526020017f6574685f726f707374656e330000000000000000000000000000000000000000815250614d3b565b6001905061445f565b600061417373b7a07bcf2ba2f2703b24c0691b5278999c59ac7e613fc8565b11156142145773b7a07bcf2ba2f2703b24c0691b5278999c59ac7e6000806101000a81548173ffffffffffffffffffffffffffffffffffffffff021916908373ffffffffffffffffffffffffffffffffffffffff16021790555061420b6040805190810160405280600981526020017f6574685f6b6f76616e0000000000000000000000000000000000000000000000815250614d3b565b6001905061445f565b600061423373146500cfd35b22e4a392fe0adc06de1a1368ed48613fc8565b11156142d45773146500cfd35b22e4a392fe0adc06de1a1368ed486000806101000a81548173ffffffffffffffffffffffffffffffffffffffff021916908373ffffffffffffffffffffffffffffffffffffffff1602179055506142cb6040805190810160405280600b81526020017f6574685f72696e6b656279000000000000000000000000000000000000000000815250614d3b565b6001905061445f565b60006142f3736f485c8bf6fc43ea212e93bbf8ce046c7f1cb475613fc8565b111561435657736f485c8bf6fc43ea212e93bbf8ce046c7f1cb4756000806101000a81548173ffffffffffffffffffffffffffffffffffffffff021916908373ffffffffffffffffffffffffffffffffffffffff1602179055506001905061445f565b60006143757320e12a1f859b3feae5fb2a0a32c18f5a65555bbf613fc8565b11156143d8577320e12a1f859b3feae5fb2a0a32c18f5a65555bbf6000806101000a81548173ffffffffffffffffffffffffffffffffffffffff021916908373ffffffffffffffffffffffffffffffffffffffff1602179055506001905061445f565b60006143f77351efaf4c8b3c9afbd5ab9f4bbc82784ab6ef8faa613fc8565b111561445a577351efaf4c8b3c9afbd5ab9f4bbc82784ab6ef8faa6000806101000a81548173ffffffffffffffffffffffffffffffffffffffff021916908373ffffffffffffffffffffffffffffffffffffffff1602179055506001905061445f565b600090505b919050565b61446c6150a1565b614474614e1d565b61447c614e1d565b614484614e1d565b61448c614e1d565b614494614e1d565b61449c6150a1565b6144a4614e1d565b6000808e98508d97508c96508b95508a94508451865188518a518c51010101016040518059106144d15750595b9080825280601f01601f1916602001820160405250935083925060009150600090505b88518110156145a757888181518110151561450b57fe5b9060200101517f010000000000000000000000000000000000000000000000000000000000000090047f010000000000000000000000000000000000000000000000000000000000000002838380600101945081518110151561456a57fe5b9060200101907effffffffffffffffffffffffffffffffffffffffffffffffffffffffffffff1916908160001a90535080806001019150506144f4565b600090505b875181101561465f5787818151811015156145c357fe5b9060200101517f010000000000000000000000000000000000000000000000000000000000000090047f010000000000000000000000000000000000000000000000000000000000000002838380600101945081518110151561462257fe5b9060200101907effffffffffffffffffffffffffffffffffffffffffffffffffffffffffffff1916908160001a90535080806001019150506145ac565b600090505b865181101561471757868181518110151561467b57fe5b9060200101517f010000000000000000000000000000000000000000000000000000000000000090047f01000000000000000000000000000000000000000000000000000000000000000283838060010194508151811015156146da57fe5b9060200101907effffffffffffffffffffffffffffffffffffffffffffffffffffffffffffff1916908160001a9053508080600101915050614664565b600090505b85518110156147cf57858181518110151561473357fe5b9060200101517f010000000000000000000000000000000000000000000000000000000000000090047f010000000000000000000000000000000000000000000000000000000000000002838380600101945081518110151561479257fe5b9060200101907effffffffffffffffffffffffffffffffffffffffffffffffffffffffffffff1916908160001a905350808060010191505061471c565b600090505b84518110156148875784818151811015156147eb57fe5b9060200101517f010000000000000000000000000000000000000000000000000000000000000090047f010000000000000000000000000000000000000000000000000000000000000002838380600101945081518110151561484a57fe5b9060200101907effffffffffffffffffffffffffffffffffffffffffffffffffffffffffffff1916908160001a90535080806001019150506147d4565b82995050505050505050505095945050505050565b60008060008060008887111515614946576020871115156148fd5760018760200360080260020a031980875116888b038a018a96505b8183885116146148f2576001870196508060018803106148d2578b8b0196505b50505083945061494c565b8686209150879350600092505b868903831115156149455786842090508060001916826000191614156149325783945061494c565b600184019350828060010193505061490a565b5b88880194505b50505050949350505050565b614960614dd5565b600061497e856000015186602001518660000151876020015161489c565b905084602001518360200181815250508460200151810383600001818152505084600001518560200151018114156149c05760008560000181815250506149eb565b8360000151836000015101856000018181510391508181525050836000015181018560200181815250505b829150509392505050565b60005b602082101515614a1e57825184526020840193506020830192506020820391506149f9565b6001826020036101000a0390508019835116818551168181178652505050505050565b6000614a4b614e1d565b60008060008693506000925060009150600090505b8351811015614d1c5760307f0100000000000000000000000000000000000000000000000000000000000000028482815181101515614a9b57fe5b9060200101517f010000000000000000000000000000000000000000000000000000000000000090047f0100000000000000000000000000000000000000000000000000000000000000027effffffffffffffffffffffffffffffffffffffffffffffffffffffffffffff191610158015614bb3575060397f0100000000000000000000000000000000000000000000000000000000000000028482815181101515614b4357fe5b9060200101517f010000000000000000000000000000000000000000000000000000000000000090047f0100000000000000000000000000000000000000000000000000000000000000027effffffffffffffffffffffffffffffffffffffffffffffffffffffffffffff191611155b15614c64578115614bd6576000861415614bcc57614d1c565b8580600190039650505b600a8302925060308482815181101515614bec57fe5b9060200101517f010000000000000000000000000000000000000000000000000000000000000090047f0100000000000000000000000000000000000000000000000000000000000000027f010000000000000000000000000000000000000000000000000000000000000090040383019250614d0f565b602e7f0100000000000000000000000000000000000000000000000000000000000000028482815181101515614c9657fe5b9060200101517f010000000000000000000000000000000000000000000000000000000000000090047f0100000000000000000000000000000000000000000000000000000000000000027effffffffffffffffffffffffffffffffffffffffffffffffffffffffffffff19161415614d0e57600191505b5b8080600101915050614a60565b6000861115614d2e5785600a0a830292505b8294505050505092915050565b8060029080519060200190614d51929190614d55565b5050565b828054600181600116156101000203166002900490600052602060002090601f016020900481019282601f10614d9657805160ff1916838001178555614dc4565b82800160010185558215614dc4579182015b82811115614dc3578251825591602001919060010190614da8565b5b509050614dd191906150b5565b5090565b604080519081016040528060008152602001600081525090565b602060405190810160405280600081525090565b604080519081016040528060008152602001600081525090565b602060405190810160405280600081525090565b61010060405190810160405280600073ffffffffffffffffffffffffffffffffffffffff168152602001600015158152602001600081526020016000815260200160001515815260200160001515815260200160008152602001614e936150da565b81525090565b815481835581811511614ec057818360005260206000209182019101614ebf91906150ee565b5b505050565b828054828255906000526020600020908101928215614f3e579160200282015b82811115614f3d5782518260006101000a81548173ffffffffffffffffffffffffffffffffffffffff021916908373ffffffffffffffffffffffffffffffffffffffff16021790555091602001919060010190614ee5565b5b509050614f4b919061511a565b5090565b610100604051908101604052806008905b600079ffffffffffffffffffffffffffffffffffffffffffffffffffff1916815260200190600190039081614f605790505090565b815481835581811511614fbc57818360005260206000209182019101614fbb91906150b5565b5b505050565b82600860040160059004810192821561506f5791602002820160005b8382111561503b57835183826101000a81548165ffffffffffff02191690837a010000000000000000000000000000000000000000000000000000900402179055509260200192600601602081600501049283019260010302614fdd565b801561506d5782816101000a81549065ffffffffffff021916905560060160208160050104928301926001030261503b565b505b50905061507c919061515d565b5090565b508054600082559060005260206000209081019061509e91906150b5565b50565b602060405190810160405280600081525090565b6150d791905b808211156150d35760008160009055506001016150bb565b5090565b90565b602060405190810160405280600081525090565b61511791905b80821115615113576000818161510a9190615192565b506001016150f4565b5090565b90565b61515a91905b8082111561515657600081816101000a81549073ffffffffffffffffffffffffffffffffffffffff021916905550600101615120565b5090565b90565b61518f91905b8082111561518b57600081816101000a81549065ffffffffffff021916905550600101615163565b5090565b90565b50805460018160011615610100020316600290046000825580601f106151b857506151d7565b601f0160209004906000526020600020908101906151d691906150b5565b5b50565b60008060009054906101000a900473ffffffffffffffffffffffffffffffffffffffff1673ffffffffffffffffffffffffffffffffffffffff161480615249575060006152476000809054906101000a900473ffffffffffffffffffffffffffffffffffffffff16613fc8565b145b1561525a576152586000613fd3565b505b6000809054906101000a900473ffffffffffffffffffffffffffffffffffffffff1673ffffffffffffffffffffffffffffffffffffffff166338cc48316000604051602001526040518163ffffffff167c0100000000000000000000000000000000000000000000000000000000028152600401602060405180830381600087803b15156152e757600080fd5b6102c65a03f115156152f857600080fd5b5050506040518051905073ffffffffffffffffffffffffffffffffffffffff16600160009054906101000a900473ffffffffffffffffffffffffffffffffffffffff1673ffffffffffffffffffffffffffffffffffffffff16141515615441576000809054906101000a900473ffffffffffffffffffffffffffffffffffffffff1673ffffffffffffffffffffffffffffffffffffffff166338cc48316000604051602001526040518163ffffffff167c0100000000000000000000000000000000000000000000000000000000028152600401602060405180830381600087803b15156153e557600080fd5b6102c65a03f115156153f657600080fd5b50505060405180519050600160006101000a81548173ffffffffffffffffffffffffffffffffffffffff021916908373ffffffffffffffffffffffffffffffffffffffff1602179055505b600160009054906101000a900473ffffffffffffffffffffffffffffffffffffffff1673ffffffffffffffffffffffffffffffffffffffff1663ca6ad1e4826040518263ffffffff167c010000000000000000000000000000000000000000000000000000000002815260040180828152602001915050600060405180830381600087803b15156154d157600080fd5b6102c65a03f115156154e257600080fd5b50505050565b60008060008060009054906101000a900473ffffffffffffffffffffffffffffffffffffffff1673ffffffffffffffffffffffffffffffffffffffff16148061555a575060006155586000809054906101000a900473ffffffffffffffffffffffffffffffffffffffff16613fc8565b145b1561556b576155696000613fd3565b505b6000809054906101000a900473ffffffffffffffffffffffffffffffffffffffff1673ffffffffffffffffffffffffffffffffffffffff166338cc48316000604051602001526040518163ffffffff167c0100000000000000000000000000000000000000000000000000000000028152600401602060405180830381600087803b15156155f857600080fd5b6102c65a03f1151561560957600080fd5b5050506040518051905073ffffffffffffffffffffffffffffffffffffffff16600160009054906101000a900473ffffffffffffffffffffffffffffffffffffffff1673ffffffffffffffffffffffffffffffffffffffff16141515615752576000809054906101000a900473ffffffffffffffffffffffffffffffffffffffff1673ffffffffffffffffffffffffffffffffffffffff166338cc48316000604051602001526040518163ffffffff167c0100000000000000000000000000000000000000000000000000000000028152600401602060405180830381600087803b15156156f657600080fd5b6102c65a03f1151561570757600080fd5b50505060405180519050600160006101000a81548173ffffffffffffffffffffffffffffffffffffffff021916908373ffffffffffffffffffffffffffffffffffffffff1602179055505b600160009054906101000a900473ffffffffffffffffffffffffffffffffffffffff1673ffffffffffffffffffffffffffffffffffffffff1663524f3889856000604051602001526040518263ffffffff167c01000000000000000000000000000000000000000000000000000000000281526004018080602001828103825283818151815260200191508051906020019080838360005b838110156158055780820151818401526020810190506157ea565b50505050905090810190601f1680156158325780820380516001836020036101000a031916815260200191505b5092505050602060405180830381600087803b151561585057600080fd5b6102c65a03f1151561586157600080fd5b50505060405180519050905062030d403a02670de0b6b3a7640000018111156158905760006001029150615a23565b600160009054906101000a900473ffffffffffffffffffffffffffffffffffffffff1673ffffffffffffffffffffffffffffffffffffffff1663adf59f9982600087876000604051602001526040518563ffffffff167c0100000000000000000000000000000000000000000000000000000000028152600401808481526020018060200180602001838103835285818151815260200191508051906020019080838360005b83811015615951578082015181840152602081019050615936565b50505050905090810190601f16801561597e5780820380516001836020036101000a031916815260200191505b50838103825284818151815260200191508051906020019080838360005b838110156159b757808201518184015260208101905061599c565b50505050905090810190601f1680156159e45780820380516001836020036101000a031916815260200191505b50955050505050506020604051808303818588803b1515615a0457600080fd5b6125ee5a03f11515615a1557600080fd5b505050506040518051905091505b50929150505600a165627a7a72305820390d0a690a3ae42187bed75677d5c1fb185e7fad2dbcb179bdaa08acf3dc28d60029",
  "source": "pragma solidity ^0.4.14;\n\nimport \"./lib/oraclize/oraclizeAPI_0.4.sol\";\nimport \"./lib/arachnid/solidity-stringutils/strings.sol\";\n\ncontract PgaDfs is usingOraclize {\n\n  using strings for *;\n\n  struct Golfer {\n    // not storing name,\n    // since we're trying to be minimal with data storage\n    // on ethereum's bloated ass blockchain.\n\n    // increments in 1\n    // salaries are roughly DK salaries / $500\n    // and can be negative!\n    int8 salary;\n\n    // thursday tee times for late swap-ability\n    // (which will cost a transaction fee! LOL!)\n    uint32 thursdayTeeTimestamp;\n\n    // fantasy points at end of tournament\n    int8 points;\n  }\n\n\n  struct Lineup {\n    // MAX of 8 pga tour ids...\n    // you can play less than 8 guys if you want!\n    bytes6[8] golferIds;\n  }\n\n  struct Contest {\n    address owner; // creator of contest\n\n    bool isContest; // true always\n\n    uint entryFee; // TODO(christian): what units?\n    uint prizePool; // all money in contest balance, payable to winners\n\n    // yay or nay, is this an active contest\n    bool live;\n\n    // have we calculated the addressBalances after contest is over?\n    bool arePayoutsSet;\n\n    // when this was created\n    uint createdTimestamp;\n\n    // map ETH address --> lineup in contest\n    address[] entries;\n\n    mapping(address => bool) addressHasEntry;\n    mapping(address => Lineup) lineups;\n    mapping(address => int) entryScores;\n\n    // ETH address --> how much they recouped\n    // once we confirmed the event ends, then payout!\n    mapping(address => uint) balances;\n  }\n\n\n  event newOraclizeQuery(string description);\n\n  // this is the initializer of the contract\n  // who gets special privaledges:\n  // (1) if oraclize fucks up, you set scores manually\n  // (2) you can spend the extraEther in the contract\n  address public contractAdmin;\n  uint private extraEther;\n  uint private minBal;\n\n  // status (bool): is this oraclize query complete or not?\n  mapping(bytes32 => string) queryIdToCallbackAction;\n\n  // this is the CONSTRUCTOR!\n  // we must initialize the lubricaiton amount\n  // with the miniumum balance, which can never be recovered\n  function PgaDfs() public payable {\n    require(msg.value >= minBal);\n    // in the constructor (this function), msg.sender is\n    // the owner of the contract\n    contractAdmin = msg.sender;\n    extraEther = msg.value;\n\n    // OAR for ethereum-bridge\n    OAR = OraclizeAddrResolverI(0x6f485C8BF6fc43eA212E93BBF8ce046C7f1cb475);\n    // TODO: tinker with this gas value\n    oraclize_setCustomGasPrice(1000000000 wei);\n\n    // execute a dummy transcaction to make fee estimation\n    // work by burning the free transaction\n    oraclize_query(\"URL\", \"json(http://api.fixer.io/latest?symbols=USD,GBP).rates.GBP\");\n  }\n\n\n  // N.B. FROM CRYPTO RIC:\n  // if we want to fund money into the \"lubrication account\"\n  // this will allow the contract to function if the price\n  // of ether falls dramatically between querires\n  // and, as a result, because the query fee is charged in USD,\n  // the fee for subsequent queries goes up\n  // this should average out over time,\n  // we charge a small fee to make sure it more likely going up\n  // this fee, over the course of 400 wagers,\n  // should offset the irrecovable minimum balance\n  function deposit() payable external {\n    extraEther += msg.value;\n  }\n\n  // CRYPTO RIC:\n  // if we want to withdraw money from the lubrication account\n  // we can only draw from the extraEther gained,\n  // so as to protect and wall off funds from active wagers\n  // we must leave a minBal of .1 ether to serve as lubrication\n  // this protects people with wagers from us withdrawing\n  // all the lubrication while they have bets in, which\n  // would make them have the potential to fail\n  function withdraw() external {\n    require(msg.sender == contractAdmin);\n\n    if (extraEther - minBal > 0) {\n      contractAdmin.transfer(extraEther - minBal);\n      extraEther = minBal;\n    }\n  }\n\n  // pga tour id ==> golfer data (salary, scores, etc.)\n  bytes6[] pgaIdsInSalaries;\n  mapping(bytes6 => Golfer) pgaIdToGolfer;\n\n  // contest data\n  string[] contestIds;\n  mapping(string => Contest) contests;\n\n\n  // salary cap is 100\n  // salaries are integers and CAN BE NEGATIVE\n  // think mike weir\n  int salaryCap = 100;\n\n  // rake is 2.0% or 20/1000\n  uint rakeTimesOneThousand = 20;\n\n  // is scoring complete for the current tournament\n  bool isGolferScoringComplete;\n\n  // format: \"{pgaId}:{thursdayTeeTimestamp}:{salary}\"\n  // example: \"34360:1522955700:15 32102:1522963620:-2\" <-- salaries can be negative!\n  string compressedSalariesUrl = \"\"; // e.g. \"https://s3.amazonaws.com/ethdfs/pga/compressedSalaries/2018/471.json\";\n\n  // format: \"{pgaId}:{rd1}-{rd2}-{rd3}-{rd4}\"\n  // example: \"34360:69-66-67-71 32102:70-72-65-67\"\n  string compressedScoresUrl = \"\"; // e.g. \"https://s3.amazonaws.com/ethdfs/pga/compressedScores/2018/471.json\";\n\n  function isValidLineup(bytes6[8] proposedGolferIds) public view returns (bool) {\n\n    uint lineupLength = proposedGolferIds.length;\n    if (lineupLength > 8) {\n      // you can play at most 8 guys\n      // does the type in function arg already prevent this?\n      return false;\n    }\n\n    int16 totalSalary = 0;\n    for (uint8 ii = 0; ii < lineupLength; ii++) {\n      totalSalary += pgaIdToGolfer[proposedGolferIds[ii]].salary;\n    }\n\n    // and if you have 8 or less guys, their total salary\n    // must be less than or equal to the cap\n    return totalSalary <= salaryCap;\n  }\n\n  function setAlreadyValidatedLineup(string contestId, bytes6[8] proposedGolferIds, address lineupAddress) public {\n    // TODO: ENCRYPT THIS LATER w/ Ric's idea\n    // EVERYONES LINEUPS ARE PUBLIC DATA RIGHT NOW LOL\n    // OR: use the jim hashed lineup trick,\n    // united with a really good frontend\n    // for revealing the lineup you have\n    Contest storage contest = contests[contestId];\n    contest.lineups[lineupAddress] = Lineup({golferIds : proposedGolferIds});\n    contest.addressHasEntry[lineupAddress] = true;\n  }\n\n  function isNewContestValid(string contestId, address proposedNewOwner) public view returns (bool) {\n    // make sure we aren't overwriting a previously used contestId.\n    // however, re-use of contest id is okay.\n    // that way, people can remember contest ids and join their fav\n    // contests without having to look for a link\n    if (contests[contestId].isContest) {\n      Contest memory oldContest = contests[contestId];\n\n      if (oldContest.live) {\n        // you can't re-create a live contest.\n        // prevents contest owners from\n        // effectively deleting a contest\n        return false;\n      }\n\n      // if we have a contest, check that the\n      // owner is the only one re-using it.\n      return (oldContest.owner == proposedNewOwner);\n    } else {\n      // if a contest with this contestId does not exist,\n      // then yes we can create it\n      return true;\n    }\n  }\n\n  function calculateRake(uint eth) public view returns (uint) {\n    return eth - (eth * rakeTimesOneThousand) / 1000;\n  }\n\n  function createContest(string contestId, bytes6[8] proposedGolferIds) public payable {\n    // when you make a contest, you also must make a lineup, and you are auto-joined\n    require(isNewContestValid(contestId, msg.sender));\n    require(isValidLineup(proposedGolferIds));\n\n    contestIds.push(contestId);\n    contests[contestId] = Contest({\n      owner : msg.sender,\n      // entry fee is AUTOMATICALLY calculated by how much the owner deposits\n      entryFee : msg.value - calculateRake(msg.value),\n      createdTimestamp : block.timestamp,\n      live : true,\n      arePayoutsSet : false,\n      isContest : true,\n      prizePool : 0,\n      entries : new address[](0)\n    });\n    payEntryFeeToContest(contestId, msg.sender, msg.value);\n  }\n\n  function enterContest(string contestId, bytes6[8] proposedGolferIds) public payable {\n    require(isValidLineup(proposedGolferIds));\n    payEntryFeeToContest(contestId, msg.sender, msg.value);\n    setAlreadyValidatedLineup(contestId, proposedGolferIds, msg.sender);\n  }\n\n  function editLineupInContest(string contestId, bytes6[8] proposedGolferIds) public {\n    require(isValidLineup(proposedGolferIds));\n    setAlreadyValidatedLineup(contestId, proposedGolferIds, msg.sender);\n  }\n\n  function payEntryFeeToContest(string contestId, address msgSender, uint ethEntered) public payable {\n\n    Contest storage activeContest = contests[contestId];\n    if (!activeContest.addressHasEntry[msgSender]) {\n      // if they not are already in the contest, pay rake and enter\n      uint rakeToCollect = calculateRake(ethEntered);\n\n      require(ethEntered > activeContest.entryFee + rakeToCollect);\n\n      activeContest.prizePool += activeContest.entryFee;\n      extraEther += rakeToCollect;\n      // if someone sends us extra money,\n      // it goes their balance for the contest\n      // and by default they can get paid out at the end\n      // otherwise they can withdraw\n      activeContest.balances[msgSender] += ethEntered - activeContest.entryFee - rakeToCollect;\n    }\n\n  }\n\n  function toBytes6(string memory source) returns (bytes6 result) {\n    bytes memory tempEmptyStringTest = bytes(source);\n    if (tempEmptyStringTest.length == 0) {\n        return 0x0;\n    }\n\n    assembly {\n        result := mload(add(source, 6))\n    }\n  }\n\n\n  function setSalaries(string compressedSalaries) public {\n\n    // clear out old golfers (see if this requires a lot of gas?)\n    for (uint16 ii = 0; ii < pgaIdsInSalaries.length; ii++) {\n      delete pgaIdToGolfer[pgaIdsInSalaries[ii]];\n      delete pgaIdsInSalaries[ii];\n    }\n    isGolferScoringComplete = false;\n\n    var compressedSalariesSlice = compressedSalaries.toSlice();\n    var playerDelimiter = \" \".toSlice();\n    var playerSlices = new strings.slice[](compressedSalariesSlice.count(playerDelimiter) + 1);\n\n    for (ii = 0; ii < playerSlices.length; ii++) {\n      playerSlices[ii] = compressedSalariesSlice.split(playerDelimiter);\n      bytes6 pgaPlayerId = toBytes6(playerSlices[ii].split(\":\".toSlice()).toString());\n      uint32 thursdayTeeTimestamp = uint32(parseInt(playerSlices[ii].split(\"-\".toSlice()).toString()));\n      int8 salary = int8(parseInt(playerSlices[ii].split(\"-\".toSlice()).toString()));\n\n      pgaIdsInSalaries[ii] = pgaPlayerId;\n      pgaIdToGolfer[pgaPlayerId] = Golfer({\n          salary : salary,\n          thursdayTeeTimestamp : thursdayTeeTimestamp,\n          points : 0\n        });\n    }\n  }\n\n  function setScores(string compressedScores) public {\n    // TODO: really make sure this works\n    // TODO: difference between var and normal types?\n    require(!isGolferScoringComplete);\n\n    var compressedScoresSlice = compressedScores.toSlice();\n    var playerDelimiter = \" \".toSlice();\n    var playerScoreSlices = new strings.slice[](compressedScoresSlice.count(playerDelimiter) + 1);\n\n    for (uint16 i = 0; i < playerScoreSlices.length; i++) {\n      playerScoreSlices[i] = compressedScoresSlice.split(playerDelimiter);\n      bytes6 pgaPlayerId = toBytes6(playerScoreSlices[i].split(\":\".toSlice()).toString());\n      uint roundSlices = playerScoreSlices[i].count(\"-\".toSlice()) + 1;\n      for (uint rd = 0; rd < roundSlices; rd++) {\n        int8 rdScore = int8(parseInt(playerScoreSlices[i].split(\"-\".toSlice()).toString()));\n        pgaIdToGolfer[pgaPlayerId].points += int8(80) - rdScore;\n      }\n    }\n    isGolferScoringComplete = true;\n  }\n\n  function setSingleContestPayouts(string contestId) public {\n    // everyone who scores > max(0, the contest average) gets paid\n    // you are paid proportional to your squared score\n    require(isGolferScoringComplete);\n\n    Contest storage contest = contests[contestId];\n    require(contest.live);\n    require(!contest.arePayoutsSet);\n\n    int32 totalEntries = int32(contest.entries.length);\n    int totalPoints = 0;\n\n    // calculate the average score in the contest\n    for (uint8 ii = 0; ii < totalEntries; ii++) {\n      address entry = contest.entries[ii];\n      bytes6[8] memory entryPgaIds = contest.lineups[entry].golferIds;\n      for (uint8 g = 0; g < entryPgaIds.length; g++) {\n        contest.entryScores[entry] += pgaIdToGolfer[entryPgaIds[g]].points;\n      }\n      totalPoints += contest.entryScores[entry];\n    }\n\n    // of the top half (except any of those that scored < 0),\n    // sum up the squared scores\n    int averagePointsRoundedDown = totalPoints / totalEntries;\n    // ugh... only using storage since memory isnt dynamic\n    address[] storage winningEntries;\n    uint summedSquaredWinningScores = 0;\n\n    for (ii = 0; ii < totalEntries; ii++) {\n      entry = contest.entries[ii];\n      if (contest.entryScores[entry] >= averagePointsRoundedDown && contest.entryScores[entry] >= 0) {\n        uint squaredScore = uint(contest.entryScores[entry] * contest.entryScores[entry]);\n        winningEntries.push(entry);\n        summedSquaredWinningScores += squaredScore;\n      }\n    }\n\n    // then pay out people proportional to squared points\n    for (ii = 0; ii < winningEntries.length; ii++) {\n      entry = winningEntries[ii];\n      // TODO: make sure there's no rounding error B.S. going on\n      // that makes us massively over or under pay people\n      squaredScore = uint(contest.entryScores[entry] * contest.entryScores[entry]);\n      uint toPayout = (contest.prizePool * squaredScore) / summedSquaredWinningScores;\n      contest.balances[entry] += toPayout;\n    }\n\n    contest.arePayoutsSet = true;\n  }\n\n  function withdrawBalanceFromContest(string contestId) public {\n    Contest storage contest = contests[contestId];\n    if (contest.balances[msg.sender] > 0) {\n      msg.sender.transfer(contest.balances[msg.sender]);\n      contest.balances[msg.sender] = 0;\n    }\n  }\n\n  function payOutContest(string contestId) public {\n    require(isGolferScoringComplete);\n\n    Contest storage contest = contests[contestId];\n    require(contest.arePayoutsSet);\n    require(contest.live);\n\n    for (uint ii = 0; ii < contest.entries.length; ii++) {\n      address entry = contest.entries[ii];\n      if (contest.balances[entry] > 0) {\n        entry.transfer(contest.balances[entry]);\n        contest.balances[msg.sender] = 0;\n      }\n    }\n\n    contest.live = false;\n  }\n\n  function setScoresUrlAndGetResultsOnChain(string compressedScoresUrl_) public {\n      require(msg.sender == contractAdmin);\n      setCompressedScoresUrl(compressedScoresUrl_);\n      getScoresOnChain();\n  }\n\n  function setSalariesUrlAndGetSalariesOnChain(string compressedSalariesUrl_) public {\n      require(msg.sender == contractAdmin);\n      setcompressedSalariesUrl(compressedSalariesUrl_);\n      getSalariesOnChain();\n  }\n\n  // change the compressed scores URL endpoint\n  function setCompressedScoresUrl(string compressedScoresUrl_) public {\n    require(msg.sender == contractAdmin);\n    compressedScoresUrl = compressedScoresUrl_;\n  }\n\n  function setcompressedSalariesUrl(string compressedSalariesUrl_) public {\n    require(msg.sender == contractAdmin);\n    compressedSalariesUrl = compressedSalariesUrl_;\n  }\n\n  function getSalariesOnChain() public payable {\n    innerOraclizeQuery(compressedSalariesUrl, \"Salaries\");\n  }\n\n  function getScoresOnChain() public payable {\n    innerOraclizeQuery(compressedScoresUrl, \"scores\");\n  }\n\n  // ========================= ORACLIZE functions =========================\n\n\n  function innerOraclizeQuery(string queryUrl, string callbackAction) public payable {\n    // TODO: make these views\n    uint cost = 2400000000000000 + (oraclize_getPrice(\"URL\") * 3);\n    uint fee = 100000000000000;\n\n    if (msg.value < cost + fee) {\n      newOraclizeQuery(\"Oraclize query failed. Send more ETH (.0025ETH in gas + $.03 per query\");\n      msg.sender.transfer(msg.value);\n    } else {\n      extraEther += msg.value - cost;\n      newOraclizeQuery(\"Oraclize queries were sent, standing by for the answer.\");\n      bytes32 queryId = oraclize_query(\n        \"URL\",\n        strConcat(\"json(\", queryUrl, \").compressedScores\"),\n        600000\n      );\n      queryIdToCallbackAction[queryId] = callbackAction;\n    }\n  }\n\n  // switch function for callbacks\n  function __callback(bytes32 myid, string result) public {\n    require(msg.sender == oraclize_cbAddress());\n    // can't compare string storage pointers and string literals,\n    // so instead let's compare their keccak256 hashes!\n    bytes32 actionHash = keccak256(queryIdToCallbackAction[myid]);\n    if (actionHash == keccak256(\"Salaries\")) {\n      setSalaries(result);\n    }\n    if (actionHash == keccak256(\"scores\")) {\n      setScores(result);\n    }\n  }\n\n  // CRYPTO RIC:\n  // should anyone wish to be a good blockchain citizen\n  // and delete a wager that is no longer live\n  function deleteContest(string contestId) external {\n    require(!contests[contestId].live);\n    delete contests[contestId];\n  }\n\n  // CRYPTO RIC:\n  // breaking down the free \"getter\" functions\n  // into pieces for the compiler's stack\n  function getContestIsLive(string contestId) view external returns (bool) {\n    return contests[contestId].live;\n  }\n}\n",
  "sourcePath": "/Users/christian/workspace/ddfs/contracts/PgaDfs.sol",
  "compiler": {
    "name": "solc",
    "version": "0.4.18+commit.9cf6e910.Emscripten.clang"
  },
  "schemaVersion": "2.0.0",
  "updatedAt": "2018-07-09T05:27:18.301Z"
}