{
  "contractName": "PgaDfs",
  "abi": [
    {
      "constant": true,
      "inputs": [],
      "name": "contractAdmin",
      "outputs": [
        {
          "name": "",
          "type": "address"
        }
      ],
      "payable": false,
      "stateMutability": "view",
      "type": "function"
    },
    {
      "inputs": [],
      "payable": true,
      "stateMutability": "payable",
      "type": "constructor"
    },
    {
      "anonymous": false,
      "inputs": [
        {
          "indexed": false,
          "name": "description",
          "type": "string"
        }
      ],
      "name": "newOraclizeQuery",
      "type": "event"
    },
    {
      "constant": false,
      "inputs": [],
      "name": "deposit",
      "outputs": [],
      "payable": true,
      "stateMutability": "payable",
      "type": "function"
    },
    {
      "constant": false,
      "inputs": [],
      "name": "withdraw",
      "outputs": [],
      "payable": false,
      "stateMutability": "nonpayable",
      "type": "function"
    },
    {
      "constant": false,
      "inputs": [
        {
          "name": "lineupHash",
          "type": "bytes32"
        }
      ],
      "name": "setLineupHash",
      "outputs": [],
      "payable": false,
      "stateMutability": "nonpayable",
      "type": "function"
    },
    {
      "constant": true,
      "inputs": [
        {
          "name": "entrantAddress",
          "type": "address"
        }
      ],
      "name": "getLineupHash",
      "outputs": [
        {
          "name": "",
          "type": "bytes32"
        }
      ],
      "payable": false,
      "stateMutability": "view",
      "type": "function"
    },
    {
      "constant": true,
      "inputs": [],
      "name": "getSlateId",
      "outputs": [
        {
          "name": "",
          "type": "bytes12"
        }
      ],
      "payable": false,
      "stateMutability": "view",
      "type": "function"
    },
    {
      "constant": true,
      "inputs": [
        {
          "name": "pgaId",
          "type": "string"
        }
      ],
      "name": "getSalary",
      "outputs": [
        {
          "name": "",
          "type": "int8"
        }
      ],
      "payable": false,
      "stateMutability": "view",
      "type": "function"
    },
    {
      "constant": false,
      "inputs": [
        {
          "name": "golferIdsColonDelimited",
          "type": "string"
        }
      ],
      "name": "revealLineup",
      "outputs": [
        {
          "name": "",
          "type": "int16"
        }
      ],
      "payable": false,
      "stateMutability": "nonpayable",
      "type": "function"
    },
    {
      "constant": true,
      "inputs": [
        {
          "name": "eth",
          "type": "uint256"
        }
      ],
      "name": "calculateRake",
      "outputs": [
        {
          "name": "",
          "type": "uint256"
        }
      ],
      "payable": false,
      "stateMutability": "view",
      "type": "function"
    },
    {
      "constant": false,
      "inputs": [
        {
          "name": "contestId",
          "type": "bytes32"
        }
      ],
      "name": "createContest",
      "outputs": [],
      "payable": true,
      "stateMutability": "payable",
      "type": "function"
    },
    {
      "constant": false,
      "inputs": [
        {
          "name": "contestId",
          "type": "bytes32"
        }
      ],
      "name": "enterContest",
      "outputs": [],
      "payable": true,
      "stateMutability": "payable",
      "type": "function"
    },
    {
      "constant": false,
      "inputs": [
        {
          "name": "contestId",
          "type": "bytes32"
        },
        {
          "name": "msgSender",
          "type": "address"
        },
        {
          "name": "ethEntered",
          "type": "uint256"
        }
      ],
      "name": "payEntryFeeToContest",
      "outputs": [],
      "payable": true,
      "stateMutability": "payable",
      "type": "function"
    },
    {
      "constant": false,
      "inputs": [
        {
          "name": "source",
          "type": "string"
        }
      ],
      "name": "toBytes32",
      "outputs": [
        {
          "name": "result",
          "type": "bytes32"
        }
      ],
      "payable": false,
      "stateMutability": "nonpayable",
      "type": "function"
    },
    {
      "constant": false,
      "inputs": [
        {
          "name": "compressedSalaries",
          "type": "string"
        }
      ],
      "name": "setSalaries",
      "outputs": [
        {
          "name": "",
          "type": "bytes32"
        },
        {
          "name": "",
          "type": "string"
        }
      ],
      "payable": false,
      "stateMutability": "nonpayable",
      "type": "function"
    },
    {
      "constant": false,
      "inputs": [
        {
          "name": "compressedScores",
          "type": "string"
        }
      ],
      "name": "setScores",
      "outputs": [],
      "payable": false,
      "stateMutability": "nonpayable",
      "type": "function"
    },
    {
      "constant": false,
      "inputs": [
        {
          "name": "contestId",
          "type": "bytes32"
        }
      ],
      "name": "setSingleContestPayouts",
      "outputs": [],
      "payable": false,
      "stateMutability": "nonpayable",
      "type": "function"
    },
    {
      "constant": false,
      "inputs": [
        {
          "name": "contestId",
          "type": "bytes32"
        }
      ],
      "name": "withdrawBalanceFromContest",
      "outputs": [],
      "payable": false,
      "stateMutability": "nonpayable",
      "type": "function"
    },
    {
      "constant": false,
      "inputs": [
        {
          "name": "contestId",
          "type": "bytes32"
        }
      ],
      "name": "payOutContest",
      "outputs": [],
      "payable": false,
      "stateMutability": "nonpayable",
      "type": "function"
    },
    {
      "constant": false,
      "inputs": [],
      "name": "getSalariesOnChain",
      "outputs": [],
      "payable": true,
      "stateMutability": "payable",
      "type": "function"
    },
    {
      "constant": false,
      "inputs": [],
      "name": "getScoresOnChain",
      "outputs": [],
      "payable": true,
      "stateMutability": "payable",
      "type": "function"
    },
    {
      "constant": false,
      "inputs": [
        {
          "name": "compressedScoresUrl_",
          "type": "string"
        }
      ],
      "name": "setScoresUrlAndGetResultsOnChain",
      "outputs": [],
      "payable": false,
      "stateMutability": "nonpayable",
      "type": "function"
    },
    {
      "constant": false,
      "inputs": [
        {
          "name": "compressedSalariesUrl_",
          "type": "string"
        }
      ],
      "name": "setSalariesUrlAndGetSalariesOnChain",
      "outputs": [],
      "payable": false,
      "stateMutability": "nonpayable",
      "type": "function"
    },
    {
      "constant": false,
      "inputs": [
        {
          "name": "_newSlateId",
          "type": "bytes12"
        },
        {
          "name": "_compressedSalariesUrl",
          "type": "string"
        },
        {
          "name": "_compressedScoresUrl",
          "type": "string"
        },
        {
          "name": "lockTimestamp",
          "type": "uint256"
        }
      ],
      "name": "setNewSlateInfo",
      "outputs": [],
      "payable": false,
      "stateMutability": "nonpayable",
      "type": "function"
    },
    {
      "constant": false,
      "inputs": [
        {
          "name": "queryUrl",
          "type": "string"
        },
        {
          "name": "callbackAction",
          "type": "string"
        }
      ],
      "name": "innerOraclizeQuery",
      "outputs": [],
      "payable": true,
      "stateMutability": "payable",
      "type": "function"
    },
    {
      "constant": false,
      "inputs": [
        {
          "name": "myid",
          "type": "bytes32"
        },
        {
          "name": "result",
          "type": "string"
        },
        {
          "name": "proof",
          "type": "bytes"
        }
      ],
      "name": "__callback",
      "outputs": [],
      "payable": false,
      "stateMutability": "nonpayable",
      "type": "function"
    },
    {
      "constant": false,
      "inputs": [
        {
          "name": "myid",
          "type": "bytes32"
        },
        {
          "name": "result",
          "type": "string"
        }
      ],
      "name": "__callback",
      "outputs": [],
      "payable": false,
      "stateMutability": "nonpayable",
      "type": "function"
    },
    {
      "constant": false,
      "inputs": [
        {
          "name": "contestId",
          "type": "bytes32"
        }
      ],
      "name": "deleteContest",
      "outputs": [],
      "payable": false,
      "stateMutability": "nonpayable",
      "type": "function"
    },
    {
      "constant": true,
      "inputs": [],
      "name": "getLiveContestIds",
      "outputs": [
        {
          "name": "",
          "type": "bytes32[]"
        }
      ],
      "payable": false,
      "stateMutability": "view",
      "type": "function"
    },
    {
      "constant": true,
      "inputs": [
        {
          "name": "contestId",
          "type": "bytes32"
        }
      ],
      "name": "getContestById",
      "outputs": [
        {
          "name": "",
          "type": "bytes32"
        },
        {
          "name": "",
          "type": "uint256"
        },
        {
          "name": "",
          "type": "uint256"
        },
        {
          "name": "",
          "type": "address"
        }
      ],
      "payable": false,
      "stateMutability": "view",
      "type": "function"
    },
    {
      "constant": true,
      "inputs": [],
      "name": "testFunction",
      "outputs": [
        {
          "name": "",
          "type": "string"
        }
      ],
      "payable": false,
      "stateMutability": "view",
      "type": "function"
    }
  ],
  "bytecode": "0x60606040526020604051908101604052806000815250600b90805190602001906200002c929190620000c0565b506020604051908101604052806000815250600c908051906020019062000055929190620000c0565b506064601255601460135560075434101515156200007257600080fd5b33600560006101000a81548173ffffffffffffffffffffffffffffffffffffffff021916908373ffffffffffffffffffffffffffffffffffffffff160217905550346006819055506200016f565b828054600181600116156101000203166002900490600052602060002090601f016020900481019282601f106200010357805160ff191683800117855562000134565b8280016001018555821562000134579182015b828111156200013357825182559160200191906001019062000116565b5b50905062000143919062000147565b5090565b6200016c91905b80821115620001685760008160009055506001016200014e565b5090565b90565b615957806200017f6000396000f300606060405260043610610180576000357c0100000000000000000000000000000000000000000000000000000000900463ffffffff1680630b4103ee146101855780630fc33560146101ac578063137492ff146101b657806326daf1641461021357806327dc297e146102a857806327df8f2a146103125780632b58719d1461038b57806338bbfa50146104705780633ccfd60b1461051d57806344375f6614610532578063471924db146105fb5780634c55dcde146106655780634c5e9d181461068c5780634d346a49146106e95780636aff681c146107405780637795524514610784578063807d9e16146107d9578063897e4edb146107f5578063abfb80bc14610811578063c1c6070e14610838578063c5012ffc1461085f578063d0e30db0146108bc578063d781b7cf146108c6578063e16b4a9b146108fd578063e42c13371461098b578063eb1a572414610a02578063ec0f831114610a57578063f03008ba14610ace578063f5a45c6014610af5578063fb9a7aaf14610b79575b600080fd5b341561019057600080fd5b6101aa600480803560001916906020019091905050610b83565b005b6101b4611819565b005b34156101c157600080fd5b610211600480803590602001908201803590602001908080601f016020809104026020016040519081016040528093929190818152602001838380828437820191505050505050919050506118f4565b005b6102a6600480803590602001908201803590602001908080601f0160208091040260200160405190810160405280939291908181526020018383808284378201915050505050509190803590602001908201803590602001908080601f01602080910402602001604051908101604052809392919081815260200183838082843782019150505050505091905050611964565b005b34156102b357600080fd5b61031060048080356000191690602001909190803590602001908201803590602001908080601f01602080910402602001604051908101604052809392919081815260200183838082843782019150505050505091905050611c52565b005b341561031d57600080fd5b61036d600480803590602001908201803590602001908080601f01602080910402602001604051908101604052809392919081815260200183838082843782019150505050505091905050611dbf565b60405180826000191660001916815260200191505060405180910390f35b341561039657600080fd5b6103e6600480803590602001908201803590602001908080601f01602080910402602001604051908101604052809392919081815260200183838082843782019150505050505091905050611df0565b60405180836000191660001916815260200180602001828103825283818151815260200191508051906020019080838360005b83811015610434578082015181840152602081019050610419565b50505050905090810190601f1680156104615780820380516001836020036101000a031916815260200191505b50935050505060405180910390f35b341561047b57600080fd5b61051b60048080356000191690602001909190803590602001908201803590602001908080601f0160208091040260200160405190810160405280939291908181526020018383808284378201915050505050509190803590602001908201803590602001908080601f0160208091040260200160405190810160405280939291908181526020018383808284378201915050505050509190505061201c565b005b341561052857600080fd5b610530612021565b005b341561053d57600080fd5b6105f9600480803573ffffffffffffffffffffffffffffffffffffffff191690602001909190803590602001908201803590602001908080601f0160208091040260200160405190810160405280939291908181526020018383808284378201915050505050509190803590602001908201803590602001908080601f01602080910402602001604051908101604052809392919081815260200183838082843782019150505050505091908035906020019091905050612100565b005b341561060657600080fd5b61060e612218565b6040518080602001828103825283818151815260200191508051906020019060200280838360005b83811015610651578082015181840152602081019050610636565b505050509050019250505060405180910390f35b341561067057600080fd5b61068a60048080356000191690602001909190505061231c565b005b341561069757600080fd5b6106e7600480803590602001908201803590602001908080601f01602080910402602001604051908101604052809392919081815260200183838082843782019150505050505091905050612438565b005b34156106f457600080fd5b6106fc61288b565b604051808273ffffffffffffffffffffffffffffffffffffffff191673ffffffffffffffffffffffffffffffffffffffff1916815260200191505060405180910390f35b61078260048080356000191690602001909190803573ffffffffffffffffffffffffffffffffffffffff169060200190919080359060200190919050506128b6565b005b341561078f57600080fd5b610797612a31565b604051808273ffffffffffffffffffffffffffffffffffffffff1673ffffffffffffffffffffffffffffffffffffffff16815260200191505060405180910390f35b6107f3600480803560001916906020019091905050612a57565b005b61080f600480803560001916906020019091905050612ba3565b005b341561081c57600080fd5b610836600480803560001916906020019091905050612db4565b005b341561084357600080fd5b61085d600480803560001916906020019091905050613149565b005b341561086a57600080fd5b6108ba600480803590602001908201803590602001908080601f0160208091040260200160405190810160405280939291908181526020018383808284378201915050505050509190505061328f565b005b6108c46132ff565b005b34156108d157600080fd5b6108e76004808035906020019091905050613311565b6040518082815260200191505060405180910390f35b341561090857600080fd5b61091061332e565b6040518080602001828103825283818151815260200191508051906020019080838360005b83811015610950578082015181840152602081019050610935565b50505050905090810190601f16801561097d5780820380516001836020036101000a031916815260200191505b509250505060405180910390f35b341561099657600080fd5b6109e6600480803590602001908201803590602001908080601f01602080910402602001604051908101604052809392919081815260200183838082843782019150505050505091905050613371565b604051808260000b60000b815260200191505060405180910390f35b3415610a0d57600080fd5b610a39600480803573ffffffffffffffffffffffffffffffffffffffff16906020019091905050613415565b60405180826000191660001916815260200191505060405180910390f35b3415610a6257600080fd5b610ab2600480803590602001908201803590602001908080601f016020809104026020016040519081016040528093929190818152602001838380828437820191505050505050919050506134c3565b604051808260010b60010b815260200191505060405180910390f35b3415610ad957600080fd5b610af3600480803560001916906020019091905050613906565b005b3415610b0057600080fd5b610b1a600480803560001916906020019091905050613a3c565b6040518085600019166000191681526020018481526020018381526020018273ffffffffffffffffffffffffffffffffffffffff1673ffffffffffffffffffffffffffffffffffffffff16815260200194505050505060405180910390f35b610b81613b06565b005b6000806000806000610b936156ff565b60008060008060008060146000600960009054906101000a9004740100000000000000000000000000000000000000000273ffffffffffffffffffffffffffffffffffffffff191673ffffffffffffffffffffffffffffffffffffffff1916815260200190815260200160002060009054906101000a900460ff161515610c1957600080fd5b601160008e600019166000191681526020019081526020016000209b508b60040160009054906101000a900460ff161515610c5357600080fd5b8b6005016000600960009054906101000a9004740100000000000000000000000000000000000000000273ffffffffffffffffffffffffffffffffffffffff191673ffffffffffffffffffffffffffffffffffffffff1916815260200190815260200160002060009054906101000a900460ff16151515610cd357600080fd5b8b6006016000600960009054906101000a9004740100000000000000000000000000000000000000000273ffffffffffffffffffffffffffffffffffffffff191673ffffffffffffffffffffffffffffffffffffffff19168152602001908152602001600020805490509a5060009950600098505b8a60030b8960ff16121561113b578b6006016000600960009054906101000a9004740100000000000000000000000000000000000000000273ffffffffffffffffffffffffffffffffffffffff191673ffffffffffffffffffffffffffffffffffffffff191681526020019081526020016000208960ff16815481101515610dcc57fe5b906000526020600020900160009054906101000a900473ffffffffffffffffffffffffffffffffffffffff169750600f6000600960009054906101000a9004740100000000000000000000000000000000000000000273ffffffffffffffffffffffffffffffffffffffff191673ffffffffffffffffffffffffffffffffffffffff1916815260200190815260200160002060008973ffffffffffffffffffffffffffffffffffffffff1673ffffffffffffffffffffffffffffffffffffffff168152602001908152602001600020600201600880602002604051908101604052809291908260088015610ed9576020028201915b81546000191681526020019060010190808311610ec1575b50505050509650600095505b60088660ff16101561107657600e6000600960009054906101000a9004740100000000000000000000000000000000000000000273ffffffffffffffffffffffffffffffffffffffff191673ffffffffffffffffffffffffffffffffffffffff191681526020019081526020016000206000888860ff16600881101515610f6857fe5b60200201516000191660001916815260200190815260200160002060000160019054906101000a900460000b60000b8c6008016000600960009054906101000a9004740100000000000000000000000000000000000000000273ffffffffffffffffffffffffffffffffffffffff191673ffffffffffffffffffffffffffffffffffffffff1916815260200190815260200160002060008a73ffffffffffffffffffffffffffffffffffffffff1673ffffffffffffffffffffffffffffffffffffffff16815260200190815260200160002060008282829054906101000a900460010b0192506101000a81548161ffff021916908360010b61ffff1602179055508580600101965050610ee5565b8b6008016000600960009054906101000a9004740100000000000000000000000000000000000000000273ffffffffffffffffffffffffffffffffffffffff191673ffffffffffffffffffffffffffffffffffffffff1916815260200190815260200160002060008973ffffffffffffffffffffffffffffffffffffffff1673ffffffffffffffffffffffffffffffffffffffff16815260200190815260200160002060009054906101000a900460010b60010b8a0199508880600101995050610d48565b8a60030b8a81151561114957fe5b05945060009250600098505b8a60030b8960ff161215611560578b6006016000600960009054906101000a9004740100000000000000000000000000000000000000000273ffffffffffffffffffffffffffffffffffffffff191673ffffffffffffffffffffffffffffffffffffffff191681526020019081526020016000208960ff168154811015156111d957fe5b906000526020600020900160009054906101000a900473ffffffffffffffffffffffffffffffffffffffff169750848c6008016000600960009054906101000a9004740100000000000000000000000000000000000000000273ffffffffffffffffffffffffffffffffffffffff191673ffffffffffffffffffffffffffffffffffffffff1916815260200190815260200160002060008a73ffffffffffffffffffffffffffffffffffffffff1673ffffffffffffffffffffffffffffffffffffffff16815260200190815260200160002060009054906101000a900460010b60010b1215801561137e575060008c6008016000600960009054906101000a9004740100000000000000000000000000000000000000000273ffffffffffffffffffffffffffffffffffffffff191673ffffffffffffffffffffffffffffffffffffffff1916815260200190815260200160002060008a73ffffffffffffffffffffffffffffffffffffffff1673ffffffffffffffffffffffffffffffffffffffff16815260200190815260200160002060009054906101000a900460010b60010b12155b15611553578b6008016000600960009054906101000a9004740100000000000000000000000000000000000000000273ffffffffffffffffffffffffffffffffffffffff191673ffffffffffffffffffffffffffffffffffffffff1916815260200190815260200160002060008973ffffffffffffffffffffffffffffffffffffffff1673ffffffffffffffffffffffffffffffffffffffff16815260200190815260200160002060009054906101000a900460010b8c6008016000600960009054906101000a9004740100000000000000000000000000000000000000000273ffffffffffffffffffffffffffffffffffffffff191673ffffffffffffffffffffffffffffffffffffffff1916815260200190815260200160002060008a73ffffffffffffffffffffffffffffffffffffffff1673ffffffffffffffffffffffffffffffffffffffff16815260200190815260200160002060009054906101000a900460010b0260010b91508380548060010182816114fe919061572b565b916000526020600020900160008a909190916101000a81548173ffffffffffffffffffffffffffffffffffffffff021916908373ffffffffffffffffffffffffffffffffffffffff1602179055505081830192505b8880600101995050611155565b600098505b83805490508960ff16101561178b57838960ff1681548110151561158557fe5b906000526020600020900160009054906101000a900473ffffffffffffffffffffffffffffffffffffffff1697508b6008016000600960009054906101000a9004740100000000000000000000000000000000000000000273ffffffffffffffffffffffffffffffffffffffff191673ffffffffffffffffffffffffffffffffffffffff1916815260200190815260200160002060008973ffffffffffffffffffffffffffffffffffffffff1673ffffffffffffffffffffffffffffffffffffffff16815260200190815260200160002060009054906101000a900460010b8c6008016000600960009054906101000a9004740100000000000000000000000000000000000000000273ffffffffffffffffffffffffffffffffffffffff191673ffffffffffffffffffffffffffffffffffffffff1916815260200190815260200160002060008a73ffffffffffffffffffffffffffffffffffffffff1673ffffffffffffffffffffffffffffffffffffffff16815260200190815260200160002060009054906101000a900460010b0260010b915082828d600201540281151561172c57fe5b049050808c60090160008a73ffffffffffffffffffffffffffffffffffffffff1673ffffffffffffffffffffffffffffffffffffffff168152602001908152602001600020600082825401925050819055508880600101995050611565565b60018c6005016000600960009054906101000a9004740100000000000000000000000000000000000000000273ffffffffffffffffffffffffffffffffffffffff191673ffffffffffffffffffffffffffffffffffffffff1916815260200190815260200160002060006101000a81548160ff02191690831515021790555050505050505050505050505050565b6118f2600c8054600181600116156101000203166002900480601f0160208091040260200160405190810160405280929190818152602001828054600181600116156101000203166002900480156118b25780601f10611887576101008083540402835291602001916118b2565b820191906000526020600020905b81548152906001019060200180831161189557829003601f168201915b50505050506040805190810160405280600681526020017f53636f7265730000000000000000000000000000000000000000000000000000815250611964565b565b600560009054906101000a900473ffffffffffffffffffffffffffffffffffffffff1673ffffffffffffffffffffffffffffffffffffffff163373ffffffffffffffffffffffffffffffffffffffff1614151561195057600080fd5b61195981613be1565b611961613b06565b50565b600080600060036119a96040805190810160405280600381526020017f55524c0000000000000000000000000000000000000000000000000000000000815250613bfb565b02660886c98b760000019250655af3107a40009150818301341015611ac1577f46cb989ef9cef13e930e3b7f286225a086e716a90d63e0b7da85d310a9db0c9a6040518080602001828103825260468152602001807f4f7261636c697a65207175657279206661696c65642e2053656e64206d6f726581526020017f2045544820282e3030323545544820696e20676173202b20242e30332070657281526020017f207175657279000000000000000000000000000000000000000000000000000081525060600191505060405180910390a13373ffffffffffffffffffffffffffffffffffffffff166108fc349081150290604051600060405180830381858888f193505050501515611abc57600080fd5b611c4b565b8234036006600082825401925050819055507f46cb989ef9cef13e930e3b7f286225a086e716a90d63e0b7da85d310a9db0c9a6040518080602001828103825260378152602001807f4f7261636c697a65207175657269657320776572652073656e742c207374616e81526020017f64696e6720627920666f722074686520616e737765722e00000000000000000081525060400191505060405180910390a1611c186040805190810160405280600381526020017f55524c0000000000000000000000000000000000000000000000000000000000815250611c0f6040805190810160405280600581526020017f6a736f6e28000000000000000000000000000000000000000000000000000000815250886040805190810160405280601281526020017f292e636f6d7072657373656453636f7265730000000000000000000000000000815250613f83565b620927c0613fc1565b9050836008600083600019166000191681526020019081526020016000209080519060200190611c49929190615757565b505b5050505050565b6000611c5c614511565b73ffffffffffffffffffffffffffffffffffffffff163373ffffffffffffffffffffffffffffffffffffffff16141515611c9557600080fd5b6008600084600019166000191681526020019081526020016000206040518082805460018160011615610100020316600290048015611d0b5780601f10611ce9576101008083540402835291820191611d0b565b820191906000526020600020905b815481529060010190602001808311611cf7575b50509150506040518091039020905060405180807f53616c6172696573000000000000000000000000000000000000000000000000815250600801905060405180910390206000191681600019161415611d6b57611d6882611df0565b50505b60405180807f53636f7265730000000000000000000000000000000000000000000000000000815250600601905060405180910390206000191681600019161415611dba57611db982612438565b5b505050565b6000611dc96157d7565b829050600081511415611de25760006001029150611dea565b602083015191505b50919050565b6000611dfa6157eb565b611e026157ff565b611e0a6157ff565b611e126157ff565b600080611e1d6157ff565b6000806000600560009054906101000a900473ffffffffffffffffffffffffffffffffffffffff1673ffffffffffffffffffffffffffffffffffffffff163373ffffffffffffffffffffffffffffffffffffffff16141515611e7e57600080fd5b600060146000600960009054906101000a9004740100000000000000000000000000000000000000000273ffffffffffffffffffffffffffffffffffffffff191673ffffffffffffffffffffffffffffffffffffffff1916815260200190815260200160002060006101000a81548160ff021916908315150217905550611f048c614827565b9850611f446040805190810160405280600181526020017f2000000000000000000000000000000000000000000000000000000000000000815250614827565b9750611f846040805190810160405280600181526020017f3a00000000000000000000000000000000000000000000000000000000000000815250614827565b96506001611f9b898b61485590919063ffffffff16565b01955060009450858560ff16101561200d57611fc0888a6148cc90919063ffffffff16565b9350611fe5611fe0611fdb89876148cc90919063ffffffff16565b6148e6565b611dbf565b9250611ff8611ff3856148e6565b614944565b915082612004856148e6565b9a509a5061200e565b5b505050505050505050915091565b505050565b600560009054906101000a900473ffffffffffffffffffffffffffffffffffffffff1673ffffffffffffffffffffffffffffffffffffffff163373ffffffffffffffffffffffffffffffffffffffff1614151561207d57600080fd5b60006007546006540311156120fe57600560009054906101000a900473ffffffffffffffffffffffffffffffffffffffff1673ffffffffffffffffffffffffffffffffffffffff166108fc600754600654039081150290604051600060405180830381858888f1935050505015156120f457600080fd5b6007546006819055505b565b600560009054906101000a900473ffffffffffffffffffffffffffffffffffffffff1673ffffffffffffffffffffffffffffffffffffffff163373ffffffffffffffffffffffffffffffffffffffff1614151561215c57600080fd5b83600960006101000a8154816bffffffffffffffffffffffff0219169083740100000000000000000000000000000000000000009004021790555080600a6000600960009054906101000a9004740100000000000000000000000000000000000000000273ffffffffffffffffffffffffffffffffffffffff191673ffffffffffffffffffffffffffffffffffffffff191681526020019081526020016000208190555061220982614958565b61221283613be1565b50505050565b612220615845565b60008060008091505b6010805490508210156122c05760108281548110151561224557fe5b906000526020600020900154905060116000826000191660001916815260200190815260200160002060040160009054906101000a900460ff16156122b3578280548060010182816122979190615819565b9160005260206000209001600083909190915090600019169055505b8180600101925050612229565b8280548060200260200160405190810160405280929190818152602001828054801561230f57602002820191906000526020600020905b815460001916815260200190600101908083116122f7575b5050505050935050505090565b60116000826000191660001916815260200190815260200160002060040160009054906101000a900460ff1615151561235457600080fd5b60116000826000191660001916815260200190815260200160002060000160009054906101000a900473ffffffffffffffffffffffffffffffffffffffff1673ffffffffffffffffffffffffffffffffffffffff163373ffffffffffffffffffffffffffffffffffffffff161415156123cc57600080fd5b601160008260001916600019168152602001908152602001600020600080820160006101000a81549073ffffffffffffffffffffffffffffffffffffffff0219169055600182016000905560028201600090556004820160006101000a81549060ff0219169055505050565b6124406157ff565b6124486157ff565b612450615859565b600080600080600060146000600960009054906101000a9004740100000000000000000000000000000000000000000273ffffffffffffffffffffffffffffffffffffffff191673ffffffffffffffffffffffffffffffffffffffff1916815260200190815260200160002060009054906101000a900460ff161515156124d657600080fd5b6124df89614827565b975061251f6040805190810160405280600181526020017f2000000000000000000000000000000000000000000000000000000000000000815250614827565b96506001612536888a61485590919063ffffffff16565b016040518059106125445750595b90808252806020026020018201604052801561257a57816020015b61256761586d565b81526020019060019003908161255f5790505b509550600094505b85518561ffff161015612803576125a287896148cc90919063ffffffff16565b868661ffff168151811015156125b457fe5b9060200190602002018190525061263c6126376126326126086040805190810160405280600181526020017f3a00000000000000000000000000000000000000000000000000000000000000815250614827565b898961ffff1681518110151561261a57fe5b906020019060200201516148cc90919063ffffffff16565b6148e6565b611dbf565b935060016126ab6126816040805190810160405280600181526020017f2d00000000000000000000000000000000000000000000000000000000000000815250614827565b888861ffff1681518110151561269357fe5b9060200190602002015161485590919063ffffffff16565b019250600091505b828210156127f65761273661273161272c6127026040805190810160405280600181526020017f2d00000000000000000000000000000000000000000000000000000000000000815250614827565b898961ffff1681518110151561271457fe5b906020019060200201516148cc90919063ffffffff16565b6148e6565b614944565b905080605003600e6000600960009054906101000a9004740100000000000000000000000000000000000000000273ffffffffffffffffffffffffffffffffffffffff191673ffffffffffffffffffffffffffffffffffffffff191681526020019081526020016000206000866000191660001916815260200190815260200160002060000160018282829054906101000a900460000b0192506101000a81548160ff021916908360000b60ff16021790555081806001019250506126b3565b8480600101955050612582565b600160146000600960009054906101000a9004740100000000000000000000000000000000000000000273ffffffffffffffffffffffffffffffffffffffff191673ffffffffffffffffffffffffffffffffffffffff1916815260200190815260200160002060006101000a81548160ff021916908315150217905550505050505050505050565b6000600960009054906101000a90047401000000000000000000000000000000000000000002905090565b6000806011600086600019166000191681526020019081526020016000209150816007016000600960009054906101000a9004740100000000000000000000000000000000000000000273ffffffffffffffffffffffffffffffffffffffff191673ffffffffffffffffffffffffffffffffffffffff1916815260200190815260200160002060008573ffffffffffffffffffffffffffffffffffffffff1673ffffffffffffffffffffffffffffffffffffffff16815260200190815260200160002060009054906101000a900460ff161515612a2a5761299683613311565b905080826001015401831115156129ac57600080fd5b81600101548260020160008282540192505081905550806006600082825401925050819055508082600101548403038260090160008673ffffffffffffffffffffffffffffffffffffffff1673ffffffffffffffffffffffffffffffffffffffff168152602001908152602001600020600082825401925050819055505b5050505050565b600560009054906101000a900473ffffffffffffffffffffffffffffffffffffffff1681565b612a5f615887565b600f6000600960009054906101000a9004740100000000000000000000000000000000000000000273ffffffffffffffffffffffffffffffffffffffff191673ffffffffffffffffffffffffffffffffffffffff1916815260200190815260200160002060003373ffffffffffffffffffffffffffffffffffffffff1673ffffffffffffffffffffffffffffffffffffffff168152602001908152602001600020606060405190810160405290816000820160009054906101000a900460ff1615151515815260200160018201546000191660001916815260200160028201600880602002604051908101604052809291908260088015612b79576020028201915b81546000191681526020019060010190808311612b61575b505050505081525050905080600001511515612b9457600080fd5b612b9f8233346128b6565b5050565b60116000826000191660001916815260200190815260200160002060040160009054906101000a900460ff16151515612bdb57600080fd5b600f6000600960009054906101000a9004740100000000000000000000000000000000000000000273ffffffffffffffffffffffffffffffffffffffff191673ffffffffffffffffffffffffffffffffffffffff1916815260200190815260200160002060003373ffffffffffffffffffffffffffffffffffffffff1673ffffffffffffffffffffffffffffffffffffffff16815260200190815260200160002060000160009054906101000a900460ff161515612c9857600080fd5b60108054806001018281612cac9190615819565b9160005260206000209001600083909190915090600019169055506080604051908101604052803373ffffffffffffffffffffffffffffffffffffffff168152602001612cf834613311565b34038152602001600081526020016001151581525060116000836000191660001916815260200190815260200160002060008201518160000160006101000a81548173ffffffffffffffffffffffffffffffffffffffff021916908373ffffffffffffffffffffffffffffffffffffffff160217905550602082015181600101556040820151816002015560608201518160040160006101000a81548160ff021916908315150217905550905050612db18133346128b6565b50565b600080600060146000600960009054906101000a9004740100000000000000000000000000000000000000000273ffffffffffffffffffffffffffffffffffffffff191673ffffffffffffffffffffffffffffffffffffffff1916815260200190815260200160002060009054906101000a900460ff161515612e3657600080fd5b6011600085600019166000191681526020019081526020016000209250826005016000600960009054906101000a9004740100000000000000000000000000000000000000000273ffffffffffffffffffffffffffffffffffffffff191673ffffffffffffffffffffffffffffffffffffffff1916815260200190815260200160002060009054906101000a900460ff161515612ed257600080fd5b8260040160009054906101000a900460ff161515612eef57600080fd5b600091505b826006016000600960009054906101000a9004740100000000000000000000000000000000000000000273ffffffffffffffffffffffffffffffffffffffff191673ffffffffffffffffffffffffffffffffffffffff191681526020019081526020016000208054905082101561312657826006016000600960009054906101000a9004740100000000000000000000000000000000000000000273ffffffffffffffffffffffffffffffffffffffff191673ffffffffffffffffffffffffffffffffffffffff1916815260200190815260200160002082815481101515612fd857fe5b906000526020600020900160009054906101000a900473ffffffffffffffffffffffffffffffffffffffff16905060008360090160008373ffffffffffffffffffffffffffffffffffffffff1673ffffffffffffffffffffffffffffffffffffffff168152602001908152602001600020541115613119578073ffffffffffffffffffffffffffffffffffffffff166108fc8460090160008473ffffffffffffffffffffffffffffffffffffffff1673ffffffffffffffffffffffffffffffffffffffff168152602001908152602001600020549081150290604051600060405180830381858888f1935050505015156130d157600080fd5b60008360090160003373ffffffffffffffffffffffffffffffffffffffff1673ffffffffffffffffffffffffffffffffffffffff168152602001908152602001600020819055505b8180600101925050612ef4565b60008360040160006101000a81548160ff02191690831515021790555050505050565b6000600a6000600960009054906101000a9004740100000000000000000000000000000000000000000273ffffffffffffffffffffffffffffffffffffffff191673ffffffffffffffffffffffffffffffffffffffff191681526020019081526020016000205442111515156131be57600080fd5b600f6000600960009054906101000a9004740100000000000000000000000000000000000000000273ffffffffffffffffffffffffffffffffffffffff191673ffffffffffffffffffffffffffffffffffffffff1916815260200190815260200160002060003373ffffffffffffffffffffffffffffffffffffffff1673ffffffffffffffffffffffffffffffffffffffff16815260200190815260200160002090508181600101816000191690555060018160000160006101000a81548160ff0219169083151502179055505050565b600560009054906101000a900473ffffffffffffffffffffffffffffffffffffffff1673ffffffffffffffffffffffffffffffffffffffff163373ffffffffffffffffffffffffffffffffffffffff161415156132eb57600080fd5b6132f481614958565b6132fc611819565b50565b34600660008282540192505081905550565b60006103e8601354830281151561332457fe5b0482039050919050565b6133366157eb565b6040805190810160405280600481526020017f7465737400000000000000000000000000000000000000000000000000000000815250905090565b60008061337d83611dbf565b9050600e6000600960009054906101000a9004740100000000000000000000000000000000000000000273ffffffffffffffffffffffffffffffffffffffff191673ffffffffffffffffffffffffffffffffffffffff191681526020019081526020016000206000826000191660001916815260200190815260200160002060000160009054906101000a900460000b915050919050565b6000600f6000600960009054906101000a9004740100000000000000000000000000000000000000000273ffffffffffffffffffffffffffffffffffffffff191673ffffffffffffffffffffffffffffffffffffffff1916815260200190815260200160002060008373ffffffffffffffffffffffffffffffffffffffff1673ffffffffffffffffffffffffffffffffffffffff168152602001908152602001600020600101549050919050565b60006134cd615845565b6134d56157ff565b6134dd6157ff565b6000806000806000896040518082805190602001908083835b60208310151561351b57805182526020820191506020810190506020830392506134f6565b6001836020036101000a038019825116818451168082178552505050505050905001915050604051809103902060001916600f6000600960009054906101000a9004740100000000000000000000000000000000000000000273ffffffffffffffffffffffffffffffffffffffff191673ffffffffffffffffffffffffffffffffffffffff1916815260200190815260200160002060003373ffffffffffffffffffffffffffffffffffffffff1673ffffffffffffffffffffffffffffffffffffffff168152602001908152602001600020600101546000191614151561360157600080fd5b60086040518059106136105750595b9080825280602002602001820160405250975061362c8a614827565b965061366c6040805190810160405280600181526020017f3a00000000000000000000000000000000000000000000000000000000000000815250614827565b95506001613683878961485590919063ffffffff16565b0194506008851115151561369657600080fd5b60009350600092505b848360ff1610156137ec576136cd6136c86136c3888a6148cc90919063ffffffff16565b6148e6565b611dbf565b9150600090505b8260ff168160ff16101561372057878160ff168151811015156136f357fe5b906020019060200201516000191682600019161415151561371357600080fd5b80806001019150506136d4565b81888460ff1681518110151561373257fe5b906020019060200201906000191690816000191681525050600e6000600960009054906101000a9004740100000000000000000000000000000000000000000273ffffffffffffffffffffffffffffffffffffffff191673ffffffffffffffffffffffffffffffffffffffff191681526020019081526020016000206000836000191660001916815260200190815260200160002060000160009054906101000a900460000b60000b84019350828060010193505061369f565b6012548460010b1315151561380057600080fd5b600092505b87518360ff1610156138f657878360ff1681518110151561382257fe5b90602001906020020151600f6000600960009054906101000a9004740100000000000000000000000000000000000000000273ffffffffffffffffffffffffffffffffffffffff191673ffffffffffffffffffffffffffffffffffffffff1916815260200190815260200160002060003373ffffffffffffffffffffffffffffffffffffffff1673ffffffffffffffffffffffffffffffffffffffff1681526020019081526020016000206002018460ff166008811015156138e057fe5b0181600019169055508280600101935050613805565b8398505050505050505050919050565b6000601160008360001916600019168152602001908152602001600020905060008160090160003373ffffffffffffffffffffffffffffffffffffffff1673ffffffffffffffffffffffffffffffffffffffff168152602001908152602001600020541115613a38573373ffffffffffffffffffffffffffffffffffffffff166108fc8260090160003373ffffffffffffffffffffffffffffffffffffffff1673ffffffffffffffffffffffffffffffffffffffff168152602001908152602001600020549081150290604051600060405180830381858888f1935050505015156139f057600080fd5b60008160090160003373ffffffffffffffffffffffffffffffffffffffff1673ffffffffffffffffffffffffffffffffffffffff168152602001908152602001600020819055505b5050565b60008060008060006011600087600019166000191681526020019081526020016000209050858160010154826006016000600960009054906101000a9004740100000000000000000000000000000000000000000273ffffffffffffffffffffffffffffffffffffffff191673ffffffffffffffffffffffffffffffffffffffff19168152602001908152602001600020805490508360000160009054906101000a900473ffffffffffffffffffffffffffffffffffffffff169450945094509450509193509193565b613bdf600b8054600181600116156101000203166002900480601f016020809104026020016040519081016040528092919081815260200182805460018160011615610100020316600290048015613b9f5780601f10613b7457610100808354040283529160200191613b9f565b820191906000526020600020905b815481529060010190602001808311613b8257829003601f168201915b50505050506040805190810160405280600881526020017f53616c6172696573000000000000000000000000000000000000000000000000815250611964565b565b80600b9080519060200190613bf7929190615757565b5050565b6000806000809054906101000a900473ffffffffffffffffffffffffffffffffffffffff1673ffffffffffffffffffffffffffffffffffffffff161480613c6b57506000613c696000809054906101000a900473ffffffffffffffffffffffffffffffffffffffff16614972565b145b15613c7c57613c7a600061497d565b505b6000809054906101000a900473ffffffffffffffffffffffffffffffffffffffff1673ffffffffffffffffffffffffffffffffffffffff166338cc48316000604051602001526040518163ffffffff167c0100000000000000000000000000000000000000000000000000000000028152600401602060405180830381600087803b1515613d0957600080fd5b6102c65a03f11515613d1a57600080fd5b5050506040518051905073ffffffffffffffffffffffffffffffffffffffff16600160009054906101000a900473ffffffffffffffffffffffffffffffffffffffff1673ffffffffffffffffffffffffffffffffffffffff16141515613e63576000809054906101000a900473ffffffffffffffffffffffffffffffffffffffff1673ffffffffffffffffffffffffffffffffffffffff166338cc48316000604051602001526040518163ffffffff167c0100000000000000000000000000000000000000000000000000000000028152600401602060405180830381600087803b1515613e0757600080fd5b6102c65a03f11515613e1857600080fd5b50505060405180519050600160006101000a81548173ffffffffffffffffffffffffffffffffffffffff021916908373ffffffffffffffffffffffffffffffffffffffff1602179055505b600160009054906101000a900473ffffffffffffffffffffffffffffffffffffffff1673ffffffffffffffffffffffffffffffffffffffff1663524f3889836000604051602001526040518263ffffffff167c01000000000000000000000000000000000000000000000000000000000281526004018080602001828103825283818151815260200191508051906020019080838360005b83811015613f16578082015181840152602081019050613efb565b50505050905090810190601f168015613f435780820380516001836020036101000a031916815260200191505b5092505050602060405180830381600087803b1515613f6157600080fd5b6102c65a03f11515613f7257600080fd5b505050604051805190509050919050565b613f8b6157eb565b613fb884848460206040519081016040528060008152506020604051908101604052806000815250614e0e565b90509392505050565b60008060008060009054906101000a900473ffffffffffffffffffffffffffffffffffffffff1673ffffffffffffffffffffffffffffffffffffffff161480614033575060006140316000809054906101000a900473ffffffffffffffffffffffffffffffffffffffff16614972565b145b1561404457614042600061497d565b505b6000809054906101000a900473ffffffffffffffffffffffffffffffffffffffff1673ffffffffffffffffffffffffffffffffffffffff166338cc48316000604051602001526040518163ffffffff167c0100000000000000000000000000000000000000000000000000000000028152600401602060405180830381600087803b15156140d157600080fd5b6102c65a03f115156140e257600080fd5b5050506040518051905073ffffffffffffffffffffffffffffffffffffffff16600160009054906101000a900473ffffffffffffffffffffffffffffffffffffffff1673ffffffffffffffffffffffffffffffffffffffff1614151561422b576000809054906101000a900473ffffffffffffffffffffffffffffffffffffffff1673ffffffffffffffffffffffffffffffffffffffff166338cc48316000604051602001526040518163ffffffff167c0100000000000000000000000000000000000000000000000000000000028152600401602060405180830381600087803b15156141cf57600080fd5b6102c65a03f115156141e057600080fd5b50505060405180519050600160006101000a81548173ffffffffffffffffffffffffffffffffffffffff021916908373ffffffffffffffffffffffffffffffffffffffff1602179055505b600160009054906101000a900473ffffffffffffffffffffffffffffffffffffffff1673ffffffffffffffffffffffffffffffffffffffff16632ef3accc86856000604051602001526040518363ffffffff167c01000000000000000000000000000000000000000000000000000000000281526004018080602001838152602001828103825284818151815260200191508051906020019080838360005b838110156142e55780820151818401526020810190506142ca565b50505050905090810190601f1680156143125780820380516001836020036101000a031916815260200191505b509350505050602060405180830381600087803b151561433157600080fd5b6102c65a03f1151561434257600080fd5b505050604051805190509050823a02670de0b6b3a76400000181111561436e5760006001029150614509565b600160009054906101000a900473ffffffffffffffffffffffffffffffffffffffff1673ffffffffffffffffffffffffffffffffffffffff1663c51be90f8260008888886000604051602001526040518663ffffffff167c0100000000000000000000000000000000000000000000000000000000028152600401808581526020018060200180602001848152602001838103835286818151815260200191508051906020019080838360005b8381101561443657808201518184015260208101905061441b565b50505050905090810190601f1680156144635780820380516001836020036101000a031916815260200191505b50838103825285818151815260200191508051906020019080838360005b8381101561449c578082015181840152602081019050614481565b50505050905090810190601f1680156144c95780820380516001836020036101000a031916815260200191505b5096505050505050506020604051808303818588803b15156144ea57600080fd5b6125ee5a03f115156144fb57600080fd5b505050506040518051905091505b509392505050565b6000806000809054906101000a900473ffffffffffffffffffffffffffffffffffffffff1673ffffffffffffffffffffffffffffffffffffffff1614806145815750600061457f6000809054906101000a900473ffffffffffffffffffffffffffffffffffffffff16614972565b145b1561459257614590600061497d565b505b6000809054906101000a900473ffffffffffffffffffffffffffffffffffffffff1673ffffffffffffffffffffffffffffffffffffffff166338cc48316000604051602001526040518163ffffffff167c0100000000000000000000000000000000000000000000000000000000028152600401602060405180830381600087803b151561461f57600080fd5b6102c65a03f1151561463057600080fd5b5050506040518051905073ffffffffffffffffffffffffffffffffffffffff16600160009054906101000a900473ffffffffffffffffffffffffffffffffffffffff1673ffffffffffffffffffffffffffffffffffffffff16141515614779576000809054906101000a900473ffffffffffffffffffffffffffffffffffffffff1673ffffffffffffffffffffffffffffffffffffffff166338cc48316000604051602001526040518163ffffffff167c0100000000000000000000000000000000000000000000000000000000028152600401602060405180830381600087803b151561471d57600080fd5b6102c65a03f1151561472e57600080fd5b50505060405180519050600160006101000a81548173ffffffffffffffffffffffffffffffffffffffff021916908373ffffffffffffffffffffffffffffffffffffffff1602179055505b600160009054906101000a900473ffffffffffffffffffffffffffffffffffffffff1673ffffffffffffffffffffffffffffffffffffffff1663c281d19e6000604051602001526040518163ffffffff167c0100000000000000000000000000000000000000000000000000000000028152600401602060405180830381600087803b151561480757600080fd5b6102c65a03f1151561481857600080fd5b50505060405180519050905090565b61482f6157ff565b600060208301905060408051908101604052808451815260200182815250915050919050565b60008082600001516148798560000151866020015186600001518760200151615246565b0190505b8360000151846020015101811115156148c557818060010192505082600001516148bd856020015183038660000151038386600001518760200151615246565b01905061487d565b5092915050565b6148d46157ff565b6148df838383615302565b5092915050565b6148ee6157eb565b6148f66157eb565b6000836000015160405180591061490a5750595b9080825280601f01601f1916602001820160405250915060208201905061493a81856020015186600001516153a0565b8192505050919050565b60006149518260006153eb565b9050919050565b80600c908051906020019061496e929190615757565b5050565b6000813b9050919050565b60008061499d731d3b2638a7cc9f2cb3d298a3da7a90b67e5506ed614972565b1115614a3e57731d3b2638a7cc9f2cb3d298a3da7a90b67e5506ed6000806101000a81548173ffffffffffffffffffffffffffffffffffffffff021916908373ffffffffffffffffffffffffffffffffffffffff160217905550614a356040805190810160405280600b81526020017f6574685f6d61696e6e65740000000000000000000000000000000000000000008152506156e5565b60019050614e09565b6000614a5d73c03a2615d5efaf5f49f60b7bb6583eaec212fdf1614972565b1115614afe5773c03a2615d5efaf5f49f60b7bb6583eaec212fdf16000806101000a81548173ffffffffffffffffffffffffffffffffffffffff021916908373ffffffffffffffffffffffffffffffffffffffff160217905550614af56040805190810160405280600c81526020017f6574685f726f707374656e3300000000000000000000000000000000000000008152506156e5565b60019050614e09565b6000614b1d73b7a07bcf2ba2f2703b24c0691b5278999c59ac7e614972565b1115614bbe5773b7a07bcf2ba2f2703b24c0691b5278999c59ac7e6000806101000a81548173ffffffffffffffffffffffffffffffffffffffff021916908373ffffffffffffffffffffffffffffffffffffffff160217905550614bb56040805190810160405280600981526020017f6574685f6b6f76616e00000000000000000000000000000000000000000000008152506156e5565b60019050614e09565b6000614bdd73146500cfd35b22e4a392fe0adc06de1a1368ed48614972565b1115614c7e5773146500cfd35b22e4a392fe0adc06de1a1368ed486000806101000a81548173ffffffffffffffffffffffffffffffffffffffff021916908373ffffffffffffffffffffffffffffffffffffffff160217905550614c756040805190810160405280600b81526020017f6574685f72696e6b6562790000000000000000000000000000000000000000008152506156e5565b60019050614e09565b6000614c9d736f485c8bf6fc43ea212e93bbf8ce046c7f1cb475614972565b1115614d0057736f485c8bf6fc43ea212e93bbf8ce046c7f1cb4756000806101000a81548173ffffffffffffffffffffffffffffffffffffffff021916908373ffffffffffffffffffffffffffffffffffffffff16021790555060019050614e09565b6000614d1f7320e12a1f859b3feae5fb2a0a32c18f5a65555bbf614972565b1115614d82577320e12a1f859b3feae5fb2a0a32c18f5a65555bbf6000806101000a81548173ffffffffffffffffffffffffffffffffffffffff021916908373ffffffffffffffffffffffffffffffffffffffff16021790555060019050614e09565b6000614da17351efaf4c8b3c9afbd5ab9f4bbc82784ab6ef8faa614972565b1115614e04577351efaf4c8b3c9afbd5ab9f4bbc82784ab6ef8faa6000806101000a81548173ffffffffffffffffffffffffffffffffffffffff021916908373ffffffffffffffffffffffffffffffffffffffff16021790555060019050614e09565b600090505b919050565b614e166157eb565b614e1e6157d7565b614e266157d7565b614e2e6157d7565b614e366157d7565b614e3e6157d7565b614e466157eb565b614e4e6157d7565b6000808e98508d97508c96508b95508a94508451865188518a518c5101010101604051805910614e7b5750595b9080825280601f01601f1916602001820160405250935083925060009150600090505b8851811015614f51578881815181101515614eb557fe5b9060200101517f010000000000000000000000000000000000000000000000000000000000000090047f0100000000000000000000000000000000000000000000000000000000000000028383806001019450815181101515614f1457fe5b9060200101907effffffffffffffffffffffffffffffffffffffffffffffffffffffffffffff1916908160001a9053508080600101915050614e9e565b600090505b8751811015615009578781815181101515614f6d57fe5b9060200101517f010000000000000000000000000000000000000000000000000000000000000090047f0100000000000000000000000000000000000000000000000000000000000000028383806001019450815181101515614fcc57fe5b9060200101907effffffffffffffffffffffffffffffffffffffffffffffffffffffffffffff1916908160001a9053508080600101915050614f56565b600090505b86518110156150c157868181518110151561502557fe5b9060200101517f010000000000000000000000000000000000000000000000000000000000000090047f010000000000000000000000000000000000000000000000000000000000000002838380600101945081518110151561508457fe5b9060200101907effffffffffffffffffffffffffffffffffffffffffffffffffffffffffffff1916908160001a905350808060010191505061500e565b600090505b85518110156151795785818151811015156150dd57fe5b9060200101517f010000000000000000000000000000000000000000000000000000000000000090047f010000000000000000000000000000000000000000000000000000000000000002838380600101945081518110151561513c57fe5b9060200101907effffffffffffffffffffffffffffffffffffffffffffffffffffffffffffff1916908160001a90535080806001019150506150c6565b600090505b845181101561523157848181518110151561519557fe5b9060200101517f010000000000000000000000000000000000000000000000000000000000000090047f01000000000000000000000000000000000000000000000000000000000000000283838060010194508151811015156151f457fe5b9060200101907effffffffffffffffffffffffffffffffffffffffffffffffffffffffffffff1916908160001a905350808060010191505061517e565b82995050505050505050505095945050505050565b600080600080600088871115156152f0576020871115156152a75760018760200360080260020a031980875116888b038a018a96505b81838851161461529c5760018701965080600188031061527c578b8b0196505b5050508394506152f6565b8686209150879350600092505b868903831115156152ef5786842090508060001916826000191614156152dc578394506152f6565b60018401935082806001019350506152b4565b5b88880194505b50505050949350505050565b61530a6157ff565b60006153288560000151866020015186600001518760200151615246565b9050846020015183602001818152505084602001518103836000018181525050846000015185602001510181141561536a576000856000018181525050615395565b8360000151836000015101856000018181510391508181525050836000015181018560200181815250505b829150509392505050565b60005b6020821015156153c857825184526020840193506020830192506020820391506153a3565b6001826020036101000a0390508019835116818551168181178652505050505050565b60006153f56157d7565b60008060008693506000925060009150600090505b83518110156156c65760307f010000000000000000000000000000000000000000000000000000000000000002848281518110151561544557fe5b9060200101517f010000000000000000000000000000000000000000000000000000000000000090047f0100000000000000000000000000000000000000000000000000000000000000027effffffffffffffffffffffffffffffffffffffffffffffffffffffffffffff19161015801561555d575060397f01000000000000000000000000000000000000000000000000000000000000000284828151811015156154ed57fe5b9060200101517f010000000000000000000000000000000000000000000000000000000000000090047f0100000000000000000000000000000000000000000000000000000000000000027effffffffffffffffffffffffffffffffffffffffffffffffffffffffffffff191611155b1561560e578115615580576000861415615576576156c6565b8580600190039650505b600a830292506030848281518110151561559657fe5b9060200101517f010000000000000000000000000000000000000000000000000000000000000090047f0100000000000000000000000000000000000000000000000000000000000000027f0100000000000000000000000000000000000000000000000000000000000000900403830192506156b9565b602e7f010000000000000000000000000000000000000000000000000000000000000002848281518110151561564057fe5b9060200101517f010000000000000000000000000000000000000000000000000000000000000090047f0100000000000000000000000000000000000000000000000000000000000000027effffffffffffffffffffffffffffffffffffffffffffffffffffffffffffff191614156156b857600191505b5b808060010191505061540a565b60008611156156d85785600a0a830292505b8294505050505092915050565b80600290805190602001906156fb929190615757565b5050565b610100604051908101604052806008905b60008019168152602001906001900390816157105790505090565b8154818355818115116157525781836000526020600020918201910161575191906158b5565b5b505050565b828054600181600116156101000203166002900490600052602060002090601f016020900481019282601f1061579857805160ff19168380011785556157c6565b828001600101855582156157c6579182015b828111156157c55782518255916020019190600101906157aa565b5b5090506157d391906158b5565b5090565b602060405190810160405280600081525090565b602060405190810160405280600081525090565b604080519081016040528060008152602001600081525090565b8154818355818115116158405781836000526020600020918201910161583f91906158da565b5b505050565b602060405190810160405280600081525090565b602060405190810160405280600081525090565b604080519081016040528060008152602001600081525090565b61014060405190810160405280600015158152602001600080191681526020016158af6158ff565b81525090565b6158d791905b808211156158d35760008160009055506001016158bb565b5090565b90565b6158fc91905b808211156158f85760008160009055506001016158e0565b5090565b90565b610100604051908101604052806008905b600080191681526020019060019003908161591057905050905600a165627a7a72305820cadec8dd113300aaacdb058e5225d8fd5deff509b3f79a8957e13dd863238e430029",
  "source": "pragma solidity 0.4.18;\n\nimport \"./lib/oraclize/oraclizeAPI_0.4.sol\";\nimport \"./lib/arachnid/solidity-stringutils/strings.sol\";\n\ncontract PgaDfs is usingOraclize {\n\n  using strings for *;\n\n  struct SlateGolfer {\n    // not storing name,\n    // since we're trying to be minimal with data storage\n    // on ethereum's bloated ass blockchain.\n\n    // increments in 1\n    // salaries are roughly DK salaries / $500\n    // and can be negative!\n    int8 salary;\n\n    // fantasy points at end of tournament\n    int8 points;\n  }\n\n\n  struct Lineup {\n    bool submittedHash;  // true when saved\n    // keccak hash of lineup before revealing\n    // e.g. keccak256(\"21059:94320:85933\")\n    bytes32 golferIdsHash;\n    // MAX of 8 pga tour ids...\n    // you can play less than 8 guys if you want!\n    // e.g. [web3.fromAscii(\"21059\"), web3.fromAscii(\"94320\"), web3.fromAscii(\"85933\")]\n    bytes32[8] golferIds;\n  }\n\n  struct Contest {\n    address owner; // creator of contest\n\n    uint entryFee; // TODO(christian): what units? wei?\n    uint prizePool; // TODO: delete\n    // all money in contest balance, payable to winners\n    mapping (bytes12 => uint) slateIdToPrizePool;\n\n    // yay or nay, is this an active contest\n    // must be not live to delete contest\n    bool live;\n\n    // have we calculated the address balances after contest is over?\n    mapping (bytes12 => bool) slateIdToPayoutsSet;\n\n    // map ETH address --> lineup in contest\n    mapping (bytes12 => address[]) slateIdToEntries;\n\n    mapping (bytes12 => mapping(address => bool)) slateIdToEntered;\n    mapping (bytes12 => mapping(address => int16)) slateIdToAddressScores;\n\n    // ETH address --> how much they recouped\n    // once we confirmed the event ends, then payout!\n    mapping(address => uint) balances;\n  }\n\n\n  event newOraclizeQuery(string description);\n\n  // this is the initializer of the contract\n  // who gets special privaledges:\n  // (1) if oraclize fucks up, you set scores manually\n  // (2) you can spend the extraEther in the contract\n  address public contractAdmin;\n  uint private extraEther;\n  uint private minBal;\n\n  // status (bool): is this oraclize query complete or not?\n  mapping(bytes32 => string) queryIdToCallbackAction;\n\n  // this is the CONSTRUCTOR!\n  // we must initialize the lubrication amount\n  // with the miniumum balance, which can never be recovered\n  function PgaDfs() public payable {\n    require(msg.value >= minBal);\n    // in the constructor (this function), msg.sender is\n    // the owner of the contract\n    contractAdmin = msg.sender;\n    extraEther = msg.value;\n\n    // OAR for ethereum-bridge\n    /* OAR = OraclizeAddrResolverI(0x6f485C8BF6fc43eA212E93BBF8ce046C7f1cb475); */\n    // TODO: tinker with this gas value\n    /* oraclize_setCustomGasPrice(1000000000 wei); */\n\n    // execute a dummy transcaction to make fee estimation\n    // work by burning the free transaction\n    /* oraclize_query(\"URL\", \"json(http://api.fixer.io/latest?symbols=USD,GBP).rates.GBP\"); */\n  }\n\n\n  // N.B. FROM CRYPTO RIC:\n  // if we want to fund money into the \"lubrication account\"\n  // this will allow the contract to function if the price\n  // of ether falls dramatically between querires\n  // and, as a result, because the query fee is charged in USD,\n  // the fee for subsequent queries goes up\n  // this should average out over time,\n  // we charge a small fee to make sure it more likely going up\n  // this fee, over the course of 400 wagers,\n  // should offset the irrecovable minimum balance\n  function deposit() payable external {\n    extraEther += msg.value;\n  }\n\n  // CRYPTO RIC:\n  // if we want to withdraw money from the lubrication account\n  // we can only draw from the extraEther gained,\n  // so as to protect and wall off funds from active wagers\n  // we must leave a minBal of .1 ether to serve as lubrication\n  // this protects people with wagers from us withdrawing\n  // all the lubrication while they have bets in, which\n  // would make them have the potential to fail\n  function withdraw() external {\n    require(msg.sender == contractAdmin);\n\n    if (extraEther - minBal > 0) {\n      contractAdmin.transfer(extraEther - minBal);\n      extraEther = minBal;\n    }\n  }\n\n  // active slate id to key slate/lineup mappings\n  bytes12 slateId;\n  mapping (bytes12 => uint) slateIdToLockTimestamp;\n\n  // format: \"{pgaId}:{salary}\"\n  // example: \"34360:1522955700:15 32102:1522963620:-2\" <-- salaries can be negative!\n  string compressedSalariesUrl = \"\"; // e.g. \"https://s3.amazonaws.com/ethdfs/pga/compressedSalaries/2018/471.json\";\n\n  // format: \"{pgaId}:{rd1}-{rd2}-{rd3}-{rd4}\"\n  // example: \"34360:69-66-67-71 32102:70-72-65-67\"\n  string compressedScoresUrl = \"\"; // e.g. \"https://s3.amazonaws.com/ethdfs/pga/compressedScores/2018/471.json\";\n\n\n  // slate id ==> golfer ids\n  mapping (bytes12 => bytes32[]) slateIdToGolferIds;\n  // slate id ==> pga tour id ==> golfer data (salary, scores, etc.)\n  mapping (bytes12 => mapping(bytes32 => SlateGolfer)) slateIdToSlateGolfers;\n  mapping (bytes12 => mapping (address => Lineup)) slateIdToLineups;\n\n  // contest data\n  bytes32[] contestIds;\n  mapping(bytes32 => Contest) contests;\n\n  // salary cap is 100\n  // salaries are integers and CAN BE NEGATIVE\n  // think mike weir\n  int salaryCap = 100;\n\n  // rake is 2.0% or 20/1000\n  uint rakeTimesOneThousand = 20;\n\n  // is scoring complete for the current slate\n  mapping (bytes12 => bool) slateIdToCompleteScoring;\n\n  function setLineupHash(bytes32 lineupHash) public {\n    // can't change lineup hash after lock\n    require(block.timestamp <= slateIdToLockTimestamp[slateId]);\n    Lineup storage theLineup = slateIdToLineups[slateId][msg.sender];\n    theLineup.golferIdsHash = lineupHash;\n    theLineup.submittedHash = true;\n  }\n\n  // returns: Lineup.golferIdsHash\n  function getLineupHash(address entrantAddress) public view returns (bytes32) {\n    return slateIdToLineups[slateId][entrantAddress].golferIdsHash;\n  }\n\n  function getSlateId() public view returns (bytes12) {\n    return slateId;\n  }\n\n  function getSalary(string pgaId) public view returns (int8) {\n    bytes32 pgaIdBytes32 = toBytes32(pgaId);\n    return slateIdToSlateGolfers[slateId][pgaIdBytes32].salary;\n  }\n\n  // lineups must:\n  // have 8 or less players\n  // total salary must be <= salary cap\n  // can only play the same guy once\n  function revealLineup(string golferIdsColonDelimited) public returns (int16) {\n    require(slateIdToLineups[slateId][msg.sender].golferIdsHash == keccak256(golferIdsColonDelimited));\n\n    var golferIds = new bytes32[](8);\n\n    var golferIdsSlice = golferIdsColonDelimited.toSlice();\n    var delimiter = \":\".toSlice();\n    uint256 golferCount = golferIdsSlice.count(delimiter) + 1;\n\n    // must have 8 or less players\n    require(golferCount <= 8);\n\n    // and salary must be under cap\n    int16 totalSalary = 0;\n    // bytes32 emptyStringAsBytes32 = toBytes32(\"\");\n\n    for (uint8 ii = 0; ii < golferCount; ii++) {\n      // string  --> left padded bytes32\n      // \"29725\" --> \"0x3239373235000000000000000000000000000000000000000000000000000000\"\n      // replicate this with web3.fromAscii('29725')\n      bytes32 golferId = toBytes32(golferIdsSlice.split(delimiter).toString());\n\n      for (uint8 jj = 0; jj < ii; jj++) {\n        require(golferId != golferIds[jj]);\n      }\n      golferIds[ii] = golferId;\n      totalSalary += slateIdToSlateGolfers[slateId][golferId].salary;\n    }\n\n    require(totalSalary <= salaryCap);\n\n    for (ii = 0; ii < golferIds.length; ii++) {\n      slateIdToLineups[slateId][msg.sender].golferIds[ii] = golferIds[ii];\n    }\n\n    return totalSalary;\n  }\n\n  function calculateRake(uint eth) public view returns (uint) {\n    return eth - (eth * rakeTimesOneThousand) / 1000;\n  }\n\n  function createContest(bytes32 contestId) public payable {\n    // contest id cannot be taken already\n    require(!contests[contestId].live);\n    // contest owner must first have lineup hash on chain\n    require(slateIdToLineups[slateId][msg.sender].submittedHash);\n\n    contestIds.push(contestId);\n    contests[contestId] = Contest({\n      owner : msg.sender,\n      // entry fee is AUTOMATICALLY calculated by how much the owner deposits\n      entryFee : msg.value - calculateRake(msg.value),\n      prizePool: 0, // updated in payEntryFeeToContest below\n      live : true\n    });\n    payEntryFeeToContest(contestId, msg.sender, msg.value);\n  }\n\n  function enterContest(bytes32 contestId) public payable {\n    // to enter contest, user must have lineup hash on chain\n    Lineup memory entrantLineup = slateIdToLineups[slateId][msg.sender];\n    require(entrantLineup.submittedHash);\n    payEntryFeeToContest(contestId, msg.sender, msg.value);\n  }\n\n  function payEntryFeeToContest(bytes32 contestId, address msgSender, uint ethEntered) public payable {\n\n    Contest storage activeContest = contests[contestId];\n    if (!activeContest.slateIdToEntered[slateId][msgSender]) {\n      // if they not are already in the contest, pay rake and enter\n      uint rakeToCollect = calculateRake(ethEntered);\n\n      require(ethEntered > activeContest.entryFee + rakeToCollect);\n\n      activeContest.prizePool += activeContest.entryFee;\n      extraEther += rakeToCollect;\n      // if someone sends us extra money,\n      // it goes their balance for the contest\n      // and by default they can get paid out at the end\n      // otherwise they can withdraw\n      activeContest.balances[msgSender] += ethEntered - activeContest.entryFee - rakeToCollect;\n    }\n  }\n\n  // convert a string to bytes32 type using assembly\n  function toBytes32(string memory source) returns (bytes32 result) {\n    bytes memory tempEmptyStringTest = bytes(source);\n    if (tempEmptyStringTest.length == 0) {\n        return 0x0;\n    }\n\n    assembly {\n        result := mload(add(source, 32))\n    }\n}\n\n\n  function setSalaries(string compressedSalaries) public returns (bytes32, string) {\n      require(msg.sender == contractAdmin);\n      // TODO: make internal / only contractAdmin\n      slateIdToCompleteScoring[slateId] = false;\n\n      var compressedSalariesSlice = compressedSalaries.toSlice();\n      var playerDelimiter = \" \".toSlice();\n      var salaryDelimiter = \":\".toSlice();\n      uint playerCount = compressedSalariesSlice.count(playerDelimiter) + 1;\n\n      for (uint8 ii = 0; ii < playerCount; ii++) {\n          var playerColonSalary = compressedSalariesSlice.split(playerDelimiter);\n\n          bytes32 pgaPlayerId = toBytes32(playerColonSalary.split(salaryDelimiter).toString());\n\n          int8 salary = int8(parseInt(playerColonSalary.toString()));\n          return (pgaPlayerId, playerColonSalary.toString());\n\n          slateIdToGolferIds[slateId].push(pgaPlayerId);\n          SlateGolfer storage slateGolfer = slateIdToSlateGolfers[slateId][pgaPlayerId];\n          slateGolfer.salary = salary;\n      }\n  }\n\n  function setScores(string compressedScores) public {\n    // TODO: make internal / only contractAdmin\n    // TODO: really make sure this works\n    // TODO: difference between var and normal types?\n    require(!slateIdToCompleteScoring[slateId]);\n\n    var compressedScoresSlice = compressedScores.toSlice();\n    var playerDelimiter = \" \".toSlice();\n    var playerScoreSlices = new strings.slice[](compressedScoresSlice.count(playerDelimiter) + 1);\n\n    for (uint16 i = 0; i < playerScoreSlices.length; i++) {\n      playerScoreSlices[i] = compressedScoresSlice.split(playerDelimiter);\n      bytes32 pgaPlayerId = toBytes32(playerScoreSlices[i].split(\":\".toSlice()).toString());\n      uint roundSlices = playerScoreSlices[i].count(\"-\".toSlice()) + 1;\n      for (uint rd = 0; rd < roundSlices; rd++) {\n        int8 rdScore = int8(parseInt(playerScoreSlices[i].split(\"-\".toSlice()).toString()));\n        slateIdToSlateGolfers[slateId][pgaPlayerId].points += int8(80) - rdScore;\n      }\n    }\n    slateIdToCompleteScoring[slateId] = true;\n  }\n\n  function setSingleContestPayouts(bytes32 contestId) public {\n    // everyone who scores > max(0, the contest average) gets paid\n    // you are paid proportional to your squared score\n    require(slateIdToCompleteScoring[slateId]);\n\n    Contest storage contest = contests[contestId];\n    require(contest.live);\n    require(!contest.slateIdToPayoutsSet[slateId]);\n\n    int32 totalEntries = int32(contest.slateIdToEntries[slateId].length);\n    int totalPoints = 0;\n\n    // calculate the average score in the contest\n    for (uint8 ii = 0; ii < totalEntries; ii++) {\n      address entry = contest.slateIdToEntries[slateId][ii];\n      bytes32[8] memory entryPgaIds = slateIdToLineups[slateId][entry].golferIds;\n      for (uint8 g = 0; g < entryPgaIds.length; g++) {\n        contest.slateIdToAddressScores[slateId][entry] += slateIdToSlateGolfers[slateId][entryPgaIds[g]].points;\n      }\n      totalPoints += contest.slateIdToAddressScores[slateId][entry];\n    }\n\n    // of the top half (except any of those that scored < 0),\n    // sum up the squared scores\n    int averagePointsRoundedDown = totalPoints / totalEntries;\n    // ugh... only using storage since memory isnt dynamic\n    address[] storage winningEntries;\n    uint summedSquaredWinningScores = 0;\n\n    for (ii = 0; ii < totalEntries; ii++) {\n      entry = contest.slateIdToEntries[slateId][ii];\n      if (contest.slateIdToAddressScores[slateId][entry] >= averagePointsRoundedDown && contest.slateIdToAddressScores[slateId][entry] >= 0) {\n        uint squaredScore = uint(contest.slateIdToAddressScores[slateId][entry] * contest.slateIdToAddressScores[slateId][entry]);\n        winningEntries.push(entry);\n        summedSquaredWinningScores += squaredScore;\n      }\n    }\n\n    // then pay out people proportional to squared points\n    for (ii = 0; ii < winningEntries.length; ii++) {\n      entry = winningEntries[ii];\n      // TODO: make sure there's no rounding error B.S. going on\n      // that makes us massively over or under pay people\n      squaredScore = uint(contest.slateIdToAddressScores[slateId][entry] * contest.slateIdToAddressScores[slateId][entry]);\n      uint toPayout = (contest.prizePool * squaredScore) / summedSquaredWinningScores;\n      contest.balances[entry] += toPayout;\n    }\n\n    contest.slateIdToPayoutsSet[slateId] = true;\n  }\n\n  function withdrawBalanceFromContest(bytes32 contestId) public {\n    Contest storage contest = contests[contestId];\n    if (contest.balances[msg.sender] > 0) {\n      msg.sender.transfer(contest.balances[msg.sender]);\n      contest.balances[msg.sender] = 0;\n    }\n  }\n\n  function payOutContest(bytes32 contestId) public {\n    require(slateIdToCompleteScoring[slateId]);\n\n    Contest storage contest = contests[contestId];\n    require(contest.slateIdToPayoutsSet[slateId]);\n    require(contest.live);\n\n    for (uint ii = 0; ii < contest.slateIdToEntries[slateId].length; ii++) {\n      address entry = contest.slateIdToEntries[slateId][ii];\n      if (contest.balances[entry] > 0) {\n        entry.transfer(contest.balances[entry]);\n        contest.balances[msg.sender] = 0;\n      }\n    }\n    contest.live = false;\n  }\n\n  function _setCompressedScoresUrl(string _compressedScoresUrl) internal {\n    compressedScoresUrl = _compressedScoresUrl;\n  }\n\n  function _setCompressedSalariesUrl(string _compressedSalariesUrl) internal {\n    compressedSalariesUrl = _compressedSalariesUrl;\n  }\n\n  function getSalariesOnChain() public payable {\n    innerOraclizeQuery(compressedSalariesUrl, \"Salaries\");\n  }\n\n  function getScoresOnChain() public payable {\n    innerOraclizeQuery(compressedScoresUrl, \"Scores\");\n  }\n\n  function setScoresUrlAndGetResultsOnChain(string compressedScoresUrl_) public {\n      require(msg.sender == contractAdmin);\n      _setCompressedScoresUrl(compressedScoresUrl_);\n      getScoresOnChain();\n  }\n\n  function setSalariesUrlAndGetSalariesOnChain(string compressedSalariesUrl_) public {\n      require(msg.sender == contractAdmin);\n      _setCompressedSalariesUrl(compressedSalariesUrl_);\n      getSalariesOnChain();\n  }\n\n  function setNewSlateInfo(\n    bytes12 _newSlateId,\n    string _compressedSalariesUrl,\n    string _compressedScoresUrl,\n    uint lockTimestamp\n  ) public {\n    require(msg.sender == contractAdmin);\n    slateId = _newSlateId;\n    slateIdToLockTimestamp[slateId] = lockTimestamp;\n    _setCompressedScoresUrl(_compressedScoresUrl);\n    _setCompressedSalariesUrl(_compressedSalariesUrl);\n  }\n\n  // ========================= ORACLIZE functions =========================\n\n\n  function innerOraclizeQuery(string queryUrl, string callbackAction) public payable {\n    // TODO: make these views\n    uint cost = 2400000000000000 + (oraclize_getPrice(\"URL\") * 3);\n    uint fee = 100000000000000;\n\n    if (msg.value < cost + fee) {\n      newOraclizeQuery(\"Oraclize query failed. Send more ETH (.0025ETH in gas + $.03 per query\");\n      msg.sender.transfer(msg.value);\n    } else {\n      extraEther += msg.value - cost;\n      newOraclizeQuery(\"Oraclize queries were sent, standing by for the answer.\");\n      bytes32 queryId = oraclize_query(\n        \"URL\",\n        strConcat(\"json(\", queryUrl, \").compressedScores\"),\n        600000\n      );\n      queryIdToCallbackAction[queryId] = callbackAction;\n    }\n  }\n\n  // switch function for callbacks\n  function __callback(bytes32 myid, string result) public {\n    require(msg.sender == oraclize_cbAddress());\n    // can't compare string storage pointers and string literals,\n    // so instead let's compare their keccak256 hashes!\n    bytes32 actionHash = keccak256(queryIdToCallbackAction[myid]);\n    if (actionHash == keccak256(\"Salaries\")) {\n      setSalaries(result);\n    }\n    if (actionHash == keccak256(\"Scores\")) {\n      setScores(result);\n    }\n  }\n\n  // CRYPTO RIC:\n  // should anyone wish to be a good blockchain citizen\n  // and delete a wager that is no longer live\n  function deleteContest(bytes32 contestId) external {\n    require(!contests[contestId].live);\n    // can't delete someone else's contest\n    require(msg.sender == contests[contestId].owner);\n    delete contests[contestId];\n  }\n\n  function getLiveContestIds() public view returns (bytes32[]) {\n    bytes32[] storage liveContestIds;  // why must use storage?\n    for (uint ii = 0; ii < contestIds.length; ii++) {\n      bytes32 contestId = contestIds[ii];\n      if (contests[contestId].live) {\n        liveContestIds.push(contestId);\n      }\n    }\n    return liveContestIds;\n  }\n\n  function getContestById(bytes32 contestId) public view returns (\n      bytes32,\n      uint,\n      uint,\n      address\n    ) {\n      Contest storage contest = contests[contestId];\n      return (\n          contestId,\n          contest.entryFee,\n          contest.slateIdToEntries[slateId].length,\n          contest.owner\n        );\n    }\n\n  function testFunction() public view returns (string) {\n    return 'test';\n  }\n}\n",
  "sourcePath": "/Users/christiandrappi/workspace/ddfs/contracts/PgaDfs.sol",
  "compiler": {
    "name": "solc",
    "version": "0.4.18+commit.9cf6e910.Emscripten.clang"
  },
  "schemaVersion": "2.0.1",
  "updatedAt": "2018-07-23T22:50:25.147Z"
}